:020000040000FA
:100000000C946E000C9496000C9496000C94960040
:100010000C9496000C9496000C9496000C94960008
:100020000C9496000C9496000C9496000C949600F8
:100030000C9496000C9496000C9496000C949600E8
:100040000C94120D0C9496000C9496000C9496004F
:100050000C9496000C9496000C9496000C949600C8
:100060000C945C0D0C94960032323A32353A3434AA
:100070000044656320203920323032350000000012
:1000800000240027002A0000000000250028002B83
:1000900000000000002300260029000404040404DA
:1000A0000404040202020202020303030303030125
:1000B00002040810204080010204081020010204FC
:1000C00008102000000008000201000003040700DF
:1000D00000000000000000007B0EAD1111241FBEC7
:1000E000CFEFD8E0DEBFCDBF23E0A8EFB1E001C085
:1000F0001D92A139B207E1F711E0A0E0B1E0E2EF13
:10010000FDE202C005900D92A83FB107D9F710E0BB
:10011000CDE6D0E004C02197FE010E944A12CC3601
:10012000D107C9F70E94320F0C94EC160C94000012
:1001300096E0899FD0011124AA5FBC4F90967C93D2
:100140006E935F9791E091969C939197E0917303E2
:10015000F091740390917203992339F0309751F024
:10016000811108C0809122030994309719F05C96A0
:100170008C91FACF0895833081F028F4813099F082
:100180008230A9F008958730A9F08830C9F0843012
:10019000B1F4809180008F7D03C0809180008F77C3
:1001A00080938000089584B58F7784BD089584B5C9
:1001B0008F7DFBCF8091B0008F778093B000089542
:1001C0008091B0008F7DF9CFCF93DF93282F30E05F
:1001D000F901ED53FF4F8491F901E155FF4FD4919F
:1001E000F901E556FF4FC491CC23A1F081110E9483
:1001F000BB00EC2FF0E0EE0FFF1FEF56FF4FA59175
:10020000B491EC91ED2381E090E009F480E0DF917E
:10021000CF91089580E090E0FACF1F93CF93DF93C2
:10022000282F30E0F901ED53FF4F8491F901E1559A
:10023000FF4FD491F901E556FF4FC491CC23A9F0AB
:10024000162F81110E94BB00EC2FF0E0EE0FFF1F74
:10025000E957FF4FA591B4918FB7F894EC91111124
:1002600008C0D095DE23DC938FBFDF91CF911F9123
:100270000895DE2BF8CFCF93DF9390E0FC01E1559A
:10028000FF4F249185569F4FFC0184918823C9F02C
:1002900090E0880F991FFC01E358FF4FA591B4919E
:1002A000FC01E957FF4FC591D49161110DC09FB773
:1002B000F8948C91209582238C938881282328831D
:1002C0009FBFDF91CF910895623051F49FB7F894AA
:1002D0003C91822F809583238C93E8812E2BEFCF46
:1002E0008FB7F894EC912E2B2C938FBFEACF3FB7AA
:1002F000F8948091580290915902A0915A02B091BD
:100300005B0226B5A89B05C02F3F19F00196A11DE1
:10031000B11D3FBFBA2FA92F982F8827BC01CD014F
:10032000620F711D811D911D42E0660F771F881FAE
:10033000991F4A95D1F708958F929F92AF92BF92DD
:10034000CF92DF92EF92FF924B015C010E94770106
:100350006B017C010E9477016C197D098E099F0950
:10036000683E734081059105A8F321E0821A910847
:10037000A108B10888EEC80E83E0D81EE11CF11C6C
:1003800081149104A104B10429F7FF90EF90DF904C
:10039000CF90BF90AF909F908F9008952FB7F89413
:1003A00060915402709155028091560290915702CB
:1003B0002FBF08950F931F93CF93DF93C82FD62F8E
:1003C00086E0C89FF0011124EA5FFC4F11A2878DDF
:1003D00090A181309105F1F058F082309105F1F152
:1003E000039709F440C0DF91CF911F910F910895B9
:1003F0006623C9F361E070E08C2F0E9498000E9490
:10040000CE0160935E0370935F03809360039093CB
:100410006103E9CF0E94CE0100915E0310915F035A
:100420002091600330916103AB01BC01401B510B73
:10043000620B730B8091700390917103B0E0A0E0A8
:1004400084179507A607B70748F462E070E08C2F81
:10045000DF91CF911F910F910C94980063E070E0B1
:10046000D111C1CFF4CF70E060E0F1CF08950895CD
:100470000895AF92BF92CF92DF92EF92FF920F93C7
:100480001F93CF93DF936C017B018B01040F151F2A
:10049000EB015E01AE18BF08C017D10759F0699192
:1004A000D601ED91FC910190F081E02DC6010995F6
:1004B000892B79F7C501DF91CF911F910F91FF90A3
:1004C000EF90DF90CF90BF90AF900895862F0C945F
:1004D000E400862F642F0C940D01862F642F0C945A
:1004E0003B01FC01908190539A3008F090E08181AB
:1004F00080532AE0929F800D1124089520912A02B2
:10050000260F3327331F21323105ECF42091A60248
:10051000FC0190E080E0243069F082E00895A09131
:100520002A022191AC01465F5D4FA40FB52FB11D8A
:100530002C930196861798F380912A02680F609396
:100540002A0280E0089581E008951092A60281E0D9
:100550008093A5021092800261E082E10E940D0169
:1005600061E083E10E940D01E9EBF0E080818E7F84
:10057000808380818D7F808388E48093B80085E4C8
:100580008093BC000895CF93DF9391E0909309028C
:100590008823B9F0C091B800D091BA008091BC0016
:1005A0008A7B8093BC0060E082E10E940D0160E0E4
:1005B00083E10E940D010E94A502D093BA00C0936E
:1005C000B800DF91CF9108958F929F92AF92BF9222
:1005D000CF92DF92EF92FF920F931F93CF93DF930F
:1005E000D091CF02D13208F0D7C0182FC091CE02DF
:1005F0000E9477016B017C018091A60281116BC082
:1006000082E08093A6021093A5028FEF8093A4024C
:100610001092A302D093A202AEEAB2E0E2E8F2E0C6
:1006200080E0D81391C01092810280918102CC0F9A
:10063000C82BC093810280918002813009F088C06C
:10064000109280020E9477016B017C0180918102EF
:100650008093BB008091A8029091A902A091AA0268
:10066000B091AB02892B8A2B8B2BA1F00E947701D2
:100670000091A8021091A9022091AA023091AB0228
:100680006C197D098E099F09061717072807390776
:1006900008F442C08091BC0083FDD8CF85EC8093E4
:1006A000BC000E9477016B017C018091A602823020
:1006B00009F450C08091A4028F3F09F46FC080916B
:1006C000A402803209F46CC08091A402803309F442
:1006D00069C084E026C08091A8029091A902A091EF
:1006E000AA02B091AB02892B8A2B8B2B09F484CF01
:1006F0000E9477018090A8029090A902A090AA027F
:10070000B090AB026C197D098E099F098616970679
:10071000A806B90608F070CF8091A7020E94C30214
:1007200085E01092AD021092CF021092AC02DF91E0
:10073000CF911F910F91FF90EF90DF90CF90BF90DE
:10074000AF909F908F9008959D9191938F5F69CF07
:1007500085EEA5CF8091A8029091A902A091AA024E
:10076000B091AB02892B8A2B8B2B09F49ECF0E9470
:1007700077010091A8021091A9022091AA0230915C
:10078000AB026C197D098E099F0906171707280708
:10079000390708F08ACFC0CF81E0C3CF80E0C1CF56
:1007A00082E0BFCF83E0BDCF1F93CF93DF93EA01F9
:1007B000122FDC0111968D919C91DC01ED91FC9141
:1007C0000280F381E02D0995C817D90729F4812FFC
:1007D0000E94E40291E0811190E0892FDF91CF9196
:1007E0001F910895CF93DF93EC018B818823A1F0B3
:1007F000888191E09093AC028093CE021092AD027A
:100800001092CF0281E00E94E40291E0811190E019
:10081000892FDF91CF91089510925F0210925E02AE
:100820001092AD021092CF020E94A50286E392E0E0
:100830009093500280934F0287E392E090934E0290
:1008400080934D0281E08B83CE010E94F203982FAA
:100850008111CECFDDCF0895E0915F0280915E02DD
:10086000E81730F4F0E0E05AFD4F808190E0089501
:100870008FEF9FEF089590915F0280915E022FEFBE
:100880003FEF981748F4E92FF0E0E05AFD4F208140
:1008900030E09F5F90935F02C901089580915E02EE
:1008A00090915F02891B990B0895CF92DF92EF928E
:1008B000FF920F931F93CF93DF937C01CB018A01AB
:1008C0002091AC02222389F0EB016B01C40ED51EEE
:1008D000CC15DD0569F06991D701ED91FC9101908E
:1008E000F081E02DC7010995F3CF642F0E947E02AD
:1008F000C801DF91CF911F910F91FF90EF90DF9092
:10090000CF900895CF93DF931F92CDB7DEB7698361
:100910002091AC022223F9F02091CF02203258F02E
:1009200021E030E0FC013383228390E080E00F90EF
:10093000DF91CF9108958091AD02E82FF0E0E2556C
:10094000FD4F998190838F5F8093AD028093CF029A
:1009500081E090E0ECCF61E0CE0101960E947E0242
:10096000F7CF90E080E008952F923F924F925F92F0
:100970006F927F928F929F92AF92BF92CF92DF92AF
:10098000EF92FF920F931F93CF93DF935C011B01B4
:100990006A01F12CE12CD50114968D919C91860170
:1009A0000E191F098017910708F48C01F501D081F9
:1009B0000E9477012B013C018091A602811172C037
:1009C000C02F013208F0C0E2F1E0F093A60221E06E
:1009D000C601801B910BE816F90608F420E020936D
:1009E000A5028FEF8093A4021092A3028C0F809334
:1009F000A202A1E0A093810280918102DD0FD82B99
:100A0000D093810280918002813009F090C01092D1
:100A100080020E9477012B013C018091810280932A
:100A2000BB008091A8029091A902A091AA02B09166
:100A3000AB02892B8A2B8B2BA1F00E94770120918E
:100A4000A8023091A9024091AA025091AB02641908
:100A5000750986099709261737074807590708F4C3
:100A600042C08091BC0083FDD8CFB5ECB093BC00F0
:100A70000E9477012B013C018091A602813009F48C
:100A80005AC08091A3028C1710F4C091A302A2E86F
:100A9000B2E0E0E6F2E080E08C1751F19D91919395
:100AA0008F5FFACF8091A8029091A902A091AA022B
:100AB000B091AB02892B8A2B8B2B09F47DCF0E943E
:100AC00077012091A8023091A9024091AA02509189
:100AD000AB02641975098609970926173707480775
:100AE000590708F069CF8091A7020E94C302C0E0B5
:100AF00010925F02C0935E02C017110609F057C042
:100B000041018E0C9F1CE401CE01881999098017C0
:100B1000910798F5D50111968D919C91DC01ED918D
:100B2000FC910284F385E02D09958993EDCFE5EEE4
:100B3000E093BC009DCF8091A8029091A902A09162
:100B4000AA02B091AB02892B8A2B8B2B09F494CF8C
:100B50000E9477012091A8023091A9024091AA0237
:100B60005091AB0264197509860997092617370752
:100B70004807590708F080CFB6CFE00EF11EEC14FD
:100B8000FD0408F408CF81E0DF91CF911F910F9110
:100B9000FF90EF90DF90CF90BF90AF909F908F909D
:100BA0007F906F905F904F903F902F90089580E0DE
:100BB000EBCFEF92FF920F931F93CF93DF9300D071
:100BC00000D000D01F92CDB7DEB78C011982E09023
:100BD0005C02F0905D02D70114968D919C9115975F
:100BE000892BE9F08C9191E09093AC028093CE0236
:100BF0001092AD021092CF0220E041E050E0BE0121
:100C00006F5F7F4FC7010E94D403882341F047E004
:100C100050E0BE016F5F7F4FC7010E94B404E981BD
:100C2000EF77FA81FB804D815E818F81282F30E044
:100C300094E0359527959A95E1F7922F990F990FA2
:100C4000291B220F280FD8012C93852F90E024E038
:100C5000959587952A95E1F7982F990F990F891BFC
:100C6000880F850F11968C931197642F70E034E0F4
:100C7000759567953A95E1F7862F880F880F681B61
:100C8000660F640F12966C9312974F2D50E064E03C
:100C9000559547956A95E1F7842F880F880F481B73
:100CA000440F4F0D13964C9313972F2F30E074E0A1
:100CB000359527957A95E1F7822F880F880F281BA5
:100CC000220F2F0F14962C9314978E2F90E0F4E0A0
:100CD00095958795FA95E1F7982F990F990F891BAC
:100CE000880F8E0F15968C93C80127960FB6F8942F
:100CF000DEBF0FBECDBFDF91CF911F910F91FF904F
:100D0000EF900895CF93DF93EC0160E08E810E9415
:100D10000D0161E08E810E940D0160E08E810E94D4
:100D20000D018BE891E00197F1F7DF91CF910895E4
:100D3000CF92DF92EF92FF920F931F93CF93DF93A7
:100D40006C017C0187E0E80EF11CD0E0C0E0062FCA
:100D500010E0B8010C2E02C0759567950A94E2F771
:100D60006170F70181917F010E940D012196C430CD
:100D7000D10579F7C601DF91CF911F910F91FF90B7
:100D8000EF90DF90CF900C948206CF92DF92EF929B
:100D9000FF920F931F93CF93DF93EC01F62E642FF6
:100DA0008C810E940D018D818F3F19F060E00E94BF
:100DB0000D010F2D10E08F8584FF25C06E0187E0A7
:100DC000C80ED11CF12CE12CB8010E2C02C0759577
:100DD00067950A94E2F76170F60181916F010E94B4
:100DE0000D01FFEFEF1AFF0A88E0E816F10461F742
:100DF000CE01DF91CF911F910F91FF90EF90DF9087
:100E0000CF900C948206B80184E0759567958A9519
:100E1000E1F7CE010E9498066F2DCE01DF91CF91B0
:100E20001F910F91FF90EF90DF90CF900C94980658
:100E300040E0682F85E793E00C94C506CF93DF93DD
:100E4000823029F490918403986090938403809376
:100E500088031092890380E480938A0380E1809361
:100E60008B0380E580938C0361E0809179030E947D
:100E70003B0180917A038F3F19F061E00E943B01B2
:100E800061E080917B030E943B01C5E7D3E09E01B6
:100E9000255733408091840384FD0BC084E090E0AB
:100EA00021962817390744F461E08E810E943B01A6
:100EB000EECF88E090E0F4CF8BE39DE00197F1F76F
:100EC00060E0809179030E940D0160E080917B03D6
:100ED0000E940D0180917A038F3F19F060E00E941B
:100EE0000D018091840384FD39C063E085E793E0C0
:100EF0000E949806CBE4D6E4CE010197F1F763E0B7
:100F000085E793E00E9498062197F1F763E085E773
:100F100093E00E94980683E592E00197F1F762E082
:100F200085E793E00E9498068091840380620E9486
:100F3000180784E0809385038CE00E94180781E005
:100F40000E9418078BE39FE10197F1F782E08093FD
:100F5000860386E0DF91CF910C94180780620E948F
:100F600018078BE496E40197F1F78091840380627F
:100F70000E94180783E592E00197F1F780918403BE
:100F800080620E941807D0CF90918803691710F0F3
:100F90006FEF690FE62FF0E0EB58FC4F9489890F53
:100FA00080680C94180741E00E94C50681E090E03B
:100FB0000895FC0101900020E9F73197AF01481B2B
:100FC000590BBC0185E793E00C94390261E080E0A5
:100FD0000E94C40780910101882341F083E491E0DD
:100FE0000E94D90781E080930001089584E591E093
:100FF000F7CFCF93DF93EC0188819981009711F0AF
:101000000E94EC12198218821D821C821B821A8295
:10101000DF91CF910895FC0180819181009711F0BB
:101020000C94EC120895FC0124813581FB0144816C
:10103000558124173507E1F4FC0180819181FB0182
:10104000608171810097D1F061157105A1F4232BA6
:10105000C1F0FC01808190E008C0232B91F0FB01DE
:10106000808190E091958195910921E0892B09F08B
:1010700020E0822F08950E943B14F7CF611571057F
:1010800061F721E0F6CF0F931F93CF93DF93EC012D
:1010900088819981009759F02A813B81261737076B
:1010A00030F081E0DF91CF911F910F9108958B0176
:1010B0006F5F7F4F0E947513009759F09983888363
:1010C0001B830A832C813D81232B59F7FC0110825D
:1010D000E8CF80E0E7CFEF92FF920F931F93CF937B
:1010E000DF93EC017B018A01BA010E944308811160
:1010F0000BC0CE010E94F907CE01DF91CF911F9165
:101100000F91FF90EF9008951D830C83B7018881A4
:1011100099810E944414F0CFFB0101900020E9F76F
:101120003197AF01461B570B0C946B08FC011182E1
:1011300010821382128215821482FB01019000201A
:10114000E9F73197AF01461B570B0C946B08EF92F0
:10115000FF920F931F93CF93DF9300D000D000D066
:10116000CDB7DEB77C018B0161E080E00E94C4074F
:101170001A8219821C821B821E821D82F7016081E5
:1011800071816115710531F044815581CE0101965F
:101190000E946B08ED80FE80F0E1EF0EF11CB701BC
:1011A000CE0101960E9443088823E1F129813A810A
:1011B0008D819E8165E671E0820F931F0E94441429
:1011C000FE82ED824D815E8169817A8185E793E0BF
:1011D0000E943902CE0101960E940B0881E08093A3
:1011E00003020E94CE01012E000C220B330BDC0106
:1011F000CB01800F911FA21FB31F8093FD0190931D
:10120000FE01A093FF01B093000226960FB6F8945A
:10121000DEBF0FBECDBFDF91CF911F910F91FF9029
:10122000EF900895CE0101960E94F907CBCF85ED8E
:101230008093BC008091A8029091A902A091AA027B
:10124000B091AB020796A11DB11D23E0B695A795FD
:10125000979587952A95D1F72091BC0024FD03C06E
:101260001092A60208954091A8025091A90260919F
:10127000AA027091AB02452B462B472B69F30097CE
:10128000A105B10541F02AE22A95F1F700C00197C6
:10129000A109B109E1CF8091A7020C94C302E4E057
:1012A000F2E085E0DF011D928A95E9F710920202D3
:1012B0001092010208958F929F92AF92BF92CF92A7
:1012C000DF92EF92FF920F931F93CF93DF93CDB7EF
:1012D000DEB765970FB6F894DEBF0FBECDBF0E9494
:1012E000CE014B015C0180910302882321F18091A2
:1012F000FD019091FE01A091FF01B09100028816BE
:101300009906AA06BB0620F0109203020E94E60787
:1013100065960FB6F894DEBF0FBECDBFDF91CF91BB
:101320001F910F91FF90EF90DF90CF90BF90AF9003
:101330009F908F90089580910102811179C08091D2
:10134000F9019091FA01A091FB01B091FC01A50176
:101350009401281B390B4A0B5B0BDA01C9018D374D
:101360009105A105B10508F463C060E080E00E942A
:10137000C407CE010A960E94D9058F851F928F93CC
:101380008E851F928F938D851F928F9386E791E0B4
:101390009F938F938E010F5F1F4F1F930F930E9498
:1013A0004B14B801CE0140960E94960865E871E0A2
:1013B000C8010E949608C888D9880FB6F894DEBF85
:1013C0000FBECDBFC114D10409F452C0EC88FD8812
:1013D000E114F104B1F08D819E81E80EF91EB70190
:1013E000C8010E944308882309F442C029813A8138
:1013F0008D819E81B601820F931F0E944414FE824C
:10140000ED824D815E8169817A8185E793E00E945A
:101410003902C8010E940B08CE0140960E940B08B9
:101420008092F9019092FA01A092FB01B092FC0126
:1014300010910101112301F161E08EE00E940D0184
:1014400060E08FE00E940D018091F801181709F407
:101450005FCF8091020281115BCF809101028111E7
:1014600057CF0E94E607809101018093F80150CF89
:10147000C8010E94F907C5CF60E08EE00E940D010F
:1014800061E0DFCFCF93DF9300D000D000D0CDB7A5
:10149000DEB76091EE027091EF0284E092E00E946C
:1014A0003B1468E971E0892B31F4109201010E942C
:1014B0005B096CE871E0CE0101960E94960864EF2A
:1014C00071E0CE0101960E94A708CE0101960E940C
:1014D0000B080E944F0926960FB6F894DEBF0FBE88
:1014E000CDBFDF91CF9108954F925F926F927F921F
:1014F0008F929F92AF92BF92CF92DF92EF92FF9224
:101500000F931F93CF93DF9300D000D000D0CDB7BF
:10151000DEB781E0809372030E94CE0100916203E6
:10152000109163032091640330916503AB01BC010A
:10153000401B510B620B730B80916E0390916F03F4
:10154000B0E0A0E084179507A607B70708F074C1BC
:1015500010E080916C03181760F4E0916803F0913B
:101560006903E10FF11D62E080810E943B011F5F72
:10157000F0CF912C412C512C3201439480916D037A
:10158000981608F061C0E92CF12CE0916A03F09103
:101590006B03EE0DFF1D61E080810E943B01E09135
:1015A0006A03F0916B03EE0DFF1D60E080810E94E5
:1015B0000D01D301C201092C04C0880F991FAA1F75
:1015C000BB1F0A94D2F75C016C01C094D094812CAB
:1015D00080916C03881608F5082D10E0E0916803EF
:1015E000F0916903E00FF11F80810E94E4000C5F1D
:1015F0001F4F000F111FF801EA5FFC4F892B41F4C8
:10160000808191818A299B29918380838394E0CF73
:10161000808191818C219D21F7CFE0916A03F09127
:101620006B03EE0DFF1D61E080810E940D01809132
:101630006A0390916B03E80EF91E60E0F701808168
:101640000E943B0193949ACF26E0C22E23E0D22E33
:1016500086018FEF9FEFF801278D30A1232B21F416
:10166000148E968F858F11A20A5F1F4FF3E002340C
:101670001F0789F7B12C96E0992E80916C03B8165C
:1016800008F052C0A12CEB2CF12CEE0CFF1CC70172
:10169000825F9C4F7C0120916D03A21608F042C02E
:1016A000F701608171810A2C02C0769567950A94D2
:1016B000E2F7B29E900111242A0D311DE6E0F3E01D
:1016C00080E0458D568D2417350709F440C18F5FA2
:1016D00036968A30B1F760FF23C0E6E0F3E090E091
:1016E00080E0448D411117C0E0916603F0916703DB
:1016F000E20FF31F4081989EF001999EF00D112496
:10170000EA5FFC4F448F368F258F10A2178E61E061
:101710000E94DA0105C0019636968A30910509F7D4
:10172000A394B9CFB394A9CFF12CF60181A1811173
:10173000F82EF6E0CF0ED11C0C151D05B1F70E9456
:10174000CE0160936203709363038093640390936C
:101750006503FF2009F470C080912703882309F4F2
:101760006BC08091250390912603019709F064C016
:1017700000912203011163C087E00E94E4000197F9
:1017800029F56FEB71E0CE0101960E9496086CE29C
:1017900071E0CE0101960E94A708CE0101960E9439
:1017A0000B088091F2029091F302059740F460914A
:1017B000EE027091EF0284E092E00E9444140E94D5
:1017C000420A87E00E94E4000197D9F380E10E9479
:1017D000E400019751F4109201010E945B096AE054
:1017E00070E080E090E00E949C0181E10E94E400B2
:1017F000019759F481E0809301010E945B096AE03E
:1018000070E080E090E00E949C0126960FB6F8946C
:10181000DEBF0FBECDBFDF91CF911F910F91FF9023
:10182000EF90DF90CF90BF90AF909F908F907F9080
:101830006F905F904F900895109272039DCF8091AA
:101840000302882321F0109203020E94E60703326C
:1018500099F40E944F0964EA71E0CE0101960E945A
:10186000960868EC70E0CE0101960E94A708CE01B0
:1018700001960E940B0880CF0A3269F5809102021E
:10188000882321F1815080930202E82FF0E0EC5F81
:10189000FD4F108261E00E94C40784E791E00E943E
:1018A000D9071091020261E0812F0E94C407111133
:1018B00063CF1092010260E080E00E94C40785E6D9
:1018C00091E00E94D9070E945B0956CF0E944F0900
:1018D0000E94E60751CF8091010281110BC081E087
:1018E0008093010260E080E00E94C4078EEA91E0EC
:1018F0000E94D90780910001882371F061E080E0A7
:101900000E94C40785E691E00E94D90761E080E06B
:101910000E94C4071092000110910202143008F0D6
:101920002BCFE12FF0E0EC5FFD4F008341E0602F13
:1019300085E793E00E94C5061F5F109302021430F2
:1019400009F01ACF109208020E94420A15CF617066
:10195000DFCE8F929F92AF92BF92CF92DF92EF92A3
:10196000FF926B017C0183E0F694E794D794C794CF
:101970008A95D1F70E94CE014B015C010E94CE01F5
:10198000681979098A099B096C157D058E059F05E3
:1019900028F40E945B090E94740AF0CFFF90EF9038
:1019A000DF90CF90BF90AF909F908F900895EF926F
:1019B000FF920F931F93CF93DF93CDB7DEB72C9792
:1019C0000FB6F894DEBF0FBECDBF7C01CE010196ED
:1019D0000E94D9058D811F928F938C811F928F93C6
:1019E0008BE791E09F938F938E01095F1F4F1F93A9
:1019F0000F930E944B14B801C7010E9496080FB6BE
:101A0000F894DEBF0FBECDBFC7012C960FB6F89479
:101A1000DEBF0FBECDBFDF91CF911F910F91FF9021
:101A2000EF9008951F920F920FB60F9211242F93EB
:101A30003F938F939F93AF93BF9380915402909164
:101A40005502A0915602B09157023091530223E003
:101A5000230F2D3758F50196A11DB11D2093530278
:101A60008093540290935502A0935602B09357026C
:101A70008091580290915902A0915A02B0915B0254
:101A80000196A11DB11D8093580290935902A09315
:101A90005A02B0935B02BF91AF919F918F913F919A
:101AA0002F910F900FBE0F901F90189526E8230FCF
:101AB0000296A11DB11DD2CF1F920F920FB60F92A9
:101AC00011242F933F934F935F936F937F938F9343
:101AD0009F93AF93BF93EF93FF938091B900887F5B
:101AE000803609F44AC0F0F5883209F4A7C018F529
:101AF000803109F49BC0B8F4882309F4F9C0883018
:101B000009F494C0FF91EF91BF91AF919F918F9194
:101B10007F916F915F914F913F912F910F900FBEE9
:101B20000F901F901895883109F488C0803251F7C2
:101B30008093A40214C0803409F49DC040F4803323
:101B4000B9F38833F9F68093A40285ECB0C08035F0
:101B500009F485C0883509F496C0883499F60E9446
:101B60001709D0CF883909F48CC038F5883729F0A7
:101B700050F4883611F0803729F683E08093A6026E
:101B800010924C0257C0883809F47BC0803919F094
:101B9000803809F0B7CF80914C02803208F071C0D4
:101BA000E0914C0281E08E0F80934C028091BB004B
:101BB000F0E0E45DFD4F80833DC0803B39F0E0F410
:101BC000803A09F479C0883A09F09CCF84E0809388
:101BD000A60210922B0210922A02E0914F02F0917D
:101BE0005002099580912A0281110FC081E08093F3
:101BF0002A0210920A0209C0803C09F4A6CF883C50
:101C000009F4A3CF883B09F07DCFE0912B0281E05E
:101C10008E0F80932B02F0E0E65FFD4F8081809372
:101C2000BB0090912B0280912A0229C080918102F1
:101C30008093BB0085EC8093BC0064CF9091A3029D
:101C40008091A202981758F5E091A30281E08E0FCF
:101C50008093A302F0E0EE57FD4F8081E9CFE09141
:101C6000A30281E08E0F8093A3028091BB00F0E07D
:101C7000EE57FD4F80839091A3028091A2029817A6
:101C8000C8F285E8D8CFE091A30281E08E0F80935F
:101C9000A3028091BB00F0E0EE57FD4F808380915E
:101CA000A50281115CCF81E08093800284EA809359
:101CB000BC001092A60226CF85EC8093BC00109247
:101CC000A60280914C02803230F4E0914C02F0E0A8
:101CD000E45DFD4F108260914C0270E0E0914D0296
:101CE000F0914E028CE292E0099510924C020ACFDC
:101CF0001092A40234CF1092D3021092D20288EE36
:101D000093E0A0E0B0E08093D4029093D502A0933A
:101D1000D602B093D7028FE191E09093D1028093E5
:101D2000D00210927803109277038BE391E09093A6
:101D300076038093750388E0809379038FEF809317
:101D40007A0389E080937B038AE080937C038BE0B5
:101D500080937D038CE080937E038DE080937F03EE
:101D600010928003109281031092820310928303D9
:101D70001092840381E00E941E07109208031092C3
:101D80000C0310920B0310920D0381E391E09093EA
:101D9000070380930603E2E2F3E0108214821382C9
:101DA0001582369683E0EE35F807B9F785E091E0C5
:101DB000909369038093680382E091E090936B03B2
:101DC00080936A0384E080936C0383E080936D03C7
:101DD00089E091E090936703809366038AE090E046
:101DE00090936F0380936E0384EF91E0909371035F
:101DF0008093700310927403109273031092620325
:101E000010926303109264031092650310927203A0
:101E100065E771E080E093E00E94960865E771E075
:101E20008AEF92E00E94960865E771E084EF92E005
:101E30000E94960865E771E08EEE92E00E94960897
:101E400065E771E088EE92E00E94960865E771E030
:101E500082EE92E00E94960865E771E08CED92E0D8
:101E60000C949608CF93DF93CDB7DEB769970FB682
:101E7000F894DEBF0FBECDBF789484B5826084BD78
:101E800084B5816084BD85B5826085BD85B581607E
:101E900085BD80916E00816080936E0010928100FC
:101EA00080918100826080938100809181008160B7
:101EB0008093810080918000816080938000809178
:101EC000B10084608093B1008091B0008160809304
:101ED000B00080917A00846080937A0080917A00CB
:101EE000826080937A0080917A00816080937A008A
:101EF00080917A00806880937A001092C10082E01D
:101F00000E941E078EEC91E00E94D90762E370E008
:101F100080E090E00E949C0181E00E9418078BE322
:101F20009FE10197F1F761E08EE00E943B0161E0E3
:101F30008FE00E943B0160E080E10E943B0160E095
:101F400081E10E943B0160E087E00E943B018091BB
:101F50005C0290915D02009711F00E94EC1286E005
:101F600090E00E9450128C0188E6F801808380ED99
:101F700092E092838183138280E290E09583848350
:101F800010935D0200935C0210925F0210925E0259
:101F90001092AD021092CF020E94A50286E392E059
:101FA0009093500280934F0287E392E090934E0209
:101FB00080934D0281E0F8018383C8010E94F203FF
:101FC000811107C061E00E94C4078CED91E00E947E
:101FD000D907198E80915C0290915D02FC012481E9
:101FE0003581232B91F0208131E03093AC02209396
:101FF000CE021092AD021092CF0221E041E050E0FB
:10200000BE01675E7F4F0E94D40341E050E08E0125
:102010000F5F1F4FB80180915C0290915D020E949A
:10202000B404898190E0880F892F881F990B892B30
:1020300009F49DC04BE050E061E770E0C8010E94E8
:10204000C911CE010A960E947102E82EE981E1547D
:10205000E331E0F40E2E000CFF0BEF5CFF4E0C940E
:102060004A1276114610461091114610441046103F
:10207000461046106711461046107F118E118B11C5
:102080004610461046108811A2E0FA2ECE010596A1
:102090000E947102D82E48E050E068E670E0C80166
:1020A0000E94C911C8010E947102C82ECE01049677
:1020B0000E947102B82ECE0107960E947102382F3D
:1020C00086E0F80111928A95E9F72AE0832F622FC2
:1020D0000E943E12982F880F890F880F830F8A83E2
:1020E0008B2D0E943E12982F880F890F880F8B0D21
:1020F0008B838C2D0E943E12982F880F890F880F9A
:102100008C0D8C838D2D0E943E12982F880F890F85
:10211000880F8D0D8E838F2D0E943E12982F990F60
:10212000890F880FF80EFF828E2D0E943E12982F85
:10213000880F890F880F8E0D888780915C0290919F
:102140005D02FC01248135812830310580F0208139
:1021500031E03093AC022093CE021092AD02109287
:10216000CF0221E048E050E0B8010E94D403FF24F0
:10217000F394F09201010E944F090E945B090E94B2
:102180005B090E94740A65E771E084EF92E00E94A7
:102190008C08F09201011C8A1B8A1E8A1D8A188EE7
:1021A0001F8A4AE0B80182EF93E00E94D211B80181
:1021B000CE0143960E948C088091EE029091EF022E
:1021C000009709F4B3C06B897C896115710509F426
:1021D000ABC04091F0025091F1022F89388D421727
:1021E000530708F4A1C00E9444148F89988D9093DE
:1021F000F3028093F202188E1F8ACE0143960E944A
:102200000B0866EE71E080E093E00E948C086CEEB3
:1022100071E08CED92E00E948C0862EF71E088EE34
:1022200092E00E948C086AE070E080E090E00E94FA
:10223000A90CFF24F39468EE73E080E090E00E9424
:10224000A90CC8010E94D70C68EE72E0C8010E9478
:102250001308E82E81E0E11001C080E08093520273
:10226000C8010E940B08EE2021F0F09201010E94AB
:102270005B09C8010E94D70C6CED72E0C8010E9496
:102280001308E82E81E0E11001C080E08093510244
:10229000C8010E940B08EE2021F0109201010E945B
:1022A0005B0964E670E080E090E00E94A90C64EFB6
:1022B00072E08EEE92E00E941308882309F4BBCFEF
:1022C000109201010E945B09F0920101B4CF8A8152
:1022D000FF24F394813609F4D9CE8B81F7E0FF2EE9
:1022E0008E3609F0D3CEE6E0FE2ED0CE8B8178E09C
:1022F000F72E823709F0CACE64E0F62EC7CE8B8166
:1023000055E0F52E823709F0C1CE43E0F42EBECE63
:1023100039E0F32EBBCE2AE0F22EB8CE9BE0F92EA8
:10232000B5CE8CE0F82EB2CE0E94EC128B899C893F
:102330009093EF028093EE028D899E899093F10233
:102340008093F0028F89988D9093F3028093F2022C
:102350001C8A1B8A1E8A1D8A4ECF8CED92E00E9439
:102360000B0882EE92E00E940B0888EE92E00E9439
:102370000B088EEE92E00E940B0884EF92E00E9420
:102380000B088AEF92E00E940B0880E093E00C9427
:102390000B08FB01DC0102C005900D92415050403A
:1023A000D8F70895BB274A3031F4992322F4BDE2CF
:1023B000909581959F4F0C94DE11BB27FB0155270B
:1023C000AA27880F991FAA1FA41710F0A41B839592
:1023D0005051B9F7A05DAA3308F0A95DA193009709
:1023E00079F7B111B1931192CB010C94F711DC0183
:1023F000FC01672F71917723E1F7329704C07C913C
:102400006D9370836291AE17BF07C8F308952F9242
:102410003F924F925F926F927F928F929F92AF9274
:10242000BF92CF92DF92EF92FF920F931F93CF93C1
:10243000DF93CDB7DEB7CA1BDB0B0FB6F894DEBF58
:102440000FBECDBF09942A88398848885F846E847E
:102450007D848C849B84AA84B984C884DF80EE80C8
:10246000FD800C811B81AA81B981CE0FD11D0FB6D1
:10247000F894DEBF0FBECDBFED010895991B79E042
:1024800004C0991F961708F0961B881F7A95C9F704
:1024900080950895EE0FFF1F0590F491E02D0994AB
:1024A0000F931F93CF93DF938230910510F482E056
:1024B00090E0E0918F03F091900330E020E0B0E0F5
:1024C000A0E0309799F42115310509F44AC0281B82
:1024D000390B24303105D8F58A819B81611571054E
:1024E00089F1FB0193838283FE0111C040815181F8
:1024F0000281138148175907E0F04817590799F4EA
:10250000109761F012960C93129713961C933296C3
:10251000CF01DF91CF911F910F91089500938F0309
:1025200010939003F4CF2115310551F04217530752
:1025300038F0A901DB019A01BD01DF01F801C1CF2B
:10254000EF01F9CF9093900380938F03CDCFFE01DD
:10255000E20FF31F8193919322503109398328832D
:10256000D7CF20918D0330918E03232B41F42091FE
:1025700017013091180130938E0320938D03209121
:102580001501309116012115310541F42DB73EB7E3
:102590004091190150911A01241B350BE0918D03D4
:1025A000F0918E03E217F307A0F42E1B3F0B2817C0
:1025B000390778F0AC014E5F5F4F2417350748F0BC
:1025C0004E0F5F1F50938E0340938D038193919321
:1025D0009FCFF0E0E0E09CCFCF93DF930097E9F04E
:1025E000FC01329713821282A0918F03B091900365
:1025F000ED0130E020E01097A1F420813181820FBD
:10260000931F20918D0330918E032817390709F00D
:1026100061C0F0938E03E0938D03DF91CF91089515
:10262000EA01CE17DF07E8F54A815B819E0141157B
:102630005105B1F7E901FB83EA8349915991C40F30
:10264000D51FEC17FD0761F4808191810296840FFC
:10265000951FE90199838883828193819B838A8373
:10266000F0E0E0E012968D919C9113970097B9F5F8
:102670002D913C911197CD010296820F931F2091CD
:102680008D0330918E032817390739F6309751F5AD
:102690001092900310928F03B0938E03A0938D033A
:1026A000BCCFD383C28340815181840F951FC8174B
:1026B000D90761F44E5F5F4F88819981480F591F98
:1026C000518340838A819B819383828321153105C5
:1026D00009F0B0CFF0939003E0938F039ECFFD01FC
:1026E000DC01C0CF13821282D7CFB0E0A0E0EBE7CD
:1026F000F3E10C9409128C01009751F4CB010E9474
:1027000050128C01C801CDB7DEB7E0E10C94251260
:10271000FC01E60FF71F9C0122503109E217F30775
:1027200008F49DC0D901CD91DC911197C617D70748
:1027300098F0C530D10530F3CE010497861797077E
:1027400008F3C61BD70B2297C193D1936D937C934B
:10275000CF010E94EC12D6CF5B01AC1ABD0A4C012E
:102760008C0E9D1EA0918F03B0919003512C412C93
:10277000F12CE12C109731F580918D0390918E030F
:102780008815990509F05CC04616570608F058C030
:102790008091150190911601009741F48DB79EB775
:1027A0004091190150911A01841B950BE817F90704
:1027B00008F055C0F0938E03E0938D03F901718307
:1027C0006083A0CF8D919C91119712966C90129777
:1027D00013967C901397A815B90559F56C0142E042
:1027E000C40ED11CCA14DB0420F1AC014A195B09E8
:1027F000DA011296159780F06282738251834083CA
:10280000D9016D937C93E114F10471F0D701139613
:10281000FC93EE93129776CF22968C0F9D1FF901B1
:1028200091838083F301EFCFF0939003E0938F03C4
:1028300069CF4816590608F42C017D01D3019ACFBF
:10284000CB010E9450127C01009749F0AE01B80103
:102850000E943214C8010E94EC12870153CF10E08D
:1028600000E050CFFB01DC0102C001900D9241500D
:102870005040D8F70895FB01DC018D91019080193B
:102880000110D9F3990B0895FB01DC0101900D9221
:102890000020E1F70895AEE0B0E0E1E5F4E10C944A
:1028A00015120D891E8986E08C831A8309838FEFA8
:1028B0009FE79E838D83AE01475E5F4F6F89788D62
:1028C000CE0101960E946E142F813885020F131FCE
:1028D000F80110822E96E4E00C943112ABE0B0E0E7
:1028E000E4E7F4E10C9407127C013B018A01FC014E
:1028F00017821682838181FFC8C1CE0101965C01D7
:10290000F7019381F30193FD859193FF81913F013D
:10291000882309F453C1853239F493FD859193FFDF
:1029200081913F01853229F4B70190E00E945E1643
:10293000E7CF912C212C312CFFE1F31538F08B32AD
:1029400011F190F4803209F1833229F137FC3CC057
:1029500020ED280F2A3050F536FE20C08AE0989EE0
:10296000200D1124922E06C08D3291F0803371F724
:10297000689430F8F30193FD859193FF81913F01B5
:102980008111DACF21C0689431F8689432F8F2CF1F
:10299000689433F8EFCF689434F8ECCFEAE02E9ED9
:1029A000200D1124222E689435F8E4CF8E3229F4BC
:1029B00036FC04C1689436F8DDCF8C3619F468947F
:1029C00037F8D8CF8836B1F2982F9F7D9554933041
:1029D000E0F08336A1F18337C1F1833509F063C09C
:1029E0002801F2E04F0E511CF801C080D180692D02
:1029F00070E036FC02C06FEF7FEFC6010E94481600
:102A00004C01689437F882010AC00C5F1F4FFFE346
:102A1000F98388248394912C6501E89437F833FE78
:102A20002DC0522C8114910471F5552009F468CF02
:102A3000B70180E290E00E945E165A94F6CFF8014A
:102A4000808189830E5F1F4FE4CF2801F2E04F0E93
:102A5000511CF801C080D180692D70E036FC02C0A5
:102A60006FEF7FEFC6010E9453164C018201D5CF54
:102A7000B70180E290E00E945E162A94281419049F
:102A800009F0B0F7CECFF60137FC859137FE819182
:102A90006F01B70190E00E945E1651105A94F1E068
:102AA0008F1A9108BFCF843619F0893609F077C0A4
:102AB000F80137FE6BC060817181828193810C5F68
:102AC0001F4FF32DFF763F2E97FF09C090958095FD
:102AD000709561957F4F8F4F9F4F689437F82AE02C
:102AE00030E0A5010E948E16C82ECA188C2C432CEB
:102AF00036FE0CC0E89440F8C91440F434FE05C01A
:102B000032FC03C0F32DFE7E4F2E892C44FE95C06F
:102B1000FE01EC0DF11D8081803309F087C0242D6A
:102B2000297E422E842D8870582E43FC95C040FE8D
:102B30008FC09C2C821418F42C0C922C981844FEF4
:102B400091C0B70180E390E00E945E1642FE09C08A
:102B500088E790E041FE02C088E590E0B7010E945E
:102B60005E16C91408F48AC0CA94D12C9FEFC91A02
:102B7000D90ACA0CDB1CF60182916F01B70190E003
:102B80000E945E16AC14BD04B1F74FCF6081718115
:102B9000072E000C880B990B0E5F1F4F92CFD32C82
:102BA000E894D4F82AE030E0853739F1232D297FE5
:102BB000D22E8F3601F148F48835A9F0F7018681CD
:102BC00097812B96E2E10C942312803749F08837E5
:102BD000A9F7D4FE02C06894D2F820E130E00DC01D
:102BE0006894D4F8F6CF34FE03C0822F8660D82EC6
:102BF00020E132E002C028E030E0F801D7FE0FC04B
:102C000060817181828193810C5F1F4FA5010E94B9
:102C10008E16C82ECA183D2CE89437F867CF60810D
:102C2000718190E080E00E5F1F4FF0CF42FC02C048
:102C3000839478CF8394839475CF842D867809F418
:102C400071CFF6CFB70180E290E00E945E168394C8
:102C50008214C0F3512C73CF522C5818821408F4EC
:102C60006ECFF8CF842D867809F47BCF8BE241FEBE
:102C700080E247FC8DE2B70190E071CFB70180E3BD
:102C800090E00E945E169A946CCF8FEF9FEF99CFE1
:102C9000FC010590615070400110D8F78095909527
:102CA0008E0F9F1F0895FC0161507040019001102C
:102CB000D8F7809590958E0F9F1F08950F931F93BF
:102CC000CF93DF93182F092FEB018B8181FD09C072
:102CD0001FEF0FEF812F902FDF91CF911F910F9159
:102CE000089582FF14C02E813F818C819D81281719
:102CF00039073CF4E881F981CF01019699838883F3
:102D000010838E819F8101969F838E83E3CFE88518
:102D1000F985812F0995892BA1F3DACFFA01AA272A
:102D2000283051F1203181F1E8946F936E7F6E5F0E
:102D30007F4F8F4F9F4FAF4FB1E03ED0B4E03CD0BC
:102D4000670F781F891F9A1FA11D680F791F8A1F9F
:102D5000911DA11D6A0F711D811D911DA11D20D006
:102D600009F468943F912AE0269F11243019305DC0
:102D70003193DEF6CF010895462F4770405D4193B1
:102D8000B3E00FD0C9F7F6CF462F4F70405D4A33FE
:102D900018F0495D31FD4052419302D0A9F7EACFC6
:102DA000B4E0A6959795879577956795BA95C9F7F5
:102DB00000976105710508959B01AC010A2E0694E8
:102DC0005795479537952795BA95C9F7620F731FA1
:102DD000841F951FA01D089510E0CDE6D0E004C02B
:102DE000FE010E944A122196CE36D107C9F7F89407
:102DF000FFCF0101040506000102033132333435EF
:102E0000363738392A302300009103800000000053
:102E10000082045504B1042B044E043B042C04002E
:102E20000000006D026902660200000000D307394D
:102E300002B10438024345525241444F2020202021
:102E40002020202020004142494552544F2020207C
:102E50002020202020200020202020202020202092
:102E60002020202020202000253032643A253032D6
:102E7000643A2530326400486F72613A200042495A
:102E8000454E56454E49444F21004552524F52201F
:102E9000434C4156450043616E63656C61646F004D
:102EA000434C4156453A202020202020202020203D
:102EB000004C6579656E646F204D656D2E2E2E0079
:102EC00053495354454D41204C4953544F004552AA
:102ED000524F52205254430030303A303000323298
:0A2EE0003A32360032323A3237003F
:107E0000112484B714BE81FFF0D085E080938100F7
:107E100082E08093C00088E18093C10086E0809377
:107E2000C20080E18093C4008EE0C9D0259A86E02C
:107E300020E33CEF91E0309385002093840096BBD3
:107E4000B09BFECF1D9AA8958150A9F7CC24DD24C4
:107E500088248394B5E0AB2EA1E19A2EF3E0BF2EE7
:107E6000A2D0813461F49FD0082FAFD0023811F036
:107E7000013811F484E001C083E08DD089C08234E0
:107E800011F484E103C0853419F485E0A6D080C0E4
:107E9000853579F488D0E82EFF2485D0082F10E0AE
:107EA000102F00270E291F29000F111F8ED06801E7
:107EB0006FC0863521F484E090D080E0DECF843638
:107EC00009F040C070D06FD0082F6DD080E0C81688
:107ED00080E7D80618F4F601B7BEE895C0E0D1E017
:107EE00062D089930C17E1F7F0E0CF16F0E7DF06D8
:107EF00018F0F601B7BEE89568D007B600FCFDCFD4
:107F0000A601A0E0B1E02C9130E011968C91119780
:107F100090E0982F8827822B932B1296FA010C0160
:107F200087BEE89511244E5F5F4FF1E0A038BF0790
:107F300051F7F601A7BEE89507B600FCFDCF97BE46
:107F4000E89526C08437B1F42ED02DD0F82E2BD052
:107F50003CD0F601EF2C8F010F5F1F4F84911BD097
:107F6000EA94F801C1F70894C11CD11CFA94CF0C13
:107F7000D11C0EC0853739F428D08EE10CD085E9AC
:107F80000AD08FE07ACF813511F488E018D01DD067
:107F900080E101D065CF982F8091C00085FFFCCF94
:107FA0009093C60008958091C00087FFFCCF809118
:107FB000C00084FD01C0A8958091C6000895E0E648
:107FC000F0E098E1908380830895EDDF803219F02E
:107FD00088E0F5DFFFCF84E1DECF1F93182FE3DFCA
:107FE0001150E9F7F2DF1F91089580E0E8DFEE27F6
:047FF000FF270994CA
:027FFE00040479
:00000001FF
