:100000000C946E000C9496000C9496000C94960040
:100010000C9496000C9496000C9496000C94960008
:100020000C9496000C9496000C9496000C949600F8
:100030000C9496000C9496000C9496000C949600E8
:100040000C947F0A0C9496000C94EF0A0C94C90A45
:100050000C9496000C9496000C9496000C949600C8
:100060000C94210B0C94960030333A32343A3135EB
:100070000044656320203920323032350000000012
:1000800000240027002A0000000000250028002B83
:1000900000000000002300260029000404040404DA
:1000A0000404040202020202020303030303030125
:1000B00002040810204080010204081020010204FC
:1000C00008102000000008000201000003040700DF
:1000D0000000000000000000400C8B1011241FBE27
:1000E000CFEFD8E0DEBFCDBF23E0A0ECB1E001C090
:1000F0001D92A837B207E1F711E0A0E0B1E0ECED06
:10010000FBE202C005900D92A03CB107D9F710E0C8
:10011000CDE6D0E004C02197FE010E943411CC3618
:10012000D107C9F70E94C00C0C94E1150C94000093
:10013000833081F028F4813099F08230A9F008955D
:100140008730A9F08830C9F08430B1F48091800004
:100150008F7D03C0809180008F7780938000089509
:1001600084B58F7784BD089584B58F7DFBCF809152
:10017000B0008F778093B00008958091B0008F7D9C
:10018000F9CFCF93DF93282F30E0F901ED53FF4FE4
:100190008491F901E155FF4FD491F901E556FF4FE4
:1001A000C491CC23A1F081110E949800EC2FF0E0C3
:1001B000EE0FFF1FEF56FF4FA591B491EC91ED2389
:1001C00081E090E009F480E0DF91CF91089580E034
:1001D00090E0FACF1F93CF93DF93282F30E0F901FF
:1001E000ED53FF4F8491F901E155FF4FD491F9018F
:1001F000E556FF4FC491CC23A9F0162F81110E9420
:100200009800EC2FF0E0EE0FFF1FE957FF4FA5918C
:10021000B4918FB7F894EC91111108C0D095DE23FA
:10022000DC938FBFDF91CF911F910895DE2BF8CF24
:10023000CF93DF9390E0FC01E155FF4F2491855669
:100240009F4FFC0184918823D1F090E0880F991F83
:10025000FC01E358FF4FA591B491FC01E957FF4F12
:10026000C591D49161110EC09FB7F8948C91E22F83
:10027000E0958E238C932881E223E8839FBFDF9152
:10028000CF9108958FB7F894EC91E22BEC938FBF48
:10029000F6CF3FB7F89480910F0290911002A09191
:1002A0001102B091120226B5A89B05C02F3F19F08C
:1002B0000196A11DB11D3FBFBA2FA92F982F8827E6
:1002C000BC01CD01620F711D811D911D42E0660FC1
:1002D000771F881F991F4A95D1F708958F929F9293
:1002E000AF92BF92CF92DF92EF92FF924B015C01EF
:1002F0000E9449016B017C010E9449016C197D0932
:100300008E099F09683E734081059105A8F321E09D
:10031000821A9108A108B10888EEC80E83E0D81EA1
:10032000E11CF11C81149104A104B10429F7FF9090
:10033000EF90DF90CF90BF90AF909F908F900895F7
:10034000089508950895DB0114964D915C911597D9
:100350006D917C91DC01ED91FC910280F381E02DA7
:100360000994AF92BF92CF92DF92EF92FF920F93D8
:100370001F93CF93DF936C017B018B01040F151F3B
:10038000EB015E01AE18BF08C017D10759F06991A3
:10039000D601ED91FC910190F081E02DC601099507
:1003A000892B79F7C501DF91CF911F910F91FF90B4
:1003B000EF90DF90CF90BF90AF900895FC01538DE8
:1003C000448D252F30E0842F90E0821B930B54172F
:1003D00010F0CF96089501970895FC01918D828DBC
:1003E000981761F0A28DAE0FBF2FB11D5D968C9155
:1003F000928D9F5F9F73928F90E008958FEF9FEF94
:1004000008952FB7F8948091130290911402A0914F
:100410001502B09116022FBF809391029093920221
:10042000A0939302B093940289E892E00E94ED01B8
:1004300097FF26C02FB7F894809113029091140271
:10044000A0911502B09116022FBF409191025091D8
:1004500092026091930270919402841B950BA60BFB
:10046000B70B40918D0250918E0260918F02709176
:10047000900284179507A607B707B0F28FEF9FEF9A
:100480000895FC01918D828D981731F0828DE80FCF
:10049000F11D858D90E008958FEF9FEF0895FC0189
:1004A000918D228D892F90E0805C9F4F821B910956
:1004B0008F739927089589E892E00E944F0221E006
:1004C000892B09F420E0822F089580E090E0892BA9
:1004D00029F00E945B0281110C9400000895FC0138
:1004E000A48DA80FB92FB11DA35ABF4F2C91848D95
:1004F00090E001968F739927848FA689B7892C93F2
:10050000A089B1898C91837080648C93938D848D44
:10051000981306C00288F389E02D80818F7D808347
:100520000895EF92FF920F931F93CF93DF93EC0107
:1005300081E0888F9B8D8C8D98131AC0E889F9898A
:10054000808185FF15C09FB7F894EE89FF8960838D
:10055000E889F98980818370806480839FBF81E00E
:1005600090E0DF91CF911F910F91FF90EF90089550
:10057000F62E0B8D10E00F5F1F4F0F731127E02E2B
:100580008C8D8E110CC00FB607FCFACFE889F98963
:10059000808185FFF5CFCE010E946F02F1CFEB8DF8
:1005A000EC0FFD2FF11DE35AFF4FF0829FB7F89437
:1005B0000B8FEA89FB8980818062CFCFCF93DF9355
:1005C000EC01888D8823B9F0AA89BB89E889F9896B
:1005D0008C9185FD03C0808186FD0DC00FB607FCA0
:1005E000F7CF8C9185FFF2CF808185FFEDCFCE01D3
:1005F0000E946F02E9CFDF91CF910895FC019081B5
:1006000090539A3008F090E0818180532AE0929FC5
:10061000800D112408952091E101260F3327331F07
:1006200021323105ECF420915F02FC0190E080E082
:10063000243069F082E00895A091E1012191AC019C
:100640004F535E4FA40FB52FB11D2C930196861703
:1006500098F38091E101680F6093E10180E00895D3
:1006600081E0089510925F0281E080935E02109213
:10067000390261E082E10E94EA0061E083E10E94C8
:10068000EA00E9EBF0E080818E7F808380818D7FBE
:10069000808388E48093B80085E48093BC0008954B
:1006A000CF93DF9391E09093C0018823B9F0C0917C
:1006B000B800D091BA008091BC008A7B8093BC00C6
:1006C00060E082E10E94EA0060E083E10E94EA00CB
:1006D0000E943203D093BA00C093B800DF91CF914B
:1006E00008958F929F92AF92BF92CF92DF92EF9236
:1006F000FF920F931F93CF93DF93D0918802D13253
:1007000008F0D7C0182FC09187020E9449016B01E1
:100710007C0180915F0281116BC082E080935F0257
:1007200010935E028FEF80935D0210925C02D09373
:100730005B02A7E6B2E0EBE3F2E080E0D81391C001
:1007400010923A0280913A02CC0FC82BC0933A0221
:1007500080913902813009F088C0109239020E94DC
:1007600049016B017C0180913A028093BB0080912A
:10077000610290916202A0916302B0916402892BA0
:100780008A2B8B2BA1F00E944901009161021091EC
:10079000620220916302309164026C197D098E0916
:1007A0009F09061717072807390708F442C08091E8
:1007B000BC0083FDD8CF85EC8093BC000E9449012A
:1007C0006B017C0180915F02823009F450C08091FE
:1007D0005D028F3F09F46FC080915D02803209F4A1
:1007E0006CC080915D02803309F469C084E026C04A
:1007F0008091610290916202A0916302B0916402C3
:10080000892B8A2B8B2B09F484CF0E94490180907D
:10081000610290906202A0906302B09064026C1931
:100820007D098E099F0986169706A806B90608F065
:1008300070CF809160020E94500385E010926602A2
:100840001092880210926502DF91CF911F910F9153
:10085000FF90EF90DF90CF90BF90AF909F908F90E0
:1008600008959D9191938F5F69CF85EEA5CF80917B
:10087000610290916202A0916302B0916402892B9F
:100880008A2B8B2B09F49ECF0E94490100916102B3
:100890001091620220916302309164026C197D090B
:1008A0008E099F09061717072807390708F08ACF0E
:1008B000C0CF81E0C3CF80E0C1CF82E0BFCF83E073
:1008C000BDCF1F93CF93DF93EA01122FDC01119666
:1008D0008D919C91DC01ED91FC910280F381E02DE2
:1008E0000995C817D90729F4812F0E94710391E057
:1008F000811190E0892FDF91CF911F910895CF93BF
:10090000DF93EC018B818823A1F0888191E09093A3
:10091000650280938702109266021092880281E03D
:100920000E94710391E0811190E0892FDF91CF91B6
:1009300008951092180210921702109266021092F7
:1009400088020E94320380EA91E09093070280932C
:10095000060281EA91E0909305028093040281E00F
:100960008B83CE010E947F04982F8111CECFDDCFE3
:100970000895E091180280911702E81730F4F0E032
:10098000E75EFD4F808190E008958FEF9FEF08951F
:1009900090911802809117022FEF3FEF981748F4BB
:1009A000E92FF0E0E75EFD4F208130E09F5F9093FC
:1009B0001802C90108958091170290911802891BAD
:1009C000990B0895CF92DF92EF92FF920F931F93AE
:1009D000CF93DF937C01CB018A0120916502222312
:1009E00089F0EB016B01C40ED51ECC15DD0569F055
:1009F0006991D701ED91FC910190F081E02DC70143
:100A00000995F3CF642F0E940B03C801DF91CF91AA
:100A10001F910F91FF90EF90DF90CF900895CF93AB
:100A2000DF931F92CDB7DEB7698320916502222341
:100A3000F9F020918802203258F021E030E0FC01EA
:100A40003383228390E080E00F90DF91CF9108956F
:100A500080916602E82FF0E0E959FD4F998190837B
:100A60008F5F809366028093880281E090E0ECCFF4
:100A700061E0CE0101960E940B03F7CF90E080E089
:100A800008952F923F924F925F926F927F928F9232
:100A90009F92AF92BF92CF92DF92EF92FF920F930D
:100AA0001F93CF93DF935C011B016A01F12CE12CB2
:100AB000D50114968D919C9186010E191F098017FE
:100AC000910708F48C01F501D0810E9449012B01A6
:100AD0003C0180915F02811172C0C02F013208F089
:100AE000C0E2F1E0F0935F0221E0C601801B910BB0
:100AF000E816F90608F420E020935E028FEF809359
:100B00005D0210925C028C0F80935B02A1E0A093C7
:100B10003A0280913A02DD0FD82BD0933A028091AD
:100B20003902813009F090C0109239020E944901C7
:100B30002B013C0180913A028093BB0080916102BD
:100B400090916202A0916302B0916402892B8A2B7A
:100B50008B2BA1F00E944901209161023091620229
:100B600040916302509164026419750986099709DE
:100B7000261737074807590708F442C08091BC0080
:100B800083FDD8CFB5ECB093BC000E9449012B0186
:100B90003C0180915F02813009F45AC080915C026F
:100BA0008C1710F4C0915C02ABE3B2E0E9E1F2E033
:100BB00080E08C1751F19D9191938F5FFACF8091D6
:100BC000610290916202A0916302B0916402892B4C
:100BD0008A2B8B2B09F47DCF0E9449012091610261
:100BE0003091620240916302509164026419750968
:100BF00086099709261737074807590708F069CF6C
:100C0000809160020E945003C0E010921802C093CD
:100C10001702C017110609F057C041018E0C9F1C26
:100C2000E401CE01881999098017910798F5D5013B
:100C300011968D919C91DC01ED91FC910284F385DC
:100C4000E02D09958993EDCFE5EEE093BC009DCFB3
:100C50008091610290916202A0916302B09164025E
:100C6000892B8A2B8B2B09F494CF0E944901209168
:100C700061023091620240916302509164026419F2
:100C8000750986099709261737074807590708F095
:100C900080CFB6CFE00EF11EEC14FD0408F408CFAF
:100CA00081E0DF91CF911F910F91FF90EF90DF9046
:100CB000CF90BF90AF909F908F907F906F905F90FC
:100CC0004F903F902F90089580E0EBCFCF93DF932C
:100CD000EC0160E08E810E94EA0061E08E810E945A
:100CE000EA0060E08E810E94EA008BE891E00197C3
:100CF000F1F7DF91CF910895CF92DF92EF92FF92BB
:100D00000F931F93CF93DF936C017C0187E0E80E74
:100D1000F11CD0E0C0E0062F10E0B8010C2E02C09C
:100D2000759567950A94E2F76170F70181917F01EB
:100D30000E94EA002196C430D10579F7C601DF91FF
:100D4000CF911F910F91FF90EF90DF90CF900C9477
:100D50006606CF92DF92EF92FF920F931F93CF938D
:100D6000DF93EC01F62E642F8C810E94EA008D81C6
:100D70008F3F19F060E00E94EA000F2D10E08F8590
:100D800084FF25C06E0187E0C80ED11CF12CE12C38
:100D9000B8010E2C02C0759567950A94E2F7617050
:100DA000F60181916F010E94EA00FFEFEF1AFF0A3E
:100DB00088E0E816F10461F7CE01DF91CF911F9131
:100DC0000F91FF90EF90DF90CF900C946606B801E2
:100DD00084E0759567958A95E1F7CE010E947C06BF
:100DE0006F2DCE01DF91CF911F910F91FF90EF906A
:100DF000DF90CF900C947C0640E0682F8CE593E068
:100E00000C94A906CF93DF93823029F490916B0361
:100E1000986090936B0380936F031092700380E44B
:100E20008093710380E18093720380E58093730364
:100E300061E0809160030E941801809161038F3FFF
:100E400019F061E00E94180161E0809162030E9444
:100E50001801CCE5D3E09E012C55334080916B0303
:100E600084FD0BC084E090E021962817390744F4F4
:100E700061E08E810E941801EECF88E090E0F4CF0F
:100E80008BE39DE00197F1F760E0809160030E94A1
:100E9000EA0060E0809162030E94EA0080916103B1
:100EA0008F3F19F060E00E94EA0080916B0384FD9F
:100EB00039C063E08CE593E00E947C06CBE4D6E485
:100EC000CE010197F1F763E08CE593E00E947C0688
:100ED0002197F1F763E08CE593E00E947C0683E5BF
:100EE00092E00197F1F762E08CE593E00E947C06C6
:100EF00080916B0380620E94FC0684E080936C0307
:100F00008CE00E94FC0681E00E94FC068BE39FE1DE
:100F10000197F1F782E080936D0386E0DF91CF9136
:100F20000C94FC0680620E94FC068BE496E4019718
:100F3000F1F780916B0380620E94FC0683E592E0EA
:100F40000197F1F780916B0380620E94FC06D0CF7D
:100F500090916F03891710F08FEF890FE82FF0E061
:100F6000E45AFC4F848980680C94FC0641E00E949E
:100F7000A90681E090E00895FB0101900020E9F7C7
:100F80003197AF01461B570BDC01ED91FC910280BC
:100F9000F381E02D0994CF93DF93EC01888199814F
:100FA000009711F00E94D611198218821D821C82AE
:100FB0001B821A82DF91CF910895FC01808191817B
:100FC000009711F00C94D6110895AF92BF92CF9272
:100FD000DF92EF92FF920F931F93CF93DF93DC0189
:100FE000CD90DC901197C114D10439F01496CD91B5
:100FF000DC918C017601209761F4DF91CF911F91F4
:101000000F91FF90EF90DF90CF90BF90AF90089539
:1010100075015701BFEFAB1ABB0AF7018081082E9B
:10102000000C990B0E94D510892B91F72197CC0DBC
:10103000DD1D8881082E000C990B0E94D510892B8C
:1010400029F0CE15DF0510F02197F3CFAE014F5FE9
:101050005F4F4E195F09D80115965C934E93149714
:10106000CE14DF0420F4B701C6010E941C13D8017E
:10107000ED91FC91119714968D919C91E80FF91FB9
:101080001082BBCF0F931F93CF93DF93EC01888126
:101090009981009759F02A813B812617370730F054
:1010A00081E0DF91CF911F910F9108958B016F5FC8
:1010B0007F4F0E945F12009759F0998388831B83AA
:1010C0000A832C813D81232B59F7FC011082E8CF44
:1010D00080E0E7CFEF92FF920F931F93CF93DF93C0
:1010E0006115710541F480E0DF91CF911F910F915F
:1010F000FF90EF90089541155105B1F07B01EC018F
:101100000C811D81040F151FB8010E94420888231D
:1011100051F3288139818C819D81B701820F931F02
:101120000E9439131D830C8381E0DECFCF93DF93C0
:10113000EC01FB0144815581608171810E946A0844
:10114000811103C0CE010E94CB07CE01DF91CF9168
:101150000895EF92FF920F931F93CF93DF93EC01CB
:101160007B018A01BA010E94420881110BC0CE01A5
:101170000E94CB07CE01DF91CF911F910F91FF907D
:10118000EF9008951D830C83B701888199810E9497
:101190003913F0CFFB0101900020E9F73197AF013F
:1011A000461B570B0C94A908FC0111821082138274
:1011B000128215821482FB0101900020E9F7319719
:1011C000AF01461B570B0C94A908AF92BF92CF9268
:1011D000DF92EF92FF920F931F93CF93DF936C01F7
:1011E0005B017A0189012417350720F48F2D7901DD
:1011F000042F182F6CE971E0C6010E94D408D501B4
:101200001496CD91DC91EC16FD06E0F40C171D0749
:1012100008F4E801D501ED91FC911197EC0FFD1F49
:10122000108110826D917C916E0D7F1DC60161153C
:101230007105A1F00E94CA08F50180819181C80F53
:10124000D91F1883C601DF91CF911F910F91FF9095
:10125000EF90DF90CF90BF90AF9008950E94CB07A2
:10126000EBCF85ED8093BC0080916102909162028A
:10127000A0916302B09164020796A11DB11D23E005
:10128000B695A795979587952A95D1F72091BC009B
:1012900024FD03C010925F020895409161025091B5
:1012A00062026091630270916402452B462B472BCA
:1012B00069F30097A105B10541F02AE22A95F1F7FB
:1012C00000C00197A109B109E1CF809160020C949F
:1012D0005003CF92DF92EF92FF920F931F93CF9321
:1012E000DF93CDB7DEB729970FB6F894DEBF0FBEF8
:1012F000CDBF7C011982C0900802D0900902F6018E
:10130000848195818E010F5F1F4F892BC9F08081E9
:1013100091E090936502809387021092660210928A
:10132000880220E041E050E0B801C6010E9461045B
:10133000882331F047E050E0B801C6010E94410522
:1013400099819F778A816B81492F50E024E05595E0
:1013500047952A95E1F7242F220F220F421B440FB5
:10136000490F1F924F93282F30E044E03595279581
:101370004A95E1F7922F990F990F291B220F280FF9
:101380001F922F93862F90E054E0959587955A955C
:10139000E1F7982F990F990F891B880F860F1F92DD
:1013A0008F9386E391E09F938F931F930F930E94F7
:1013B0004013B801C7010E94D4080FB6F894DEBFED
:1013C0000FBECDBFC70129960FB6F894DEBF0FBE82
:1013D000CDBFDF91CF911F910F91FF90EF90DF90E4
:1013E000CF9008950F931F93CF93DF93CDB7DEB7C0
:1013F0002C970FB6F894DEBF0FBECDBF8C0180E0F6
:101400000E94A807CE0107960E94690965E471E071
:10141000CE0101960E94D408BE01695F7F4FCE01C4
:1014200001960E949608BC018CE593E00E94A301FE
:10143000CE0101960E94DD07CE0107960E94DD07CE
:1014400081E00E94A807B8018CE593E00E94A30107
:101450002C960FB6F894DEBF0FBECDBFDF91CF91B3
:101460001F910F910895CF93DF9300D000D000D04B
:10147000CDB7DEB760E08EE00E94EA0061E08FE069
:101480000E94EA006CE471E0CE0101960E94D4084B
:10149000CE0101960E94F209CE0101960E94DD075D
:1014A00026960FB6F894DEBF0FBECDBFDF91CF9169
:1014B0000895CF93DF9300D000D000D0CDB7DEB732
:1014C00061E08EE00E94EA0060E08FE00E94EA00A6
:1014D0006DE571E0CE0101960E94D408CE0101961F
:1014E0000E94F209CE0101960E94DD0726960FB6F2
:1014F000F894DEBF0FBECDBFDF91CF9108951F924C
:101500000F920FB60F9211242F933F938F939F93B7
:10151000AF93BF938091130290911402A091150292
:10152000B091160230910E0223E0230F2D3758F5AB
:101530000196A11DB11D20930E028093130290937A
:101540001402A0931502B093160280910F0290919D
:101550001002A0911102B09112020196A11DB11DBD
:1015600080930F0290931002A0931102B093120285
:10157000BF91AF919F918F913F912F910F900FBE8F
:101580000F901F90189526E8230F0296A11DB11DFC
:10159000D2CF1F920F920FB60F9211242F933F9329
:1015A0004F935F936F937F938F939F93AF93BF936B
:1015B000EF93FF9389E892E00E946F02FF91EF9111
:1015C000BF91AF919F918F917F916F915F914F915B
:1015D0003F912F910F900FBE0F901F9018951F9263
:1015E0000F920FB60F9211242F938F939F93EF9327
:1015F000FF93E0919902F0919A028081E0919F021D
:10160000F091A00282FD1BC090818091A2028F5FA9
:101610008F732091A302821741F0E091A202F0E0C3
:10162000E757FD4F958F8093A202FF91EF919F9115
:101630008F912F910F900FBE0F901F901895808162
:10164000F4CF1F920F920FB60F9211242F933F9356
:101650004F935F936F937F938F939F93AF93BF93BA
:10166000EF93FF938091B900887F803609F44AC0D8
:10167000F0F5883209F4A7C018F5803109F49BC051
:10168000B8F4882309F4F9C0883009F494C0FF91B4
:10169000EF91BF91AF919F918F917F916F915F91EA
:1016A0004F913F912F910F900FBE0F901F90189563
:1016B000883109F488C0803251F780935D0214C0EC
:1016C000803409F49DC040F48033B9F38833F9F6CF
:1016D00080935D0285ECB0C0803509F485C0883503
:1016E00009F496C0883499F60E943109D0CF883920
:1016F00009F48CC038F5883729F050F4883611F099
:10170000803729F683E080935F021092030257C06E
:10171000883809F47BC0803919F0803809F0B7CFD8
:1017200080910302803208F071C0E091030281E0F1
:101730008E0F809303028091BB00F0E0ED51FE4FCD
:1017400080833DC0803B39F0E0F4803A09F479C0F1
:10175000883A09F09CCF84E080935F021092E20106
:101760001092E101E0910602F09107020995809143
:10177000E10181110FC081E08093E1011092C1016C
:1017800009C0803C09F4A6CF883C09F4A3CF883B6C
:1017900009F07DCFE091E20181E08E0F8093E201BC
:1017A000F0E0EF53FE4F80818093BB009091E20107
:1017B0008091E10129C080913A028093BB0085ECC1
:1017C0008093BC0064CF90915C0280915B0298177B
:1017D00058F5E0915C0281E08E0F80935C02F0E0AE
:1017E000E55CFD4F8081E9CFE0915C0281E08E0FE6
:1017F00080935C028091BB00F0E0E55CFD4F80834C
:1018000090915C0280915B029817C8F285E8D8CF6E
:10181000E0915C0281E08E0F80935C028091BB00BE
:10182000F0E0E55CFD4F808380915E0281115CCF2A
:1018300081E08093390284EA8093BC0010925F02B9
:1018400026CF85EC8093BC0010925F02809103024A
:10185000803230F4E0910302F0E0ED51FE4F10824F
:101860006091030270E0E0910402F091050283EEC2
:1018700091E00995109203020ACF10925D0234CFD5
:10188000E9E8F2E01382128288EE93E0A0E0B0E093
:1018900084839583A683B7832AE031E03183208354
:1018A00025EC30E03587248724EC30E03787268725
:1018B00020EC30E0318B208B21EC30E0338B228B1D
:1018C00022EC30E0358B248B26EC30E0378B268BF6
:1018D000118E128E138E148EE6E2F3E013821282C2
:1018E00084839583A683B7838CE191E09183808381
:1018F000ECE5F3E0138212828EE291E09183808323
:101900008CE084838FEF85838BE0868385E08783FB
:1019100084E0808783E0818782E082871386148653
:1019200015861686178681E00E9402076CE971E031
:1019300086E593E00E94D4086CE971E080E593E0CD
:101940000E94D4086CE971E08AE493E00E94D40814
:101950006CE971E084E493E00E94D4086CE971E0E2
:101960008EE393E00E94D4086CE971E088E393E091
:101970000E94D4086CE971E082E393E00C94D408EF
:10198000CF93DF93CDB7DEB7A5970FB6F894DEBF40
:101990000FBECDBF789484B5826084BD84B581606C
:1019A00084BD85B5826085BD85B5816085BD80912A
:1019B0006E00816080936E001092810080918100A2
:1019C000826080938100809181008160809381009A
:1019D000809180008160809380008091B10084605C
:1019E0008093B1008091B00081608093B0008091BD
:1019F0007A00846080937A0080917A00826080937C
:101A00007A0080917A00816080937A0080917A00D8
:101A1000806880937A001092C100E0919902F09161
:101A20009A0282E08083E0919502F0919602108202
:101A3000E0919702F09198028FEC80831092A102BE
:101A4000E0919D02F0919E0286E08083E0919B02EE
:101A5000F0919C02808180618083E0919B02F091F3
:101A60009C02808188608083E0919B02F0919C02BF
:101A7000808180688083E0919B02F0919C0280814C
:101A80008F7D808382E390E0A0E0B0E080938D02C0
:101A900090938E02A0938F02B093900282E00E94F6
:101AA00002076EE671E08CE593E00E94BC0761E0FE
:101AB0008EE00E94180161E08FE00E94180160E052
:101AC00080E10E94180160E081E10E94180180918C
:101AD000080290910902009711F00E94D61186E049
:101AE00090E00E943A118C0188E6F801808386E23A
:101AF00093E092838183138280E290E095838483D4
:101B00001093090200930802109218021092170213
:101B100010926602109288020E94320380EA91E0DD
:101B2000909307028093060281EA91E09093050268
:101B30008093040281E0F8018383C8010E947F043E
:101B4000811109C081E00E94A8076DE771E08CE572
:101B500093E00E94BC071DA28091080290910902A7
:101B6000FC0124813581232B91F0208131E03093D9
:101B7000650220938702109266021092880221E08B
:101B800041E050E0BE016B5D7F4F0E94610441E087
:101B900050E08E010F5F1F4FB801809108029091B5
:101BA00009020E944105898190E0880F892F881FD2
:101BB000990B892B09F4A7C04BE050E061E770E076
:101BC000C8010E94A710CE010A960E94FE02E82ECC
:101BD000E981E154E33130F50E2E000CFF0BED509E
:101BE000F24F0C943411E70E120E120E020F120E69
:101BF000050F120E120E120E060E120E120EF00E1F
:101C0000FF0EFC0E120E120E120EF90E8A81FF2428
:101C1000F394813639F08B81B7E0FB2E8E3611F4C8
:101C200086E0F82ECE0105960E94FE02D82E48E0EE
:101C300050E068E670E0C8010E94A710C8010E9449
:101C4000FE02C82ECE0104960E94FE02B82ECE01DE
:101C500007960E94FE02382F86E0F80111928A95BD
:101C6000E9F72AE0832F622F0E942811982F880F0E
:101C7000890F880F830F8A838B2D0E942811982F3C
:101C8000880F890F880F8B0D8B838C2D0E94281154
:101C9000982F880F890F880F8C0D8C838D2D0E94B3
:101CA0002811982F880F890F880F8D0D8E838F2D07
:101CB0000E942811982F990F890F880FF80EFF8224
:101CC0008E2D0E942811982F880F890F880F8E0D56
:101CD00088878091080290910902FC012481358156
:101CE0002830310580F0208131E030936502209367
:101CF0008702109266021092880221E048E050E0CC
:101D0000B8010E9461040E94590A90E0E92E90E017
:101D1000F92E2FB7F8948091130290911402A0919C
:101D20001502B09116022FBF40910A0250910B028A
:101D300060910C0270910D025C016D01A41AB50A4C
:101D4000C60AD70AB601A501483E53406105710590
:101D500028F180930A0290930B02A0930C02B09397
:101D60000D0280E00E94A807C8010E94690965E48D
:101D700071E0CE0143960E94D408B801CE0143968B
:101D80000E949608BC018CE593E00E94A301CE015D
:101D900043960E94DD07C8010E94DD0780E10E9492
:101DA000C1000197A9F50E94330A68EC70E080E059
:101DB00090E00E946E01E114F10409F4AACF0E94A0
:101DC0005B02882309F4A5CF0E940000A2CF8B817B
:101DD000A4E0FA2E823709F425CFF8E0FF2E22CFB7
:101DE0008B81E3E0FE2E823709F41CCF75E0F72EDD
:101DF00019CF69E0F62E16CF5AE0F52E13CF4BE03F
:101E0000F42E10CF3CE0F32E0DCF22E0F22E0ACFBD
:101E100081E10E94C100019739F40E94590A64EFE0
:101E200071E080E090E0C5CF6CE971E088E393E079
:101E30000E94CA081C8A1B8A1E8A1D8A188E1F8A45
:101E40004AE0B80183ED94E00E94B010B801CE01E1
:101E500043960E94CA0880915003909151030097C5
:101E600009F458C06B897C896115710509F450C06B
:101E700040915203509153032F89388D42175307D5
:101E800008F446C00E9439138F89988D90935503AA
:101E900080935403188E1F8ACE0143960E94DD075B
:101EA00085E0C82ED12C80E10E94C100019709F481
:101EB00082CF81E10E94C100019709F47CCF68ECD8
:101EC00070E080E090E00E946E0181E0C81AD108C5
:101ED00051F789E892E00E944F02181619060CF09B
:101EE000B0C06CE971E0CE014F960E94D4080E9408
:101EF000010297FD26C08D30910519F189831A8260
:101F000041E050E0B801CE014F960E946A08EFCF41
:101F10000E94D6118B899C89909351038093500322
:101F20008D899E8990935303809352038F89988D56
:101F300090935503809354031C8A1B8A1E8A1D8A22
:101F4000A9CF89E892E00E9441020A9721F489E82A
:101F500092E00E94ED011A8E198E1C8E1B8E1E8E31
:101F60001D8E6F8D78A16115710531F04BA15CA1BB
:101F7000CE0149960E94A908CE0149960E94E50724
:101F80008D8C9E8CA98CBA8C8114910479F06DE3B0
:101F900070E0C5010E942513009741F06C01CA183A
:101FA000DB08EFEFCE16DE0609F071C0A114B10414
:101FB00009F468C0A401B50186E593E00E94A90870
:101FC00067E871E0C8010E94D40866E573E0C801C3
:101FD0000E949608BC0189E892E00E94A3016AE988
:101FE00071E089E892E00E94BC07C8010E94DD0709
:101FF00081E00E94A8076DE971E0C8010E94D40841
:1020000066E573E0C8010E9496086C0144E050E068
:1020100064EA71E00E946A08811103C0C6010E944F
:10202000CB07B6018CE593E00E94A301C8010E9492
:10203000DD07CE0149960E94DD07CE014F960E9432
:10204000DD07209154033091550380915A039091FC
:102050005B032817390709F0AECE809150039091A9
:1020600051036091560370915703009709F442C0E1
:1020700061157105E1F5232B09F44AC0FC0180814B
:1020800090E043C086E593E00E94CB0799CF96018C
:1020900050E040E0BE01675E7F4FCE0143960E9454
:1020A000E5082D8D3E8DA6014F5F5F4FBE01675E37
:1020B0007F4FC8010E94E508CE0143960E94E507C4
:1020C000C8010E94E50769EA71E089E892E00E9490
:1020D000BC076AE971E089E892E00E94BC07C80188
:1020E0000E94DD07CE0143960E94DD07A2CF0E9429
:1020F00030130BC06115710559F0232B49F0FB011A
:10210000808190E0919581959109892B09F053CEBA
:102110000E94330A50CE82E393E00E94DD0788E3F9
:1021200093E00E94DD078EE393E00E94DD0784E4E4
:1021300093E00E94DD078AE493E00E94DD0780E5DA
:1021400093E00E94DD0786E593E00C94DD07FB0138
:10215000DC0102C005900D9241505040D8F708951F
:10216000BB274A3031F4992322F4BDE29095819542
:102170009F4F0C94BC10BB27FB015527AA27880F43
:10218000991FAA1FA41710F0A41B83955051B9F7EB
:10219000A05DAA3308F0A95DA193009779F7B1116A
:1021A000B1931192CB010C94DE1091110C94EE10AE
:1021B000803219F089508550C8F70895DC01FC0180
:1021C000672F71917723E1F7329704C07C916D936B
:1021D00070836291AE17BF07C8F3089599278827C7
:1021E00008952F923F924F925F926F927F928F92BB
:1021F0009F92AF92BF92CF92DF92EF92FF920F9396
:102200001F93CF93DF93CDB7DEB7CA1BDB0B0FB69F
:10221000F894DEBF0FBECDBF09942A88398848885C
:102220005F846E847D848C849B84AA84B984C884F2
:10223000DF80EE80FD800C811B81AA81B981CE0FE9
:10224000D11D0FB6F894DEBF0FBECDBFED010895CE
:10225000991B79E004C0991F961708F0961B881FF8
:102260007A95C9F780950895EE0FFF1F0590F491B8
:10227000E02D09940F931F93CF93DF938230910544
:1022800010F482E090E0E0917603F091770330E083
:1022900020E0B0E0A0E0309799F42115310509F471
:1022A0004AC0281B390B24303105D8F58A819B811F
:1022B0006115710589F1FB0193838283FE0111C0D1
:1022C000408151810281138148175907E0F0481776
:1022D000590799F4109761F012960C931297139680
:1022E0001C933296CF01DF91CF911F910F910895EA
:1022F0000093760310937703F4CF2115310551F045
:102300004217530738F0A901DB019A01BD01DF0133
:10231000F801C1CFEF01F9CF909377038093760353
:10232000CDCFFE01E20FF31F81939193225031092B
:1023300039832883D7CF2091740330917503232BE1
:1023400041F42091020130910301309375032093F1
:10235000740320910001309101012115310541F4F0
:102360002DB73EB74091040150910501241B350B58
:10237000E0917403F0917503E217F307A0F42E1BAC
:102380003F0B2817390778F0AC014E5F5F4F2417D9
:10239000350748F04E0F5F1F509375034093740349
:1023A000819391939FCFF0E0E0E09CCFCF93DF93B8
:1023B0000097E9F0FC01329713821282A091760314
:1023C000B0917703ED0130E020E01097A1F4208177
:1023D0003181820F931F2091740330917503281768
:1023E000390709F061C0F0937503E0937403DF913E
:1023F000CF910895EA01CE17DF07E8F54A815B81A6
:102400009E0141155105B1F7E901FB83EA8349912A
:102410005991C40FD51FEC17FD0761F4808191819C
:102420000296840F951FE9019983888382819381A5
:102430009B838A83F0E0E0E012968D919C91139744
:102440000097B9F52D913C911197CD010296820F1D
:10245000931F20917403309175032817390739F6BB
:10246000309751F51092770310927603B09375036D
:10247000A0937403BCCFD383C28340815181840F66
:10248000951FC817D90761F44E5F5F4F8881998106
:10249000480F591F518340838A819B819383828394
:1024A0002115310509F0B0CFF0937703E09376035F
:1024B0009ECFFD01DC01C0CF13821282D7CFB0E0E6
:1024C000A0E0E5E6F2E10C94F3108C01009751F4E2
:1024D000CB010E943A118C01C801CDB7DEB7E0E113
:1024E0000C940F11FC01E60FF71F9C0122503109DB
:1024F000E217F30708F49DC0D901CD91DC91119743
:10250000C617D70798F0C530D10530F3CE01049730
:102510008617970708F3C61BD70B2297C193D19351
:102520006D937C93CF010E94D611D6CF5B01AC1A7C
:10253000BD0A4C018C0E9D1EA0917603B0917703CD
:10254000512C412CF12CE12C109731F58091740322
:10255000909175038815990509F05CC046165706D9
:1025600008F058C08091000190910101009741F45A
:102570008DB79EB74091040150910501841B950BC6
:10258000E817F90708F055C0F0937503E09374035A
:10259000F90171836083A0CF8D919C911197129660
:1025A0006C90129713967C901397A815B90559F55E
:1025B0006C0142E0C40ED11CCA14DB0420F1AC0152
:1025C0004A195B09DA011296159780F062827382CC
:1025D00051834083D9016D937C93E114F10471F030
:1025E000D7011396FC93EE93129776CF22968C0F19
:1025F0009D1FF90191838083F301EFCFF09377035F
:10260000E093760369CF4816590608F42C017D0142
:10261000D3019ACFCB010E943A117C01009749F077
:10262000AE01B8010E941C13C8010E94D611870197
:1026300053CF10E000E050CFFB01DC0102C001905D
:102640000D9241505040D8F70895FC0181918617B2
:1026500021F08823D9F7992708953197CF0108955C
:10266000FB01DC018D91019080190110D9F3990BC8
:102670000895FB01DC0101900D920020E1F708951F
:10268000AEE0B0E0E6E4F3E10C94FF100D891E89A2
:1026900086E08C831A8309838FEF9FE79E838D8367
:1026A000AE01475E5F4F6F89788DCE0101960E9423
:1026B00063132F813885020F131FF80110822E96A5
:1026C000E4E00C941B11ABE0B0E0E9E6F3E10C941C
:1026D000F1107C013B018A01FC0117821682838183
:1026E00081FFC8C1CE0101965C01F7019381F3011E
:1026F00093FD859193FF81913F01882309F453C194
:10270000853239F493FD859193FF81913F018532A4
:1027100029F4B70190E00E945315E7CF912C212CAA
:10272000312CFFE1F31538F08B3211F190F4803247
:1027300009F1833229F137FC3CC020ED280F2A3003
:1027400050F536FE20C08AE0989E200D1124922E6E
:1027500006C08D3291F0803371F7689430F8F30140
:1027600093FD859193FF81913F018111DACF21C0C3
:10277000689431F8689432F8F2CF689433F8EFCF68
:10278000689434F8ECCFEAE02E9E200D1124222E1E
:10279000689435F8E4CF8E3229F436FC04C168948D
:1027A00036F8DDCF8C3619F4689437F8D8CF8836F0
:1027B000B1F2982F9F7D95549330E0F08336A1F1CC
:1027C0008337C1F1833509F063C02801F2E04F0E71
:1027D000511CF801C080D180692D70E036FC02C028
:1027E0006FEF7FEFC6010E943D154C01689437F8EA
:1027F00082010AC00C5F1F4FFFE3F9838824839492
:10280000912C6501E89437F833FE2DC0522C8114C9
:10281000910471F5552009F468CFB70180E290E08A
:102820000E9453155A94F6CFF801808189830E5F78
:102830001F4FE4CF2801F2E04F0E511CF801C08079
:10284000D180692D70E036FC02C06FEF7FEFC601CA
:102850000E9448154C018201D5CFB70180E290E07B
:102860000E9453152A942814190409F0B0F7CECF0A
:10287000F60137FC859137FE81916F01B70190E039
:102880000E94531551105A94F1E08F1A9108BFCF4E
:10289000843619F0893609F077C0F80137FE6BC02D
:1028A00060817181828193810C5F1F4FF32DFF76D0
:1028B0003F2E97FF09C090958095709561957F4F49
:1028C0008F4F9F4F689437F82AE030E0A5010E94AF
:1028D0008315C82ECA188C2C432C36FE0CC0E894E5
:1028E00040F8C91440F434FE05C032FC03C0F32D97
:1028F000FE7E4F2E892C44FE95C0FE01EC0DF11D8D
:102900008081803309F087C0242D297E422E842DBA
:102910008870582E43FC95C040FE8FC09C2C8214BA
:1029200018F42C0C922C981844FE91C0B70180E347
:1029300090E00E94531542FE09C088E790E041FEF6
:1029400002C088E590E0B7010E945315C91408F44D
:102950008AC0CA94D12C9FEFC91AD90ACA0CDB1CB1
:10296000F60182916F01B70190E00E945315AC14FB
:10297000BD04B1F74FCF60817181072E000C880B29
:10298000990B0E5F1F4F92CFD32CE894D4F82AE016
:1029900030E0853739F1232D297FD22E8F3601F192
:1029A00048F48835A9F0F701868197812B96E2E1FA
:1029B0000C940D11803749F08837A9F7D4FE02C076
:1029C0006894D2F820E130E00DC06894D4F8F6CFD6
:1029D00034FE03C0822F8660D82E20E132E002C090
:1029E00028E030E0F801D7FE0FC06081718182815C
:1029F00093810C5F1F4FA5010E948315C82ECA1832
:102A00003D2CE89437F867CF6081718190E080E0D9
:102A10000E5F1F4FF0CF42FC02C0839478CF8394A7
:102A2000839475CF842D867809F471CFF6CFB701E2
:102A300080E290E00E94531583948214C0F3512CDD
:102A400073CF522C5818821408F46ECFF8CF842D0F
:102A5000867809F47BCF8BE241FE80E247FC8DE271
:102A6000B70190E071CFB70180E390E00E94531569
:102A70009A946CCF8FEF9FEF99CFFC010590615036
:102A800070400110D8F7809590958E0F9F1F089584
:102A9000FC016150704001900110D8F7809590952D
:102AA0008E0F9F1F08950F931F93CF93DF93182FBF
:102AB000092FEB018B8181FD09C01FEF0FEF812FE3
:102AC000902FDF91CF911F910F91089582FF14C035
:102AD0002E813F818C819D81281739073CF4E88144
:102AE000F981CF0101969983888310838E819F811C
:102AF00001969F838E83E3CFE885F985812F099521
:102B0000892BA1F3DACFFA01AA27283051F120311D
:102B100081F1E8946F936E7F6E5F7F4F8F4F9F4F71
:102B2000AF4FB1E03ED0B4E03CD0670F781F891FB3
:102B30009A1FA11D680F791F8A1F911DA11D6A0F81
:102B4000711D811D911DA11D20D009F468943F9134
:102B50002AE0269F11243019305D3193DEF6CF0133
:102B60000895462F4770405D4193B3E00FD0C9F7F9
:102B7000F6CF462F4F70405D4A3318F0495D31FD66
:102B80004052419302D0A9F7EACFB4E0A6959795B9
:102B9000879577956795BA95C9F70097610571058F
:102BA00008959B01AC010A2E0694579547953795D9
:102BB0002795BA95C9F7620F731F841F951FA01D33
:102BC000089510E0CDE6D0E004C0FE010E9434116B
:0C2BD0002196CE36D107C9F7F894FFCF4C
:102BDC00000078038000000000009102B101DE01CA
:102BEC00DE024F02ED014102000000000F05E2047D
:102BFC003E05B804DB04C804B90400000000B607A5
:102C0C00B1013E05A201253032643A253032643AD6
:102C1C002530326400486F72613A2000457374614C
:102C2C00646F3A204142494552544F200045737419
:102C3C0061646F3A204345525241444F2000505238
:102C4C004F4C4F434B2053595354454D0045525212
:102C5C004F5220525443005B494E5055545D205204
:102C6C006563696269646F3A20000D0A00506173F4
:102C7C00733A200020202020005B4552524F525DB9
:102C8C002053696E20676C6F62616C65732E000057
:00000001FF
