:100000000C946E000C9496000C9496000C94960040
:100010000C9496000C9496000C9496000C94960008
:100020000C9496000C9496000C9496000C949600F8
:100030000C9496000C9496000C9496000C949600E8
:100040000C941A0D0C9496000C9496000C94960047
:100050000C9496000C9496000C9496000C949600C8
:100060000C94640D0C94960032323A33353A3034A5
:100070000044656320203920323032350000000012
:1000800000240027002A0000000000250028002B83
:1000900000000000002300260029000404040404DA
:1000A0000404040202020202020303030303030125
:1000B00002040810204080010204081020010204FC
:1000C00008102000000008000201000003040700DF
:1000D0000000000000000000830EB51111241FBEB7
:1000E000CFEFD8E0DEBFCDBF23E0AEEFB1E001C07F
:1000F0001D92A739B207E1F711E0A0E0B1E0E6E414
:10010000FEE202C005900D92AE3FB107D9F710E0B4
:10011000CDE6D0E004C02197FE010E947412CC36D7
:10012000D107C9F70E943A0F0C9416170C940000DF
:1001300096E0899FD0011124A45FBC4F90967C93D8
:100140006E935F9791E091969C939197E0917903DC
:10015000F0917A0390917803992339F0309751F018
:10016000811108C0809128030994309719F05C969A
:100170008C91FACF0895833081F028F4813099F082
:100180008230A9F008958730A9F08830C9F0843012
:10019000B1F4809180008F7D03C0809180008F77C3
:1001A00080938000089584B58F7784BD089584B5C9
:1001B0008F7DFBCF8091B0008F778093B000089542
:1001C0008091B0008F7DF9CFCF93DF93282F30E05F
:1001D000F901ED53FF4F8491F901E155FF4FD4919F
:1001E000F901E556FF4FC491CC23A1F081110E9483
:1001F000BB00EC2FF0E0EE0FFF1FEF56FF4FA59175
:10020000B491EC91ED2381E090E009F480E0DF917E
:10021000CF91089580E090E0FACF1F93CF93DF93C2
:10022000282F30E0F901ED53FF4F8491F901E1559A
:10023000FF4FD491F901E556FF4FC491CC23A9F0AB
:10024000162F81110E94BB00EC2FF0E0EE0FFF1F74
:10025000E957FF4FA591B4918FB7F894EC91111124
:1002600008C0D095DE23DC938FBFDF91CF911F9123
:100270000895DE2BF8CFCF93DF9390E0FC01E1559A
:10028000FF4F249185569F4FFC0184918823C9F02C
:1002900090E0880F991FFC01E358FF4FA591B4919E
:1002A000FC01E957FF4FC591D49161110DC09FB773
:1002B000F8948C91209582238C938881282328831D
:1002C0009FBFDF91CF910895623051F49FB7F894AA
:1002D0003C91822F809583238C93E8812E2BEFCF46
:1002E0008FB7F894EC912E2B2C938FBFEACF3FB7AA
:1002F000F89480915E0290915F02A0916002B091AB
:10030000610226B5A89B05C02F3F19F00196A11DDB
:10031000B11D3FBFBA2FA92F982F8827BC01CD014F
:10032000620F711D811D911D42E0660F771F881FAE
:10033000991F4A95D1F708958F929F92AF92BF92DD
:10034000CF92DF92EF92FF924B015C010E94770106
:100350006B017C010E9477016C197D098E099F0950
:10036000683E734081059105A8F321E0821A910847
:10037000A108B10888EEC80E83E0D81EE11CF11C6C
:1003800081149104A104B10429F7FF90EF90DF904C
:10039000CF90BF90AF909F908F9008952FB7F89413
:1003A00060915A0270915B0280915C0290915D02B3
:1003B0002FBF08950F931F93CF93DF93C82FD62F8E
:1003C00086E0C89FF0011124E45FFC4F11A2878DE5
:1003D00090A181309105F1F058F082309105F1F152
:1003E000039709F440C0DF91CF911F910F910895B9
:1003F0006623C9F361E070E08C2F0E9498000E9490
:10040000CE016093640370936503809366039093B9
:100410006703E9CF0E94CE01009164031091650348
:100420002091660330916703AB01BC01401B510B67
:10043000620B730B8091760390917703B0E0A0E09C
:1004400084179507A607B70748F462E070E08C2F81
:10045000DF91CF911F910F910C94980063E070E0B1
:10046000D111C1CFF4CF70E060E0F1CF08950895CD
:100470000895AF92BF92CF92DF92EF92FF920F93C7
:100480001F93CF93DF936C017B018B01040F151F2A
:10049000EB015E01AE18BF08C017D10759F0699192
:1004A000D601ED91FC910190F081E02DC6010995F6
:1004B000892B79F7C501DF91CF911F910F91FF90A3
:1004C000EF90DF90CF90BF90AF900895862F0C945F
:1004D000E400862F642F0C940D01862F642F0C945A
:1004E0003B01FC01908190539A3008F090E08181AB
:1004F00080532AE0929F800D1124089520913002AC
:10050000260F3327331F21323105ECF42091AC0242
:10051000FC0190E080E0243069F082E00895A09131
:1005200030022191AC01405F5D4FA40FB52FB11D8A
:100530002C930196861798F380913002680F609390
:10054000300280E0089581E008951092AC0281E0CD
:100550008093AB021092860261E082E10E940D015D
:1005600061E083E10E940D01E9EBF0E080818E7F84
:10057000808380818D7F808388E48093B80085E4C8
:100580008093BC000895CF93DF9391E090930F0286
:100590008823B9F0C091B800D091BA008091BC0016
:1005A0008A7B8093BC0060E082E10E940D0160E0E4
:1005B00083E10E940D010E94A502D093BA00C0936E
:1005C000B800DF91CF9108958F929F92AF92BF9222
:1005D000CF92DF92EF92FF920F931F93CF93DF930F
:1005E000D091D502D13208F0D7C0182FC091D402D3
:1005F0000E9477016B017C018091AC0281116BC07C
:1006000082E08093AC021093AB028FEF8093AA023A
:100610001092A902D093A802A4EBB2E0E8E8F2E0BD
:1006200080E0D81391C01092870280918702CC0F8E
:10063000C82BC093870280918602813009F088C060
:10064000109286020E9477016B017C0180918702E3
:100650008093BB008091AE029091AF02A091B00256
:10066000B091B102892B8A2B8B2BA1F00E947701CC
:100670000091AE021091AF022091B0023091B10210
:100680006C197D098E099F09061717072807390776
:1006900008F442C08091BC0083FDD8CF85EC8093E4
:1006A000BC000E9477016B017C018091AC0282301A
:1006B00009F450C08091AA028F3F09F46FC0809165
:1006C000AA02803209F46CC08091AA02803309F436
:1006D00069C084E026C08091AE029091AF02A091E3
:1006E000B002B091B102892B8A2B8B2B09F484CFF5
:1006F0000E9477018090AE029090AF02A090B0026D
:10070000B090B1026C197D098E099F098616970673
:10071000A806B90608F070CF8091AD020E94C3020E
:1007200085E01092B3021092D5021092B202DF91CE
:10073000CF911F910F91FF90EF90DF90CF90BF90DE
:10074000AF909F908F9008959D9191938F5F69CF07
:1007500085EEA5CF8091AE029091AF02A091B0023C
:10076000B091B102892B8A2B8B2B09F49ECF0E946A
:1007700077010091AE021091AF022091B00230914A
:10078000B1026C197D098E099F0906171707280702
:10079000390708F08ACFC0CF81E0C3CF80E0C1CF56
:1007A00082E0BFCF83E0BDCF1F93CF93DF93EA01F9
:1007B000122FDC0111968D919C91DC01ED91FC9141
:1007C0000280F381E02D0995C817D90729F4812FFC
:1007D0000E94E40291E0811190E0892FDF91CF9196
:1007E0001F910895CF93DF93EC018B818823A1F0B3
:1007F000888191E09093B2028093D4021092B30268
:100800001092D50281E00E94E40291E0811190E013
:10081000892FDF91CF9108951092650210926402A2
:100820001092B3021092D5020E94A50286E392E0D4
:10083000909356028093550287E392E0909354027E
:100840008093530281E08B83CE010E94F203982FA4
:100850008111CECFDDCF0895E091650280916402D1
:10086000E81730F4F0E0EA59FD4F808190E00895F8
:100870008FEF9FEF089590916502809164022FEFB2
:100880003FEF981748F4E92FF0E0EA59FD4F208137
:1008900030E09F5F90936502C901089580916402E2
:1008A00090916502891B990B0895CF92DF92EF9288
:1008B000FF920F931F93CF93DF937C01CB018A01AB
:1008C0002091B202222389F0EB016B01C40ED51EE8
:1008D000CC15DD0569F06991D701ED91FC9101908E
:1008E000F081E02DC7010995F3CF642F0E947E02AD
:1008F000C801DF91CF911F910F91FF90EF90DF9092
:10090000CF900895CF93DF931F92CDB7DEB7698361
:100910002091B2022223F9F02091D502203258F022
:1009200021E030E0FC013383228390E080E00F90EF
:10093000DF91CF9108958091B302E82FF0E0EC545D
:10094000FD4F998190838F5F8093B3028093D5028E
:1009500081E090E0ECCF61E0CE0101960E947E0242
:10096000F7CF90E080E008952F923F924F925F92F0
:100970006F927F928F929F92AF92BF92CF92DF92AF
:10098000EF92FF920F931F93CF93DF935C011B01B4
:100990006A01F12CE12CD50114968D919C91860170
:1009A0000E191F098017910708F48C01F501D081F9
:1009B0000E9477012B013C018091AC02811172C031
:1009C000C02F013208F0C0E2F1E0F093AC0221E068
:1009D000C601801B910BE816F90608F420E020936D
:1009E000AB028FEF8093AA021092A9028C0F809322
:1009F000A802A1E0A093870280918702DD0FD82B87
:100A0000D093870280918602813009F090C01092C5
:100A100086020E9477012B013C018091870280931E
:100A2000BB008091AE029091AF02A091B002B09154
:100A3000B102892B8A2B8B2BA1F00E947701209188
:100A4000AE023091AF024091B0025091B1026419F0
:100A5000750986099709261737074807590708F4C3
:100A600042C08091BC0083FDD8CFB5ECB093BC00F0
:100A70000E9477012B013C018091AC02813009F486
:100A80005AC08091A9028C1710F4C091A902A8E85D
:100A9000B2E0E6E6F2E080E08C1751F19D9191938F
:100AA0008F5FFACF8091AE029091AF02A091B00219
:100AB000B091B102892B8A2B8B2B09F47DCF0E9438
:100AC00077012091AE023091AF024091B002509177
:100AD000B10264197509860997092617370748076F
:100AE000590708F069CF8091AD020E94C302C0E0AF
:100AF00010926502C0936402C017110609F057C036
:100B000041018E0C9F1CE401CE01881999098017C0
:100B1000910798F5D50111968D919C91DC01ED918D
:100B2000FC910284F385E02D09958993EDCFE5EEE4
:100B3000E093BC009DCF8091AE029091AF02A09156
:100B4000B002B091B102892B8A2B8B2B09F494CF80
:100B50000E9477012091AE023091AF024091B00225
:100B60005091B1026419750986099709261737074C
:100B70004807590708F080CFB6CFE00EF11EEC14FD
:100B8000FD0408F408CF81E0DF91CF911F910F9110
:100B9000FF90EF90DF90CF90BF90AF909F908F909D
:100BA0007F906F905F904F903F902F90089580E0DE
:100BB000EBCFEF92FF920F931F93CF93DF9300D071
:100BC00000D000D01F92CDB7DEB78C011982E09023
:100BD0006202F0906302D70114968D919C91159753
:100BE000892BE9F08C9191E09093B2028093D4022A
:100BF0001092B3021092D50220E041E050E0BE0115
:100C00006F5F7F4FC7010E94D403882341F047E004
:100C100050E0BE016F5F7F4FC7010E94B404E981BD
:100C2000EF77FA81FB804D815E818F81282F30E044
:100C300094E0359527959A95E1F7922F990F990FA2
:100C4000291B220F280FD8012C93852F90E024E038
:100C5000959587952A95E1F7982F990F990F891BFC
:100C6000880F850F11968C931197642F70E034E0F4
:100C7000759567953A95E1F7862F880F880F681B61
:100C8000660F640F12966C9312974F2D50E064E03C
:100C9000559547956A95E1F7842F880F880F481B73
:100CA000440F4F0D13964C9313972F2F30E074E0A1
:100CB000359527957A95E1F7822F880F880F281BA5
:100CC000220F2F0F14962C9314978E2F90E0F4E0A0
:100CD00095958795FA95E1F7982F990F990F891BAC
:100CE000880F8E0F15968C93C80127960FB6F8942F
:100CF000DEBF0FBECDBFDF91CF911F910F91FF904F
:100D0000EF900895CF93DF93EC0160E08E810E9415
:100D10000D0161E08E810E940D0160E08E810E94D4
:100D20000D018BE891E00197F1F7DF91CF910895E4
:100D3000CF92DF92EF92FF920F931F93CF93DF93A7
:100D40006C017C0187E0E80EF11CD0E0C0E0062FCA
:100D500010E0B8010C2E02C0759567950A94E2F771
:100D60006170F70181917F010E940D012196C430CD
:100D7000D10579F7C601DF91CF911F910F91FF90B7
:100D8000EF90DF90CF900C948206CF92DF92EF929B
:100D9000FF920F931F93CF93DF93EC01F62E642FF6
:100DA0008C810E940D018D818F3F19F060E00E94BF
:100DB0000D010F2D10E08F8584FF25C06E0187E0A7
:100DC000C80ED11CF12CE12CB8010E2C02C0759577
:100DD00067950A94E2F76170F60181916F010E94B4
:100DE0000D01FFEFEF1AFF0A88E0E816F10461F742
:100DF000CE01DF91CF911F910F91FF90EF90DF9087
:100E0000CF900C948206B80184E0759567958A9519
:100E1000E1F7CE010E9498066F2DCE01DF91CF91B0
:100E20001F910F91FF90EF90DF90CF900C94980658
:100E300040E0682F8BE793E00C94C506CF93DF93D7
:100E4000823029F490918A03986090938A0380936A
:100E50008E0310928F0380E48093900380E180934F
:100E6000910380E58093920361E080917F030E946B
:100E70003B01809180038F3F19F061E00E943B01AC
:100E800061E0809181030E943B01CBE7D3E09E01AA
:100E90002B57334080918A0384FD0BC084E090E09F
:100EA00021962817390744F461E08E810E943B01A6
:100EB000EECF88E090E0F4CF8BE39DE00197F1F76F
:100EC00060E080917F030E940D0160E080918103CA
:100ED0000E940D01809180038F3F19F060E00E9415
:100EE0000D0180918A0384FD39C063E08BE793E0B4
:100EF0000E949806CBE4D6E4CE010197F1F763E0B7
:100F00008BE793E00E9498062197F1F763E08BE767
:100F100093E00E94980683E592E00197F1F762E082
:100F20008BE793E00E94980680918A0380620E947A
:100F3000180784E080938B038CE00E94180781E0FF
:100F40000E9418078BE39FE10197F1F782E08093FD
:100F50008C0386E0DF91CF910C94180780620E9489
:100F600018078BE496E40197F1F780918A03806279
:100F70000E94180783E592E00197F1F780918A03B8
:100F800080620E941807D0CF90918E03691710F0ED
:100F90006FEF690FE62FF0E0E558FC4F9489890F59
:100FA00080680C94180741E00E94C50681E090E03B
:100FB0000895FC0101900020E9F73197AF01481B2B
:100FC000590BBC018BE793E00C94390261E080E09F
:100FD0000E94C40780910101882341F083E491E0DD
:100FE0000E94D90781E080930001089584E591E093
:100FF000F7CFCF93DF93EC0188819981009711F0AF
:101000000E941613198218821D821C821B821A826A
:10101000DF91CF910895FC0180819181009711F0BB
:101020000C9416130895FC0124813581FB01448141
:10103000558124173507E1F4FC0180819181FB0182
:10104000608171810097D1F061157105A1F4232BA6
:10105000C1F0FC01808190E008C0232B91F0FB01DE
:10106000808190E091958195910921E0892B09F08B
:1010700020E0822F08950E946514F7CF6115710555
:1010800061F721E0F6CF0F931F93CF93DF93EC012D
:1010900088819981009759F02A813B81261737076B
:1010A00030F081E0DF91CF911F910F9108958B0176
:1010B0006F5F7F4F0E949F13009759F09983888339
:1010C0001B830A832C813D81232B59F7FC0110825D
:1010D000E8CF80E0E7CFEF92FF920F931F93CF937B
:1010E000DF93EC017B018A01BA010E944308811160
:1010F0000BC0CE010E94F907CE01DF91CF911F9165
:101100000F91FF90EF9008951D830C83B7018881A4
:1011100099810E946E14F0CFFB0101900020E9F745
:101120003197AF01461B570B0C946B08FC011182E1
:1011300010821382128215821482FB01019000201A
:10114000E9F73197AF01461B570B0C946B08EF92F0
:10115000FF920F931F93CF93DF9300D000D000D066
:10116000CDB7DEB77C018B0161E080E00E94C4074F
:101170001A8219821C821B821E821D82F7016081E5
:1011800071816115710531F044815581CE0101965F
:101190000E946B08ED80FE80F0E1EF0EF11CB701BC
:1011A000CE0101960E9443088823E1F129813A810A
:1011B0008D819E8165E671E0820F931F0E946E14FF
:1011C000FE82ED824D815E8169817A818BE793E0B9
:1011D0000E943902CE0101960E940B0881E08093A3
:1011E00009020E94CE01012E000C220B330BDC0100
:1011F000CB01800F911FA21FB31F80930302909316
:101200000402A0930502B093060226960FB6F89446
:10121000DEBF0FBECDBFDF91CF911F910F91FF9029
:10122000EF900895CE0101960E94F907CBCF85ED8E
:101230008093BC008091AE029091AF02A091B00269
:10124000B091B1020796A11DB11D23E0B695A795F7
:10125000979587952A95D1F72091BC0024FD03C06E
:101260001092AC0208954091AE025091AF0260918D
:10127000B0027091B102452B462B472B69F30097C2
:10128000A105B10541F02AE22A95F1F700C00197C6
:10129000A109B109E1CF8091AD020C94C302EAE04B
:1012A000F2E085E0DF011D928A95E9F710920802CD
:1012B0001092070208958F929F92AF92BF92CF92A1
:1012C000DF92EF92FF920F931F93CF93DF93CDB7EF
:1012D000DEB765970FB6F894DEBF0FBECDBF0E9494
:1012E000CE014B015C0180910902882321F180919C
:1012F000030290910402A0910502B09106028816A3
:101300009906AA06BB0620F0109209020E94E60781
:1013100065960FB6F894DEBF0FBECDBFDF91CF91BB
:101320001F910F91FF90EF90DF90CF90BF90AF9003
:101330009F908F90089580910702811179C08091CC
:10134000FF0190910002A0910102B0910202A5015B
:101350009401281B390B4A0B5B0BDA01C901843657
:101360009105A105B10508F463C060E080E00E942A
:10137000C407CE010A960E94D9058F851F928F93CC
:101380008E851F928F938D851F928F9386E791E0B4
:101390009F938F938E010F5F1F4F1F930F930E9498
:1013A0007514B801CE0140960E94960865E871E078
:1013B000C8010E949608C888D9880FB6F894DEBF85
:1013C0000FBECDBFC114D10409F452C0EC88FD8812
:1013D000E114F104B1F08D819E81E80EF91EB70190
:1013E000C8010E944308882309F442C029813A8138
:1013F0008D819E81B601820F931F0E946E14FE8222
:10140000ED824D815E8169817A818BE793E00E9454
:101410003902C8010E940B08CE0140960E940B08B9
:101420008092FF0190920002A0920102B09202020B
:1014300010910101112301F161E08EE00E940D0184
:1014400060E08FE00E940D018091FE01181709F401
:101450005FCF8091080281115BCF809107028111DB
:1014600057CF0E94E607809101018093FE0150CF83
:10147000C8010E94F907C5CF60E08EE00E940D010F
:1014800061E0DFCFCF93DF9300D000D000D0CDB7A5
:10149000DEB76091F4027091F5028AE092E00E945A
:1014A000651468E971E0892B31F4109201010E9402
:1014B0005B096CE871E0CE0101960E94960864EF2A
:1014C00071E0CE0101960E94A708CE0101960E940C
:1014D0000B080E944F0926960FB6F894DEBF0FBE88
:1014E000CDBFDF91CF9108954F925F926F927F921F
:1014F0008F929F92AF92BF92CF92DF92EF92FF9224
:101500000F931F93CF93DF9300D000D000D0CDB7BF
:10151000DEB781E0809378030E94CE0100916803DA
:101520001091690320916A0330916B03AB01BC01F8
:10153000401B510B620B730B8091740390917503E8
:10154000B0E0A0E084179507A607B70708F074C1BC
:1015500010E080917203181760F4E0916E03F0912F
:101560006F03E10FF11D62E080810E943B011F5F6C
:10157000F0CF912C412C512C320143948091730374
:10158000981608F061C0E92CF12CE0917003F091FD
:101590007103EE0DFF1D61E080810E943B01E0912F
:1015A0007003F0917103EE0DFF1D60E080810E94D9
:1015B0000D01D301C201092C04C0880F991FAA1F75
:1015C000BB1F0A94D2F75C016C01C094D094812CAB
:1015D00080917203881608F5082D10E0E0916E03E3
:1015E000F0916F03E00FF11F80810E94E4000C5F17
:1015F0001F4F000F111FF801E45FFC4F892B41F4CE
:10160000808191818A299B29918380838394E0CF73
:10161000808191818C219D21F7CFE0917003F09121
:101620007103EE0DFF1D61E080810E940D0180912C
:10163000700390917103E80EF91E60E0F70180815C
:101640000E943B0193949ACF2CE0C22E23E0D22E2D
:1016500086018FEF9FEFF801278D30A1232B21F416
:10166000148E968F858F11A20A5F1F4FF3E0083406
:101670001F0789F7B12C96E0992E80917203B81656
:1016800008F052C0A12CEB2CF12CEE0CFF1CC70172
:101690008C5E9C4F7C0120917303A21608F042C01F
:1016A000F701608171810A2C02C0769567950A94D2
:1016B000E2F7B29E900111242A0D311DECE0F3E017
:1016C00080E0458D568D2417350709F440C18F5FA2
:1016D00036968A30B1F760FF23C0ECE0F3E090E08B
:1016E00080E0448D411117C0E0916C03F0916D03CF
:1016F000E20FF31F4081989EF001999EF00D112496
:10170000E45FFC4F448F368F258F10A2178E61E067
:101710000E94DA0105C0019636968A30910509F7D4
:10172000A394B9CFB394A9CFF12CF60181A1811173
:10173000F82EF6E0CF0ED11C0C151D05B1F70E9456
:10174000CE01609368037093690380936A0390935A
:101750006B03FF2009F470C080912D03882309F4E6
:101760006BC080912B0390912C03019709F064C00A
:1017700000912803011163C087E00E94E4000197F3
:1017800029F56FEB71E0CE0101960E9496086CE29C
:1017900071E0CE0101960E94A708CE0101960E9439
:1017A0000B088091F8029091F902059740F460913E
:1017B000F4027091F5028AE092E00E946E140E9499
:1017C000420A87E00E94E4000197D9F380E10E9479
:1017D000E400019751F4109201010E945B096AE054
:1017E00070E080E090E00E949C0181E10E94E400B2
:1017F000019759F481E0809301010E945B096AE03E
:1018000070E080E090E00E949C0126960FB6F8946C
:10181000DEBF0FBECDBFDF91CF911F910F91FF9023
:10182000EF90DF90CF90BF90AF909F908F907F9080
:101830006F905F904F900895109278039DCF8091A4
:101840000902882321F0109209020E94E607033260
:1018500099F40E944F0964EA71E0CE0101960E945A
:10186000960868EC70E0CE0101960E94A708CE01B0
:1018700001960E940B0880CF0A3269F58091080218
:10188000882321F1815080930802E82FF0E0E65F81
:10189000FD4F108261E00E94C40784E791E00E943E
:1018A000D9071091080261E0812F0E94C40711112D
:1018B00063CF1092070260E080E00E94C40785E6D3
:1018C00091E00E94D9070E945B0956CF0E944F0900
:1018D0000E94E60751CF8091070281110BC081E081
:1018E0008093070260E080E00E94C4078EEA91E0E6
:1018F0000E94D90780910001882371F061E080E0A7
:101900000E94C40785E691E00E94D90761E080E06B
:101910000E94C4071092000110910802143008F0D0
:101920002BCFE12FF0E0E65FFD4F008341E0602F19
:101930008BE793E00E94C5061F5F109308021430E6
:1019400009F01ACF10920E020E94420A15CF617060
:10195000DFCE8F929F92AF92BF92CF92DF92EF92A3
:10196000FF922AE030E040E050E00E94521249012C
:101970005A010E94CE016B017C010E94CE016C19BC
:101980007D098E099F09681579058A059B0528F44C
:101990000E945B090E94740AF0CFFF90EF90DF90E5
:1019A000CF90BF90AF909F908F900895EF92FF924D
:1019B0000F931F93CF93DF93CDB7DEB72C970FB65E
:1019C000F894DEBF0FBECDBF7C01CE0101960E9410
:1019D000D9058E818E01095F1F4F853028F58D81D5
:1019E0001F928F938C811F928F938BE791E09F932F
:1019F0008F931F930F930E9475140FB6F894DEBF58
:101A00000FBECDBFB801C7010E949608C7012C9632
:101A10000FB6F894DEBF0FBECDBFDF91CF911F91FF
:101A20000F91FF90EF9008956EEC71E0C8010E9455
:101A30006E14E8CF1F920F920FB60F9211242F93BE
:101A40003F938F939F93AF93BF9380915A0290914E
:101A50005B02A0915C02B0915D023091590223E0DB
:101A6000230F2D3758F50196A11DB11D2093590262
:101A700080935A0290935B02A0935C02B0935D0244
:101A800080915E0290915F02A0916002B09161022C
:101A90000196A11DB11D80935E0290935F02A093F9
:101AA0006002B0936102BF91AF919F918F913F917E
:101AB0002F910F900FBE0F901F90189526E8230FBF
:101AC0000296A11DB11DD2CF1F920F920FB60F9299
:101AD00011242F933F934F935F936F937F938F9333
:101AE0009F93AF93BF93EF93FF938091B900887F4B
:101AF000803609F44AC0F0F5883209F4A7C018F519
:101B0000803109F49BC0B8F4882309F4F9C0883007
:101B100009F494C0FF91EF91BF91AF919F918F9184
:101B20007F916F915F914F913F912F910F900FBED9
:101B30000F901F901895883109F488C0803251F7B2
:101B40008093AA0214C0803409F49DC040F480330D
:101B5000B9F38833F9F68093AA0285ECB0C08035DA
:101B600009F485C0883509F496C0883499F60E9436
:101B70001709D0CF883909F48CC038F5883729F097
:101B800050F4883611F0803729F683E08093AC0258
:101B90001092520257C0883809F47BC0803919F07E
:101BA000803809F0B7CF80915202803208F071C0BE
:101BB000E091520281E08E0F809352028091BB002F
:101BC000F0E0EE5CFD4F80833DC0803B39F0E0F4F7
:101BD000803A09F479C0883A09F09CCF84E0809378
:101BE000AC021092310210923002E0915502F09155
:101BF000560209958091300281110FC081E08093D7
:101C000030021092100209C0803C09F4A6CF883C33
:101C100009F4A3CF883B09F07DCFE091310281E048
:101C20008E0F80933102F0E0E05FFD4F8081809362
:101C3000BB00909131028091300229C080918702CF
:101C40008093BB0085EC8093BC0064CF9091A90287
:101C50008091A802981758F5E091A90281E08E0FB3
:101C60008093A902F0E0E857FD4F8081E9CFE09131
:101C7000A90281E08E0F8093A9028091BB00F0E061
:101C8000E857FD4F80839091A9028091A802981790
:101C9000C8F285E8D8CFE091A90281E08E0F809349
:101CA000A9028091BB00F0E0E857FD4F808380914E
:101CB000AB0281115CCF81E08093860284EA80933D
:101CC000BC001092AC0226CF85EC8093BC00109231
:101CD000AC0280915202803230F4E0915202F0E086
:101CE000EE5CFD4F10826091520270E0E091530271
:101CF000F091540282E392E00995109252020ACFC9
:101D00001092AA0234CF1092D9021092D80288EE13
:101D100093E0A0E0B0E08093DA029093DB02A0931E
:101D2000DC02B093DD028FE191E09093D7028093C3
:101D3000D60210927E0310927D038BE391E0909384
:101D40007C0380937B0388E080937F038FEF8093F5
:101D5000800389E0809381038AE0809382038BE093
:101D6000809383038CE0809384038DE080938503CC
:101D700010928603109287031092880310928903B1
:101D800010928A0381E00E941E0710920E031092A7
:101D90001203109211031092130381E391E09093C8
:101DA0000D0380930C03E8E2F3E0108214821382A7
:101DB0001582369683E0E436F807B9F785E091E0BE
:101DC00090936F0380936E0382E091E09093710390
:101DD0008093700384E08093720383E080937303A5
:101DE00089E091E090936D0380936C038AE090E02A
:101DF000909375038093740384EF91E0909377033D
:101E00008093760310927A031092790310926803FC
:101E10001092690310926A0310926B031092780378
:101E200065E771E086E093E00E94960865E771E05F
:101E300080E093E00E94960865E771E08AEF92E007
:101E40000E94960865E771E084EF92E00E94960890
:101E500065E771E08EEE92E00E94960865E771E01A
:101E600088EE92E00E94960865E771E082EE92E0CB
:101E70000C949608CF93DF93CDB7DEB769970FB672
:101E8000F894DEBF0FBECDBF789484B5826084BD68
:101E900084B5816084BD85B5826085BD85B581606E
:101EA00085BD80916E00816080936E0010928100EC
:101EB00080918100826080938100809181008160A7
:101EC0008093810080918000816080938000809168
:101ED000B10084608093B1008091B00081608093F4
:101EE000B00080917A00846080937A0080917A00BB
:101EF000826080937A0080917A00816080937A007A
:101F000080917A00806880937A001092C10082E00C
:101F10000E941E0784ED91E00E94D90762E370E001
:101F200080E090E00E949C0181E00E9418078BE312
:101F30009FE10197F1F761E08EE00E943B0161E0D3
:101F40008FE00E943B0160E080E10E943B0160E085
:101F500081E10E943B0160E087E00E943B018091AB
:101F6000620290916302009711F00E94161386E0BE
:101F700090E00E947A128C0188E6F801808386ED59
:101F800092E092838183138280E290E09583848340
:101F90001093630200936202109265021092640231
:101FA0001092B3021092D5020E94A50286E392E03D
:101FB000909356028093550287E392E090935402E7
:101FC0008093530281E0F8018383C8010E94F203E9
:101FD000811107C061E00E94C40782EE91E00E9477
:101FE000D907198E8091620290916302FC012481CD
:101FF0003581232B91F0208131E03093B202209380
:10200000D4021092B3021092D50221E041E050E0D8
:10201000BE01675E7F4F0E94D40341E050E08E0115
:102020000F5F1F4FB80180916202909163020E947E
:10203000B404898190E0880F892F881F990B892B20
:1020400009F49DC04BE050E061E770E0C8010E94D8
:10205000D111CE010A960E947102E82EE981E15465
:10206000E331E0F40E2E000CFF0BE75CFF4E0C9406
:1020700074127E114E104E1099114E104C104E10CD
:102080004E104E106F114E104E1087119611931175
:102090004E104E104E109011A2E0FA2ECE01059671
:1020A0000E947102D82E48E050E068E670E0C80156
:1020B0000E94D111C8010E947102C82ECE0104965F
:1020C0000E947102B82ECE0107960E947102382F2D
:1020D00086E0F80111928A95E9F72AE0832F622FB2
:1020E0000E944612982F880F890F880F830F8A83CA
:1020F0008B2D0E944612982F880F890F880F8B0D09
:102100008B838C2D0E944612982F880F890F880F81
:102110008C0D8C838D2D0E944612982F880F890F6D
:10212000880F8D0D8E838F2D0E944612982F990F48
:10213000890F880FF80EFF828E2D0E944612982F6D
:10214000880F890F880F8E0D888780916202909189
:102150006302FC01248135812830310580F0208123
:1021600031E03093B2022093D4021092B302109265
:10217000D50221E048E050E0B8010E94D403FF24DA
:10218000F394F09201010E944F090E945B090E94A2
:102190005B090E94740A65E771E08AEF92E00E9491
:1021A0008C08F09201011C8A1B8A1E8A1D8A188ED7
:1021B0001F8A4AE0B80182EF93E00E94DA11B80169
:1021C000CE0143960E948C088091F4029091F50212
:1021D000009709F4B3C06B897C896115710509F416
:1021E000ABC04091F6025091F7022F89388D42170B
:1021F000530708F4A1C00E946E148F89988D9093A4
:10220000F9028093F802188E1F8ACE0143960E942D
:102210000B086CEE71E086E093E00E948C0862EFA0
:1022200071E082EE92E00E948C0868EF71E08EEE21
:1022300092E00E948C086AE070E080E090E00E94EA
:10224000A90CFF24F39468EE73E080E090E00E9414
:10225000A90CC8010E94D60C6EEE72E0C8010E9463
:102260001308E82E81E0E11001C080E0809358025D
:10227000C8010E940B08EE2021F0F09201010E949B
:102280005B09C8010E94D60C62EE72E0C8010E9490
:102290001308E82E81E0E11001C080E0809357022E
:1022A000C8010E940B08EE2021F0109201010E944B
:1022B0005B0964E670E080E090E00E94A90C6AEFA0
:1022C00072E084EF92E00E941308882309F4BBCFE8
:1022D000109201010E945B09F0920101B4CF8A8142
:1022E000FF24F394813609F4D9CE8B81F7E0FF2ED9
:1022F0008E3609F0D3CEE6E0FE2ED0CE8B8178E08C
:10230000F72E823709F0CACE64E0F62EC7CE8B8155
:1023100055E0F52E823709F0C1CE43E0F42EBECE53
:1023200039E0F32EBBCE2AE0F22EB8CE9BE0F92E98
:10233000B5CE8CE0F82EB2CE0E9416138B899C8904
:102340009093F5028093F4028D899E899093F70211
:102350008093F6028F89988D9093F9028093F8020A
:102360001C8A1B8A1E8A1D8A4ECF82EE92E00E9432
:102370000B0888EE92E00E940B088EEE92E00E941D
:102380000B0884EF92E00E940B088AEF92E00E9413
:102390000B0880E093E00E940B0886E093E00C9429
:1023A0000B08FB01DC0102C005900D92415050402A
:1023B000D8F70895BB274A3031F4992322F4BDE2BF
:1023C000909581959F4F0C94E611BB27FB015527F3
:1023D000AA27880F991FAA1FA41710F0A41B839582
:1023E0005051B9F7A05DAA3308F0A95DA1930097F9
:1023F00079F7B111B1931192CB010C94FF11DC016B
:10240000FC01672F71917723E1F7329704C07C912B
:102410006D9370836291AE17BF07C8F308952F9232
:102420003F924F925F926F927F928F929F92AF9264
:10243000BF92CF92DF92EF92FF920F931F93CF93B1
:10244000DF93CDB7DEB7CA1BDB0B0FB6F894DEBF48
:102450000FBECDBF09942A88398848885F846E846E
:102460007D848C849B84AA84B984C884DF80EE80B8
:10247000FD800C811B81AA81B981CE0FD11D0FB6C1
:10248000F894DEBF0FBECDBFED010895991B79E032
:1024900004C0991F961708F0961B881F7A95C9F7F4
:1024A00080950895A1E21A2EAA1BBB1BFD010DC049
:1024B000AA1FBB1FEE1FFF1FA217B307E407F507F4
:1024C00020F0A21BB30BE40BF50B661F771F881FD0
:1024D000991F1A9469F760957095809590959B0166
:1024E000AC01BD01CF010895EE0FFF1F0590F491DF
:1024F000E02D09940F931F93CF93DF9382309105C2
:1025000010F482E090E0E0919503F091960330E0C2
:1025100020E0B0E0A0E0309799F42115310509F4EE
:102520004AC0281B390B24303105D8F58A819B819C
:102530006115710589F1FB0193838283FE0111C04E
:10254000408151810281138148175907E0F04817F3
:10255000590799F4109761F012960C9312971396FD
:102560001C933296CF01DF91CF911F910F91089567
:102570000093950310939603F4CF2115310551F084
:102580004217530738F0A901DB019A01BD01DF01B1
:10259000F801C1CFEF01F9CF909396038093950393
:1025A000CDCFFE01E20FF31F8193919322503109A9
:1025B00039832883D7CF2091930330919403232B21
:1025C00041F4209117013091180130939403209326
:1025D000930320911501309116012115310541F425
:1025E0002DB73EB74091190150911A01241B350BAC
:1025F000E0919303F0919403E217F307A0F42E1BEC
:102600003F0B2817390778F0AC014E5F5F4F241756
:10261000350748F04E0F5F1F509394034093930388
:10262000819391939FCFF0E0E0E09CCFCF93DF9335
:102630000097E9F0FC01329713821282A091950372
:10264000B0919603ED0130E020E01097A1F42081D5
:102650003181820F931F20919303309194032817A7
:10266000390709F061C0F0939403E0939303DF917D
:10267000CF910895EA01CE17DF07E8F54A815B8123
:102680009E0141155105B1F7E901FB83EA834991A8
:102690005991C40FD51FEC17FD0761F4808191811A
:1026A0000296840F951FE901998388838281938123
:1026B0009B838A83F0E0E0E012968D919C911397C2
:1026C0000097B9F52D913C911197CD010296820F9B
:1026D000931F20919303309194032817390739F6FB
:1026E000309751F51092960310929503B09394038E
:1026F000A0939303BCCFD383C28340815181840FC5
:10270000951FC817D90761F44E5F5F4F8881998183
:10271000480F591F518340838A819B819383828311
:102720002115310509F0B0CFF0939603E09395039E
:102730009ECFFD01DC01C0CF13821282D7CFB0E063
:10274000A0E0E5EAF3E10C9411128C01009751F43A
:10275000CB010E947A128C01C801CDB7DEB7E0E14F
:102760000C942D12FC01E60FF71F9C012250310939
:10277000E217F30708F49DC0D901CD91DC911197C0
:10278000C617D70798F0C530D10530F3CE010497AE
:102790008617970708F3C61BD70B2297C193D193CF
:1027A0006D937C93CF010E941613D6CF5B01AC1AB8
:1027B000BD0A4C018C0E9D1EA0919503B09196030D
:1027C000512C412CF12CE12C109731F58091930381
:1027D000909194038815990509F05CC04616570638
:1027E00008F058C08091150190911601009741F4AE
:1027F0008DB79EB74091190150911A01841B950B1A
:10280000E817F90708F055C0F0939403E093930399
:10281000F90171836083A0CF8D919C9111971296DD
:102820006C90129713967C901397A815B90559F5DB
:102830006C0142E0C40ED11CCA14DB0420F1AC01CF
:102840004A195B09DA011296159780F06282738249
:1028500051834083D9016D937C93E114F10471F0AD
:10286000D7011396FC93EE93129776CF22968C0F96
:102870009D1FF90191838083F301EFCFF0939603BD
:10288000E093950369CF4816590608F42C017D01A1
:10289000D3019ACFCB010E947A127C01009749F0B4
:1028A000AE01B8010E945C14C8010E941613870192
:1028B00053CF10E000E050CFFB01DC0102C00190DB
:1028C0000D9241505040D8F70895FB01DC018D91E5
:1028D000019080190110D9F3990B0895FB01DC01D7
:1028E00001900D920020E1F70895AEE0B0E0EBE733
:1028F000F4E10C941D120D891E8986E08C831A83E5
:1029000009838FEF9FE79E838D83AE01475E5F4F04
:102910006F89788DCE0101960E9498142F81388599
:10292000020F131FF80110822E96E4E00C94391266
:10293000ABE0B0E0EEE9F4E10C940F127C013B0156
:102940008A01FC0117821682838181FFC8C1CE01F2
:1029500001965C01F7019381F30193FD859193FF4B
:1029600081913F01882309F453C1853239F493FDE5
:10297000859193FF81913F01853229F4B70190E061
:102980000E948816E7CF912C212C312CFFE1F31502
:1029900038F08B3211F190F4803209F1833229F151
:1029A00037FC3CC020ED280F2A3050F536FE20C001
:1029B0008AE0989E200D1124922E06C08D3291F04F
:1029C000803371F7689430F8F30193FD859193FF9C
:1029D00081913F018111DACF21C0689431F8689468
:1029E00032F8F2CF689433F8EFCF689434F8ECCF34
:1029F000EAE02E9E200D1124222E689435F8E4CFB3
:102A00008E3229F436FC04C1689436F8DDCF8C365A
:102A100019F4689437F8D8CF8836B1F2982F9F7D93
:102A200095549330E0F08336A1F18337C1F18335BB
:102A300009F063C02801F2E04F0E511CF801C0807C
:102A4000D180692D70E036FC02C06FEF7FEFC601C8
:102A50000E9472164C01689437F882010AC00C5F1C
:102A60001F4FFFE3F98388248394912C6501E89438
:102A700037F833FE2DC0522C8114910471F5552086
:102A800009F468CFB70180E290E00E9488165A945A
:102A9000F6CFF801808189830E5F1F4FE4CF2801B4
:102AA000F2E04F0E511CF801C080D180692D70E01A
:102AB00036FC02C06FEF7FEFC6010E947D164C010D
:102AC0008201D5CFB70180E290E00E9488162A9457
:102AD0002814190409F0B0F7CECFF60137FC859120
:102AE00037FE81916F01B70190E00E948816511066
:102AF0005A94F1E08F1A9108BFCF843619F08936C5
:102B000009F077C0F80137FE6BC060817181828166
:102B100093810C5F1F4FF32DFF763F2E97FF09C067
:102B200090958095709561957F4F8F4F9F4F6894DA
:102B300037F82AE030E0A5010E94B816C82ECA185E
:102B40008C2C432C36FE0CC0E89440F8C91440F499
:102B500034FE05C032FC03C0F32DFE7E4F2E892CBF
:102B600044FE95C0FE01EC0DF11D8081803309F01B
:102B700087C0242D297E422E842D8870582E43FC38
:102B800095C040FE8FC09C2C821418F42C0C922C03
:102B9000981844FE91C0B70180E390E00E94881627
:102BA00042FE09C088E790E041FE02C088E590E05F
:102BB000B7010E948816C91408F48AC0CA94D12C9F
:102BC0009FEFC91AD90ACA0CDB1CF60182916F016A
:102BD000B70190E00E948816AC14BD04B1F74FCF46
:102BE00060817181072E000C880B990B0E5F1F4FBF
:102BF00092CFD32CE894D4F82AE030E0853739F12D
:102C0000232D297FD22E8F3601F148F48835A9F083
:102C1000F701868197812B96E2E10C942B12803785
:102C200049F08837A9F7D4FE02C06894D2F820E1B1
:102C300030E00DC06894D4F8F6CF34FE03C0822F84
:102C40008660D82E20E132E002C028E030E0F801B2
:102C5000D7FE0FC060817181828193810C5F1F4F0D
:102C6000A5010E94B816C82ECA183D2CE89437F862
:102C700067CF6081718190E080E00E5F1F4FF0CFE1
:102C800042FC02C0839478CF8394839475CF842DC3
:102C9000867809F471CFF6CFB70180E290E00E9408
:102CA000881683948214C0F3512C73CF522C581879
:102CB000821408F46ECFF8CF842D867809F47BCF88
:102CC0008BE241FE80E247FC8DE2B70190E071CFDC
:102CD000B70180E390E00E9488169A946CCF8FEF42
:102CE0009FEF99CFFC010590615070400110D8F71B
:102CF000809590958E0F9F1F0895FC016150704044
:102D000001900110D8F7809590958E0F9F1F089520
:102D10000F931F93CF93DF93182F092FEB018B8114
:102D200081FD09C01FEF0FEF812F902FDF91CF9111
:102D30001F910F91089582FF14C02E813F818C81D5
:102D40009D81281739073CF4E881F981CF0101966C
:102D50009983888310838E819F8101969F838E83C0
:102D6000E3CFE885F985812F0995892BA1F3DACF87
:102D7000FA01AA27283051F1203181F1E8946F93AC
:102D80006E7F6E5F7F4F8F4F9F4FAF4FB1E03ED052
:102D9000B4E03CD0670F781F891F9A1FA11D680FF0
:102DA000791F8A1F911DA11D6A0F711D811D911D23
:102DB000A11D20D009F468943F912AE0269F112498
:102DC0003019305D3193DEF6CF010895462F4770FC
:102DD000405D4193B3E00FD0C9F7F6CF462F4F7057
:102DE000405D4A3318F0495D31FD4052419302D0B5
:102DF000A9F7EACFB4E0A69597958795779567955B
:102E0000BA95C9F700976105710508959B01AC015A
:102E10000A2E06945795479537952795BA95C9F781
:102E2000620F731F841F951FA01D089510E0CDE64B
:102E3000D0E004C0FE010E9474122196CE36D10764
:062E4000C9F7F894FFCF72
:102E460001010405060001020331323334353637F9
:102E560038392A30230000970380000000000082E2
:102E6600045504B1042B044E043B042C040000005A
:102E7600006D026902660200000000D3073902B144
:102E86000438024345525241444F2020202020203E
:102E9600202020004142494552544F202020202026
:102EA600202020200020202020202020202020203C
:102EB600202020202000253032643A253032643A22
:102EC6002530326400486F72613A20004249454E0F
:102ED60056454E49444F21004552524F5220434CCD
:102EE6004156450043616E63656C61646F00434CF7
:102EF6004156453A20202020202020202020004C2A
:102F06006579656E646F204D656D2E2E2E005858BE
:102F16003A58580053495354454D41204C4953544F
:102F26004F004552524F52205254430030303A30EF
:0E2F3600300032323A33360032323A3337004E
:00000001FF
