:020000040000FA
:100000000C946E000C9496000C9496000C94960040
:100010000C9496000C9496000C9496000C94960008
:100020000C9496000C9496000C9496000C949600F8
:100030000C9496000C9496000C9496000C949600E8
:100040000C948C0B0C9496000C9496000C949600D7
:100050000C9496000C9496000C9496000C949600C8
:100060000C94D60B0C94960032303A35343A34392D
:100070000044656320203920323032350000000012
:1000800000240027002A0000000000250028002B83
:1000900000000000002300260029000404040404DA
:1000A0000404040202020202020303030303030125
:1000B00002040810204080010204081020010204FC
:1000C00008102000000008000201000003040700DF
:1000D0000000000000000000F50CF40F11241FBE0A
:1000E000CFEFD8E0DEBFCDBF23E0ACEEB1E001C082
:1000F0001D92A538B207E1F711E0A0E0B1E0E0E918
:10010000FAE202C005900D92AC3EB107D9F710E0BB
:10011000CDE6D0E004C02197FE010E949910CC36B4
:10012000D107C9F70E94B80D0C943B150C94000040
:1001300096E0899FD0011124A650BD4F90967C93E4
:100140006E935F9791E091969C939197E0916703EE
:10015000F091680390916603992339F0309751F03C
:10016000811108C0809116030994309719F05C96AC
:100170008C91FACF0895833081F028F4813099F082
:100180008230A9F008958730A9F08830C9F0843012
:10019000B1F4809180008F7D03C0809180008F77C3
:1001A00080938000089584B58F7784BD089584B5C9
:1001B0008F7DFBCF8091B0008F778093B000089542
:1001C0008091B0008F7DF9CFCF93DF93282F30E05F
:1001D000F901ED53FF4F8491F901E155FF4FD4919F
:1001E000F901E556FF4FC491CC23A1F081110E9483
:1001F000BB00EC2FF0E0EE0FFF1FEF56FF4FA59175
:10020000B491EC91ED2381E090E009F480E0DF917E
:10021000CF91089580E090E0FACF1F93CF93DF93C2
:10022000282F30E0F901ED53FF4F8491F901E1559A
:10023000FF4FD491F901E556FF4FC491CC23A9F0AB
:10024000162F81110E94BB00EC2FF0E0EE0FFF1F74
:10025000E957FF4FA591B4918FB7F894EC91111124
:1002600008C0D095DE23DC938FBFDF91CF911F9123
:100270000895DE2BF8CFCF93DF9390E0FC01E1559A
:10028000FF4F249185569F4FFC0184918823C9F02C
:1002900090E0880F991FFC01E358FF4FA591B4919E
:1002A000FC01E957FF4FC591D49161110DC09FB773
:1002B000F8948C91209582238C938881282328831D
:1002C0009FBFDF91CF910895623051F49FB7F894AA
:1002D0003C91822F809583238C93E8812E2BEFCF46
:1002E0008FB7F894EC912E2B2C938FBFEACF3FB7AA
:1002F000F8948091420290914302A0914402B091FF
:10030000450226B5A89B05C02F3F19F00196A11DF7
:10031000B11D3FBFBA2FA92F982F8827BC01CD014F
:10032000620F711D811D911D42E0660F771F881FAE
:10033000991F4A95D1F708958F929F92AF92BF92DD
:10034000CF92DF92EF92FF924B015C010E94770106
:100350006B017C010E9477016C197D098E099F0950
:10036000683E734081059105A8F321E0821A910847
:10037000A108B10888EEC80E83E0D81EE11CF11C6C
:1003800081149104A104B10429F7FF90EF90DF904C
:10039000CF90BF90AF909F908F9008952FB7F89413
:1003A00060913E0270913F02809140029091410223
:1003B0002FBF08950F931F93CF93DF93C82FD62F8E
:1003C00086E0C89FF0011124E650FD4F11A2878DF1
:1003D00090A181309105F1F058F082309105F1F152
:1003E000039709F440C0DF91CF911F910F910895B9
:1003F0006623C9F361E070E08C2F0E9498000E9490
:10040000CE016093520370935303809354039093EF
:100410005503E9CF0E94CE0100915203109153037E
:100420002091540330915503AB01BC01401B510B8B
:10043000620B730B8091640390916503B0E0A0E0C0
:1004400084179507A607B70748F462E070E08C2F81
:10045000DF91CF911F910F910C94980063E070E0B1
:10046000D111C1CFF4CF70E060E0F1CF08950895CD
:100470000895AF92BF92CF92DF92EF92FF920F93C7
:100480001F93CF93DF936C017B018B01040F151F2A
:10049000EB015E01AE18BF08C017D10759F0699192
:1004A000D601ED91FC910190F081E02DC6010995F6
:1004B000892B79F7C501DF91CF911F910F91FF90A3
:1004C000EF90DF90CF90BF90AF900895862F0C945F
:1004D000E400862F642F0C940D01862F642F0C945A
:1004E0003B01FC01908190539A3008F090E08181AB
:1004F00080532AE0929F800D1124089520911402C8
:10050000260F3327331F21323105ECF420918E0260
:10051000FC0190E080E0243069F082E00895A09131
:1005200014022191AC014C505E4FA40FB52FB11DA8
:100530002C930196861798F380911402680F6093AC
:10054000140280E0089581E0089510928E0281E007
:1005500080938D021092680261E082E10E940D0199
:1005600061E083E10E940D01E9EBF0E080818E7F84
:10057000808380818D7F808388E48093B80085E4C8
:100580008093BC000895CF93DF9391E09093F301A3
:100590008823B9F0C091B800D091BA008091BC0016
:1005A0008A7B8093BC0060E082E10E940D0160E0E4
:1005B00083E10E940D010E94A502D093BA00C0936E
:1005C000B800DF91CF9108958F929F92AF92BF9222
:1005D000CF92DF92EF92FF920F931F93CF93DF930F
:1005E000D091B702D13208F0D7C0182FC091B6020F
:1005F0000E9477016B017C0180918E0281116BC09A
:1006000082E080938E0210938D028FEF80938C0294
:1006100010928B02D0938A02A6E9B2E0EAE6F2E0F9
:1006200080E0D81391C01092690280916902CC0FCA
:10063000C82BC093690280916802813009F088C09C
:10064000109268020E9477016B017C01809169021F
:100650008093BB008091900290919102A0919202B0
:10066000B0919302892B8A2B8B2BA1F00E947701EA
:100670000091900210919102209192023091930288
:100680006C197D098E099F09061717072807390776
:1006900008F442C08091BC0083FDD8CF85EC8093E4
:1006A000BC000E9477016B017C0180918E02823038
:1006B00009F450C080918C028F3F09F46FC0809183
:1006C0008C02803209F46CC080918C02803309F472
:1006D00069C084E026C08091900290919102A0911F
:1006E0009202B0919302892B8A2B8B2B09F484CF31
:1006F0000E9477018090900290909102A0909202C7
:10070000B09093026C197D098E099F098616970691
:10071000A806B90608F070CF80918F020E94C3022C
:1007200085E0109295021092B70210929402DF9128
:10073000CF911F910F91FF90EF90DF90CF90BF90DE
:10074000AF909F908F9008959D9191938F5F69CF07
:1007500085EEA5CF8091900290919102A091920296
:10076000B0919302892B8A2B8B2B09F49ECF0E9488
:1007700077010091900210919102209192023091A4
:1007800093026C197D098E099F0906171707280720
:10079000390708F08ACFC0CF81E0C3CF80E0C1CF56
:1007A00082E0BFCF83E0BDCF1F93CF93DF93EA01F9
:1007B000122FDC0111968D919C91DC01ED91FC9141
:1007C0000280F381E02D0995C817D90729F4812FFC
:1007D0000E94E40291E0811190E0892FDF91CF9196
:1007E0001F910895CF93DF93EC018B818823A1F0B3
:1007F000888191E0909394028093B60210929502C2
:100800001092B70281E00E94E40291E0811190E031
:10081000892FDF91CF9108951092470210924602DE
:10082000109295021092B7020E94A50286E392E010
:1008300090933A028093390287E392E090933802D2
:100840008093370281E08B83CE010E94F203982FC0
:100850008111CECFDDCF0895E0914702809146020D
:10086000E81730F4F0E0E85BFD4F808190E00895F8
:100870008FEF9FEF089590914702809146022FEFEE
:100880003FEF981748F4E92FF0E0E85BFD4F208137
:1008900030E09F5F90934702C9010895809146021E
:1008A00090914702891B990B0895CF92DF92EF92A6
:1008B000FF920F931F93CF93DF937C01CB018A01AB
:1008C00020919402222389F0EB016B01C40ED51E06
:1008D000CC15DD0569F06991D701ED91FC9101908E
:1008E000F081E02DC7010995F3CF642F0E947E02AD
:1008F000C801DF91CF911F910F91FF90EF90DF9092
:10090000CF900895CF93DF931F92CDB7DEB7698361
:10091000209194022223F9F02091B702203258F05E
:1009200021E030E0FC013383228390E080E00F90EF
:10093000DF91CF91089580919502E82FF0E0EA567B
:10094000FD4F998190838F5F809395028093B702CA
:1009500081E090E0ECCF61E0CE0101960E947E0242
:10096000F7CF90E080E008952F923F924F925F92F0
:100970006F927F928F929F92AF92BF92CF92DF92AF
:10098000EF92FF920F931F93CF93DF935C011B01B4
:100990006A01F12CE12CD50114968D919C91860170
:1009A0000E191F098017910708F48C01F501D081F9
:1009B0000E9477012B013C0180918E02811172C04F
:1009C000C02F013208F0C0E2F1E0F0938E0221E086
:1009D000C601801B910BE816F90608F420E020936D
:1009E0008D028FEF80938C0210928B028C0F80937C
:1009F0008A02A1E0A093690280916902DD0FD82BE1
:100A0000D093690280916802813009F090C0109201
:100A100068020E9477012B013C018091690280935A
:100A2000BB008091900290919102A0919202B091AE
:100A30009302892B8A2B8B2BA1F00E9477012091A6
:100A40009002309191024091920250919302641968
:100A5000750986099709261737074807590708F4C3
:100A600042C08091BC0083FDD8CFB5ECB093BC00F0
:100A70000E9477012B013C0180918E02813009F4A4
:100A80005AC080918B028C1710F4C0918B02AAE699
:100A9000B2E0E8E4F2E080E08C1751F19D9191938F
:100AA0008F5FFACF8091900290919102A091920273
:100AB000B0919302892B8A2B8B2B09F47DCF0E9456
:100AC00077012091900230919102409192025091D1
:100AD000930264197509860997092617370748078D
:100AE000590708F069CF80918F020E94C302C0E0CD
:100AF00010924702C0934602C017110609F057C072
:100B000041018E0C9F1CE401CE01881999098017C0
:100B1000910798F5D50111968D919C91DC01ED918D
:100B2000FC910284F385E02D09958993EDCFE5EEE4
:100B3000E093BC009DCF8091900290919102A09192
:100B40009202B0919302892B8A2B8B2B09F494CFBC
:100B50000E9477012091900230919102409192027F
:100B6000509193026419750986099709261737076A
:100B70004807590708F080CFB6CFE00EF11EEC14FD
:100B8000FD0408F408CF81E0DF91CF911F910F9110
:100B9000FF90EF90DF90CF90BF90AF909F908F909D
:100BA0007F906F905F904F903F902F90089580E0DE
:100BB000EBCFCF93DF93EC0160E08E810E940D01BB
:100BC00061E08E810E940D0160E08E810E940D0126
:100BD0008BE891E00197F1F7DF91CF910895CF92E3
:100BE000DF92EF92FF920F931F93CF93DF936C01ED
:100BF0007C0187E0E80EF11CD0E0C0E0062F10E099
:100C0000B8010C2E02C0759567950A94E2F76170E1
:100C1000F70181917F010E940D012196C430D10519
:100C200079F7C601DF91CF911F910F91FF90EF905F
:100C3000DF90CF900C94D905CF92DF92EF92FF9284
:100C40000F931F93CF93DF93EC01F62E642F8C81CB
:100C50000E940D018D818F3F19F060E00E940D010F
:100C60000F2D10E08F8584FF25C06E0187E0C80E30
:100C7000D11CF12CE12CB8010E2C02C075956795A2
:100C80000A94E2F76170F60181916F010E940D01F3
:100C9000FFEFEF1AFF0A88E0E816F10461F7CE01D2
:100CA000DF91CF911F910F91FF90EF90DF90CF9048
:100CB0000C94D905B80184E0759567958A95E1F79C
:100CC000CE010E94EF056F2DCE01DF91CF911F91D4
:100CD0000F91FF90EF90DF90CF900C94EF0540E0E4
:100CE000682F89E693E00C941C06CF93DF93823043
:100CF00029F49091780398609093780380937C0313
:100D000010927D0380E480937E0380E180937F03D3
:100D100080E58093800361E080916D030E943B0138
:100D200080916E038F3F19F061E00E943B0161E00A
:100D300080916F030E943B01C9E6D3E09E012956D2
:100D400033408091780384FD0BC084E090E02196CD
:100D50002817390744F461E08E810E943B01EECFF1
:100D600088E090E0F4CF8BE39DE00197F1F760E03D
:100D700080916D030E940D0160E080916F030E94DD
:100D80000D0180916E038F3F19F060E00E940D010C
:100D90008091780384FD39C063E089E693E00E9486
:100DA000EF05CBE4D6E4CE010197F1F763E089E6E5
:100DB00093E00E94EF052197F1F763E089E693E065
:100DC0000E94EF0583E592E00197F1F762E089E682
:100DD00093E00E94EF058091780380620E946F0685
:100DE00084E0809379038CE00E946F0681E00E948A
:100DF0006F068BE39FE10197F1F782E080937A031E
:100E000086E0DF91CF910C946F0680620E946F069E
:100E10008BE496E40197F1F78091780380620E9459
:100E20006F0683E592E00197F1F780917803806285
:100E30000E946F06D0CF90917C03691710F06FEF7E
:100E4000690FE62FF0E0E759FC4F9489890F80681D
:100E50000C946F0641E00E941C0681E090E008952A
:100E6000FC0101900020E9F73197AF01481B590BB5
:100E7000BC0189E693E00C94390261E080E00E94B5
:100E80001B0780910101882341F088E491E00E94D2
:100E9000300781E080930001089589E591E0F7CF64
:100EA000CF93DF93EC0188819981009711F00E9424
:100EB0003B11198218821D821C821B821A82DF91CB
:100EC000CF910895FC0180819181009711F00C94DD
:100ED0003B110895CF93DF93EC01A881B981EB0119
:100EE000E881F9811097F1F03097B1F4EC018C8131
:100EF0009D81892BC9F08C9190E00BC0DB01149689
:100F00008D919C91892B81F0808190E091958195C4
:100F10009109DF91CF910895BF01CD01DF91CF916C
:100F20000C948A12309751F790E080E0F2CF0F9343
:100F30001F93CF93DF93EC0188819981009759F03B
:100F40002A813B812617370730F081E0DF91CF916E
:100F50001F910F9108958B016F5F7F4F0E94C41105
:100F6000009759F0998388831B830A832C813D81E4
:100F7000232B59F7FC011082E8CF80E0E7CFEF92F6
:100F8000FF920F931F93CF93DF93EC017B018A01B4
:100F9000BA010E94970781110BC0CE010E94500731
:100FA000CE01DF91CF911F910F91FF90EF900895A7
:100FB0001D830C83B701888199810E949312F0CF21
:100FC000FC01118210821382128215821482FB01AD
:100FD00001900020E9F73197AF01461B570B0C94A5
:100FE000BF0785ED8093BC008091900290919102A3
:100FF000A0919202B09193020796A11DB11D23E02A
:10100000B695A795979587952A95D1F72091BC001D
:1010100024FD03C010928E020895409190025091D9
:1010200091026091920270919302452B462B472BBF
:1010300069F30097A105B10541F02AE22A95F1F77D
:1010400000C00197A109B109E1CF80918F020C94F2
:10105000C302EEEEF1E085E0DF011D928A95E9F72B
:101060001092ED010895CF92DF92EF92FF920F93CD
:101070001F93CF93DF93CDB7DEB72F970FB6F894BA
:10108000DEBF0FBECDBF1982E0903B02F0903C0264
:10109000F701848195818E010F5F1F4F892BC9F065
:1010A000808191E0909394028093B6021092950211
:1010B0001092B70220E041E050E0B801C7010E9461
:1010C000D403882331F047E050E0B801C7010E9403
:1010D000B40499819F778A816B81492F50E024E085
:1010E000559547952A95E1F7242F220F220F421B91
:1010F000440F490F1F924F93282F30E044E035955D
:1011000027954A95E1F7922F990F990F291B220FE6
:10111000280F1F922F93862F90E054E09595879586
:101120005A95E1F7982F990F990F891B880F860F11
:101130001F928F938AE691E09F938F931F930F9353
:101140000E949A12B801CE010A960E94E0070FB6DB
:10115000F894DEBF0FBECDBF2E853F858091F20291
:101160009091F3022817390749F46EEE72E0CE0130
:101170000A960E946A07892B09F440C060E080E06B
:101180000E941B0769E771E0C8010E94E007CA845A
:10119000DB84C114D10409F45EC0EE84FF84E11441
:1011A000F104B1F08D819E81E80EF91EB701C801EE
:1011B0000E949707882309F44EC029813A818D81C6
:1011C0009E81B601820F931F0E949312FE82ED82D0
:1011D0004D815E8169817A8189E693E00E943902BE
:1011E000C8010E9462076A857B8561157105B9F1A6
:1011F0004E855F858EEE92E00E94BF07109101013F
:10120000112391F161E08EE00E940D0160E08FE01A
:101210000E940D018091EC01181751F08091ED01B1
:10122000811106C00E943D07809101018093EC016D
:10123000CE010A960E9462072F960FB6F894DEBF81
:101240000FBECDBFDF91CF911F910F91FF90EF9017
:10125000DF90CF900895C8010E945007B9CF8EEE5D
:1012600092E00E945007CACF60E08EE00E940D011C
:1012700061E0CDCF6BE171E08EEE91E00E948A12C9
:1012800061E0892BA9F480E00E941B0780E891E0CF
:101290000E943007109201010E94330868EE73E04B
:1012A00080E090E00E949C010E9429080C943D0778
:1012B00080E00E941B0781E991E00E943007EECF99
:1012C0006F927F928F929F92AF92BF92CF92DF9256
:1012D000EF92FF920F931F93CF93DF9381E0809360
:1012E00066030E94CE01009156031091570320918E
:1012F000580330915903AB01BC01401B510B620BE9
:10130000730B8091620390916303B0E0A0E08417B7
:101310009507A607B70708F05EC1C0E0809160039B
:10132000C81760F4E0915C03F0915D03EC0FF11DD0
:1013300062E080810E943B01CF5FF0CF712C812C55
:10134000912C5401839480916103781608F05FC05A
:10135000072D10E0E0915E03F0915F03E00FF11FB5
:1013600061E080810E943B01E0915E03F0915F03A8
:10137000E00FF11F60E080810E940D01D501C401E2
:10138000072C04C0880F991FAA1FBB1F0A94D2F70D
:101390006C017C01E094F094612C809160036816EC
:1013A000F8F4C62DD0E0E0915C03F0915D03EC0F02
:1013B000FD1F80810E94E4002496CC0FDD1FC650E3
:1013C000DD4F892B41F4888199818C299D2999834E
:1013D00088836394E2CF888199818E219F21F7CF02
:1013E000E0915E03F0915F03E00FF11F61E0808107
:1013F0000E940D0180915E0390915F03080F191FF9
:1014000060E0F80180810E943B0173949CCF2AEF39
:10141000C22E22E0D22EE6018FEF9FEF2F8D38A152
:10142000232B21F41C8E9E8F8D8F19A22696F3E01C
:10143000C633DF0799F710E096E0B92E809160037C
:10144000181708F052C000E0E12EF12CEE0CFF1C42
:10145000C7018E5F9C4F7C0120916103021708F049
:1014600042C0F70160817181002E02C076956795B8
:101470000A94E2F7129F90011124200F311DEAEF28
:10148000F2E080E0458D568D2417350709F40CC134
:101490008F5F36968A30B1F760FF23C0EAEFF2E043
:1014A00090E080E0448D411117C0E0915A03F09123
:1014B0005B03E20FF31F4081B89EF001B99EF00D6F
:1014C0001124E650FD4F448F368F258F10A2178EC2
:1014D00061E00E94DA0105C0019636968A309105D6
:1014E00009F70F5FB9CF1F5FA9CF10E0F60181A107
:1014F0008111182FF6E0CF0ED11CCC15DD05B1F708
:101500000E94CE0160935603709357038093580353
:1015100090935903112309F45EC080911B03882323
:1015200009F459C08091190390911A03019709F0A9
:1015300052C0D0911603D11151C087E00E94E4003F
:101540000197D9F461E080E00E941B0784EC91E0F0
:101550000E94300764EF71E080E090E00E949C01FF
:101560006BE171E08EEE91E00E9493120E943A09C5
:1015700087E00E94E4000197D9F380E10E94E40033
:10158000019751F4109201010E94330868EC70E059
:1015900080E090E00E949C0181E10E94E4000197BC
:1015A00009F084C081E0809301010E94330868EC57
:1015B00070E080E090E0DF91CF911F910F91FF905C
:1015C000EF90DF90CF90BF90AF909F908F907F90E3
:1015D0006F900C949C0110926603AFCFD33299F4B4
:1015E0000E94290861E080E00E941B0782EA91E0E6
:1015F0000E94300764EF71E080E090E00E949C015F
:101600000E943D079ACFDA32E1F48091ED01882300
:10161000A9F081508093ED01E82FF0E0E251FE4FF8
:10162000108261E00E941B0782EC91E00E9430076B
:1016300061E08091ED010E941B077FCF0E94290885
:10164000DFCF80910001882371F061E080E00E948B
:101650001B0783EB91E00E94300761E080E00E946D
:101660001B0710920001C091ED01C43008F065CF56
:10167000EC2FF0E0E251FE4FD08341E06D2F89E680
:1016800093E00E941C06CF5FC093ED01C43009F0C7
:1016900054CF1092F20164E670E080E090E00E9486
:1016A0009C010E943A0949CF617013CFDF91CF911D
:1016B0001F910F91FF90EF90DF90CF90BF90AF9070
:1016C0009F908F907F906F9008958F929F92AF928E
:1016D000BF92CF92DF92EF92FF924B015C010E948A
:1016E000CE016B017C010E94CE016C197D098E092F
:1016F0009F09681579058A059B0528F40E9433081F
:101700000E946009F0CFFF90EF90DF90CF90BF90E4
:10171000AF909F908F9008951F920F920FB60F92E7
:1017200011242F933F938F939F93AF93BF938091F7
:101730003E0290913F02A0914002B091410230914F
:101740003D0223E0230F2D3758F50196A11DB11D51
:1017500020933D0280933E0290933F02A09340026B
:10176000B09341028091420290914302A0914402C1
:10177000B09145020196A11DB11D80934202909344
:101780004302A0934402B0934502BF91AF919F9151
:101790008F913F912F910F900FBE0F901F90189532
:1017A00026E8230F0296A11DB11DD2CF1F920F92E2
:1017B0000FB60F9211242F933F934F935F936F9324
:1017C0007F938F939F93AF93BF93EF93FF938091FA
:1017D000B900887F803609F44AC0F0F5883209F4F0
:1017E000A7C018F5803109F49BC0B8F4882309F428
:1017F000F9C0883009F494C0FF91EF91BF91AF9187
:101800009F918F917F916F915F914F913F912F9118
:101810000F900FBE0F901F901895883109F488C063
:10182000803251F780938C0214C0803409F49DC03B
:1018300040F48033B9F38833F9F680938C0285EC59
:10184000B0C0803509F485C0883509F496C0883465
:1018500099F60E94F107D0CF883909F48CC038F589
:10186000883729F050F4883611F0803729F683E064
:1018700080938E021092360257C0883809F47BC0DC
:10188000803919F0803809F0B7CF80913602803264
:1018900008F071C0E091360281E08E0F809336022D
:1018A0008091BB00F0E0EA5EFD4F80833DC0803B4D
:1018B00039F0E0F4803A09F479C0883A09F09CCF15
:1018C00084E080938E021092150210921402E0912F
:1018D0003902F0913A0209958091140281110FC0EA
:1018E00081E0809314021092F40109C0803C09F455
:1018F000A6CF883C09F4A3CF883B09F07DCFE091C7
:10190000150281E08E0F80931502F0E0EC50FE4F3F
:1019100080818093BB00909115028091140229C0B0
:10192000809169028093BB0085EC8093BC0064CFFA
:1019300090918B0280918A02981758F5E0918B0262
:1019400081E08E0F80938B02F0E0E659FD4F80819D
:10195000E9CFE0918B0281E08E0F80938B02809122
:10196000BB00F0E0E659FD4F808390918B0280919F
:101970008A029817C8F285E8D8CFE0918B0281E0FF
:101980008E0F80938B028091BB00F0E0E659FD4FF3
:10199000808380918D0281115CCF81E08093680209
:1019A00084EA8093BC0010928E0226CF85EC80934F
:1019B000BC0010928E0280913602803230F4E091A9
:1019C0003602F0E0EA5EFD4F10826091360270E070
:1019D000E0913702F091380286E192E00995109289
:1019E00036020ACF10928C0234CF1092BB021092B2
:1019F000BA0288EE93E0A0E0B0E08093BC0290933E
:101A0000BD02A093BE02B093BF0284E291E0909326
:101A1000B9028093B80210926C0310926B0380E4B9
:101A200091E090936A038093690388E080936D034B
:101A30008FEF80936E0389E080936F038AE0809339
:101A400070038BE0809371038CE0809372038DE0D0
:101A500080937303109274031092750310927603AF
:101A6000109277031092780381E00E94750610921D
:101A7000FC02109200031092FF021092010386E311
:101A800091E09093FB028093FA02E6E1F3E010828A
:101A9000148213821582369683E0E235F807B9F78F
:101AA00085E091E090935D0380935C0382E091E098
:101AB00090935F0380935E0384E08093600383E0F0
:101AC0008093610389E091E090935B0380935A03D4
:101AD0008AE090E0909363038093620384EF91E047
:101AE00090936503809364031092680310926703D8
:101AF00010925603109257031092580310925903F4
:101B00001092660363EC71E084EF92E00E94E007BC
:101B100063EC71E08EEE92E00E94E00763EC71E00E
:101B200088EE92E00E94E00763EC71E082EE92E0C2
:101B30000E94E00763EC71E08CED92E00E94E00708
:101B400063EC71E086ED92E00E94E00763EC71E0E7
:101B500080ED92E00E94E00763EC71E08AEC92E095
:101B60000E94E00763EC71E084EC92E00C94E007E3
:101B7000CF93DF93CDB7DEB769970FB6F894DEBF8A
:101B80000FBECDBF789484B5826084BD84B581607A
:101B900084BD85B5826085BD85B5816085BD809138
:101BA0006E00816080936E001092810080918100B0
:101BB00082608093810080918100816080938100A8
:101BC000809180008160809380008091B10084606A
:101BD0008093B1008091B00081608093B0008091CB
:101BE0007A00846080937A0080917A00826080938A
:101BF0007A0080917A00816080937A0080917A00E7
:101C0000806880937A001092C10082E00E9475067D
:101C100083ED91E00E94300768EE73E080E090E091
:101C20000E949C0181E00E946F068BE39FE1019777
:101C3000F1F761E08EE00E943B0161E08FE00E94DD
:101C40003B0160E080E10E943B0160E081E10E9495
:101C50003B0160E087E00E943B0180913B02909154
:101C60003C02009711F00E943B1186E090E00E9438
:101C70009F107C0188E6F701808388EB92E09283D5
:101C80008183138280E290E095838483F0923C020A
:101C9000E0923B0210924702109246021092950287
:101CA0001092B7020E94A50286E392E090933A0256
:101CB0008093390287E392E0909338028093370251
:101CC00081E0F7018383C7010E94F203811107C0FD
:101CD00061E00E941B0781EE91E00E943007198E9F
:101CE00080913B0290913C02FC0124813581232BA1
:101CF00091F0208131E0309394022093B60210924B
:101D000095021092B70221E041E050E0BE01675E0B
:101D10007F4F0E94D40341E050E0CE0101967C0148
:101D2000BC0180913B0290913C020E94B4048981E5
:101D300090E0880F892F881F990B892B09F49CC08C
:101D40004BE050E061E770E0C7010E941810CE013F
:101D50000A960E947102082FE981E154E331D8F418
:101D60000E2E000CFF0BE954F14F0C949910C50F87
:101D7000CB0ECB0ED90FCB0ECA0ECB0ECB0ECB0E8D
:101D8000B90FCB0ECB0ECC0FD70FD50FCB0ECB0E82
:101D9000CB0ED30F12E0CE0105960E947102D82E11
:101DA00048E050E068E670E0C7010E941810C701E3
:101DB0000E947102C82ECE0104960E947102B82EB4
:101DC000CE0107960E947102382F86E0F70111922A
:101DD0008A95E9F72AE0832F622F0E948D10982FB1
:101DE000880F890F880F830F8A838B2D0E948D1097
:101DF000982F880F890F880F8B0D8B838C2D0E9455
:101E00008D10982F880F890F880F8C0D8C838D2D46
:101E10000E948D10982F880F890F880F8D0D8E834B
:101E2000812F0E948D10982F990F890F880F180FFE
:101E30001F83802F0E948D10982F880F890F880F85
:101E4000800F888780913B0290913C02FC012481A5
:101E500035812830310580F0208131E030939402C3
:101E60002093B602109295021092B70221E048E04A
:101E700050E0B7010E94D40381E0809301010E94E9
:101E800029080E9433080E94600950E040E063EC9A
:101E900071E082EE92E00E94BF07109201011C8A5D
:101EA0001B8A1E8A1D8A188E1F8A4AE0B70183ED9D
:101EB00094E00E942110F70101900020E9F731978A
:101EC000AF014E195F09B701CE0143960E94BF07CB
:101ED0008091DC029091DD02009709F46EC06B895D
:101EE0007C896115710509F466C04091DE0250914C
:101EF000DF022F89388D4217530708F45CC00E9417
:101F000093128F89988D9093E1028093E002188E4E
:101F10001F8ACE0143960E9462076AE070E080E06B
:101F200090E00E94650B68EE73E080E090E00E9414
:101F3000650B64E670E080E090E00E94650B209104
:101F4000E0023091E1028091E6029091E7022817C9
:101F5000390749F762EE72E08CED92E00E946A0761
:101F6000892B09F7109201010E9433081092010198
:101F7000DACF8A8111E0813609F40DCF8B8117E029
:101F80008E3609F008CF16E006CF8B8118E0823735
:101F900009F001CF14E0FFCE8B8115E0823709F004
:101FA000FACE13E0F8CE19E0F6CE1AE0F4CE1BE03C
:101FB000F2CE1CE0F0CE0E943B118B899C8990935D
:101FC000DD028093DC028D899E899093DF028093ED
:101FD000DE028F89988D9093E1028093E0021C8A43
:101FE0001B8A1E8A1D8A93CF84EC92E00E946207AE
:101FF0008AEC92E00E94620780ED92E00E94620704
:1020000086ED92E00E9462078CED92E00E946207EA
:1020100082EE92E00E94620788EE92E00E946207E0
:102020008EEE92E00E94620784EF92E00C946207C9
:10203000FB01DC0102C005900D9241505040D8F7E1
:102040000895BB274A3031F4992322F4BDE29095DC
:1020500081959F4F0C942D10BB27FB015527AA2774
:10206000880F991FAA1FA41710F0A41B8395505125
:10207000B9F7A05DAA3308F0A95DA193009779F79D
:10208000B111B1931192CB010C944610DC01FC010B
:10209000672F71917723E1F7329704C07C916D939C
:1020A00070836291AE17BF07C8F308952F923F92D5
:1020B0004F925F926F927F928F929F92AF92BF9258
:1020C000CF92DF92EF92FF920F931F93CF93DF9304
:1020D000CDB7DEB7CA1BDB0B0FB6F894DEBF0FBE61
:1020E000CDBF09942A88398848885F846E847D84AE
:1020F0008C849B84AA84B984C884DF80EE80FD80B0
:102100000C811B81AA81B981CE0FD11D0FB6F89425
:10211000DEBF0FBECDBFED010895991B79E004C06D
:10212000991F961708F0961B881F7A95C9F7809516
:102130000895EE0FFF1F0590F491E02D09940F9381
:102140001F93CF93DF938230910510F482E090E0EB
:10215000E0918303F091840330E020E0B0E0A0E060
:10216000309799F42115310509F44AC0281B390B21
:1021700024303105D8F58A819B816115710589F17B
:10218000FB0193838283FE0111C040815181028152
:10219000138148175907E0F04817590799F4109729
:1021A00061F012960C93129713961C933296CF01FE
:1021B000DF91CF911F910F910895009383031093A6
:1021C0008403F4CF2115310551F04217530738F03D
:1021D000A901DB019A01BD01DF01F801C1CFEF01C7
:1021E000F9CF9093840380938303CDCFFE01E20F58
:1021F000F31F819391932250310939832883D7CFDC
:102200002091810330918203232B41F42091170107
:10221000309118013093820320938103209115019E
:10222000309116012115310541F42DB73EB740918B
:10223000190150911A01241B350BE0918103F09193
:102240008203E217F307A0F42E1B3F0B2817390770
:1022500078F0AC014E5F5F4F2417350748F04E0F02
:102260005F1F5093820340938103819391939FCF8B
:10227000F0E0E0E09CCFCF93DF930097E9F0FC0122
:10228000329713821282A0918303B0918403ED01EF
:1022900030E020E01097A1F420813181820F931F5C
:1022A00020918103309182032817390709F061C01A
:1022B000F0938203E0938103DF91CF910895EA01C7
:1022C000CE17DF07E8F54A815B819E014115510574
:1022D000B1F7E901FB83EA8349915991C40FD51FF6
:1022E000EC17FD0761F4808191810296840F951FA0
:1022F000E90199838883828193819B838A83F0E0BB
:10230000E0E012968D919C9113970097B9F52D916D
:102310003C911197CD010296820F931F209181036A
:10232000309182032817390739F6309751F510920A
:10233000840310928303B0938203A0938103BCCFE4
:10234000D383C28340815181840F951FC817D90759
:1023500061F44E5F5F4F88819981480F591F518307
:1023600040838A819B81938382832115310509F003
:10237000B0CFF0938403E09383039ECFFD01DC0193
:10238000C0CF13821282D7CFB0E0A0E0EAECF1E137
:102390000C9458108C01009751F4CB010E949F10AF
:1023A0008C01C801CDB7DEB7E0E10C947410FC01DC
:1023B000E60FF71F9C0122503109E217F30708F4DA
:1023C0009DC0D901CD91DC911197C617D70798F020
:1023D000C530D10530F3CE0104978617970708F36F
:1023E000C61BD70B2297C193D1936D937C93CF01DA
:1023F0000E943B11D6CF5B01AC1ABD0A4C018C0E7A
:102400009D1EA0918303B0918403512C412CF12C8B
:10241000E12C109731F5809181039091820388150A
:10242000990509F05CC04616570608F058C080911F
:10243000150190911601009741F48DB79EB7409118
:10244000190150911A01841B950BE817F90708F040
:1024500055C0F0938203E0938103F9017183608397
:10246000A0CF8D919C91119712966C901297139614
:102470007C901397A815B90559F56C0142E0C40E7C
:10248000D11CCA14DB0420F1AC014A195B09DA0142
:102490001296159780F06282738251834083D9012E
:1024A0006D937C93E114F10471F0D7011396FC93C2
:1024B000EE93129776CF22968C0F9D1FF901918390
:1024C0008083F301EFCFF0938403E093830369CF1C
:1024D0004816590608F42C017D01D3019ACFCB018F
:1024E0000E949F107C01009749F0AE01B8010E9444
:1024F0008112C8010E943B11870153CF10E000E018
:1025000050CFFB01DC0102C001900D9241505040C0
:10251000D8F70895FB01DC018D910190801901101D
:10252000D9F3990B0895FB01DC0101900D92002075
:10253000E1F70895AEE0B0E0E0EAF2E10C94641057
:102540000D891E8986E08C831A8309838FEF9FE7AC
:102550009E838D83AE01475E5F4F6F89788DCE017C
:1025600001960E94BD122F813885020F131FF801BA
:1025700010822E96E4E00C948010ABE0B0E0E3EC27
:10258000F2E10C9456107C013B018A01FC01178298
:102590001682838181FFC8C1CE0101965C01F701DB
:1025A0009381F30193FD859193FF81913F018823EE
:1025B00009F453C1853239F493FD859193FF8191DC
:1025C0003F01853229F4B70190E00E94AD14E7CFB6
:1025D000912C212C312CFFE1F31538F08B3211F1C5
:1025E00090F4803209F1833229F137FC3CC020EDB0
:1025F000280F2A3050F536FE20C08AE0989E200D24
:102600001124922E06C08D3291F0803371F76894B8
:1026100030F8F30193FD859193FF81913F01811182
:10262000DACF21C0689431F8689432F8F2CF689418
:1026300033F8EFCF689434F8ECCFEAE02E9E200D0B
:102640001124222E689435F8E4CF8E3229F436FC1A
:1026500004C1689436F8DDCF8C3619F4689437F8E5
:10266000D8CF8836B1F2982F9F7D95549330E0F003
:102670008336A1F18337C1F1833509F063C02801A6
:10268000F2E04F0E511CF801C080D180692D70E03E
:1026900036FC02C06FEF7FEFC6010E9497144C0119
:1026A000689437F882010AC00C5F1F4FFFE3F9837B
:1026B00088248394912C6501E89437F833FE2DC06B
:1026C000522C8114910471F5552009F468CFB7019B
:1026D00080E290E00E94AD145A94F6CFF801808118
:1026E00089830E5F1F4FE4CF2801F2E04F0E511C8B
:1026F000F801C080D180692D70E036FC02C06FEF18
:102700007FEFC6010E94A2144C018201D5CFB70110
:1027100080E290E00E94AD142A942814190409F074
:10272000B0F7CECFF60137FC859137FE81916F016E
:10273000B70190E00E94AD1451105A94F1E08F1A45
:102740009108BFCF843619F0893609F077C0F801B7
:1027500037FE6BC060817181828193810C5F1F4F56
:10276000F32DFF763F2E97FF09C0909580957095C9
:1027700061957F4F8F4F9F4F689437F82AE030E084
:10278000A5010E94DD14C82ECA188C2C432C36FEDD
:102790000CC0E89440F8C91440F434FE05C032FC83
:1027A00003C0F32DFE7E4F2E892C44FE95C0FE0102
:1027B000EC0DF11D8081803309F087C0242D297E26
:1027C000422E842D8870582E43FC95C040FE8FC049
:1027D0009C2C821418F42C0C922C981844FE91C056
:1027E000B70180E390E00E94AD1442FE09C088E783
:1027F00090E041FE02C088E590E0B7010E94AD1470
:10280000C91408F48AC0CA94D12C9FEFC91AD90AF6
:10281000CA0CDB1CF60182916F01B70190E00E94A7
:10282000AD14AC14BD04B1F74FCF60817181072E98
:10283000000C880B990B0E5F1F4F92CFD32CE8949E
:10284000D4F82AE030E0853739F1232D297FD22EC4
:102850008F3601F148F48835A9F0F7018681978118
:102860002B96E2E10C947210803749F08837A9F773
:10287000D4FE02C06894D2F820E130E00DC0689424
:10288000D4F8F6CF34FE03C0822F8660D82E20E124
:1028900032E002C028E030E0F801D7FE0FC06081CE
:1028A0007181828193810C5F1F4FA5010E94DD140D
:1028B000C82ECA183D2CE89437F867CF6081718123
:1028C00090E080E00E5F1F4FF0CF42FC02C0839487
:1028D00078CF8394839475CF842D867809F471CF53
:1028E000F6CFB70180E290E00E94AD148394821489
:1028F000C0F3512C73CF522C5818821408F46ECFA9
:10290000F8CF842D867809F47BCF8BE241FE80E2FC
:1029100047FC8DE2B70190E071CFB70180E390E012
:102920000E94AD149A946CCF8FEF9FEF99CFFC016A
:102930000590615070400110D8F7809590958E0FEA
:102940009F1F0895FC016150704001900110D8F75D
:10295000809590958E0F9F1F08950F931F93CF938F
:10296000DF93182F092FEB018B8181FD09C01FEF29
:102970000FEF812F902FDF91CF911F910F9108952D
:1029800082FF14C02E813F818C819D8128173907D9
:102990003CF4E881F981CF01019699838883108303
:1029A0008E819F8101969F838E83E3CFE885F98591
:1029B000812F0995892BA1F3DACFFA01AA272830B4
:1029C00051F1203181F1E8946F936E7F6E5F7F4FFC
:1029D0008F4F9F4FAF4FB1E03ED0B4E03CD0670F78
:1029E000781F891F9A1FA11D680F791F8A1F911DCB
:1029F000A11D6A0F711D811D911DA11D20D009F41B
:102A000068943F912AE0269F11243019305D31935C
:102A1000DEF6CF010895462F4770405D4193B3E045
:102A20000FD0C9F7F6CF462F4F70405D4A3318F0EC
:102A3000495D31FD4052419302D0A9F7EACFB4E09D
:102A4000A6959795879577956795BA95C9F7009755
:102A50006105710508959B01AC010A2E06945795F6
:102A6000479537952795BA95C9F7620F731F841F4D
:102A7000951FA01D089510E0CDE6D0E004C0FE0132
:102A80000E9499102196CE36D107C9F7F894FFCF4E
:102A900001010405060001020331323334353637B3
:102AA00038392A3023000085038000313233350065
:102AB0000000000082045504B1042B044E043B04C2
:102AC0002C04000000006D02690266020000000094
:102AD0002A073902B10438024345525241444F207B
:102AE0002020202020202020004142494552544FE0
:102AF00020202020202020202000253032643A256C
:102B00003032643A2530326400486F72613A2000F6
:102B1000434F52524543544F212020202020202053
:102B2000004552524F5220434C4156452020202010
:102B3000200043616E63656C61646F20202020205B
:102B400020200020202020202020202020202020A5
:102B5000202020004C6579656E646F204D656D2ED8
:102B60002E2E0053495354454D41204C4953544F48
:0C2B7000004552524F52205254430000C6
:107E0000112484B714BE81FFF0D085E080938100F7
:107E100082E08093C00088E18093C10086E0809377
:107E2000C20080E18093C4008EE0C9D0259A86E02C
:107E300020E33CEF91E0309385002093840096BBD3
:107E4000B09BFECF1D9AA8958150A9F7CC24DD24C4
:107E500088248394B5E0AB2EA1E19A2EF3E0BF2EE7
:107E6000A2D0813461F49FD0082FAFD0023811F036
:107E7000013811F484E001C083E08DD089C08234E0
:107E800011F484E103C0853419F485E0A6D080C0E4
:107E9000853579F488D0E82EFF2485D0082F10E0AE
:107EA000102F00270E291F29000F111F8ED06801E7
:107EB0006FC0863521F484E090D080E0DECF843638
:107EC00009F040C070D06FD0082F6DD080E0C81688
:107ED00080E7D80618F4F601B7BEE895C0E0D1E017
:107EE00062D089930C17E1F7F0E0CF16F0E7DF06D8
:107EF00018F0F601B7BEE89568D007B600FCFDCFD4
:107F0000A601A0E0B1E02C9130E011968C91119780
:107F100090E0982F8827822B932B1296FA010C0160
:107F200087BEE89511244E5F5F4FF1E0A038BF0790
:107F300051F7F601A7BEE89507B600FCFDCF97BE46
:107F4000E89526C08437B1F42ED02DD0F82E2BD052
:107F50003CD0F601EF2C8F010F5F1F4F84911BD097
:107F6000EA94F801C1F70894C11CD11CFA94CF0C13
:107F7000D11C0EC0853739F428D08EE10CD085E9AC
:107F80000AD08FE07ACF813511F488E018D01DD067
:107F900080E101D065CF982F8091C00085FFFCCF94
:107FA0009093C60008958091C00087FFFCCF809118
:107FB000C00084FD01C0A8958091C6000895E0E648
:107FC000F0E098E1908380830895EDDF803219F02E
:107FD00088E0F5DFFFCF84E1DECF1F93182FE3DFCA
:107FE0001150E9F7F2DF1F91089580E0E8DFEE27F6
:047FF000FF270994CA
:027FFE00040479
:00000001FF
