:100000000C946E000C9496000C9496000C94960040
:100010000C9496000C9496000C9496000C94960008
:100020000C9496000C9496000C9496000C949600F8
:100030000C9496000C9496000C9496000C949600E8
:100040000C94880C0C9496000C9496000C949600DA
:100050000C9496000C9496000C9496000C949600C8
:100060000C94D20C0C94960032313A33383A303931
:100070000044656320203920323032350000000012
:1000800000240027002A0000000000250028002B83
:1000900000000000002300260029000404040404DA
:1000A0000404040202020202020303030303030125
:1000B00002040810204080010204081020010204FC
:1000C00008102000000008000201000003040700DF
:1000D0000000000000000000F10D271111241FBED8
:1000E000CFEFD8E0DEBFCDBF23E0AAEFB1E001C083
:1000F0001D92A439B207E1F711E0A0E0B1E0EEEE05
:10010000FCE202C005900D92AA3FB107D9F710E0BA
:10011000CDE6D0E004C02197FE010E94C811CC3684
:10012000D107C9F70E94AE0E0C946A160C94000019
:1001300096E0899FD0011124A75FBC4F90967C93D5
:100140006E935F9791E091969C939197E0917603DF
:10015000F091770390917503992339F0309751F01E
:10016000811108C0809125030994309719F05C969D
:100170008C91FACF0895833081F028F4813099F082
:100180008230A9F008958730A9F08830C9F0843012
:10019000B1F4809180008F7D03C0809180008F77C3
:1001A00080938000089584B58F7784BD089584B5C9
:1001B0008F7DFBCF8091B0008F778093B000089542
:1001C0008091B0008F7DF9CFCF93DF93282F30E05F
:1001D000F901ED53FF4F8491F901E155FF4FD4919F
:1001E000F901E556FF4FC491CC23A1F081110E9483
:1001F000BB00EC2FF0E0EE0FFF1FEF56FF4FA59175
:10020000B491EC91ED2381E090E009F480E0DF917E
:10021000CF91089580E090E0FACF1F93CF93DF93C2
:10022000282F30E0F901ED53FF4F8491F901E1559A
:10023000FF4FD491F901E556FF4FC491CC23A9F0AB
:10024000162F81110E94BB00EC2FF0E0EE0FFF1F74
:10025000E957FF4FA591B4918FB7F894EC91111124
:1002600008C0D095DE23DC938FBFDF91CF911F9123
:100270000895DE2BF8CFCF93DF9390E0FC01E1559A
:10028000FF4F249185569F4FFC0184918823C9F02C
:1002900090E0880F991FFC01E358FF4FA591B4919E
:1002A000FC01E957FF4FC591D49161110DC09FB773
:1002B000F8948C91209582238C938881282328831D
:1002C0009FBFDF91CF910895623051F49FB7F894AA
:1002D0003C91822F809583238C93E8812E2BEFCF46
:1002E0008FB7F894EC912E2B2C938FBFEACF3FB7AA
:1002F000F8948091550290915602A0915702B091C6
:10030000580226B5A89B05C02F3F19F00196A11DE4
:10031000B11D3FBFBA2FA92F982F8827BC01CD014F
:10032000620F711D811D911D42E0660F771F881FAE
:10033000991F4A95D1F708958F929F92AF92BF92DD
:10034000CF92DF92EF92FF924B015C010E94770106
:100350006B017C010E9477016C197D098E099F0950
:10036000683E734081059105A8F321E0821A910847
:10037000A108B10888EEC80E83E0D81EE11CF11C6C
:1003800081149104A104B10429F7FF90EF90DF904C
:10039000CF90BF90AF909F908F9008952FB7F89413
:1003A00060915102709152028091530290915402D7
:1003B0002FBF08950F931F93CF93DF93C82FD62F8E
:1003C00086E0C89FF0011124E75FFC4F11A2878DE2
:1003D00090A181309105F1F058F082309105F1F152
:1003E000039709F440C0DF91CF911F910F910895B9
:1003F0006623C9F361E070E08C2F0E9498000E9490
:10040000CE016093610370936203809363039093C2
:100410006403E9CF0E94CE01009161031091620351
:100420002091630330916403AB01BC01401B510B6D
:10043000620B730B8091730390917403B0E0A0E0A2
:1004400084179507A607B70748F462E070E08C2F81
:10045000DF91CF911F910F910C94980063E070E0B1
:10046000D111C1CFF4CF70E060E0F1CF08950895CD
:100470000895AF92BF92CF92DF92EF92FF920F93C7
:100480001F93CF93DF936C017B018B01040F151F2A
:10049000EB015E01AE18BF08C017D10759F0699192
:1004A000D601ED91FC910190F081E02DC6010995F6
:1004B000892B79F7C501DF91CF911F910F91FF90A3
:1004C000EF90DF90CF90BF90AF900895862F0C945F
:1004D000E400862F642F0C940D01862F642F0C945A
:1004E0003B01FC01908190539A3008F090E08181AB
:1004F00080532AE0929F800D1124089520912702B5
:10050000260F3327331F21323105ECF42091A3024B
:10051000FC0190E080E0243069F082E00895A09131
:1005200027022191AC01495F5D4FA40FB52FB11D8A
:100530002C930196861798F380912702680F609399
:10054000270280E0089581E008951092A30281E0DF
:100550008093A20210927D0261E082E10E940D016F
:1005600061E083E10E940D01E9EBF0E080818E7F84
:10057000808380818D7F808388E48093B80085E4C8
:100580008093BC000895CF93DF9391E0909306028F
:100590008823B9F0C091B800D091BA008091BC0016
:1005A0008A7B8093BC0060E082E10E940D0160E0E4
:1005B00083E10E940D010E94A502D093BA00C0936E
:1005C000B800DF91CF9108958F929F92AF92BF9222
:1005D000CF92DF92EF92FF920F931F93CF93DF930F
:1005E000D091CC02D13208F0D7C0182FC091CB02E5
:1005F0000E9477016B017C018091A30281116BC085
:1006000082E08093A3021093A2028FEF8093A10255
:100610001092A002D0939F02ABEAB2E0EFE7F2E0C3
:1006200080E0D81391C010927E0280917E02CC0FA0
:10063000C82BC0937E0280917D02813009F088C072
:1006400010927D020E9477016B017C0180917E02F5
:100650008093BB008091A5029091A602A091A70271
:10066000B091A802892B8A2B8B2BA1F00E947701D5
:100670000091A5021091A6022091A7023091A80234
:100680006C197D098E099F09061717072807390776
:1006900008F442C08091BC0083FDD8CF85EC8093E4
:1006A000BC000E9477016B017C018091A302823023
:1006B00009F450C08091A1028F3F09F46FC080916E
:1006C000A102803209F46CC08091A102803309F448
:1006D00069C084E026C08091A5029091A602A091F5
:1006E000A702B091A802892B8A2B8B2B09F484CF07
:1006F0000E9477018090A5029090A602A090A70288
:10070000B090A8026C197D098E099F09861697067C
:10071000A806B90608F070CF8091A4020E94C30217
:1007200085E01092AA021092CC021092A902DF91E9
:10073000CF911F910F91FF90EF90DF90CF90BF90DE
:10074000AF909F908F9008959D9191938F5F69CF07
:1007500085EEA5CF8091A5029091A602A091A70257
:10076000B091A802892B8A2B8B2B09F49ECF0E9473
:1007700077010091A5021091A6022091A702309165
:10078000A8026C197D098E099F090617170728070B
:10079000390708F08ACFC0CF81E0C3CF80E0C1CF56
:1007A00082E0BFCF83E0BDCF1F93CF93DF93EA01F9
:1007B000122FDC0111968D919C91DC01ED91FC9141
:1007C0000280F381E02D0995C817D90729F4812FFC
:1007D0000E94E40291E0811190E0892FDF91CF9196
:1007E0001F910895CF93DF93EC018B818823A1F0B3
:1007F000888191E09093A9028093CB021092AA0283
:100800001092CC0281E00E94E40291E0811190E01C
:10081000892FDF91CF91089510925C0210925B02B4
:100820001092AA021092CC020E94A50286E392E0E6
:1008300090934D0280934C0287E392E090934B0299
:1008400080934A0281E08B83CE010E94F203982FAD
:100850008111CECFDDCF0895E0915C0280915B02E3
:10086000E81730F4F0E0E35AFD4F808190E00895FE
:100870008FEF9FEF089590915C0280915B022FEFC4
:100880003FEF981748F4E92FF0E0E35AFD4F20813D
:1008900030E09F5F90935C02C901089580915B02F4
:1008A00090915C02891B990B0895CF92DF92EF9291
:1008B000FF920F931F93CF93DF937C01CB018A01AB
:1008C0002091A902222389F0EB016B01C40ED51EF1
:1008D000CC15DD0569F06991D701ED91FC9101908E
:1008E000F081E02DC7010995F3CF642F0E947E02AD
:1008F000C801DF91CF911F910F91FF90EF90DF9092
:10090000CF900895CF93DF931F92CDB7DEB7698361
:100910002091A9022223F9F02091CC02203258F034
:1009200021E030E0FC013383228390E080E00F90EF
:10093000DF91CF9108958091AA02E82FF0E0E5556C
:10094000FD4F998190838F5F8093AA028093CC02A0
:1009500081E090E0ECCF61E0CE0101960E947E0242
:10096000F7CF90E080E008952F923F924F925F92F0
:100970006F927F928F929F92AF92BF92CF92DF92AF
:10098000EF92FF920F931F93CF93DF935C011B01B4
:100990006A01F12CE12CD50114968D919C91860170
:1009A0000E191F098017910708F48C01F501D081F9
:1009B0000E9477012B013C018091A302811172C03A
:1009C000C02F013208F0C0E2F1E0F093A30221E071
:1009D000C601801B910BE816F90608F420E020936D
:1009E000A2028FEF8093A1021092A0028C0F80933D
:1009F0009F02A1E0A0937E0280917E02DD0FD82BA2
:100A0000D0937E0280917D02813009F090C01092D7
:100A10007D020E9477012B013C0180917E02809330
:100A2000BB008091A5029091A602A091A702B0916F
:100A3000A802892B8A2B8B2BA1F00E947701209191
:100A4000A5023091A6024091A7025091A802641914
:100A5000750986099709261737074807590708F4C3
:100A600042C08091BC0083FDD8CFB5ECB093BC00F0
:100A70000E9477012B013C018091A302813009F48F
:100A80005AC08091A0028C1710F4C091A002AFE769
:100A9000B2E0EDE5F2E080E08C1751F19D91919389
:100AA0008F5FFACF8091A5029091A602A091A70234
:100AB000B091A802892B8A2B8B2B09F47DCF0E9441
:100AC00077012091A5023091A6024091A702509192
:100AD000A802641975098609970926173707480778
:100AE000590708F069CF8091A4020E94C302C0E0B8
:100AF00010925C02C0935B02C017110609F057C048
:100B000041018E0C9F1CE401CE01881999098017C0
:100B1000910798F5D50111968D919C91DC01ED918D
:100B2000FC910284F385E02D09958993EDCFE5EEE4
:100B3000E093BC009DCF8091A5029091A602A09168
:100B4000A702B091A802892B8A2B8B2B09F494CF92
:100B50000E9477012091A5023091A6024091A70240
:100B60005091A80264197509860997092617370755
:100B70004807590708F080CFB6CFE00EF11EEC14FD
:100B8000FD0408F408CF81E0DF91CF911F910F9110
:100B9000FF90EF90DF90CF90BF90AF909F908F909D
:100BA0007F906F905F904F903F902F90089580E0DE
:100BB000EBCFEF92FF920F931F93CF93DF9300D071
:100BC00000D000D01F92CDB7DEB78C011982E09023
:100BD0005902F0905A02D70114968D919C91159765
:100BE000892BE9F08C9191E09093A9028093CB023C
:100BF0001092AA021092CC0220E041E050E0BE0127
:100C00006F5F7F4FC7010E94D403882341F047E004
:100C100050E0BE016F5F7F4FC7010E94B404E981BD
:100C2000EF77FA81FB804D815E818F81282F30E044
:100C300094E0359527959A95E1F7922F990F990FA2
:100C4000291B220F280FD8012C93852F90E024E038
:100C5000959587952A95E1F7982F990F990F891BFC
:100C6000880F850F11968C931197642F70E034E0F4
:100C7000759567953A95E1F7862F880F880F681B61
:100C8000660F640F12966C9312974F2D50E064E03C
:100C9000559547956A95E1F7842F880F880F481B73
:100CA000440F4F0D13964C9313972F2F30E074E0A1
:100CB000359527957A95E1F7822F880F880F281BA5
:100CC000220F2F0F14962C9314978E2F90E0F4E0A0
:100CD00095958795FA95E1F7982F990F990F891BAC
:100CE000880F8E0F15968C93C80127960FB6F8942F
:100CF000DEBF0FBECDBFDF91CF911F910F91FF904F
:100D0000EF900895CF93DF93EC0160E08E810E9415
:100D10000D0161E08E810E940D0160E08E810E94D4
:100D20000D018BE891E00197F1F7DF91CF910895E4
:100D3000CF92DF92EF92FF920F931F93CF93DF93A7
:100D40006C017C0187E0E80EF11CD0E0C0E0062FCA
:100D500010E0B8010C2E02C0759567950A94E2F771
:100D60006170F70181917F010E940D012196C430CD
:100D7000D10579F7C601DF91CF911F910F91FF90B7
:100D8000EF90DF90CF900C948206CF92DF92EF929B
:100D9000FF920F931F93CF93DF93EC01F62E642FF6
:100DA0008C810E940D018D818F3F19F060E00E94BF
:100DB0000D010F2D10E08F8584FF25C06E0187E0A7
:100DC000C80ED11CF12CE12CB8010E2C02C0759577
:100DD00067950A94E2F76170F60181916F010E94B4
:100DE0000D01FFEFEF1AFF0A88E0E816F10461F742
:100DF000CE01DF91CF911F910F91FF90EF90DF9087
:100E0000CF900C948206B80184E0759567958A9519
:100E1000E1F7CE010E9498066F2DCE01DF91CF91B0
:100E20001F910F91FF90EF90DF90CF900C94980658
:100E300040E0682F88E793E00C94C506CF93DF93DA
:100E4000823029F490918703986090938703809370
:100E50008B0310928C0380E480938D0380E1809358
:100E60008E0380E580938F0361E080917C030E9474
:100E70003B0180917D038F3F19F061E00E943B01AF
:100E800061E080917E030E943B01C8E7D3E09E01B0
:100E9000285733408091870384FD0BC084E090E0A5
:100EA00021962817390744F461E08E810E943B01A6
:100EB000EECF88E090E0F4CF8BE39DE00197F1F76F
:100EC00060E080917C030E940D0160E080917E03D0
:100ED0000E940D0180917D038F3F19F060E00E9418
:100EE0000D018091870384FD39C063E088E793E0BA
:100EF0000E949806CBE4D6E4CE010197F1F763E0B7
:100F000088E793E00E9498062197F1F763E088E76D
:100F100093E00E94980683E592E00197F1F762E082
:100F200088E793E00E9498068091870380620E9480
:100F3000180784E0809388038CE00E94180781E002
:100F40000E9418078BE39FE10197F1F782E08093FD
:100F5000890386E0DF91CF910C94180780620E948C
:100F600018078BE496E40197F1F78091870380627C
:100F70000E94180783E592E00197F1F780918703BB
:100F800080620E941807D0CF90918B03691710F0F0
:100F90006FEF690FE62FF0E0E858FC4F9489890F56
:100FA00080680C94180741E00E94C50681E090E03B
:100FB0000895FC0101900020E9F73197AF01481B2B
:100FC000590BBC0188E793E00C94390261E080E0A2
:100FD0000E94C40780910201882341F084E491E0DB
:100FE0000E94D90781E080930101089585E591E091
:100FF000F7CFCF93DF93EC0188819981009711F0AF
:101000000E946A12198218821D821C821B821A8217
:10101000DF91CF910895FC0180819181009711F0BB
:101020000C946A120895FC0124813581FB014481EE
:10103000558124173507E1F4FC0180819181FB0182
:10104000608171810097D1F061157105A1F4232BA6
:10105000C1F0FC01808190E008C0232B91F0FB01DE
:10106000808190E091958195910921E0892B09F08B
:1010700020E0822F08950E94B913F7CF6115710502
:1010800061F721E0F6CF0F931F93CF93DF93EC012D
:1010900088819981009759F02A813B81261737076B
:1010A00030F081E0DF91CF911F910F9108958B0176
:1010B0006F5F7F4F0E94F312009759F099838883E6
:1010C0001B830A832C813D81232B59F7FC0110825D
:1010D000E8CF80E0E7CFEF92FF920F931F93CF937B
:1010E000DF938C017B01EB0109900020E9F7219748
:1010F000C61BD70BBE010E944308811109C0C8015D
:10110000DF91CF911F910F91FF90EF900C94F90711
:10111000F801D583C483B70180819181DF91CF919C
:101120001F910F91FF90EF900C94C213EF92FF92DA
:101130000F931F93CF93DF93EC017B0119821882E9
:101140001B821A821D821C82FB0101900020E9F79C
:1011500031978F01061B170BB8010E9443088111BC
:1011600009C0CE01DF91CF911F910F91FF90EF90B9
:101170000C94F9071D830C83B70188819981DF9155
:10118000CF911F910F91FF90EF900C94C21385EDBA
:101190008093BC008091A5029091A602A091A70225
:1011A000B091A8020796A11DB11D23E0B695A795A1
:1011B000979587952A95D1F72091BC0024FD03C00F
:1011C0001092A30208954091A5025091A602609149
:1011D000A7027091A802452B462B472B69F3009775
:1011E000A105B10541F02AE22A95F1F700C0019767
:1011F000A109B109E1CF8091A4020C94C302E1E0FE
:10120000F2E085E0DF011D928A95E9F71092FF0177
:1012100008958F929F92AF92BF92CF92DF92EF92FA
:10122000FF920F931F93CF93DF93CDB7DEB76597F0
:101230000FB6F894DEBF0FBECDBF0E94CE014B01AA
:101240005C0180910001811116C08091FB01909199
:10125000FC01A091FD01B091FE01A5019401281BA4
:10126000390B4A0B5B0BDA01C901893E9340A1059A
:10127000B10508F465C060E080E00E94C407CE01BB
:101280000A960E94D9058F851F928F938E851F9293
:101290008F938D851F928F9386E691E09F938F9316
:1012A0008E010F5F1F4F1F930F930E94C913B80148
:1012B000CE0140960E94960865E771E0C8010E9441
:1012C0009608C888D9880FB6F894DEBF0FBECDBF88
:1012D000C114D10409F462C0EC88FD88E114F10462
:1012E000B1F08D819E81E80EF91EB701C8010E9400
:1012F0004308882309F452C029813A818D819E8157
:10130000B601820F931F0E94C213FE82ED824D81AF
:101310005E8169817A8188E793E00E943902C80181
:101320000E940B08CE0140960E940B088092FB01A0
:101330009092FC01A092FD01B092FE01109200017A
:1013400080910201882371F161E08EE00E940D011D
:1013500060E08FE00E940D0180910002882341F13E
:1013600051ED851657E09506A104B10420F01092C6
:1013700000020E94E60765960FB6F894DEBF0FBE26
:10138000CDBFDF91CF911F910F91FF90EF90DF9034
:10139000CF90BF90AF909F908F900895C8010E940A
:1013A000F907B5CF60E08EE00E940D0161E0D1CF7A
:1013B000909102018091FA019817E9F28091FF0162
:1013C0008111D9CF0E94E607809102018093FA0132
:1013D000D2CF6091EB027091EC0281E092E00E942A
:1013E000B91361E0892BA9F480E00E94C4078CE75F
:1013F00091E00E94D907109202010E94090968EE4B
:1014000073E080E090E00E949C010E94FF080C9431
:10141000E60780E00E94C4078DE891E00E94D907AA
:10142000EECF6F927F928F929F92AF92BF92CF92A8
:10143000DF92EF92FF920F931F93CF93DF9381E0A0
:10144000809375030E94CE0100916503109166039D
:101450002091670330916803AB01BC01401B510B25
:10146000620B730B8091710390917203B0E0A0E066
:1014700084179507A607B70708F066C1C0E08091FA
:101480006F03C81760F4E0916B03F0916C03EC0FED
:10149000F11D62E080810E943B01CF5FF0CF712C93
:1014A000812C912C5401839480917003781608F05C
:1014B0005FC0072D10E0E0916D03F0916E03E00F27
:1014C000F11F61E080810E943B01E0916D03F0918A
:1014D0006E03E00FF11F60E080810E940D01D501D5
:1014E000C401072C04C0880F991FAA1FBB1F0A94B0
:1014F000D2F76C017C01E094F094612C80916F0331
:101500006816F8F4C62DD0E0E0916B03F0916C03FF
:10151000EC0FFD1F80810E94E4002496CC0FDD1F9C
:10152000C75FDC4F892B41F4888199818C299D29E3
:10153000998388836394E2CF888199818E219F214A
:10154000F7CFE0916D03F0916E03E00FF11F61E0C2
:1015500080810E940D0180916D0390916E03080FB0
:10156000191F60E0F80180810E943B0173949CCFB9
:1015700029E0C22E23E0D22EE6018FEF9FEF2F8DC0
:1015800038A1232B21F41C8E9E8F8D8F19A22696B5
:10159000F3E0C534DF0799F710E096E0B92E8091AB
:1015A0006F03181708F052C000E0E12EF12CEE0C8A
:1015B000FF1CC7018F5E9C4F7C01209170030217B6
:1015C00008F042C0F70160817181002E02C076955B
:1015D00067950A94E2F7129F90011124200F311DA4
:1015E000E9E0F3E080E0458D568D2417350709F4D6
:1015F0001CC18F5F36968A30B1F760FF23C0E9E0E7
:10160000F3E090E080E0448D411117C0E091690360
:10161000F0916A03E20FF31F4081B89EF001B99E7A
:10162000F00D1124E75FFC4F448F368F258F10A2F9
:10163000178E61E00E94DA0105C0019636968A3065
:10164000910509F70F5FB9CF1F5FA9CF10E0F60131
:1016500081A18111182FF6E0CF0ED11CCC15DD052C
:10166000B1F70E94CE016093650370936603809387
:10167000670390936803112309F466C080912A03DD
:10168000882309F461C08091280390912903019770
:1016900009F05AC0D0912503D11159C087E00E94AA
:1016A000E400019719F561E080E00E94C40780EC36
:1016B00091E00E94D90764EF71E080E090E00E9421
:1016C0009C018091EF029091F002059740F46091A7
:1016D000EB027091EC0281E092E00E94C2130E9442
:1016E000E90987E00E94E4000197D9F380E10E94B4
:1016F000E400019751F4109202010E94090968EC7C
:1017000070E080E090E00E949C0181E10E94E40092
:10171000019709F08CC081E0809302010E940909C1
:1017200068EC70E080E090E0DF91CF911F910F9125
:10173000FF90EF90DF90CF90BF90AF909F908F90F1
:101740007F906F900C949C0110927503A7CF8091AD
:101750000002882321F0109200020E94E607D33293
:1017600099F40E94FF0861E080E00E94C4078EE9BE
:1017700091E00E94D90764EF71E080E090E00E9460
:101780009C010E94E6078ACFDA32E1F48091FF01E2
:101790008823A9F081508093FF01E82FF0E0EF5FEC
:1017A000FD4F108261E00E94C4078EEB91E00E9421
:1017B000D90761E08091FF010E94C4076FCF0E94AA
:1017C000FF08DFCF80910101882371F061E080E0A4
:1017D0000E94C4078FEA91E00E94D90761E080E08F
:1017E0000E94C40710920101C091FF01C43008F0AB
:1017F00055CFEC2FF0E0EF5FFD4FD08341E06D2F30
:1018000088E793E00E94C506CF5FC093FF01C43014
:1018100009F044CF1092050264E670E080E090E0A9
:101820000E949C010E94E90939CF617003CFDF91CA
:10183000CF911F910F91FF90EF90DF90CF90BF90CD
:10184000AF909F908F907F906F9008958F929F920E
:10185000AF92BF92CF92DF92EF92FF924B015C0169
:101860000E94CE016B017C010E94CE016C197D09A2
:101870008E099F09681579058A059B0528F40E9441
:1018800009090E94110AF0CFFF90EF90DF90CF90EE
:10189000BF90AF909F908F900895EF92FF920F931B
:1018A0001F93CF93DF93CDB7DEB72C970FB6F89485
:1018B000DEBF0FBECDBF7C01CE0101960E94D905CF
:1018C0008D811F928F938C811F928F938BE691E075
:1018D0009F938F938E01095F1F4F1F930F930E9459
:1018E000C913B801C7010E9496080FB6F894DEBF6D
:1018F0000FBECDBFC7012C960FB6F894DEBF0FBE4A
:10190000CDBFDF91CF911F910F91FF90EF90089580
:101910001F920F920FB60F9211242F933F938F9324
:101920009F93AF93BF938091510290915202A091E7
:101930005302B09154023091500223E0230F2D370F
:1019400058F50196A11DB11D2093500280935102BC
:1019500090935202A0935302B09354028091550287
:1019600090915602A0915702B09158020196A11D84
:10197000B11D8093550290935602A0935702B093E5
:101980005802BF91AF919F918F913F912F910F90EE
:101990000FBE0F901F90189526E8230F0296A11DE9
:1019A000B11DD2CF1F920F920FB60F9211242F9319
:1019B0003F934F935F936F937F938F939F93AF93D7
:1019C000BF93EF93FF938091B900887F803609F42D
:1019D0004AC0F0F5883209F4A7C018F5803109F43F
:1019E0009BC0B8F4882309F4F9C0883009F494C086
:1019F000FF91EF91BF91AF919F918F917F916F91E7
:101A00005F914F913F912F910F900FBE0F901F90BC
:101A10001895883109F488C0803251F78093A1026B
:101A200014C0803409F49DC040F48033B9F3883386
:101A3000F9F68093A10285ECB0C0803509F485C029
:101A4000883509F496C0883499F60E94C708D0CF2B
:101A5000883909F48CC038F5883729F050F4883675
:101A600011F0803729F683E08093A3021092490297
:101A700057C0883809F47BC0803919F0803809F0E4
:101A8000B7CF80914902803208F071C0E0914902DD
:101A900081E08E0F809349028091BB00F0E0E75D0A
:101AA000FD4F80833DC0803B39F0E0F4803A09F47B
:101AB00079C0883A09F09CCF84E08093A302109209
:101AC000280210922702E0914C02F0914D020995F4
:101AD0008091270281110FC081E08093270210922C
:101AE000070209C0803C09F4A6CF883C09F4A3CFC3
:101AF000883B09F07DCFE091280281E08E0F809332
:101B00002802F0E0E95FFD4F80818093BB00909157
:101B100028028091270229C080917E028093BB0019
:101B200085EC8093BC0064CF9091A00280919F02CD
:101B3000981758F5E091A00281E08E0F8093A002E3
:101B4000F0E0E158FD4F8081E9CFE091A00281E013
:101B50008E0F8093A0028091BB00F0E0E158FD4F12
:101B600080839091A00280919F029817C8F285E827
:101B7000D8CFE091A00281E08E0F8093A0028091E7
:101B8000BB00F0E0E158FD4F80838091A2028111FB
:101B90005CCF81E080937D0284EA8093BC00109248
:101BA000A30226CF85EC8093BC001092A302809103
:101BB0004902803230F4E0914902F0E0E75DFD4FE8
:101BC00010826091490270E0E0914A02F0914B026C
:101BD00089E292E00995109249020ACF1092A1027F
:101BE00034CF1092D0021092CF0288EE93E0A0E0A2
:101BF000B0E08093D1029093D202A093D302B0932D
:101C0000D40280E291E09093CE028093CD021092B4
:101C10007B0310927A038CE391E090937903809395
:101C2000780388E080937C038FEF80937D0389E0C5
:101C300080937E038AE080937F038BE08093800310
:101C40008CE0809381038DE0809382031092830364
:101C500010928403109285031092860310928703DA
:101C600081E00E941E0710920B0310920F03109246
:101C70000E031092100382E391E090930A03809385
:101C80000903E5E2F3E0108214821382158236968E
:101C900083E0E136F807B9F786E091E090936C03B2
:101CA00080936B0383E091E090936E0380936D03C8
:101CB00084E080936F0383E0809370038AE091E077
:101CC00090936A03809369038AE090E09093720393
:101CD0008093710384EF91E0909374038093730376
:101CE00010927703109276031092650310926603A8
:101CF0001092670310926803109275036FEB71E006
:101D000083E093E00E9496086FEB71E08DEF92E024
:101D10000E9496086FEB71E087EF92E00E949608B0
:101D20006FEB71E081EF92E00E9496086FEB71E03B
:101D30008BEE92E00E9496086FEB71E085EE92E0E8
:101D40000E9496086FEB71E08FED92E00E9496087A
:101D50006FEB71E089ED92E00C949608CF93DF93DE
:101D6000CDB7DEB769970FB6F894DEBF0FBECDBF13
:101D7000789484B5826084BD84B5816084BD85B566
:101D8000826085BD85B5816085BD80916E00816072
:101D900080936E0010928100809181008260809318
:101DA000810080918100816080938100809180001A
:101DB0008160809380008091B10084608093B10045
:101DC0008091B00081608093B00080917A0084603F
:101DD00080937A0080917A00826080937A0080916B
:101DE0007A00816080937A0080917A008068809385
:101DF0007A001092C10082E00E941E078FEC91E0F1
:101E00000E94D90764E670E080E090E00E949C01A7
:101E100081E00E9418078BE39FE10197F1F761E0F1
:101E20008EE00E943B0161E08FE00E943B0160E098
:101E300080E10E943B0160E081E10E943B0160E0A3
:101E400087E00E943B018091590290915A020097CD
:101E500011F00E946A1286E090E00E94CE118C017F
:101E600088E6F80180838DEC92E09283818313826F
:101E700080E290E09583848310935A020093590284
:101E800010925C0210925B021092AA021092CC0295
:101E90000E94A50286E392E090934D0280934C024B
:101EA00087E392E090934B0280934A0281E0F8012D
:101EB0008383C8010E94F203811107C061E00E9480
:101EC000C4078DED91E00E94D907198E80915902C7
:101ED00090915A02FC0124813581232B91F02081BD
:101EE00031E03093A9022093CB021092AA02109203
:101EF000CC0221E041E050E0BE01675E7F4F0E94CE
:101F0000D40341E050E08E010F5F1F4FB801809174
:101F1000590290915A020E94B404898190E0880F7E
:101F2000892F881F990B892B09F49DC04BE050E045
:101F300061E770E0C8010E944711CE010A960E9435
:101F40007102E82EE981E154E331E0F40E2E000C39
:101F5000FF0BE355F04F0C94C811F010C20FC20FE5
:101F60000B11C20FC00FC20FC20FC20FE110C20F80
:101F7000C20FF91008110511C20FC20FC20F0211D2
:101F8000A2E0FA2ECE0105960E947102D82E48E0FA
:101F900050E068E670E0C8010E944711C8010E9445
:101FA0007102C82ECE0104960E947102B82ECE0195
:101FB00007960E947102382F86E0F80111928A95E7
:101FC000E9F72AE0832F622F0E94BC11982F880F17
:101FD000890F880F830F8A838B2D0E94BC11982F45
:101FE000880F890F880F8B0D8B838C2D0E94BC115D
:101FF000982F880F890F880F8C0D8C838D2D0E9450
:10200000BC11982F880F890F880F8D0D8E838F2D0F
:102010000E94BC11982F990F890F880FF80EFF822C
:102020008E2D0E94BC11982F880F890F880F8E0D5E
:1020300088878091590290915A02FC012481358150
:102040002830310580F0208131E03093A9022093BF
:10205000CB021092AA021092CC0221E048E050E09C
:10206000B8010E94D403FF24F394F09202010E946D
:10207000FF080E9409090E94110A6FEB71E081EFCD
:1020800092E00E946B08F09202011C8A1B8A1E8A51
:102090001D8A188E1F8A4AE0B80182EF93E00E94E1
:1020A0005011B801CE0143960E946B088091EB025B
:1020B0009091EC02009709F4B3C06B897C8961159B
:1020C000710509F4ABC04091ED025091EE022F89E9
:1020D000388D4217530708F4A1C00E94C2138F899C
:1020E000988D9093F0028093EF02188E1F8ACE0194
:1020F00043960E940B0867EE71E08DEF92E00E941C
:102100006B086DEE71E085EE92E00E946B0863EF64
:1021100071E089ED92E00E946B086AE070E080E077
:1021200090E00E94260CFF24F39464E670E080E0C7
:1021300090E00E94260CC8010E944D0C65EE72E0F2
:10214000C8010E941308E82E81E0E11001C080E080
:1021500080934F02C8010E940B08EE2021F0F092FC
:1021600002010E940909C8010E944D0C69ED72E04C
:10217000C8010E941308E82E81E0E11001C080E050
:1021800080934E02C8010E940B08EE2021F01092AD
:1021900002010E94090964E670E080E090E00E947C
:1021A000260C61EF72E08BEE92E00E941308882308
:1021B00009F4BBCF109202010E940909F0920201BA
:1021C000B4CF8A81FF24F394813609F4DBCE8B816E
:1021D000F7E0FF2E8E3609F0D5CEE6E0FE2ED2CE09
:1021E0008B8178E0F72E823709F0CCCE64E0F62EB2
:1021F000C9CE8B8155E0F52E823709F0C3CE43E07E
:10220000F42EC0CE39E0F32EBDCE2AE0F22EBACEA7
:102210009BE0F92EB7CE8CE0F82EB4CE0E946A1265
:102220008B899C899093EC028093EB028D899E8927
:102230009093EE028093ED028F89988D9093F00237
:102240008093EF021C8A1B8A1E8A1D8A4ECF89ED5D
:1022500092E00E940B088FED92E00E940B0885EE41
:1022600092E00E940B088BEE92E00E940B0881EF37
:1022700092E00E940B0887EF92E00E940B088DEF1E
:1022800092E00E940B0883E093E00C940B08FB01A2
:10229000DC0102C005900D9241505040D8F70895DE
:1022A000BB274A3031F4992322F4BDE29095819501
:1022B0009F4F0C945C11BB27FB015527AA27880F61
:1022C000991FAA1FA41710F0A41B83955051B9F7AA
:1022D000A05DAA3308F0A95DA193009779F7B11129
:1022E000B1931192CB010C947511DC01FC01672FA5
:1022F00071917723E1F7329704C07C916D937083DD
:102300006291AE17BF07C8F308952F923F924F9284
:102310005F926F927F928F929F92AF92BF92CF9275
:10232000DF92EF92FF920F931F93CF93DF93CDB77E
:10233000DEB7CA1BDB0B0FB6F894DEBF0FBECDBFF6
:1023400009942A88398848885F846E847D848C84C7
:102350009B84AA84B984C884DF80EE80FD800C81D0
:102360001B81AA81B981CE0FD11D0FB6F894DEBFB3
:102370000FBECDBFED010895991B79E004C0991FF0
:10238000961708F0961B881F7A95C9F780950895CF
:10239000EE0FFF1F0590F491E02D09940F931F930A
:1023A000CF93DF938230910510F482E090E0E091CA
:1023B0009203F091930330E020E0B0E0A0E030978A
:1023C00099F42115310509F44AC0281B390B243032
:1023D0003105D8F58A819B816115710589F1FB0171
:1023E00093838283FE0111C0408151810281138158
:1023F00048175907E0F04817590799F4109761F00A
:1024000012960C93129713961C933296CF01DF917C
:10241000CF911F910F91089500939203109393030E
:10242000F4CF2115310551F04217530738F0A901B7
:10243000DB019A01BD01DF01F801C1CFEF01F9CF46
:102440009093930380939203CDCFFE01E20FF31F8D
:10245000819391932250310939832883D7CF2091DA
:10246000900330919103232B41F420911801309176
:10247000190130939103209390032091160130911C
:1024800017012115310541F42DB73EB740911A01CE
:1024900050911B01241B350BE0919003F0919103A7
:1024A000E217F307A0F42E1B3F0B2817390778F02B
:1024B000AC014E5F5F4F2417350748F04E0F5F1F8A
:1024C0005093910340939003819391939FCFF0E0B9
:1024D000E0E09CCFCF93DF930097E9F0FC013297C7
:1024E00013821282A0919203B0919303ED0130E028
:1024F00020E01097A1F420813181820F931F209159
:102500009003309191032817390709F061C0F093C7
:102510009103E0939003DF91CF910895EA01CE17E4
:10252000DF07E8F54A815B819E0141155105B1F74E
:10253000E901FB83EA8349915991C40FD51FEC1738
:10254000FD0761F4808191810296840F951FE90156
:1025500099838883828193819B838A83F0E0E0E082
:1025600012968D919C9113970097B9F52D913C91FE
:102570001197CD010296820F931F20919003309105
:1025800091032817390739F6309751F510929303C4
:1025900010929203B0939103A0939003BCCFD38386
:1025A000C28340815181840F951FC817D90761F4F8
:1025B0004E5F5F4F88819981480F591F5183408337
:1025C0008A819B81938382832115310509F0B0CFE5
:1025D000F0939303E09392039ECFFD01DC01C0CF03
:1025E00013821282D7CFB0E0A0E0E9EFF2E10C94C1
:1025F00087118C01009751F4CB010E94CE118C0100
:10260000C801CDB7DEB7E0E10C94A311FC01E60FE1
:10261000F71F9C0122503109E217F30708F49DC00F
:10262000D901CD91DC911197C617D70798F0C53025
:10263000D10530F3CE0104978617970708F3C61B20
:10264000D70B2297C193D1936D937C93CF010E94B6
:102650006A12D6CF5B01AC1ABD0A4C018C0E9D1ECE
:10266000A0919203B0919303512C412CF12CE12CB9
:10267000109731F5809190039091910388159905F9
:1026800009F05CC04616570608F058C08091160144
:1026900090911701009741F48DB79EB740911A01B0
:1026A00050911B01841B950BE817F90708F055C0E2
:1026B000F0939103E0939003F90171836083A0CFBD
:1026C0008D919C91119712966C90129713967C9015
:1026D0001397A815B90559F56C0142E0C40ED11C39
:1026E000CA14DB0420F1AC014A195B09DA01129625
:1026F000159780F06282738251834083D9016D9374
:102700007C93E114F10471F0D7011396FC93EE93DE
:10271000129776CF22968C0F9D1FF90191838083AB
:10272000F301EFCFF0939303E093920369CF481640
:10273000590608F42C017D01D3019ACFCB010E94E8
:10274000CE117C01009749F0AE01B8010E94B01390
:10275000C8010E946A12870153CF10E000E050CFF9
:10276000FB01DC0102C001900D9241505040D8F7AE
:102770000895FB01DC018D91019080190110D9F3BE
:10278000990B0895FB01DC0101900D920020E1F707
:102790000895AEE0B0E0EFECF3E10C9493110D89F5
:1027A0001E8986E08C831A8309838FEF9FE79E83BF
:1027B0008D83AE01475E5F4F6F89788DCE010196A4
:1027C0000E94EC132F813885020F131FF80110822D
:1027D0002E96E4E00C94AF11ABE0B0E0E2EFF3E151
:1027E0000C9485117C013B018A01FC011782168241
:1027F000838181FFC8C1CE0101965C01F7019381FD
:10280000F30193FD859193FF81913F01882309F4A2
:1028100053C1853239F493FD859193FF81913F0136
:10282000853229F4B70190E00E94DC15E7CF912CA6
:10283000212C312CFFE1F31538F08B3211F190F49B
:10284000803209F1833229F137FC3CC020ED280F9A
:102850002A3050F536FE20C08AE0989E200D1124C3
:10286000922E06C08D3291F0803371F7689430F863
:10287000F30193FD859193FF81913F018111DACF9F
:1028800021C0689431F8689432F8F2CF689433F834
:10289000EFCF689434F8ECCFEAE02E9E200D11249F
:1028A000222E689435F8E4CF8E3229F436FC04C128
:1028B000689436F8DDCF8C3619F4689437F8D8CFA1
:1028C0008836B1F2982F9F7D95549330E0F083368F
:1028D000A1F18337C1F1833509F063C02801F2E02B
:1028E0004F0E511CF801C080D180692D70E036FC7C
:1028F00002C06FEF7FEFC6010E94C6154C016894BD
:1029000037F882010AC00C5F1F4FFFE3F983882468
:102910008394912C6501E89437F833FE2DC0522C36
:102920008114910471F5552009F468CFB70180E254
:1029300090E00E94DC155A94F6CFF80180818983DB
:102940000E5F1F4FE4CF2801F2E04F0E511CF8013B
:10295000C080D180692D70E036FC02C06FEF7FEF40
:10296000C6010E94D1154C018201D5CFB70180E28A
:1029700090E00E94DC152A942814190409F0B0F79D
:10298000CECFF60137FC859137FE81916F01B701FB
:1029900090E00E94DC1551105A94F1E08F1A9108D2
:1029A000BFCF843619F0893609F077C0F80137FEB9
:1029B0006BC060817181828193810C5F1F4FF32D09
:1029C000FF763F2E97FF09C0909580957095619591
:1029D0007F4F8F4F9F4F689437F82AE030E0A50172
:1029E0000E940C16C82ECA188C2C432C36FE0CC024
:1029F000E89440F8C91440F434FE05C032FC03C02A
:102A0000F32DFE7E4F2E892C44FE95C0FE01EC0D69
:102A1000F11D8081803309F087C0242D297E422E4C
:102A2000842D8870582E43FC95C040FE8FC09C2C8E
:102A3000821418F42C0C922C981844FE91C0B70103
:102A400080E390E00E94DC1542FE09C088E790E038
:102A500041FE02C088E590E0B7010E94DC15C91470
:102A600008F48AC0CA94D12C9FEFC91AD90ACA0C9B
:102A7000DB1CF60182916F01B70190E00E94DC152A
:102A8000AC14BD04B1F74FCF60817181072E000CEB
:102A9000880B990B0E5F1F4F92CFD32CE894D4F87C
:102AA0002AE030E0853739F1232D297FD22E8F3669
:102AB00001F148F48835A9F0F701868197812B96BA
:102AC000E2E10C94A111803749F08837A9F7D4FED0
:102AD00002C06894D2F820E130E00DC06894D4F8C8
:102AE000F6CF34FE03C0822F8660D82E20E132E07C
:102AF00002C028E030E0F801D7FE0FC0608171818C
:102B0000828193810C5F1F4FA5010E940C16C82E75
:102B1000CA183D2CE89437F867CF6081718190E046
:102B200080E00E5F1F4FF0CF42FC02C0839478CF4D
:102B30008394839475CF842D867809F471CFF6CF72
:102B4000B70180E290E00E94DC1583948214C0F308
:102B5000512C73CF522C5818821408F46ECFF8CF32
:102B6000842D867809F47BCF8BE241FE80E247FC1E
:102B70008DE2B70190E071CFB70180E390E00E9451
:102B8000DC159A946CCF8FEF9FEF99CFFC010590E5
:102B9000615070400110D8F7809590958E0F9F1F5F
:102BA0000895FC016150704001900110D8F78095A4
:102BB00090958E0F9F1F08950F931F93CF93DF93D0
:102BC000182F092FEB018B8181FD09C01FEF0FEF3B
:102BD000812F902FDF91CF911F910F91089582FF48
:102BE00014C02E813F818C819D81281739073CF4C8
:102BF000E881F981CF0101969983888310838E81C2
:102C00009F8101969F838E83E3CFE885F985812F8D
:102C10000995892BA1F3DACFFA01AA27283051F1BF
:102C2000203181F1E8946F936E7F6E5F7F4F8F4FFD
:102C30009F4FAF4FB1E03ED0B4E03CD0670F781F5C
:102C4000891F9A1FA11D680F791F8A1F911DA11D41
:102C50006A0F711D811D911DA11D20D009F468947A
:102C60003F912AE0269F11243019305D3193DEF622
:102C7000CF010895462F4770405D4193B3E00FD0D8
:102C8000C9F7F6CF462F4F70405D4A3318F0495DC3
:102C900031FD4052419302D0A9F7EACFB4E0A695A6
:102CA0009795879577956795BA95C9F700976105C8
:102CB000710508959B01AC010A2E0694579547951E
:102CC00037952795BA95C9F7620F731F841F951F13
:102CD000A01D089510E0CDE6D0E004C0FE010E94E2
:0E2CE000C8112196CE36D107C9F7F894FFCF60
:102CEE000101010405060001020331323334353689
:102CFE003738392A3023000094038000000000008A
:102D0E0082045504B1042B044E043B042C04000031
:102D1E0000006D026902660200000000D30739024E
:102D2E00B10438024345525241444F202020202006
:102D3E0020202020004142494552544F202020207F
:102D4E00202020202000253032643A253032643A8B
:102D5E002530326400486F72613A2000434F525260
:102D6E004543544F21202020202020200045525240
:102D7E004F5220434C4156452020202020004361D5
:102D8E006E63656C61646F2020202020202000205F
:102D9E002020202020202020202020202020200045
:102DAE004C6579656E646F204D656D2E2E2E005329
:102DBE00495354454D41204C4953544F00455252AE
:102DCE004F52205254430030303A30300032323AB3
:0A2DDE0030300030373A303000008A
:00000001FF
