:020000040000FA
:100000000C946E000C9496000C9496000C94960040
:100010000C9496000C9496000C9496000C94960008
:100020000C9496000C9496000C9496000C949600F8
:100030000C9496000C9496000C9496000C949600E8
:100040000C948C0B0C9496000C9496000C949600D7
:100050000C9496000C9496000C9496000C949600C8
:100060000C94D60B0C94960032303A34323A353533
:100070000044656320203920323032350000000012
:1000800000240027002A0000000000250028002B83
:1000900000000000002300260029000404040404DA
:1000A0000404040202020202020303030303030125
:1000B00002040810204080010204081020010204FC
:1000C00008102000000008000201000003040700DF
:1000D0000000000000000000F50CF40F11241FBE0A
:1000E000CFEFD8E0DEBFCDBF23E0AEEDB1E001C081
:1000F0001D92A737B207E1F711E0A0E0B1E0E0E917
:10010000FAE202C005900D92AE3DB107D9F710E0BA
:10011000CDE6D0E004C02197FE010E949910CC36B4
:10012000D107C9F70E94B80D0C943B150C94000040
:1001300096E0899FD0011124A451BD4F90967C93E5
:100140006E935F9791E091969C939197E0915903FC
:10015000F0915A0390915803992339F0309751F058
:10016000811108C0809108030994309719F05C96BA
:100170008C91FACF0895833081F028F4813099F082
:100180008230A9F008958730A9F08830C9F0843012
:10019000B1F4809180008F7D03C0809180008F77C3
:1001A00080938000089584B58F7784BD089584B5C9
:1001B0008F7DFBCF8091B0008F778093B000089542
:1001C0008091B0008F7DF9CFCF93DF93282F30E05F
:1001D000F901ED53FF4F8491F901E155FF4FD4919F
:1001E000F901E556FF4FC491CC23A1F081110E9483
:1001F000BB00EC2FF0E0EE0FFF1FEF56FF4FA59175
:10020000B491EC91ED2381E090E009F480E0DF917E
:10021000CF91089580E090E0FACF1F93CF93DF93C2
:10022000282F30E0F901ED53FF4F8491F901E1559A
:10023000FF4FD491F901E556FF4FC491CC23A9F0AB
:10024000162F81110E94BB00EC2FF0E0EE0FFF1F74
:10025000E957FF4FA591B4918FB7F894EC91111124
:1002600008C0D095DE23DC938FBFDF91CF911F9123
:100270000895DE2BF8CFCF93DF9390E0FC01E1559A
:10028000FF4F249185569F4FFC0184918823C9F02C
:1002900090E0880F991FFC01E358FF4FA591B4919E
:1002A000FC01E957FF4FC591D49161110DC09FB773
:1002B000F8948C91209582238C938881282328831D
:1002C0009FBFDF91CF910895623051F49FB7F894AA
:1002D0003C91822F809583238C93E8812E2BEFCF46
:1002E0008FB7F894EC912E2B2C938FBFEACF3FB7AA
:1002F000F8948091340290913502A0913602B09129
:10030000370226B5A89B05C02F3F19F00196A11D05
:10031000B11D3FBFBA2FA92F982F8827BC01CD014F
:10032000620F711D811D911D42E0660F771F881FAE
:10033000991F4A95D1F708958F929F92AF92BF92DD
:10034000CF92DF92EF92FF924B015C010E94770106
:100350006B017C010E9477016C197D098E099F0950
:10036000683E734081059105A8F321E0821A910847
:10037000A108B10888EEC80E83E0D81EE11CF11C6C
:1003800081149104A104B10429F7FF90EF90DF904C
:10039000CF90BF90AF909F908F9008952FB7F89413
:1003A000609130027091310280913202909133025B
:1003B0002FBF08950F931F93CF93DF93C82FD62F8E
:1003C00086E0C89FF0011124E451FD4F11A2878DF2
:1003D00090A181309105F1F058F082309105F1F152
:1003E000039709F440C0DF91CF911F910F910895B9
:1003F0006623C9F361E070E08C2F0E9498000E9490
:10040000CE01609344037093450380934603909319
:100410004703E9CF0E94CE010091440310914503A8
:100420002091460330914703AB01BC01401B510BA7
:10043000620B730B8091560390915703B0E0A0E0DC
:1004400084179507A607B70748F462E070E08C2F81
:10045000DF91CF911F910F910C94980063E070E0B1
:10046000D111C1CFF4CF70E060E0F1CF08950895CD
:100470000895AF92BF92CF92DF92EF92FF920F93C7
:100480001F93CF93DF936C017B018B01040F151F2A
:10049000EB015E01AE18BF08C017D10759F0699192
:1004A000D601ED91FC910190F081E02DC6010995F6
:1004B000892B79F7C501DF91CF911F910F91FF90A3
:1004C000EF90DF90CF90BF90AF900895862F0C945F
:1004D000E400862F642F0C940D01862F642F0C945A
:1004E0003B01FC01908190539A3008F090E08181AB
:1004F00080532AE0929F800D1124089520910602D6
:10050000260F3327331F21323105ECF4209180026E
:10051000FC0190E080E0243069F082E00895A09131
:1005200006022191AC014A515E4FA40FB52FB11DB7
:100530002C930196861798F380910602680F6093BA
:10054000060280E0089581E008951092800281E023
:1005500080937F0210925A0261E082E10E940D01B5
:1005600061E083E10E940D01E9EBF0E080818E7F84
:10057000808380818D7F808388E48093B80085E4C8
:100580008093BC000895CF93DF9391E09093E501B1
:100590008823B9F0C091B800D091BA008091BC0016
:1005A0008A7B8093BC0060E082E10E940D0160E0E4
:1005B00083E10E940D010E94A502D093BA00C0936E
:1005C000B800DF91CF9108958F929F92AF92BF9222
:1005D000CF92DF92EF92FF920F931F93CF93DF930F
:1005E000D091A902D13208F0D7C0182FC091A8022B
:1005F0000E9477016B017C018091800281116BC0A8
:1006000082E08093800210937F028FEF80937E02BE
:1006100010927D02D0937C02A8E8B2E0ECE5F2E013
:1006200080E0D81391C010925B0280915B02CC0FE6
:10063000C82BC0935B0280915A02813009F088C0B8
:1006400010925A020E9477016B017C0180915B023B
:100650008093BB008091820290918302A0918402DA
:10066000B0918502892B8A2B8B2BA1F00E947701F8
:1006700000918202109183022091840230918502C0
:100680006C197D098E099F09061717072807390776
:1006900008F442C08091BC0083FDD8CF85EC8093E4
:1006A000BC000E9477016B017C0180918002823046
:1006B00009F450C080917E028F3F09F46FC0809191
:1006C0007E02803209F46CC080917E02803309F48E
:1006D00069C084E026C08091820290918302A0913B
:1006E0008402B0918502892B8A2B8B2B09F484CF4D
:1006F0000E9477018090820290908302A0908402F1
:10070000B09085026C197D098E099F09861697069F
:10071000A806B90608F070CF809181020E94C3023A
:1007200085E0109287021092A90210928602DF9152
:10073000CF911F910F91FF90EF90DF90CF90BF90DE
:10074000AF909F908F9008959D9191938F5F69CF07
:1007500085EEA5CF8091820290918302A0918402C0
:10076000B0918502892B8A2B8B2B09F49ECF0E9496
:1007700077010091820210918302209184023091CE
:1007800085026C197D098E099F090617170728072E
:10079000390708F08ACFC0CF81E0C3CF80E0C1CF56
:1007A00082E0BFCF83E0BDCF1F93CF93DF93EA01F9
:1007B000122FDC0111968D919C91DC01ED91FC9141
:1007C0000280F381E02D0995C817D90729F4812FFC
:1007D0000E94E40291E0811190E0892FDF91CF9196
:1007E0001F910895CF93DF93EC018B818823A1F0B3
:1007F000888191E0909386028093A80210928702EC
:100800001092A90281E00E94E40291E0811190E03F
:10081000892FDF91CF9108951092390210923802FA
:10082000109287021092A9020E94A50286E392E02C
:1008300090932C0280932B0287E392E090932A02FC
:100840008093290281E08B83CE010E94F203982FCE
:100850008111CECFDDCF0895E09139028091380229
:10086000E81730F4F0E0E65CFD4F808190E00895F9
:100870008FEF9FEF089590913902809138022FEF0A
:100880003FEF981748F4E92FF0E0E65CFD4F208138
:1008900030E09F5F90933902C9010895809138023A
:1008A00090913902891B990B0895CF92DF92EF92B4
:1008B000FF920F931F93CF93DF937C01CB018A01AB
:1008C00020918602222389F0EB016B01C40ED51E14
:1008D000CC15DD0569F06991D701ED91FC9101908E
:1008E000F081E02DC7010995F3CF642F0E947E02AD
:1008F000C801DF91CF911F910F91FF90EF90DF9092
:10090000CF900895CF93DF931F92CDB7DEB7698361
:10091000209186022223F9F02091A902203258F07A
:1009200021E030E0FC013383228390E080E00F90EF
:10093000DF91CF91089580918702E82FF0E0E8578A
:10094000FD4F998190838F5F809387028093A902E6
:1009500081E090E0ECCF61E0CE0101960E947E0242
:10096000F7CF90E080E008952F923F924F925F92F0
:100970006F927F928F929F92AF92BF92CF92DF92AF
:10098000EF92FF920F931F93CF93DF935C011B01B4
:100990006A01F12CE12CD50114968D919C91860170
:1009A0000E191F098017910708F48C01F501D081F9
:1009B0000E9477012B013C0180918002811172C05D
:1009C000C02F013208F0C0E2F1E0F093800221E094
:1009D000C601801B910BE816F90608F420E020936D
:1009E0007F028FEF80937E0210927D028C0F8093A6
:1009F0007C02A1E0A0935B0280915B02DD0FD82B0B
:100A0000D0935B0280915A02813009F090C010921D
:100A10005A020E9477012B013C0180915B02809376
:100A2000BB008091820290918302A0918402B091D8
:100A30008502892B8A2B8B2BA1F00E9477012091B4
:100A400082023091830240918402509185026419A0
:100A5000750986099709261737074807590708F4C3
:100A600042C08091BC0083FDD8CFB5ECB093BC00F0
:100A70000E9477012B013C0180918002813009F4B2
:100A80005AC080917D028C1710F4C0917D02ACE5B4
:100A9000B2E0EAE3F2E080E08C1751F19D9191938E
:100AA0008F5FFACF8091820290918302A09184029D
:100AB000B0918502892B8A2B8B2B09F47DCF0E9464
:100AC00077012091820230918302409184025091FB
:100AD000850264197509860997092617370748079B
:100AE000590708F069CF809181020E94C302C0E0DB
:100AF00010923902C0933802C017110609F057C08E
:100B000041018E0C9F1CE401CE01881999098017C0
:100B1000910798F5D50111968D919C91DC01ED918D
:100B2000FC910284F385E02D09958993EDCFE5EEE4
:100B3000E093BC009DCF8091820290918302A091AE
:100B40008402B0918502892B8A2B8B2B09F494CFD8
:100B50000E947701209182023091830240918402A9
:100B60005091850264197509860997092617370778
:100B70004807590708F080CFB6CFE00EF11EEC14FD
:100B8000FD0408F408CF81E0DF91CF911F910F9110
:100B9000FF90EF90DF90CF90BF90AF909F908F909D
:100BA0007F906F905F904F903F902F90089580E0DE
:100BB000EBCFCF93DF93EC0160E08E810E940D01BB
:100BC00061E08E810E940D0160E08E810E940D0126
:100BD0008BE891E00197F1F7DF91CF910895CF92E3
:100BE000DF92EF92FF920F931F93CF93DF936C01ED
:100BF0007C0187E0E80EF11CD0E0C0E0062F10E099
:100C0000B8010C2E02C0759567950A94E2F76170E1
:100C1000F70181917F010E940D012196C430D10519
:100C200079F7C601DF91CF911F910F91FF90EF905F
:100C3000DF90CF900C94D905CF92DF92EF92FF9284
:100C40000F931F93CF93DF93EC01F62E642F8C81CB
:100C50000E940D018D818F3F19F060E00E940D010F
:100C60000F2D10E08F8584FF25C06E0187E0C80E30
:100C7000D11CF12CE12CB8010E2C02C075956795A2
:100C80000A94E2F76170F60181916F010E940D01F3
:100C9000FFEFEF1AFF0A88E0E816F10461F7CE01D2
:100CA000DF91CF911F910F91FF90EF90DF90CF9048
:100CB0000C94D905B80184E0759567958A95E1F79C
:100CC000CE010E94EF056F2DCE01DF91CF911F91D4
:100CD0000F91FF90EF90DF90CF900C94EF0540E0E4
:100CE000682F8BE593E00C941C06CF93DF93823042
:100CF00029F490916A03986090936A0380936E033D
:100D000010926F0380E48093700380E180937103FD
:100D100080E58093720361E080915F030E943B0154
:100D2000809160038F3F19F061E00E943B0161E018
:100D3000809161030E943B01CBE5D3E09E012B55DE
:100D4000334080916A0384FD0BC084E090E02196DB
:100D50002817390744F461E08E810E943B01EECFF1
:100D600088E090E0F4CF8BE39DE00197F1F760E03D
:100D700080915F030E940D0160E0809161030E94F9
:100D80000D01809160038F3F19F060E00E940D011A
:100D900080916A0384FD39C063E08BE593E00E9493
:100DA000EF05CBE4D6E4CE010197F1F763E08BE5E4
:100DB00093E00E94EF052197F1F763E08BE593E064
:100DC0000E94EF0583E592E00197F1F762E08BE581
:100DD00093E00E94EF0580916A0380620E946F0693
:100DE00084E080936B038CE00E946F0681E00E9498
:100DF0006F068BE39FE10197F1F782E080936C032C
:100E000086E0DF91CF910C946F0680620E946F069E
:100E10008BE496E40197F1F780916A0380620E9467
:100E20006F0683E592E00197F1F780916A03806293
:100E30000E946F06D0CF90916E03691710F06FEF8C
:100E4000690FE62FF0E0E55AFC4F9489890F80681E
:100E50000C946F0641E00E941C0681E090E008952A
:100E6000FC0101900020E9F73197AF01481B590BB5
:100E7000BC018BE593E00C943902CF93DF93EC0136
:100E800088819981009711F00E943B111982188284
:100E90001D821C821B821A82DF91CF910895FC0172
:100EA00080819181009711F00C943B110895CF93AC
:100EB000DF93EC01A881B981EB01E881F9811097FA
:100EC000F1F03097B1F4EC018C819D81892BC9F050
:100ED0008C9190E00BC0DB0114968D919C91892B35
:100EE00081F0808190E0919581959109DF91CF917A
:100EF0000895BF01CD01DF91CF910C948A123097F4
:100F000051F790E080E0F2CF0F931F93CF93DF93E0
:100F1000EC0188819981009759F02A813B8126173D
:100F2000370730F081E0DF91CF911F910F91089545
:100F30008B016F5F7F4F0E94C411009759F0998316
:100F400088831B830A832C813D81232B59F7FC0165
:100F50001082E8CF80E0E7CFEF92FF920F931F93CC
:100F6000CF93DF93EC017B018A01BA010E948407D1
:100F700081110BC0CE010E943D07CE01DF91CF91C0
:100F80001F910F91FF90EF9008951D830C83B7017F
:100F9000888199810E949312F0CFFC011182108206
:100FA0001382128215821482FB0101900020E9F75E
:100FB0003197AF01461B570B0C94AC0785ED80931E
:100FC000BC008091820290918302A0918402B09132
:100FD00085020796A11DB11D23E0B695A7959795AB
:100FE00087952A95D1F72091BC0024FD03C010926B
:100FF00080020895409182025091830260918402A0
:1010000070918502452B462B472B69F30097A1056C
:10101000B10541F02AE22A95F1F700C00197A10934
:10102000B109E1CF809181020C94C302E0EEF1E0BE
:1010300085E0DF011D928A95E9F71092DF0108959E
:10104000CF92DF92EF92FF920F931F93CF93DF9394
:10105000CDB7DEB72F970FB6F894DEBF0FBECDBF6A
:101060001982E0902D02F0902E02F7018481958183
:101070008E010F5F1F4F892BC9F0808191E0909303
:1010800086028093A802109287021092A90220E0A3
:1010900041E050E0B801C7010E94D403882331F039
:1010A00047E050E0B801C7010E94B40499819F77DE
:1010B0008A816B81492F50E024E0559547952A9508
:1010C000E1F7242F220F220F421B440F490F1F92DA
:1010D0004F93282F30E044E0359527954A95E1F766
:1010E000922F990F990F291B220F280F1F922F93D0
:1010F000862F90E054E0959587955A95E1F7982FC3
:10110000990F990F891B880F860F1F928F9387E481
:1011100091E09F938F931F930F930E949A12B801AF
:10112000CE010A960E94CD070FB6F894DEBF0FBE1F
:10113000CDBF2E853F858091E4029091E50228176E
:10114000390749F460EE72E0CE010A960E94570713
:10115000892B09F441C060E080E00E941B0766E52E
:1011600071E0C8010E94CD07CA84DB84C114D10498
:1011700009F468C0EE84FF84E114F104B1F08D81BC
:101180009E81E80EF91EB701C8010E9484078823DA
:1011900009F458C029813A818D819E81B601820F60
:1011A000931F0E949312FE82ED824D815E816981C0
:1011B0007A818BE593E00E943902C8010E944F07B3
:1011C0006A857B856115710509F440C04E855F8590
:1011D00080EE92E00E94AC07109100011123D9F13A
:1011E00061E08EE00E940D0160E08FE00E940D0141
:1011F0008091DE01181799F08091DF0181110BC0F9
:1012000061E00E941B078DE591E0111102C08EE69E
:1012100091E00E943007809100018093DE01CE01B1
:101220000A960E944F072F960FB6F894DEBF0FBEA6
:10123000CDBFDF91CF911F910F91FF90EF90DF9085
:10124000CF900895C8010E943D07AFCF80EE92E095
:101250000E943D07C1CF60E08EE00E940D0161E079
:10126000C4CF6AE171E080EE91E00E948A1261E0F1
:10127000892BF9F480E00E941B078FE791E00E9420
:101280003007109200010E9420086CED75E080E0AC
:1012900090E00E949C010E94160861E080E00E949C
:1012A0001B0780910001882361F08DE591E00C948B
:1012B000300780E00E941B0780E991E00E94300720
:1012C000E4CF8EE691E0F3CF6F927F928F929F9260
:1012D000AF92BF92CF92DF92EF92FF920F931F9344
:1012E000CF93DF9381E0809358030E94CE01009159
:1012F00048031091490320914A0330914B03AB01FD
:10130000BC01401B510B620B730B809154039091F5
:101310005503B0E0A0E084179507A607B70708F0CB
:101320005EC1C0E080915203C81760F4E0914E03A3
:10133000F0914F03EC0FF11D62E080810E943B01B0
:10134000CF5FF0CF712C812C912C5401839480912C
:101350005303781608F05FC0072D10E0E0915003AA
:10136000F0915103E00FF11F61E080810E943B0189
:10137000E0915003F0915103E00FF11F60E0808194
:101380000E940D01D501C401072C04C0880F991FCC
:10139000AA1FBB1F0A94D2F76C017C01E094F09461
:1013A000612C809152036816F8F4C62DD0E0E091CC
:1013B0004E03F0914F03EC0FFD1F80810E94E4006B
:1013C0002496CC0FDD1FC451DD4F892B41F4888159
:1013D00099818C299D29998388836394E2CF8881A0
:1013E00099818E219F21F7CFE0915003F091510315
:1013F000E00FF11F61E080810E940D018091500398
:1014000090915103080F191F60E0F80180810E943C
:101410003B0173949CCF2CEEC22E22E0D22EE6012B
:101420008FEF9FEF2F8D38A1232B21F41C8E9E8FE1
:101430008D8F19A22696F3E0C832DF0799F710E0E6
:1014400096E0B92E80915203181708F052C000E0C0
:10145000E12EF12CEE0CFF1CC7018C509D4F7C013E
:1014600020915303021708F042C0F7016081718197
:10147000002E02C0769567950A94E2F7129F9001BC
:101480001124200F311DECEEF2E080E0458D568DE9
:101490002417350709F408C18F5F36968A30B1F7F3
:1014A00060FF23C0ECEEF2E090E080E0448D41115B
:1014B00017C0E0914C03F0914D03E20FF31F408100
:1014C000B89EF001B99EF00D1124E451FD4F448FF8
:1014D000368F258F10A2178E61E00E94DA0105C0B9
:1014E000019636968A30910509F70F5FB9CF1F5FD5
:1014F000A9CF10E0F60181A18111182FF6E0CF0EDF
:10150000D11CCC15DD05B1F70E94CE0160934803D4
:101510007093490380934A0390934B03112309F47A
:101520005EC080910D03882309F459C080910B039C
:1015300090910C03019709F052C0D0910803D1118A
:1015400051C087E00E94E4000197D9F461E080E097
:101550000E941B0782EB91E00E94300760E273E07B
:1015600080E090E00E949C0161EC71E080EE91E0EF
:101570000E9493120E94310987E00E94E4000197C3
:10158000D9F380E10E94E400019751F41092000128
:101590000E94200868EC70E080E090E00E949C01CE
:1015A00081E10E94E400019709F080C081E080930E
:1015B00000010E94200868EC70E080E090E0DF917C
:1015C000CF911F910F91FF90EF90DF90CF90BF9040
:1015D000AF909F908F907F906F900C949C01109291
:1015E0005803AFCFD33201F50E94160861E080E0C6
:1015F0000E941B0781EA91E00E94300764EF71E0CE
:1016000080E090E00E949C0161E080E00E941B0766
:1016100080910001882329F08DE591E00E94300738
:1016200090CF8EE691E0FACFC091DF01DA32C9F4B3
:10163000CC2309F486CF8FEF8C0F8093DF01E82F46
:10164000F0E0E052FE4F108261E00E941B078CE642
:1016500091E00E94300761E08091DF010E941B074A
:1016600070CFC43008F06DCFEC2FF0E0E052FE4FA9
:10167000D08361E08C2F0E941B0741E06D2F8BE52A
:1016800093E00E941C06CF5FC093DF01C43009F0D5
:1016900058CF1092E40168EC70E080E090E00E9486
:1016A0009C010E9431094DCF617017CFDF91CF911E
:1016B0001F910F91FF90EF90DF90CF90BF90AF9070
:1016C0009F908F907F906F9008958F929F92AF928E
:1016D000BF92CF92DF92EF92FF924B015C010E948A
:1016E000CE016B017C010E94CE016C197D098E092F
:1016F0009F09681579058A059B0528F40E94200832
:101700000E946409F0CFFF90EF90DF90CF90BF90E0
:10171000AF909F908F9008951F920F920FB60F92E7
:1017200011242F933F938F939F93AF93BF938091F7
:10173000300290913102A0913202B0913302309187
:101740002F0223E0230F2D3758F50196A11DB11D5F
:1017500020932F028093300290933102A0933202A3
:10176000B09333028091340290913502A0913602F9
:10177000B09137020196A11DB11D80933402909360
:101780003502A0933602B0933702BF91AF919F917B
:101790008F913F912F910F900FBE0F901F90189532
:1017A00026E8230F0296A11DB11DD2CF1F920F92E2
:1017B0000FB60F9211242F933F934F935F936F9324
:1017C0007F938F939F93AF93BF93EF93FF938091FA
:1017D000B900887F803609F44AC0F0F5883209F4F0
:1017E000A7C018F5803109F49BC0B8F4882309F428
:1017F000F9C0883009F494C0FF91EF91BF91AF9187
:101800009F918F917F916F915F914F913F912F9118
:101810000F900FBE0F901F901895883109F488C063
:10182000803251F780937E0214C0803409F49DC049
:1018300040F48033B9F38833F9F680937E0285EC67
:10184000B0C0803509F485C0883509F496C0883465
:1018500099F60E94DE07D0CF883909F48CC038F59C
:10186000883729F050F4883611F0803729F683E064
:10187000809380021092280257C0883809F47BC0F8
:10188000803919F0803809F0B7CF80912802803272
:1018900008F071C0E091280281E08E0F8093280249
:1018A0008091BB00F0E0E85FFD4F80833DC0803B4E
:1018B00039F0E0F4803A09F479C0883A09F09CCF15
:1018C00084E0809380021092070210920602E09159
:1018D0002B02F0912C0209958091060281110FC014
:1018E00081E0809306021092E60109C0803C09F471
:1018F000A6CF883C09F4A3CF883B09F07DCFE091C7
:10190000070281E08E0F80930702F0E0EA51FE4F5C
:1019100080818093BB00909107028091060229C0CC
:1019200080915B028093BB0085EC8093BC0064CF08
:1019300090917D0280917C02981758F5E0917D028C
:1019400081E08E0F80937D02F0E0E45AFD4F8081AC
:10195000E9CFE0917D0281E08E0F80937D0280913E
:10196000BB00F0E0E45AFD4F808390917D028091AE
:101970007C029817C8F285E8D8CFE0917D0281E01B
:101980008E0F80937D028091BB00F0E0E45AFD4F02
:10199000808380917F0281115CCF81E080935A0225
:1019A00084EA8093BC001092800226CF85EC80935D
:1019B000BC001092800280912802803230F4E091C5
:1019C0002802F0E0E85FFD4F10826091280270E08D
:1019D000E0912902F0912A0288E092E009951092A4
:1019E00028020ACF10927E0234CF1092AD021092DC
:1019F000AC0288EE93E0A0E0B0E08093AE0290935A
:101A0000AF02A093B002B093B10283E291E0909351
:101A1000AB028093AA0210925E0310925D038FE3E3
:101A200091E090935C0380935B0388E080935F0375
:101A30008FEF8093600389E0809361038AE0809355
:101A400062038BE0809363038CE0809364038DE0FA
:101A500080936503109266031092670310926803E7
:101A60001092690310926A0381E00E947506109239
:101A7000EE021092F2021092F1021092F30285E34C
:101A800091E09093ED028093EC02E8E0F3E01082A5
:101A9000148213821582369683E0E434F807B9F78E
:101AA00084E091E090934F0380934E0381E091E0B6
:101AB000909351038093500384E08093520383E01A
:101AC0008093530388E091E090934D0380934C03FF
:101AD0008AE090E0909355038093540384EF91E063
:101AE000909357038093560310925A031092590310
:101AF000109248031092490310924A0310924B032C
:101B0000109258036DE671E086EE92E00E94CD07D8
:101B10006DE671E080EE92E00E94CD076DE671E027
:101B20008AED92E00E94CD076DE671E084ED92E0CF
:101B30000E94CD076DE671E08EEC92E00E94CD0729
:101B40006DE671E088EC92E00E94CD076DE671E0F1
:101B500082EC92E00E94CD076DE671E08CEB92E0A2
:101B60000E94CD076DE671E086EB92E00C94CD0704
:101B7000CF93DF93CDB7DEB769970FB6F894DEBF8A
:101B80000FBECDBF789484B5826084BD84B581607A
:101B900084BD85B5826085BD85B5816085BD809138
:101BA0006E00816080936E001092810080918100B0
:101BB00082608093810080918100816080938100A8
:101BC000809180008160809380008091B10084606A
:101BD0008093B1008091B00081608093B0008091CB
:101BE0007A00846080937A0080917A00826080938A
:101BF0007A0080917A00816080937A0080917A00E7
:101C0000806880937A001092C10082E00E9475067D
:101C100086EC91E00E94300768EE73E080E090E08F
:101C20000E949C0181E00E946F068BE39FE1019777
:101C3000F1F761E08EE00E943B0161E08FE00E94DD
:101C40003B0160E080E10E943B0160E081E10E9495
:101C50003B0160E087E00E943B0180912D02909162
:101C60002E02009711F00E943B1186E090E00E9446
:101C70009F107C0188E6F70180838AEA92E09283D4
:101C80008183138280E290E095838483F0922E0218
:101C9000E0922D02109239021092380210928702BF
:101CA0001092A9020E94A50286E392E090932C0272
:101CB00080932B0287E392E090932A02809329027B
:101CC00081E0F7018383C7010E94F203811107C0FD
:101CD00061E00E941B0784ED91E00E943007198E9D
:101CE00080912D0290912E02FC0124813581232BBD
:101CF00091F0208131E0309386022093A802109267
:101D000087021092A90221E041E050E0BE01675E27
:101D10007F4F0E94D40341E050E0CE0101967C0148
:101D2000BC0180912D0290912E020E94B404898101
:101D300090E0880F892F881F990B892B09F49CC08C
:101D40004BE050E061E770E0C7010E941810CE013F
:101D50000A960E947102082FE981E154E331D8F418
:101D60000E2E000CFF0BE954F14F0C949910C50F87
:101D7000CB0ECB0ED90FCB0ECA0ECB0ECB0ECB0E8D
:101D8000B90FCB0ECB0ECC0FD70FD50FCB0ECB0E82
:101D9000CB0ED30F12E0CE0105960E947102D82E11
:101DA00048E050E068E670E0C7010E941810C701E3
:101DB0000E947102C82ECE0104960E947102B82EB4
:101DC000CE0107960E947102382F86E0F70111922A
:101DD0008A95E9F72AE0832F622F0E948D10982FB1
:101DE000880F890F880F830F8A838B2D0E948D1097
:101DF000982F880F890F880F8B0D8B838C2D0E9455
:101E00008D10982F880F890F880F8C0D8C838D2D46
:101E10000E948D10982F880F890F880F8D0D8E834B
:101E2000812F0E948D10982F990F890F880F180FFE
:101E30001F83802F0E948D10982F880F890F880F85
:101E4000800F888780912D0290912E02FC012481C1
:101E500035812830310580F0208131E030938602D1
:101E60002093A802109287021092A90221E048E074
:101E700050E0B7010E94D40381E0809300010E94EA
:101E800016080E9420080E94640950E040E06DE6B8
:101E900071E084ED92E00E94AC07109200011C8A70
:101EA0001B8A1E8A1D8A188E1F8A4AE0B70183ED9D
:101EB00094E00E942110F70101900020E9F731978A
:101EC000AF014E195F09B701CE0143960E94AC07DE
:101ED0008091CE029091CF02009709F46EC06B8979
:101EE0007C896115710509F466C04091D00250915A
:101EF000D1022F89388D4217530708F45CC00E9425
:101F000093128F89988D9093D3028093D202188E6A
:101F10001F8ACE0143960E944F076AE070E080E07E
:101F200090E00E94650B68EE73E080E090E00E9414
:101F3000650B64E670E080E090E00E94650B209104
:101F4000D2023091D3028091D8029091D902281701
:101F5000390749F764ED72E08EEC92E00E94570772
:101F6000892B09F7109200010E94200810920001AD
:101F7000DACF8A8111E0813609F40DCF8B8117E029
:101F80008E3609F008CF16E006CF8B8118E0823735
:101F900009F001CF14E0FFCE8B8115E0823709F004
:101FA000FACE13E0F8CE19E0F6CE1AE0F4CE1BE03C
:101FB000F2CE1CE0F0CE0E943B118B899C8990935D
:101FC000CF028093CE028D899E899093D102809317
:101FD000D0028F89988D9093D3028093D2021C8A6D
:101FE0001B8A1E8A1D8A93CF86EB92E00E944F07C0
:101FF0008CEB92E00E944F0782EC92E00E944F0728
:1020000088EC92E00E944F078EEC92E00E944F070E
:1020100084ED92E00E944F078AED92E00E944F0704
:1020200080EE92E00E944F0786EE92E00C944F07FC
:10203000FB01DC0102C005900D9241505040D8F7E1
:102040000895BB274A3031F4992322F4BDE29095DC
:1020500081959F4F0C942D10BB27FB015527AA2774
:10206000880F991FAA1FA41710F0A41B8395505125
:10207000B9F7A05DAA3308F0A95DA193009779F79D
:10208000B111B1931192CB010C944610DC01FC010B
:10209000672F71917723E1F7329704C07C916D939C
:1020A00070836291AE17BF07C8F308952F923F92D5
:1020B0004F925F926F927F928F929F92AF92BF9258
:1020C000CF92DF92EF92FF920F931F93CF93DF9304
:1020D000CDB7DEB7CA1BDB0B0FB6F894DEBF0FBE61
:1020E000CDBF09942A88398848885F846E847D84AE
:1020F0008C849B84AA84B984C884DF80EE80FD80B0
:102100000C811B81AA81B981CE0FD11D0FB6F89425
:10211000DEBF0FBECDBFED010895991B79E004C06D
:10212000991F961708F0961B881F7A95C9F7809516
:102130000895EE0FFF1F0590F491E02D09940F9381
:102140001F93CF93DF938230910510F482E090E0EB
:10215000E0917503F091760330E020E0B0E0A0E07C
:10216000309799F42115310509F44AC0281B390B21
:1021700024303105D8F58A819B816115710589F17B
:10218000FB0193838283FE0111C040815181028152
:10219000138148175907E0F04817590799F4109729
:1021A00061F012960C93129713961C933296CF01FE
:1021B000DF91CF911F910F910895009375031093B4
:1021C0007603F4CF2115310551F04217530738F04B
:1021D000A901DB019A01BD01DF01F801C1CFEF01C7
:1021E000F9CF9093760380937503CDCFFE01E20F74
:1021F000F31F819391932250310939832883D7CFDC
:102200002091730330917403232B41F42091160124
:1022100030911701309374032093730320911401BC
:10222000309115012115310541F42DB73EB740918C
:10223000180150911901241B350BE0917303F091A3
:102240007403E217F307A0F42E1B3F0B281739077E
:1022500078F0AC014E5F5F4F2417350748F04E0F02
:102260005F1F5093740340937303819391939FCFA7
:10227000F0E0E0E09CCFCF93DF930097E9F0FC0122
:10228000329713821282A0917503B0917603ED010B
:1022900030E020E01097A1F420813181820F931F5C
:1022A00020917303309174032817390709F061C036
:1022B000F0937403E0937303DF91CF910895EA01E3
:1022C000CE17DF07E8F54A815B819E014115510574
:1022D000B1F7E901FB83EA8349915991C40FD51FF6
:1022E000EC17FD0761F4808191810296840F951FA0
:1022F000E90199838883828193819B838A83F0E0BB
:10230000E0E012968D919C9113970097B9F52D916D
:102310003C911197CD010296820F931F2091730378
:10232000309174032817390739F6309751F5109218
:10233000760310927503B0937403A0937303BCCF1C
:10234000D383C28340815181840F951FC817D90759
:1023500061F44E5F5F4F88819981480F591F518307
:1023600040838A819B81938382832115310509F003
:10237000B0CFF0937603E09375039ECFFD01DC01AF
:10238000C0CF13821282D7CFB0E0A0E0EAECF1E137
:102390000C9458108C01009751F4CB010E949F10AF
:1023A0008C01C801CDB7DEB7E0E10C947410FC01DC
:1023B000E60FF71F9C0122503109E217F30708F4DA
:1023C0009DC0D901CD91DC911197C617D70798F020
:1023D000C530D10530F3CE0104978617970708F36F
:1023E000C61BD70B2297C193D1936D937C93CF01DA
:1023F0000E943B11D6CF5B01AC1ABD0A4C018C0E7A
:102400009D1EA0917503B0917603512C412CF12CA7
:10241000E12C109731F58091730390917403881526
:10242000990509F05CC04616570608F058C080911F
:10243000140190911501009741F48DB79EB740911A
:10244000180150911901841B950BE817F90708F042
:1024500055C0F0937403E0937303F90171836083B3
:10246000A0CF8D919C91119712966C901297139614
:102470007C901397A815B90559F56C0142E0C40E7C
:10248000D11CCA14DB0420F1AC014A195B09DA0142
:102490001296159780F06282738251834083D9012E
:1024A0006D937C93E114F10471F0D7011396FC93C2
:1024B000EE93129776CF22968C0F9D1FF901918390
:1024C0008083F301EFCFF0937603E093750369CF38
:1024D0004816590608F42C017D01D3019ACFCB018F
:1024E0000E949F107C01009749F0AE01B8010E9444
:1024F0008112C8010E943B11870153CF10E000E018
:1025000050CFFB01DC0102C001900D9241505040C0
:10251000D8F70895FB01DC018D910190801901101D
:10252000D9F3990B0895FB01DC0101900D92002075
:10253000E1F70895AEE0B0E0E0EAF2E10C94641057
:102540000D891E8986E08C831A8309838FEF9FE7AC
:102550009E838D83AE01475E5F4F6F89788DCE017C
:1025600001960E94BD122F813885020F131FF801BA
:1025700010822E96E4E00C948010ABE0B0E0E3EC27
:10258000F2E10C9456107C013B018A01FC01178298
:102590001682838181FFC8C1CE0101965C01F701DB
:1025A0009381F30193FD859193FF81913F018823EE
:1025B00009F453C1853239F493FD859193FF8191DC
:1025C0003F01853229F4B70190E00E94AD14E7CFB6
:1025D000912C212C312CFFE1F31538F08B3211F1C5
:1025E00090F4803209F1833229F137FC3CC020EDB0
:1025F000280F2A3050F536FE20C08AE0989E200D24
:102600001124922E06C08D3291F0803371F76894B8
:1026100030F8F30193FD859193FF81913F01811182
:10262000DACF21C0689431F8689432F8F2CF689418
:1026300033F8EFCF689434F8ECCFEAE02E9E200D0B
:102640001124222E689435F8E4CF8E3229F436FC1A
:1026500004C1689436F8DDCF8C3619F4689437F8E5
:10266000D8CF8836B1F2982F9F7D95549330E0F003
:102670008336A1F18337C1F1833509F063C02801A6
:10268000F2E04F0E511CF801C080D180692D70E03E
:1026900036FC02C06FEF7FEFC6010E9497144C0119
:1026A000689437F882010AC00C5F1F4FFFE3F9837B
:1026B00088248394912C6501E89437F833FE2DC06B
:1026C000522C8114910471F5552009F468CFB7019B
:1026D00080E290E00E94AD145A94F6CFF801808118
:1026E00089830E5F1F4FE4CF2801F2E04F0E511C8B
:1026F000F801C080D180692D70E036FC02C06FEF18
:102700007FEFC6010E94A2144C018201D5CFB70110
:1027100080E290E00E94AD142A942814190409F074
:10272000B0F7CECFF60137FC859137FE81916F016E
:10273000B70190E00E94AD1451105A94F1E08F1A45
:102740009108BFCF843619F0893609F077C0F801B7
:1027500037FE6BC060817181828193810C5F1F4F56
:10276000F32DFF763F2E97FF09C0909580957095C9
:1027700061957F4F8F4F9F4F689437F82AE030E084
:10278000A5010E94DD14C82ECA188C2C432C36FEDD
:102790000CC0E89440F8C91440F434FE05C032FC83
:1027A00003C0F32DFE7E4F2E892C44FE95C0FE0102
:1027B000EC0DF11D8081803309F087C0242D297E26
:1027C000422E842D8870582E43FC95C040FE8FC049
:1027D0009C2C821418F42C0C922C981844FE91C056
:1027E000B70180E390E00E94AD1442FE09C088E783
:1027F00090E041FE02C088E590E0B7010E94AD1470
:10280000C91408F48AC0CA94D12C9FEFC91AD90AF6
:10281000CA0CDB1CF60182916F01B70190E00E94A7
:10282000AD14AC14BD04B1F74FCF60817181072E98
:10283000000C880B990B0E5F1F4F92CFD32CE8949E
:10284000D4F82AE030E0853739F1232D297FD22EC4
:102850008F3601F148F48835A9F0F7018681978118
:102860002B96E2E10C947210803749F08837A9F773
:10287000D4FE02C06894D2F820E130E00DC0689424
:10288000D4F8F6CF34FE03C0822F8660D82E20E124
:1028900032E002C028E030E0F801D7FE0FC06081CE
:1028A0007181828193810C5F1F4FA5010E94DD140D
:1028B000C82ECA183D2CE89437F867CF6081718123
:1028C00090E080E00E5F1F4FF0CF42FC02C0839487
:1028D00078CF8394839475CF842D867809F471CF53
:1028E000F6CFB70180E290E00E94AD148394821489
:1028F000C0F3512C73CF522C5818821408F46ECFA9
:10290000F8CF842D867809F47BCF8BE241FE80E2FC
:1029100047FC8DE2B70190E071CFB70180E390E012
:102920000E94AD149A946CCF8FEF9FEF99CFFC016A
:102930000590615070400110D8F7809590958E0FEA
:102940009F1F0895FC016150704001900110D8F75D
:10295000809590958E0F9F1F08950F931F93CF938F
:10296000DF93182F092FEB018B8181FD09C01FEF29
:102970000FEF812F902FDF91CF911F910F9108952D
:1029800082FF14C02E813F818C819D8128173907D9
:102990003CF4E881F981CF01019699838883108303
:1029A0008E819F8101969F838E83E3CFE885F98591
:1029B000812F0995892BA1F3DACFFA01AA272830B4
:1029C00051F1203181F1E8946F936E7F6E5F7F4FFC
:1029D0008F4F9F4FAF4FB1E03ED0B4E03CD0670F78
:1029E000781F891F9A1FA11D680F791F8A1F911DCB
:1029F000A11D6A0F711D811D911DA11D20D009F41B
:102A000068943F912AE0269F11243019305D31935C
:102A1000DEF6CF010895462F4770405D4193B3E045
:102A20000FD0C9F7F6CF462F4F70405D4A3318F0EC
:102A3000495D31FD4052419302D0A9F7EACFB4E09D
:102A4000A6959795879577956795BA95C9F7009755
:102A50006105710508959B01AC010A2E06945795F6
:102A6000479537952795BA95C9F7620F731F841F4D
:102A7000951FA01D089510E0CDE6D0E004C0FE0132
:102A80000E9499102196CE36D107C9F7F894FFCF4E
:102A9000010405060001020331323334353637387C
:102AA000392A3023000077038000313233340000AC
:102AB00000000082045504B1042B044E043B042C96
:102AC00004000000006D0269026602000000002A96
:102AD000073902B1043802253032643A25303264B5
:102AE0003A2530326400486F72613A200043455203
:102AF0005241444F2020202020202020200041420D
:102B0000494552544F2020202020202020200043DF
:102B10004F52524543544F21202020202020200096
:102B20004552524F5220434C4156452020202020F0
:102B300000426F727261646F2E2E2E2020202020A2
:102B400020004C6579656E646F204D656D2E2E2ECC
:102B500000313233340053495354454D41204C49E0
:0E2B600053544F004552524F522052544300DE
:107E0000112484B714BE81FFF0D085E080938100F7
:107E100082E08093C00088E18093C10086E0809377
:107E2000C20080E18093C4008EE0C9D0259A86E02C
:107E300020E33CEF91E0309385002093840096BBD3
:107E4000B09BFECF1D9AA8958150A9F7CC24DD24C4
:107E500088248394B5E0AB2EA1E19A2EF3E0BF2EE7
:107E6000A2D0813461F49FD0082FAFD0023811F036
:107E7000013811F484E001C083E08DD089C08234E0
:107E800011F484E103C0853419F485E0A6D080C0E4
:107E9000853579F488D0E82EFF2485D0082F10E0AE
:107EA000102F00270E291F29000F111F8ED06801E7
:107EB0006FC0863521F484E090D080E0DECF843638
:107EC00009F040C070D06FD0082F6DD080E0C81688
:107ED00080E7D80618F4F601B7BEE895C0E0D1E017
:107EE00062D089930C17E1F7F0E0CF16F0E7DF06D8
:107EF00018F0F601B7BEE89568D007B600FCFDCFD4
:107F0000A601A0E0B1E02C9130E011968C91119780
:107F100090E0982F8827822B932B1296FA010C0160
:107F200087BEE89511244E5F5F4FF1E0A038BF0790
:107F300051F7F601A7BEE89507B600FCFDCF97BE46
:107F4000E89526C08437B1F42ED02DD0F82E2BD052
:107F50003CD0F601EF2C8F010F5F1F4F84911BD097
:107F6000EA94F801C1F70894C11CD11CFA94CF0C13
:107F7000D11C0EC0853739F428D08EE10CD085E9AC
:107F80000AD08FE07ACF813511F488E018D01DD067
:107F900080E101D065CF982F8091C00085FFFCCF94
:107FA0009093C60008958091C00087FFFCCF809118
:107FB000C00084FD01C0A8958091C6000895E0E648
:107FC000F0E098E1908380830895EDDF803219F02E
:107FD00088E0F5DFFFCF84E1DECF1F93182FE3DFCA
:107FE0001150E9F7F2DF1F91089580E0E8DFEE27F6
:047FF000FF270994CA
:027FFE00040479
:00000001FF
