:100000000C946E000C9496000C9496000C94960040
:100010000C9496000C9496000C9496000C94960008
:100020000C9496000C9496000C9496000C949600F8
:100030000C9496000C9496000C9496000C949600E8
:100040000C94CE0B0C9496000C943E0C0C94180C53
:100050000C9496000C9496000C9496000C949600C8
:100060000C94700C0C94960031373A35353A35398A
:100070000044656320203920323032350000000012
:1000800000240027002A0000000000250028002B83
:1000900000000000002300260029000404040404DA
:1000A0000404040202020202020303030303030125
:1000B00002040810204080010204081020010204FC
:1000C00008102000000008000201000003040700DF
:1000D00000000000000000008F0D791011241FBEE9
:1000E000CFEFD8E0DEBFCDBF23E0A0E4B2E001C097
:1000F0001D92AB3FB207E1F712E0A0E0B1E0E0EC07
:10010000FBE202C005900D92A034B107D9F710E0D0
:10011000CDE6D0E004C02197FE010E942611CC3626
:10012000D107C9F70E94150E0C94D3150C9400004A
:10013000833081F028F4813099F08230A9F008955D
:100140008730A9F08830C9F08430B1F48091800004
:100150008F7D03C0809180008F7780938000089509
:1001600084B58F7784BD089584B58F7DFBCF809152
:10017000B0008F778093B00008958091B0008F7D9C
:10018000F9CFCF93DF93282F30E0F901ED53FF4FE4
:100190008491F901E155FF4FD491F901E556FF4FE4
:1001A000C491CC23A1F081110E949800EC2FF0E0C3
:1001B000EE0FFF1FEF56FF4FA591B491EC91ED2389
:1001C00081E090E009F480E0DF91CF91089580E034
:1001D00090E0FACF1F93CF93DF93282F30E0F901FF
:1001E000ED53FF4F8491F901E155FF4FD491F9018F
:1001F000E556FF4FC491CC23A9F0162F81110E9420
:100200009800EC2FF0E0EE0FFF1FE957FF4FA5918C
:10021000B4918FB7F894EC91111108C0D095DE23FA
:10022000DC938FBFDF91CF911F910895DE2BF8CF24
:10023000CF93DF9390E0FC01E155FF4F2491855669
:100240009F4FFC0184918823D1F090E0880F991F83
:10025000FC01E358FF4FA591B491FC01E957FF4F12
:10026000C591D49161110EC09FB7F8948C91E22F83
:10027000E0958E238C932881E223E8839FBFDF9152
:10028000CF9108958FB7F894EC91E22BEC938FBF48
:10029000F6CF3FB7F89480918C0290918D02A09197
:1002A0008E02B0918F0226B5A89B05C02F3F19F092
:1002B0000196A11DB11D3FBFBA2FA92F982F8827E6
:1002C000BC01CD01620F711D811D911D42E0660FC1
:1002D000771F881F991F4A95D1F708958F929F9293
:1002E000AF92BF92CF92DF92EF92FF920E944901AC
:1002F0004B015C0184EFC82EDD24D394E12CF12C5A
:100300000E944901681979098A099B09683E73406E
:1003100081059105A8F321E0C21AD108E108F1088E
:1003200088EE880E83E0981EA11CB11CC114D10474
:10033000E104F10429F7FF90EF90DF90CF90BF9098
:10034000AF909F908F900895089508950895AF926B
:10035000BF92CF92DF92EF92FF920F931F93CF93B2
:10036000DF936C017B018B01040F151FEB015E0114
:10037000AE18BF08C017D10759F06991D601ED91A9
:10038000FC910190F081E02DC6010995892B79F748
:10039000C501DF91CF911F910F91FF90EF90DF90FA
:1003A000CF90BF90AF900895FC01538D448D252FC1
:1003B00030E0842F90E0821B930B541710F0CF96FF
:1003C000089501970895FC01918D828D981761F031
:1003D000A28DAE0FBF2FB11D5D968C91928D9F5F48
:1003E0009F73928F90E008958FEF9FEF08952FB73E
:1003F000F8948091900290919102A0919202B09114
:1004000093022FBF80930E0390930F03A0931003CA
:10041000B093110386E093E00E94E30197FF26C0AA
:100420002FB7F8948091900290919102A09192023E
:10043000B09193022FBF40910E0350910F03609132
:10044000100370911103841B950BA60BB70B409101
:100450000A0350910B0360910C0370910D038417F4
:100460009507A607B707B0F28FEF9FEF0895FC013D
:10047000918D828D981731F0828DE80FF11D858D59
:1004800090E008958FEF9FEF0895FC01918D228DEC
:10049000892F90E0805C9F4F821B91098F73992771
:1004A000089586E093E00E94450221E0892B09F43B
:1004B00020E0822F089580E090E0892B29F00E94AF
:1004C000510281110C9400000895FC01A48DA80F25
:1004D000B92FB11DA35ABF4F2C91848D90E0019686
:1004E0008F739927848FA689B7892C93A089B189A6
:1004F0008C91837080648C93938D848D981306C047
:100500000288F389E02D80818F7D80830895EF92AA
:10051000FF920F931F93CF93DF93EC0181E0888FBD
:100520009B8D8C8D98131AC0E889F989808185FF8D
:1005300015C09FB7F894EE89FF896083E889F9892F
:1005400080818370806480839FBF81E090E0DF9131
:10055000CF911F910F91FF90EF900895F62E0B8D84
:1005600010E00F5F1F4F0F731127E02E8C8D8E113F
:100570000CC00FB607FCFACFE889F989808185FFA6
:10058000F5CFCE010E946502F1CFEB8DEC0FFD2F70
:10059000F11DE35AFF4FF0829FB7F8940B8FEA8961
:1005A000FB8980818062CFCFCF93DF93EC01888D70
:1005B0008823B9F0AA89BB89E889F9898C9185FDDE
:1005C00003C0808186FD0DC00FB607FCF7CF8C916C
:1005D00085FFF2CF808185FFEDCFCE010E946502BD
:1005E000E9CFDF91CF910895FC01908190539A302B
:1005F00008F090E0818180532AE0929F800D1124C1
:10060000089520916202260F3327331F21323105CE
:10061000ECF42091DC02FC0190E080E0243069F0F1
:1006200082E00895A09162022191AC014E5B5D4F82
:10063000A40FB52FB11D2C930196861798F38091C6
:100640006202680F6093620280E0089581E008957D
:100650001092DC0281E08093DB021092B60261E02E
:1006600082E10E94EA0061E083E10E94EA00E9EB96
:10067000F0E080818E7F808380818D7F808388E41D
:100680008093B80085E48093BC000895CF93DF93F6
:1006900091E0909341028823B9F0C091B800D091C5
:1006A000BA008091BC008A7B8093BC0060E082E14C
:1006B0000E94EA0060E083E10E94EA000E942803B1
:1006C000D093BA00C093B800DF91CF9108958F9274
:1006D0009F92AF92BF92CF92DF92EF92FF920F93D1
:1006E0001F93CF93DF93D0910503D13208F0D7C089
:1006F000182FC09104030E9449016B017C01809175
:10070000DC0281116BC082E08093DC021093DB027B
:100710008FEF8093DA021092D902D093D802A4EE20
:10072000B2E0E8EBF2E080E0D81391C01092B7029B
:100730008091B702CC0FC82BC093B7028091B6024C
:10074000813009F088C01092B6020E9449016B0105
:100750007C018091B7028093BB008091DE02909172
:10076000DF02A091E002B091E102892B8A2B8B2B52
:10077000A1F00E9449010091DE021091DF02209158
:10078000E0023091E1026C197D098E099F0906177C
:1007900017072807390708F442C08091BC0083FD81
:1007A000D8CF85EC8093BC000E9449016B017C018D
:1007B0008091DC02823009F450C08091DA028F3FD0
:1007C00009F46FC08091DA02803209F46CC0809124
:1007D000DA02803309F469C084E026C08091DE0229
:1007E0009091DF02A091E002B091E102892B8A2B67
:1007F0008B2B09F484CF0E9449018090DE029090F7
:10080000DF02A090E002B090E1026C197D098E0930
:100810009F0986169706A806B90608F070CF809142
:10082000DD020E94460385E01092E3021092050368
:100830001092E202DF91CF911F910F91FF90EF9004
:10084000DF90CF90BF90AF909F908F9008959D9133
:1008500091938F5F69CF85EEA5CF8091DE02909155
:10086000DF02A091E002B091E102892B8A2B8B2B51
:1008700009F49ECF0E9449010091DE021091DF022F
:100880002091E0023091E1026C197D098E099F09E7
:10089000061717072807390708F08ACFC0CF81E06D
:1008A000C3CF80E0C1CF82E0BFCF83E0BDCF1F9335
:1008B000CF93DF93EA01122FDC0111968D919C9169
:1008C000DC01ED91FC910280F381E02D0995C817C0
:1008D000D90729F4812F0E94670391E0811190E0EC
:1008E000892FDF91CF911F910895CF93DF93EC0172
:1008F0008B818823A1F0888191E09093E20280931C
:1009000004031092E3021092050381E00E94670342
:1009100091E0811190E0892FDF91CF91089510929D
:100920009502109294021092E302109205030E9425
:10093000280384EA91E0909388028093870285EAF5
:1009400091E0909386028093850281E08B83CE01B3
:100950000E947504982F8111CECFDDCF0895E091CC
:10096000950280919402E81730F4F0E0EA56FD4FCA
:10097000808190E008958FEF9FEF08959091950208
:10098000809194022FEF3FEF981748F4E92FF0E0A1
:10099000EA56FD4F208130E09F5F90939502C90198
:1009A00008958091940290919502891B990B089566
:1009B000CF92DF92EF92FF920F931F93CF93DF932B
:1009C0007C01CB018A012091E202222389F0EB0114
:1009D0006B01C40ED51ECC15DD0569F06991D701F8
:1009E000ED91FC910190F081E02DC7010995F3CFC5
:1009F000642F0E940103C801DF91CF911F910F91D5
:100A0000FF90EF90DF90CF900895CF93DF931F92E8
:100A1000CDB7DEB769832091E2022223F9F020915D
:100A20000503203258F021E030E0FC0133832283BB
:100A300090E080E00F90DF91CF9108958091E302E4
:100A4000E82FF0E0EC51FD4F998190838F5F809308
:100A5000E3028093050381E090E0ECCF61E0CE01FA
:100A600001960E940103F7CF90E080E008952F9255
:100A70003F924F925F926F927F928F929F92AF922E
:100A8000BF92CF92DF92EF92FF920F931F93CF937B
:100A9000DF935C011B016A01F12CE12CD501149656
:100AA0008D919C9186010E191F098017910708F4FA
:100AB0008C01F501D0810E9449012B013C018091FC
:100AC000DC02811172C0C02F013208F0C0E2F1E0F7
:100AD000F093DC0221E0C601801B910BE816F906B9
:100AE00008F420E02093DB028FEF8093DA0210926B
:100AF000D9028C0F8093D802A1E0A093B702809115
:100B0000B702DD0FD82BD093B7028091B6028130A7
:100B100009F090C01092B6020E9449012B013C01DD
:100B20008091B7028093BB008091DE029091DF023A
:100B3000A091E002B091E102892B8A2B8B2BA1F0CE
:100B40000E9449012091DE023091DF024091E002D3
:100B50005091E1026419750986099709261737072C
:100B60004807590708F442C08091BC0083FDD8CFE4
:100B7000B5ECB093BC000E9449012B013C0180916F
:100B8000DC02813009F45AC08091D9028C1710F42C
:100B9000C091D902A8EBB2E0E6E9F2E080E08C1760
:100BA00051F19D9191938F5FFACF8091DE029091E8
:100BB000DF02A091E002B091E102892B8A2B8B2BFE
:100BC00009F47DCF0E9449012091DE023091DF02BD
:100BD0004091E0025091E102641975098609970974
:100BE000261737074807590708F069CF8091DD02BB
:100BF0000E944603C0E010929502C0939402C01771
:100C0000110609F057C041018E0C9F1CE401CE0172
:100C1000881999098017910798F5D50111968D913A
:100C20009C91DC01ED91FC910284F385E02D099506
:100C30008993EDCFE5EEE093BC009DCF8091DE027D
:100C40009091DF02A091E002B091E102892B8A2B02
:100C50008B2B09F494CF0E9449012091DE02309140
:100C6000DF024091E0025091E102641975098609A2
:100C70009709261737074807590708F080CFB6CFDE
:100C8000E00EF11EEC14FD0408F408CF81E0DF91C2
:100C9000CF911F910F91FF90EF90DF90CF90BF9079
:100CA000AF909F908F907F906F905F904F903F900C
:100CB0002F90089580E0EBCFCF93DF93EC0160E0BD
:100CC0008E810E94EA0061E08E810E94EA0060E06D
:100CD0008E810E94EA008BE891E00197F1F7DF91A5
:100CE000CF910895CF92DF92EF92FF920F931F93CF
:100CF000CF93DF936C017C0187E0E80EF11CD0E01C
:100D0000C0E0062F10E0B8010C2E02C07595679563
:100D10000A94E2F76170F70181917F010E94EA0075
:100D20002196C430D10579F7C601DF91CF911F918B
:100D30000F91FF90EF90DF90CF900C945C06CF92D4
:100D4000DF92EF92FF920F931F93CF93DF93EC010B
:100D5000F62E642F8C810E94EA008D818F3F19F05E
:100D600060E00E94EA000F2D10E08F8584FF25C00F
:100D70006E0187E0C80ED11CF12CE12CB8010E2CBD
:100D800002C0759567950A94E2F76170F60181914A
:100D90006F010E94EA00FFEFEF1AFF0A88E0E816F1
:100DA000F10461F7CE01DF91CF911F910F91FF9078
:100DB000EF90DF90CF900C945C06B80184E07595BD
:100DC00067958A95E1F7CE010E9472066F2DCE01DC
:100DD000DF91CF911F910F91FF90EF90DF90CF9017
:100DE0000C94720640E0682F8FED93E00C949F0600
:100DF000CF93DF93823029F49091EE039860909323
:100E0000EE038093F2031092F30380E48093F403E3
:100E100080E18093F50380E58093F60361E08091A3
:100E2000E3030E9418018091E4038F3F19F061E011
:100E30000E94180161E08091E5030E941801CFED46
:100E4000D3E09E012F5D33408091EE0384FD0BC003
:100E500084E090E021962817390744F461E08E8100
:100E60000E941801EECF88E090E0F4CF8BE39DE084
:100E70000197F1F760E08091E3030E94EA0060E0EF
:100E80008091E5030E94EA008091E4038F3F19F00E
:100E900060E00E94EA008091EE0384FD39C063E0C7
:100EA0008FED93E00E947206CBE4D6E4CE01019769
:100EB000F1F763E08FED93E00E9472062197F1F75E
:100EC00063E08FED93E00E94720683E592E0019764
:100ED000F1F762E08FED93E00E9472068091EE03DD
:100EE00080620E94F20684E08093EF038CE00E940F
:100EF000F20681E00E94F2068BE39FE10197F1F791
:100F000082E08093F00386E0DF91CF910C94F206AB
:100F100080620E94F2068BE496E40197F1F78091DB
:100F2000EE0380620E94F20683E592E00197F1F7FA
:100F30008091EE0380620E94F206D0CF9091F2037E
:100F4000891710F08FEF890FE82FF0E0E152FC4F86
:100F5000848980680C94F20641E00E949F0681E03B
:100F600090E00895CF93DF93EC01888199810097F9
:100F700011F00E94C811198218821D821C821B82E6
:100F80001A82DF91CF910895FC01808191810097B1
:100F900011F00C94C8110895FB0101900020E9F7AD
:100FA0003197AF01461B570BDC01ED91FC9102809C
:100FB000F381E02D0994CF93DF93BC0186E093E0A9
:100FC0000E94CC07EC0167E371E086E093E00E94A9
:100FD000CC078C0F9D1FDF91CF910895AF92BF92E8
:100FE000CF92DF92EF92FF920F931F93CF93DF93F5
:100FF000DC01CD90DC901197C114D10439F0149626
:10100000CD91DC918C017601209761F4DF91CF9135
:101010001F910F91FF90EF90DF90CF90BF90AF9016
:10102000089575015701BFEFAB1ABB0AF701808124
:10103000082E000C990B0E94C710892B91F721975D
:10104000CC0DDD1D8881082E000C990B0E94C71065
:10105000892B29F0CE15DF0510F02197F3CFAE01D3
:101060004F5F5F4F4E195F09D80115965C934E9301
:101070001497CE14DF0420F4B701C6010E940E13AA
:10108000D801ED91FC91119714968D919C91E80FE8
:10109000F91F1082BBCFCF93DF93EC01A881B981F8
:1010A000EB01E881F9811097F1F03097B1F4EC0190
:1010B0008C819D81892BC9F08C9190E00BC0DB0164
:1010C00014968D919C91892B81F0808190E091956F
:1010D00081959109DF91CF910895BF01CD01DF91F5
:1010E000CF910C942213309751F790E080E0F2CF2B
:1010F0000F931F93CF93DF93EC0188819981009721
:1011000059F02A813B812617370730F081E0DF91C3
:10111000CF911F910F9108958B016F5F7F4F0E94B8
:101120005112009759F0998388831B830A832C817D
:101130003D81232B59F7FC011082E8CF80E0E7CFF7
:10114000EF92FF920F931F93CF93DF93EC01FB017C
:10115000E080F180E114F10411F1048115810115A1
:101160001105A9F08C819D81080F191FB801CE01CE
:101170000E947808882399F0288139818C819D818B
:10118000B701820F931F0E942B131D830C83CE0186
:10119000DF91CF911F910F91FF90EF900895CE01B5
:1011A0000E94B207F4CFEF92FF920F931F93CF9359
:1011B000DF93EC017B018A01BA010E94780881115A
:1011C0000BC0CE010E94B207CE01DF91CF911F91DB
:1011D0000F91FF90EF9008951D830C83B7018881D4
:1011E00099810E942B13F0CFFB0101900020E9F7B9
:1011F0003197AF01461B570B0C94D308CF93DF9365
:10120000EC01FB018617970749F060817181611538
:10121000710541F0448155810E94D308CE01DF91D0
:10122000CF9108950E94B207F9CFFC01118210827C
:101230001382128215821482FB0101900020E9F7CB
:101240003197AF01461B570B0C94D308AF92BF9256
:10125000CF92DF92EF92FF920F931F93CF93DF9382
:101260006C015B017A0189012417350720F48F2D69
:101270007901042F182F69E371E0C6010E94150956
:10128000D5011496CD91DC91EC16FD06E0F40C1717
:101290001D0708F4E801D501ED91FC911197EC0FC1
:1012A000FD1F108110826D917C916E0D7F1DC60116
:1012B00061157105A1F00E94F408F501808191810A
:1012C000C80FD91F1883C601DF91CF911F910F91CD
:1012D000FF90EF90DF90CF90BF90AF9008950E9465
:1012E000B207EBCF85ED8093BC008091DE02909138
:1012F000DF02A091E002B091E1020796A11DB11DAD
:1013000023E0B695A795979587952A95D1F72091D3
:10131000BC0024FD03C01092DC0208954091DE025F
:101320005091DF026091E0027091E102452B462B63
:10133000472B69F30097A105B10541F02AE22A95F0
:10134000F1F700C00197A109B109E1CF8091DD0259
:101350000C944603EF92FF920F931F93CF93DF936A
:10136000CDB7DEB72F970FB6F894DEBF0FBECDBF57
:101370001982E0908902F0908A02F70184819581B8
:101380008E010F5F1F4F892BC9F0808191E09093F0
:10139000E202809304031092E3021092050320E01E
:1013A00041E050E0B801C7010E945704882331F0A2
:1013B00047E050E0B801C7010E94370599819F7747
:1013C0008A816B81492F50E024E0559547952A95F5
:1013D000E1F7242F220F220F421B440F490F1F92C7
:1013E0004F93282F30E044E0359527954A95E1F753
:1013F000922F990F990F291B220F280F1F922F93BD
:10140000862F90E054E0959587955A95E1F7982FAF
:10141000990F990F891B880F860F1F928F938AE36C
:1014200091E09F938F931F930F930E943213B80103
:10143000CE010A960E9415090FB6F894DEBF0FBEC2
:10144000CDBF2E853F858091D7039091D803281773
:10145000390741F463ED73E0CE010A960E944B0810
:10146000892B09F180E00E949E0769E471E0C801C0
:101470000E941509BE01665F7F4FC8010E94A00847
:10148000FC0144815581608171818FED93E00E9460
:10149000A701C8010E94C407BE01665F7F4F83EDAC
:1014A00093E00E94FE0810910001112371F161E0A8
:1014B0008EE00E94EA0060E08FE00E94EA008091E6
:1014C0004002181789F081E00E949E0760E571E0F4
:1014D000111102C061E671E08FED93E00E94CC072C
:1014E0008091000180934002CE010A960E94C407B9
:1014F0002F960FB6F894DEBF0FBECDBFDF91CF9110
:101500001F910F91FF90EF90089560E08EE00E9490
:10151000EA0061E0D1CF80E10E94C100019751F45F
:1015200082E791E00E94DB07109200010E94AA0965
:101530000E946E0181E10E94C100019759F486E981
:1015400091E00E94DB0781E0809300010E94AA09DC
:101550000C946E0108954F925F926F927F928F92DA
:101560009F92AF92BF92EF92FF920F931F93CF93F0
:10157000DF93CDB7DEB768970FB6F894DEBF0FBE26
:10158000CDBF2B013C018FB7F894809090029090D2
:101590009102A0909202B09093028FBF2FB7F8945F
:1015A0008091900290919102A0919202B091930249
:1015B0002FBF88199909AA09BB0984159505A605A5
:1015C000B70508F0D6C00E94AA090E948B0A86E0DF
:1015D00093E00E9445021816190604F769E371E0CA
:1015E000CE0143960E9415090E94F70197FD1EC087
:1015F0008D309105D9F089831A820F89188D0F5F7C
:101600001F4FB801CE0143960E947808882361F3EA
:101610002B893C898F89988DBE016F5F7F4F820F28
:10162000931F0E942B13188F0F8BDECF86E093E061
:101630000E9437020A9721F486E093E00E94E301BA
:101640001E861D86188A1F861A8A198ABE016D5E3B
:101650007F4FCE010D960E94FE08CE010D960E948E
:10166000EE0789899A89892B81F0ED84FE846DE3E8
:1016700070E0C7010E941713009739F08C010E1912
:101680001F090F3F100709F049C0BE01635F7F4F7C
:1016900089ED93E00E94FE088091DD039091DE03C6
:1016A0000497B8F16BEB71E0CE0101960E94150929
:1016B00069ED73E0CE0101960E94A008FC0144810F
:1016C00055816081718186E093E00E94A70167E304
:1016D00071E086E093E00E94CC07CE0101960E9463
:1016E000C40781E00E949E0764EE71E08FED93E0F5
:1016F0000E94CC0764EF71E080E090E00E94AB0AAA
:10170000CE010D960E94C407CE0143960E94C407E5
:1017100045CF85EF91E00E94DB07F2CF980150E0C2
:1017200040E0BE01635F7F4FCE0107960E9426090D
:1017300029893A89A8014F5F5F4FBE01635F7F4FE0
:10174000CE0101960E942609CE0107960E94EE075F
:10175000CE0101960E94EE0781E192E00E94DB0734
:10176000CE0101960E94C407CE0107960E94C407CD
:10177000C7CF68960FB6F894DEBF0FBECDBFDF911E
:10178000CF911F910F91FF90EF90BF90AF909F90DE
:101790008F907F906F905F904F9008951F920F925F
:1017A0000FB60F9211242F933F938F939F93AF9374
:1017B000BF938091900290919102A0919202B0917A
:1017C000930230918B0223E0230F2D3758F50196B9
:1017D000A11DB11D20938B028093900290939102E2
:1017E000A0939202B093930280918C0290918D020B
:1017F000A0918E02B0918F020196A11DB11D809320
:101800008C0290938D02A0938E02B0938F02BF91B1
:10181000AF919F918F913F912F910F900FBE0F909D
:101820001F90189526E8230F0296A11DB11DD2CF57
:101830001F920F920FB60F9211242F933F934F9345
:101840005F936F937F938F939F93AF93BF93EF9328
:10185000FF9386E093E00E946502FF91EF91BF91B4
:10186000AF919F918F917F916F915F914F913F9138
:101870002F910F900FBE0F901F9018951F920F92EF
:101880000FB60F9211242F938F939F93EF93FF9393
:10189000E0911603F09117038081E0911C03F09111
:1018A0001D0382FD1BC0908180911F038F5F8F738A
:1018B00020912003821741F0E0911F03F0E0EA5FDE
:1018C000FC4F958F80931F03FF91EF919F918F9114
:1018D0002F910F900FBE0F901F9018958081F4CF1D
:1018E0001F920F920FB60F9211242F933F934F9395
:1018F0005F936F937F938F939F93AF93BF93EF9378
:10190000FF938091B900887F803609F44AC0F0F5D2
:10191000883209F4A7C018F5803109F49BC0B8F4E7
:10192000882309F4F9C0883009F494C0FF91EF913D
:10193000BF91AF919F918F917F916F915F914F91E7
:101940003F912F910F900FBE0F901F9018958831E7
:1019500009F488C0803251F78093DA0214C08034D1
:1019600009F49DC040F48033B9F38833F9F68093CD
:10197000DA0285ECB0C0803509F485C0883509F4F9
:1019800096C0883499F60E947209D0CF883909F43C
:101990008CC038F5883729F050F4883611F080373C
:1019A00029F683E08093DC021092840257C08838C5
:1019B00009F47BC0803919F0803809F0B7CF8091E5
:1019C0008402803208F071C0E091840281E08E0FC1
:1019D000809384028091BB00F0E0EC59FD4F80833E
:1019E0003DC0803B39F0E0F4803A09F479C0883A90
:1019F00009F09CCF84E08093DC0210926302109285
:101A00006202E0918702F09188020995809162025A
:101A100081110FC081E0809362021092420209C0DE
:101A2000803C09F4A6CF883C09F4A3CF883B09F099
:101A30007DCFE091630281E08E0F80936302F0E03E
:101A4000EE5BFD4F80818093BB009091630280919B
:101A5000620229C08091B7028093BB0085EC80931D
:101A6000BC0064CF9091D9028091D802981758F5A4
:101A7000E091D90281E08E0F8093D902F0E0E85422
:101A8000FD4F8081E9CFE091D90281E08E0F8093F4
:101A9000D9028091BB00F0E0E854FD4F8083909123
:101AA000D9028091D8029817C8F285E8D8CFE09182
:101AB000D90281E08E0F8093D9028091BB00F0E0C3
:101AC000E854FD4F80838091DB0281115CCF81E07F
:101AD0008093B60284EA8093BC001092DC0226CF89
:101AE00085EC8093BC001092DC02809184028032ED
:101AF00030F4E0918402F0E0EC59FD4F10826091E7
:101B0000840270E0E0918502F091860284E692E022
:101B10000995109284020ACF1092DA0234CFE6E0DF
:101B2000F3E01382128288EE93E0A0E0B0E08483B9
:101B30009583A683B7832BE031E03183208325ECA6
:101B400030E03587248724EC30E03787268720EC87
:101B500030E0318B208B21EC30E0338B228B22EC78
:101B600030E0358B248B26EC30E0378B268B118EC2
:101B7000128E138E148EE3EAF3E0138212828483B2
:101B80009583A683B7838DE191E091838083EFED08
:101B9000F3E0138212828FE291E0918380838CE0E4
:101BA00084838FEF85838BE0868385E0878384E061
:101BB000808783E0818782E082871386148615867A
:101BC0001686178681E00E94F80669E371E089EDC8
:101BD00093E00E94150969E371E083ED93E00E94B0
:101BE000150969E371E08DEC93E00E94150969E342
:101BF00071E087EC93E00E94150969E371E081ECE4
:101C000093E00E94150969E371E08BEB93E00E9479
:101C1000150969E371E085EB93E00E94150969E31A
:101C200071E08FEA93E00C941509CF93DF93CDB761
:101C3000DEB769970FB6F894DEBF0FBECDBF7894BC
:101C400084B5826084BD84B5816084BD85B58260C1
:101C500085BD85B5816085BD80916E008160809372
:101C60006E001092810080918100826080938100DB
:101C700080918100816080938100809180008160EB
:101C8000809380008091B10084608093B100809146
:101C9000B00081608093B00080917A00846080936E
:101CA0007A0080917A00826080937A0080917A0035
:101CB000816080937A0080917A00806880937A00B6
:101CC0001092C100E0911603F091170382E0808327
:101CD000E0911203F09113031082E0911403F0914C
:101CE00015038FEC808310921E03E0911A03F0918C
:101CF0001B0386E08083E0911803F0911903808133
:101D000080618083E0911803F091190380818860DD
:101D10008083E0911803F0911903808180688083AB
:101D2000E0911803F091190380818F7D808382E315
:101D300090E0A0E0B0E080930A0390930B03A0939F
:101D40000C03B0930D0382E00E94F80667E272E094
:101D50008FED93E00E94CC0761E08EE00E941801B5
:101D600061E08FE00E94180160E080E10E941801AC
:101D700060E081E10E9418018091890290918A02BD
:101D8000009711F00E94C81186E090E00E942C118B
:101D90007C0188E6F701808383EA93E09283818364
:101DA000138280E290E095838483F0928A02E0922D
:101DB000890210929502109294021092E3021092FE
:101DC00005030E94280384EA91E09093880280939F
:101DD000870285EA91E0909386028093850281E0F4
:101DE000F7018383C7010E947504811109C081E056
:101DF0000E949E0766E372E08FED93E00E94CC079D
:101E0000198E8091890290918A02FC01248135818A
:101E1000232B91F0208131E03093E20220930403E0
:101E20001092E3021092050321E041E050E0BE0170
:101E3000675E7F4F0E94570441E050E0CE0101965B
:101E40007C01BC018091890290918A020E94370531
:101E5000898190E0880F892F881F990B892B09F4BD
:101E60009CC04BE050E061E770E0C7010E94991010
:101E7000CE010A960E94F402082FE981E154E33171
:101E8000D8F40E2E000CFF0BE85BF04F0C942611DB
:101E90004A105C0F5C0F5E105C0F5B0F5C0F5C0FF9
:101EA0005C0F3E105C0F5C0F51105C105A105C0F01
:101EB0005C0F5C0F581012E0CE0105960E94F402F0
:101EC000D82E48E050E068E670E0C7010E94991003
:101ED000C7010E94F402C82ECE0104960E94F402AB
:101EE000B82ECE0107960E94F402382F86E0F70143
:101EF00011928A95E9F72AE0832F622F0E941A1126
:101F0000982F880F890F880F830F8A838B2D0E944B
:101F10001A11982F880F890F880F8B0D8B838C2DAA
:101F20000E941A11982F880F890F880F8C0D8C83AF
:101F30008D2D0E941A11982F880F890F880F8D0DF3
:101F40008E83812F0E941A11982F990F890F880F65
:101F5000180F1F83802F0E941A11982F880F890F46
:101F6000880F800F88878091890290918A02FC01F6
:101F7000248135812830310580F0208131E0309393
:101F8000E202209304031092E3021092050321E081
:101F900048E050E0B7010E94570481E080930001BF
:101FA0000E94AA090E948B0A69E371E085EB93E025
:101FB0000E94F408109200011C8A1B8A1E8A1D8A46
:101FC000188E1F8A4AE0B70183ED94E00E94A210A8
:101FD000B701CE0143960E94F4088091CD03909101
:101FE000CE03009709F46EC06B897C896115710579
:101FF00009F466C04091CF035091D0032F89388DEA
:102000004217530708F45CC00E942B138F89988DE8
:102010009093D2038093D103188E1F8ACE014396EA
:102020000E94C4076AE070E080E090E00E94AB0A82
:1020300068EE73E080E090E00E94AB0A64E670E036
:1020400080E090E00E94AB0A2091D1033091D2034E
:102050008091DD039091DE032817390749F769ED78
:1020600073E08DEC93E00E944B08892B09F71092E6
:1020700000010E94AA0910920001DACF8A8111E0C2
:10208000813609F419CF8B8117E08E3609F014CF11
:1020900016E012CF8B8118E0823709F00DCF14E0E3
:1020A0000BCF8B8115E0823709F006CF13E004CF08
:1020B00019E002CF1AE000CF1BE0FECE1CE0FCCE00
:1020C0000E94C8118B899C899093CE038093CD0385
:1020D0008D899E899093D0038093CF038F89988DAB
:1020E0009093D2038093D1031C8A1B8A1E8A1D8A77
:1020F00093CF8FEA93E00E94C40785EB93E00E94A0
:10210000C4078BEB93E00E94C40781EC93E00E942C
:10211000C40787EC93E00E94C4078DEC93E00E9413
:10212000C40783ED93E00E94C40789ED93E00C940B
:10213000C407FB01DC0102C005900D9241505040E4
:10214000D8F70895BB274A3031F4992322F4BDE231
:10215000909581959F4F0C94AE10BB27FB0155279E
:10216000AA27880F991FAA1FA41710F0A41B8395F4
:102170005051B9F7A05DAA3308F0A95DA19300976B
:1021800079F7B111B1931192CB010C94D010911148
:102190000C94E010803219F089508550C8F70895EA
:1021A000DC01FC01672F71917723E1F7329704C0BE
:1021B0007C916D9370836291AE17BF07C8F3089549
:1021C0009927882708952F923F924F925F926F929E
:1021D0007F928F929F92AF92BF92CF92DF92EF92B7
:1021E000FF920F931F93CF93DF93CDB7DEB7CA1B38
:1021F000DB0B0FB6F894DEBF0FBECDBF09942A8863
:10220000398848885F846E847D848C849B84AA840A
:10221000B984C884DF80EE80FD800C811B81AA8197
:10222000B981CE0FD11D0FB6F894DEBF0FBECDBF62
:10223000ED010895991B79E004C0991F961708F0E5
:10224000961B881F7A95C9F780950895EE0FFF1F9A
:102250000590F491E02D09940F931F93CF93DF9392
:102260008230910510F482E090E0E091F903F09162
:10227000FA0330E020E0B0E0A0E0309799F42115B7
:10228000310509F44AC0281B390B24303105D8F533
:102290008A819B816115710589F1FB01938382839A
:1022A000FE0111C0408151810281138148175907F5
:1022B000E0F04817590799F4109761F012960C93C3
:1022C000129713961C933296CF01DF91CF911F91F5
:1022D0000F9108950093F9031093FA03F4CF211599
:1022E000310551F04217530738F0A901DB019A017B
:1022F000BD01DF01F801C1CFEF01F9CF9093FA03DF
:102300008093F903CDCFFE01E20FF31F81939193E8
:102310002250310939832883D7CF2091F703309198
:10232000F803232B41F420910301309104013093F1
:10233000F8032093F7032091010130910201211548
:10234000310541F42DB73EB740910501509106018A
:10235000241B350BE091F703F091F803E217F30724
:10236000A0F42E1B3F0B2817390778F0AC014E5F05
:102370005F4F2417350748F04E0F5F1F5093F80347
:102380004093F703819391939FCFF0E0E0E09CCFDF
:10239000CF93DF930097E9F0FC013297138212820A
:1023A000A091F903B091FA03ED0130E020E010971D
:1023B000A1F420813181820F931F2091F703309186
:1023C000F8032817390709F061C0F093F803E09388
:1023D000F703DF91CF910895EA01CE17DF07E8F503
:1023E0004A815B819E0141155105B1F7E901FB83EB
:1023F000EA8349915991C40FD51FEC17FD0761F489
:10240000808191810296840F951FE90199838883C9
:10241000828193819B838A83F0E0E0E012968D9124
:102420009C9113970097B9F52D913C911197CD018F
:102430000296820F931F2091F7033091F80328171B
:10244000390739F6309751F51092FA031092F903D3
:10245000B093F803A093F703BCCFD383C28340812A
:102460005181840F951FC817D90761F44E5F5F4FE4
:1024700088819981480F591F518340838A819B81AC
:10248000938382832115310509F0B0CFF093FA03CD
:10249000E093F9039ECFFD01DC01C0CF13821282CD
:1024A000D7CFB0E0A0E0E7E5F2E10C94E5108C01B5
:1024B000009751F4CB010E942C118C01C801CDB7BB
:1024C000DEB7E0E10C940111FC01E60FF71F9C015F
:1024D00022503109E217F30708F49DC0D901CD91CC
:1024E000DC911197C617D70798F0C530D10530F3A6
:1024F000CE0104978617970708F3C61BD70B2297C0
:10250000C193D1936D937C93CF010E94C811D6CF14
:102510005B01AC1ABD0A4C018C0E9D1EA091F90303
:10252000B091FA03512C412CF12CE12C109731F58C
:102530008091F7039091F8038815990509F05CC024
:102540004616570608F058C080910101909102018B
:10255000009741F48DB79EB7409105015091060157
:10256000841B950BE817F90708F055C0F093F803A2
:10257000E093F703F90171836083A0CF8D919C9163
:10258000119712966C90129713967C901397A8153A
:10259000B90559F56C0142E0C40ED11CCA14DB0424
:1025A00020F1AC014A195B09DA011296159780F007
:1025B0006282738251834083D9016D937C93E114CD
:1025C000F10471F0D7011396FC93EE93129776CF36
:1025D00022968C0F9D1FF90191838083F301EFCF29
:1025E000F093FA03E093F90369CF4816590608F40B
:1025F0002C017D01D3019ACFCB010E942C117C01CB
:10260000009749F0AE01B8010E940E13C8010E9464
:10261000C811870153CF10E000E050CFFB01DC016F
:1026200002C001900D9241505040D8F70895FC012E
:102630008191861721F08823D9F79927089531973A
:10264000CF010895FB01DC018D91019080190110EB
:10265000D9F3990B0895FB01DC0101900D92002044
:10266000E1F70895AEE0B0E0E8E3F3E10C94F11097
:102670000D891E8986E08C831A8309838FEF9FE77B
:102680009E838D83AE01475E5F4F6F89788DCE014B
:1026900001960E9455132F813885020F131FF801F0
:1026A00010822E96E4E00C940D11ABE0B0E0EBE567
:1026B000F3E10C94E3107C013B018A01FC011782D9
:1026C0001682838181FFC8C1CE0101965C01F701AA
:1026D0009381F30193FD859193FF81913F018823BD
:1026E00009F453C1853239F493FD859193FF8191AB
:1026F0003F01853229F4B70190E00E944515E7CFEC
:10270000912C212C312CFFE1F31538F08B3211F193
:1027100090F4803209F1833229F137FC3CC020ED7E
:10272000280F2A3050F536FE20C08AE0989E200DF2
:102730001124922E06C08D3291F0803371F7689487
:1027400030F8F30193FD859193FF81913F01811151
:10275000DACF21C0689431F8689432F8F2CF6894E7
:1027600033F8EFCF689434F8ECCFEAE02E9E200DDA
:102770001124222E689435F8E4CF8E3229F436FCE9
:1027800004C1689436F8DDCF8C3619F4689437F8B4
:10279000D8CF8836B1F2982F9F7D95549330E0F0D2
:1027A0008336A1F18337C1F1833509F063C0280175
:1027B000F2E04F0E511CF801C080D180692D70E00D
:1027C00036FC02C06FEF7FEFC6010E942F154C014F
:1027D000689437F882010AC00C5F1F4FFFE3F9834A
:1027E00088248394912C6501E89437F833FE2DC03A
:1027F000522C8114910471F5552009F468CFB7016A
:1028000080E290E00E9445155A94F6CFF80180814D
:1028100089830E5F1F4FE4CF2801F2E04F0E511C59
:10282000F801C080D180692D70E036FC02C06FEFE6
:102830007FEFC6010E943A154C018201D5CFB70146
:1028400080E290E00E9445152A942814190409F0AA
:10285000B0F7CECFF60137FC859137FE81916F013D
:10286000B70190E00E94451551105A94F1E08F1A7B
:102870009108BFCF843619F0893609F077C0F80186
:1028800037FE6BC060817181828193810C5F1F4F25
:10289000F32DFF763F2E97FF09C090958095709598
:1028A00061957F4F8F4F9F4F689437F82AE030E053
:1028B000A5010E947515C82ECA188C2C432C36FE13
:1028C0000CC0E89440F8C91440F434FE05C032FC52
:1028D00003C0F32DFE7E4F2E892C44FE95C0FE01D1
:1028E000EC0DF11D8081803309F087C0242D297EF5
:1028F000422E842D8870582E43FC95C040FE8FC018
:102900009C2C821418F42C0C922C981844FE91C024
:10291000B70180E390E00E94451542FE09C088E7B8
:1029200090E041FE02C088E590E0B7010E944515A5
:10293000C91408F48AC0CA94D12C9FEFC91AD90AC5
:10294000CA0CDB1CF60182916F01B70190E00E9476
:102950004515AC14BD04B1F74FCF60817181072ECE
:10296000000C880B990B0E5F1F4F92CFD32CE8946D
:10297000D4F82AE030E0853739F1232D297FD22E93
:102980008F3601F148F48835A9F0F70186819781E7
:102990002B96E2E10C94FF10803749F08837A9F7B5
:1029A000D4FE02C06894D2F820E130E00DC06894F3
:1029B000D4F8F6CF34FE03C0822F8660D82E20E1F3
:1029C00032E002C028E030E0F801D7FE0FC060819D
:1029D0007181828193810C5F1F4FA5010E94751543
:1029E000C82ECA183D2CE89437F867CF60817181F2
:1029F00090E080E00E5F1F4FF0CF42FC02C0839456
:102A000078CF8394839475CF842D867809F471CF21
:102A1000F6CFB70180E290E00E94451583948214BE
:102A2000C0F3512C73CF522C5818821408F46ECF77
:102A3000F8CF842D867809F47BCF8BE241FE80E2CB
:102A400047FC8DE2B70190E071CFB70180E390E0E1
:102A50000E9445159A946CCF8FEF9FEF99CFFC01A0
:102A60000590615070400110D8F7809590958E0FB9
:102A70009F1F0895FC016150704001900110D8F72C
:102A8000809590958E0F9F1F08950F931F93CF935E
:102A9000DF93182F092FEB018B8181FD09C01FEFF8
:102AA0000FEF812F902FDF91CF911F910F910895FC
:102AB00082FF14C02E813F818C819D8128173907A8
:102AC0003CF4E881F981CF010196998388831083D2
:102AD0008E819F8101969F838E83E3CFE885F98560
:102AE000812F0995892BA1F3DACFFA01AA27283083
:102AF00051F1203181F1E8946F936E7F6E5F7F4FCB
:102B00008F4F9F4FAF4FB1E03ED0B4E03CD0670F46
:102B1000781F891F9A1FA11D680F791F8A1F911D99
:102B2000A11D6A0F711D811D911DA11D20D009F4E9
:102B300068943F912AE0269F11243019305D31932B
:102B4000DEF6CF010895462F4770405D4193B3E014
:102B50000FD0C9F7F6CF462F4F70405D4A3318F0BB
:102B6000495D31FD4052419302D0A9F7EACFB4E06C
:102B7000A6959795879577956795BA95C9F7009724
:102B80006105710508959B01AC010A2E06945795C5
:102B9000479537952795BA95C9F7620F731F841F1C
:102BA000951FA01D089510E0CDE6D0E004C0FE0101
:102BB0000E9426112196CE36D107C9F7F894FFCF8F
:102BC000010000FB038000000000008702A701D481
:102BD00001D4024502E3013702000000000505D8D8
:102BE000043405AE04D104BE04AF0400000000AC00
:102BF00007A7013405A6010D0A00253032643A25E5
:102C00003032643A2530326400486F72613A2000F5
:102C10004345525241444F20202020202020202094
:102C2000004142494552544F20202020202020209E
:102C300020005B444941474E4F535449434F5D2068
:102C4000426F746F6E204142524952206465746530
:102C5000637461646F005B444941474E4F5354496C
:102C6000434F5D20426F746F6E2043455252415274
:102C70002064657465637461646F005B494E5055F0
:102C8000545D20526563696269646F2079206C69C4
:102C900073746F20706172612070726F636573610D
:102CA000723A200050726F636573616E646F2E2EEE
:102CB0002E202020005B4552524F525D20456E74FD
:102CC0007261646120696E636F6D706C6574612EF2
:102CD000005B4552524F525D2053696E20676C6F06
:102CE00062616C65732E0050524F4C4F434B205322
:102CF000595354454D004552524F522052544300AF
:00000001FF
