:100000000C946E000C9496000C9496000C94960040
:100010000C9496000C9496000C9496000C94960008
:100020000C9496000C9496000C9496000C949600F8
:100030000C9496000C9496000C9496000C949600E8
:100040000C94DF0B0C9496000C944F0C0C94290C20
:100050000C9496000C9496000C9496000C949600C8
:100060000C94810C0C94960031353A31383A353184
:100070000044656320203920323032350000000012
:1000800000240027002A0000000000250028002B83
:1000900000000000002300260029000404040404DA
:1000A0000404040202020202020303030303030125
:1000B00002040810204080010204081020010204FC
:1000C00008102000000008000201000003040700DF
:1000D0000000000000000000A00D8A1011241FBEC7
:1000E000CFEFD8E0DEBFCDBF23E0A4E0B2E001C097
:1000F0001D92AF3BB207E1F712E0A0E0B1E0E2EE03
:10010000FBE202C005900D92A430B107D9F710E0D0
:10011000CDE6D0E004C02197FE010E943711CC3615
:10012000D107C9F70E94260E0C94E4150C94000028
:10013000833081F028F4813099F08230A9F008955D
:100140008730A9F08830C9F08430B1F48091800004
:100150008F7D03C0809180008F7780938000089509
:1001600084B58F7784BD089584B58F7DFBCF809152
:10017000B0008F778093B00008958091B0008F7D9C
:10018000F9CFCF93DF93282F30E0F901ED53FF4FE4
:100190008491F901E155FF4FD491F901E556FF4FE4
:1001A000C491CC23A1F081110E949800EC2FF0E0C3
:1001B000EE0FFF1FEF56FF4FA591B491EC91ED2389
:1001C00081E090E009F480E0DF91CF91089580E034
:1001D00090E0FACF1F93CF93DF93282F30E0F901FF
:1001E000ED53FF4F8491F901E155FF4FD491F9018F
:1001F000E556FF4FC491CC23A9F0162F81110E9420
:100200009800EC2FF0E0EE0FFF1FE957FF4FA5918C
:10021000B4918FB7F894EC91111108C0D095DE23FA
:10022000DC938FBFDF91CF911F910895DE2BF8CF24
:10023000CF93DF9390E0FC01E155FF4F2491855669
:100240009F4FFC0184918823D1F090E0880F991F83
:10025000FC01E358FF4FA591B491FC01E957FF4F12
:10026000C591D49161110EC09FB7F8948C91E22F83
:10027000E0958E238C932881E223E8839FBFDF9152
:10028000CF9108958FB7F894EC91E22BEC938FBF48
:10029000F6CF3FB7F8948091500290915102A0910F
:1002A0005202B091530226B5A89B05C02F3F19F00A
:1002B0000196A11DB11D3FBFBA2FA92F982F8827E6
:1002C000BC01CD01620F711D811D911D42E0660FC1
:1002D000771F881F991F4A95D1F708958F929F9293
:1002E000AF92BF92CF92DF92EF92FF920E944901AC
:1002F0004B015C0184EFC82EDD24D394E12CF12C5A
:100300000E944901681979098A099B09683E73406E
:1003100081059105A8F321E0C21AD108E108F1088E
:1003200088EE880E83E0981EA11CB11CC114D10474
:10033000E104F10429F7FF90EF90DF90CF90BF9098
:10034000AF909F908F900895089508950895AF926B
:10035000BF92CF92DF92EF92FF920F931F93CF93B2
:10036000DF936C017B018B01040F151FEB015E0114
:10037000AE18BF08C017D10759F06991D601ED91A9
:10038000FC910190F081E02DC6010995892B79F748
:10039000C501DF91CF911F910F91FF90EF90DF90FA
:1003A000CF90BF90AF900895FC01538D448D252FC1
:1003B00030E0842F90E0821B930B541710F0CF96FF
:1003C000089501970895FC01918D828D981761F031
:1003D000A28DAE0FBF2FB11D5D968C91928D9F5F48
:1003E0009F73928F90E008958FEF9FEF08952FB73E
:1003F000F8948091540290915502A0915602B091C8
:1004000057022FBF8093D2029093D302A093D402BD
:10041000B093D5028AEC92E00E94E30197FF26C0D8
:100420002FB7F8948091540290915502A0915602F2
:10043000B09157022FBF4091D2025091D3026091E8
:10044000D4027091D502841B950BA60BB70B40917B
:10045000CE025091CF026091D0027091D1028417E8
:100460009507A607B707B0F28FEF9FEF0895FC013D
:10047000918D828D981731F0828DE80FF11D858D59
:1004800090E008958FEF9FEF0895FC01918D228DEC
:10049000892F90E0805C9F4F821B91098F73992771
:1004A00008958AEC92E00E94450221E0892B09F42C
:1004B00020E0822F089580E090E0892B29F00E94AF
:1004C000510281110C9400000895FC01A48DA80F25
:1004D000B92FB11DA35ABF4F2C91848D90E0019686
:1004E0008F739927848FA689B7892C93A089B189A6
:1004F0008C91837080648C93938D848D981306C047
:100500000288F389E02D80818F7D80830895EF92AA
:10051000FF920F931F93CF93DF93EC0181E0888FBD
:100520009B8D8C8D98131AC0E889F989808185FF8D
:1005300015C09FB7F894EE89FF896083E889F9892F
:1005400080818370806480839FBF81E090E0DF9131
:10055000CF911F910F91FF90EF900895F62E0B8D84
:1005600010E00F5F1F4F0F731127E02E8C8D8E113F
:100570000CC00FB607FCFACFE889F989808185FFA6
:10058000F5CFCE010E946502F1CFEB8DEC0FFD2F70
:10059000F11DE35AFF4FF0829FB7F8940B8FEA8961
:1005A000FB8980818062CFCFCF93DF93EC01888D70
:1005B0008823B9F0AA89BB89E889F9898C9185FDDE
:1005C00003C0808186FD0DC00FB607FCF7CF8C916C
:1005D00085FFF2CF808185FFEDCFCE010E946502BD
:1005E000E9CFDF91CF910895FC01908190539A302B
:1005F00008F090E0818180532AE0929F800D1124C1
:10060000089520912602260F3327331F213231050A
:10061000ECF42091A002FC0190E080E0243069F02D
:1006200082E00895A09126022191AC014A5F5D4FBE
:10063000A40FB52FB11D2C930196861798F38091C6
:100640002602680F6093260280E0089581E00895F5
:100650001092A00281E080939F0210927A0261E0E2
:1006600082E10E94EA0061E083E10E94EA00E9EB96
:10067000F0E080818E7F808380818D7F808388E41D
:100680008093B80085E48093BC000895CF93DF93F6
:1006900091E0909305028823B9F0C091B800D09101
:1006A000BA008091BC008A7B8093BC0060E082E14C
:1006B0000E94EA0060E083E10E94EA000E942803B1
:1006C000D093BA00C093B800DF91CF9108958F9274
:1006D0009F92AF92BF92CF92DF92EF92FF920F93D1
:1006E0001F93CF93DF93D091C902D13208F0D7C0C6
:1006F000182FC091C8020E9449016B017C018091B2
:10070000A00281116BC082E08093A00210939F022F
:100710008FEF80939E0210929D02D0939C02A8EAD4
:10072000B2E0ECE7F2E080E0D81391C010927B02D7
:1007300080917B02CC0FC82BC0937B0280917A0200
:10074000813009F088C010927A020E9449016B0141
:100750007C0180917B028093BB008091A2029091EA
:10076000A302A091A402B091A502892B8A2B8B2B06
:10077000A1F00E9449010091A2021091A3022091D0
:10078000A4023091A5026C197D098E099F090617F4
:1007900017072807390708F442C08091BC0083FD81
:1007A000D8CF85EC8093BC000E9449016B017C018D
:1007B0008091A002823009F450C080919E028F3F48
:1007C00009F46FC080919E02803209F46CC0809160
:1007D0009E02803309F469C084E026C08091A202A1
:1007E0009091A302A091A402B091A502892B8A2B1B
:1007F0008B2B09F484CF0E9449018090A202909033
:10080000A302A090A402B090A5026C197D098E09E4
:100810009F0986169706A806B90608F070CF809142
:10082000A1020E94460385E01092A7021092C9021D
:100830001092A602DF91CF911F910F91FF90EF9040
:10084000DF90CF90BF90AF909F908F9008959D9133
:1008500091938F5F69CF85EEA5CF8091A202909191
:10086000A302A091A402B091A502892B8A2B8B2B05
:1008700009F49ECF0E9449010091A2021091A302A7
:100880002091A4023091A5026C197D098E099F095F
:10089000061717072807390708F08ACFC0CF81E06D
:1008A000C3CF80E0C1CF82E0BFCF83E0BDCF1F9335
:1008B000CF93DF93EA01122FDC0111968D919C9169
:1008C000DC01ED91FC910280F381E02D0995C817C0
:1008D000D90729F4812F0E94670391E0811190E0EC
:1008E000892FDF91CF911F910895CF93DF93EC0172
:1008F0008B818823A1F0888191E09093A602809358
:10090000C8021092A7021092C90281E00E946703F8
:1009100091E0811190E0892FDF91CF91089510929D
:100920005902109258021092A7021092C9020E9416
:10093000280384EA91E090934C0280934B0285EA6D
:1009400091E090934A028093490281E08B83CE012B
:100950000E947504982F8111CECFDDCF0895E091CC
:10096000590280915802E81730F4F0E0E65AFD4F42
:10097000808190E008958FEF9FEF08959091590244
:10098000809158022FEF3FEF981748F4E92FF0E0DD
:10099000E65AFD4F208130E09F5F90935902C901D4
:1009A00008958091580290915902891B990B0895DE
:1009B000CF92DF92EF92FF920F931F93CF93DF932B
:1009C0007C01CB018A012091A602222389F0EB0150
:1009D0006B01C40ED51ECC15DD0569F06991D701F8
:1009E000ED91FC910190F081E02DC7010995F3CFC5
:1009F000642F0E940103C801DF91CF911F910F91D5
:100A0000FF90EF90DF90CF900895CF93DF931F92E8
:100A1000CDB7DEB769832091A6022223F9F0209199
:100A2000C902203258F021E030E0FC0133832283F8
:100A300090E080E00F90DF91CF9108958091A70220
:100A4000E82FF0E0E855FD4F998190838F5F809308
:100A5000A7028093C90281E090E0ECCF61E0CE0173
:100A600001960E940103F7CF90E080E008952F9255
:100A70003F924F925F926F927F928F929F92AF922E
:100A8000BF92CF92DF92EF92FF920F931F93CF937B
:100A9000DF935C011B016A01F12CE12CD501149656
:100AA0008D919C9186010E191F098017910708F4FA
:100AB0008C01F501D0810E9449012B013C018091FC
:100AC000A002811172C0C02F013208F0C0E2F1E033
:100AD000F093A00221E0C601801B910BE816F906F5
:100AE00008F420E020939F028FEF80939E021092E3
:100AF0009D028C0F80939C02A1E0A0937B028091C9
:100B00007B02DD0FD82BD0937B0280917A0281305B
:100B100009F090C010927A020E9449012B013C0119
:100B200080917B028093BB008091A2029091A302EE
:100B3000A091A402B091A502892B8A2B8B2BA1F046
:100B40000E9449012091A2023091A3024091A40287
:100B50005091A50264197509860997092617370768
:100B60004807590708F442C08091BC0083FDD8CFE4
:100B7000B5ECB093BC000E9449012B013C0180916F
:100B8000A002813009F45AC080919D028C1710F4A4
:100B9000C0919D02ACE7B2E0EAE5F2E080E08C179C
:100BA00051F19D9191938F5FFACF8091A202909124
:100BB000A302A091A402B091A502892B8A2B8B2BB2
:100BC00009F47DCF0E9449012091A2023091A30235
:100BD0004091A4025091A5026419750986099709EC
:100BE000261737074807590708F069CF8091A102F7
:100BF0000E944603C0E010925902C0935802C017E9
:100C0000110609F057C041018E0C9F1CE401CE0172
:100C1000881999098017910798F5D50111968D913A
:100C20009C91DC01ED91FC910284F385E02D099506
:100C30008993EDCFE5EEE093BC009DCF8091A202B9
:100C40009091A302A091A402B091A502892B8A2BB6
:100C50008B2B09F494CF0E9449012091A20230917C
:100C6000A3024091A4025091A50264197509860956
:100C70009709261737074807590708F080CFB6CFDE
:100C8000E00EF11EEC14FD0408F408CF81E0DF91C2
:100C9000CF911F910F91FF90EF90DF90CF90BF9079
:100CA000AF909F908F907F906F905F904F903F900C
:100CB0002F90089580E0EBCFCF93DF93EC0160E0BD
:100CC0008E810E94EA0061E08E810E94EA0060E06D
:100CD0008E810E94EA008BE891E00197F1F7DF91A5
:100CE000CF910895CF92DF92EF92FF920F931F93CF
:100CF000CF93DF936C017C0187E0E80EF11CD0E01C
:100D0000C0E0062F10E0B8010C2E02C07595679563
:100D10000A94E2F76170F70181917F010E94EA0075
:100D20002196C430D10579F7C601DF91CF911F918B
:100D30000F91FF90EF90DF90CF900C945C06CF92D4
:100D4000DF92EF92FF920F931F93CF93DF93EC010B
:100D5000F62E642F8C810E94EA008D818F3F19F05E
:100D600060E00E94EA000F2D10E08F8584FF25C00F
:100D70006E0187E0C80ED11CF12CE12CB8010E2CBD
:100D800002C0759567950A94E2F76170F60181914A
:100D90006F010E94EA00FFEFEF1AFF0A88E0E816F1
:100DA000F10461F7CE01DF91CF911F910F91FF9078
:100DB000EF90DF90CF900C945C06B80184E07595BD
:100DC00067958A95E1F7CE010E9472066F2DCE01DC
:100DD000DF91CF911F910F91FF90EF90DF90CF9017
:100DE0000C94720640E0682F83EA93E00C949F060F
:100DF000CF93DF93823029F49091B203986090935F
:100E0000B2038093B6031092B70380E48093B803D3
:100E100080E18093B90380E58093BA0361E080911B
:100E2000A7030E9418018091A8038F3F19F061E089
:100E30000E94180161E08091A9030E941801C3EA91
:100E4000D3E09E01235A33408091B20384FD0BC04E
:100E500084E090E021962817390744F461E08E8100
:100E60000E941801EECF88E090E0F4CF8BE39DE084
:100E70000197F1F760E08091A7030E94EA0060E02B
:100E80008091A9030E94EA008091A8038F3F19F086
:100E900060E00E94EA008091B20384FD39C063E003
:100EA00083EA93E00E947206CBE4D6E4CE01019778
:100EB000F1F763E083EA93E00E9472062197F1F76D
:100EC00063E083EA93E00E94720683E592E0019773
:100ED000F1F762E083EA93E00E9472068091B20328
:100EE00080620E94F20684E08093B3038CE00E944B
:100EF000F20681E00E94F2068BE39FE10197F1F791
:100F000082E08093B40386E0DF91CF910C94F206E7
:100F100080620E94F2068BE496E40197F1F78091DB
:100F2000B20380620E94F20683E592E00197F1F736
:100F30008091B20380620E94F206D0CF9091B603F6
:100F4000891710F08FEF890FE82FF0E0ED55FC4F77
:100F5000848980680C94F20641E00E949F0681E03B
:100F600090E00895CF93DF93EC01888199810097F9
:100F700011F00E94D911198218821D821C821B82D5
:100F80001A82DF91CF910895FC01808191810097B1
:100F900011F00C94D9110895FB0101900020E9F79C
:100FA0003197AF01461B570BDC01ED91FC9102809C
:100FB000F381E02D0994CF93DF93BC018AEC92E09A
:100FC0000E94CC07EC0167E371E08AEC92E00E949A
:100FD000CC078C0F9D1FDF91CF910895AF92BF92E8
:100FE000CF92DF92EF92FF920F931F93CF93DF93F5
:100FF000DC01CD90DC901197C114D10439F0149626
:10100000CD91DC918C017601209761F4DF91CF9135
:101010001F910F91FF90EF90DF90CF90BF90AF9016
:10102000089575015701BFEFAB1ABB0AF701808124
:10103000082E000C990B0E94D810892B91F721974C
:10104000CC0DDD1D8881082E000C990B0E94D81054
:10105000892B29F0CE15DF0510F02197F3CFAE01D3
:101060004F5F5F4F4E195F09D80115965C934E9301
:101070001497CE14DF0420F4B701C6010E941F1399
:10108000D801ED91FC91119714968D919C91E80FE8
:10109000F91F1082BBCFCF93DF93EC01A881B981F8
:1010A000EB01E881F9811097F1F03097B1F4EC0190
:1010B0008C819D81892BC9F08C9190E00BC0DB0164
:1010C00014968D919C91892B81F0808190E091956F
:1010D00081959109DF91CF910895BF01CD01DF91F5
:1010E000CF910C943313309751F790E080E0F2CF1A
:1010F0000F931F93CF93DF93EC0188819981009721
:1011000059F02A813B812617370730F081E0DF91C3
:10111000CF911F910F9108958B016F5F7F4F0E94B8
:101120006212009759F0998388831B830A832C816C
:101130003D81232B59F7FC011082E8CF80E0E7CFF7
:10114000EF92FF920F931F93CF93DF936115710579
:1011500041F480E0DF91CF911F910F91FF90EF90CC
:10116000089541155105B1F07B01EC010C811D8101
:10117000040F151FB8010E947808882351F32881B5
:1011800039818C819D81B701820F931F0E943C138E
:101190001D830C8381E0DECFCF93DF93EC01FB0155
:1011A00044815581608171810E94A008811103C032
:1011B000CE010E94B207CE01DF91CF910895EF9248
:1011C000FF920F931F93CF93DF93EC017B018A0172
:1011D000BA010E94780881110BC0CE010E94B207AB
:1011E000CE01DF91CF911F910F91FF90EF90089565
:1011F0001D830C83B701888199810E943C13F0CF35
:10120000FB0101900020E9F73197AF01461B570B16
:101210000C94DF08CF93DF93EC01FB01861797074F
:1012200049F0608171816115710541F044815581FA
:101230000E94DF08CE01DF91CF9108950E94B2078E
:10124000F9CFFC011182108213821282158214825E
:10125000FB0101900020E9F73197AF01461B570BC6
:101260000C94DF08AF92BF92CF92DF92EF92FF9281
:101270000F931F93CF93DF936C015B017A01890178
:101280002417350720F48F2D7901042F182F69E3D7
:1012900071E0C6010E942109D5011496CD91DC911F
:1012A000EC16FD06E0F40C171D0708F4E801D50163
:1012B000ED91FC911197EC0FFD1F108110826D9143
:1012C0007C916E0D7F1DC60161157105A1F00E9414
:1012D0000009F50180819181C80FD91F1883C601CB
:1012E000DF91CF911F910F91FF90EF90DF90CF9002
:1012F000BF90AF9008950E94B207EBCF85ED809329
:10130000BC008091A2029091A302A091A402B0918E
:10131000A5020796A11DB11D23E0B695A795979547
:1013200087952A95D1F72091BC0024FD03C0109227
:10133000A00208954091A2025091A3026091A402DC
:101340007091A502452B462B472B69F30097A10509
:10135000B10541F02AE22A95F1F700C00197A109F1
:10136000B109E1CF8091A1020C944603EF92FF9264
:101370000F931F93CF93DF93CDB7DEB72F970FB6A1
:10138000F894DEBF0FBECDBF1982E0904D02F09001
:101390004E02F701848195818E010F5F1F4F892BCB
:1013A000C9F0808191E09093A6028093C8021092C8
:1013B000A7021092C90220E041E050E0B801C70145
:1013C0000E945704882331F047E050E0B801C7017C
:1013D0000E94370599819F778A816B81492F50E060
:1013E00024E0559547952A95E1F7242F220F220FE7
:1013F000421B440F490F1F924F93282F30E044E0C7
:10140000359527954A95E1F7922F990F990F291B4A
:10141000220F280F1F922F93862F90E054E095956E
:1014200087955A95E1F7982F990F990F891B880F87
:10143000860F1F928F938AE391E09F938F931F9360
:101440000F930E944313B801CE010A960E9421090E
:101450000FB6F894DEBF0FBECDBF2E853F858091BD
:101460009B0390919C032817390741F467E973E0C7
:10147000CE010A960E944B08892B09F180E00E9458
:101480009E0769E471E0C8010E942109BE01665F00
:101490007F4FC8010E94CC08FC01448155816081C6
:1014A000718183EA93E00E94A701C8010E94C407EA
:1014B000BE01665F7F4F87E993E00E940A091091A1
:1014C0000001112371F161E08EE00E94EA0060E00A
:1014D0008FE00E94EA0080910402181789F081E0F1
:1014E0000E949E0760E571E0111102C061E671E0A3
:1014F00083EA93E00E94CC0780910001809304026C
:10150000CE010A960E94C4072F960FB6F894DEBF4C
:101510000FBECDBFDF91CF911F910F91FF90EF9044
:10152000089560E08EE00E94EA0061E0D1CF80E1A2
:101530000E94C100019751F482E791E00E94DB070D
:10154000109200010E94B6090E946E0181E10E9482
:10155000C100019759F486E991E00E94DB0781E020
:10156000809300010E94B6090C946E0108954F9279
:101570005F926F927F928F929F92AF92BF92EF9203
:10158000FF920F931F93CF93DF93CDB7DEB768978A
:101590000FB6F894DEBF0FBECDBF2B013C018FB755
:1015A000F8948090540290905502A0905602B0900A
:1015B00057028FBF2FB7F894809154029091550233
:1015C000A0915602B09157022FBF88199909AA0914
:1015D000BB0984159505A605B70508F0DBC00E9478
:1015E000B6090E94970A8AEC92E00E9445021816FA
:1015F000190604F769E371E0CE0143960E942109C0
:101600000E94F70197FD0FC08D30910561F089832D
:101610001A8241E050E0BE016F5F7F4FCE014396DA
:101620000E94A008EDCF8AEC92E00E9437020A9750
:1016300021F48AEC92E00E94E3011E861D86188A3E
:101640001F861A8A198ABE016D5E7F4FCE010D96E4
:101650000E940A09CE010D960E94EE0789899A8997
:10166000892B81F0ED84FE846DE370E0C7010E9458
:101670002813009739F08C010E191F090F3F10072E
:1016800009F05DC0BE01635F7F4F8DE993E00E946A
:101690000A096BEB71E0CE0101960E9421096DE908
:1016A00073E0CE0101960E94CC08FC014481558173
:1016B000608171818AEC92E00E94A70167E371E08A
:1016C0008AEC92E00E94CC07CE0101960E94C407EA
:1016D00081E00E949E076EEC71E0CE0101960E94AF
:1016E00021096DE973E0CE0101960E94CC088C01BE
:1016F00044E050E06CE571E00E94A008811103C055
:10170000C8010E94B207F80144815581608171814E
:1017100083EA93E00E94A701CE0101960E94C407CC
:1017200064EF71E080E090E00E94B70ACE010D9670
:101730000E94C407CE0143960E94C4073BCF980184
:1017400050E040E0BE01635F7F4FCE0107960E94EC
:10175000320929893A89A8014F5F5F4FBE01635F53
:101760007F4FCE0101960E943209CE0107960E945A
:10177000EE07CE0101960E94EE0785ED91E00E94F2
:10178000DB07CE0101960E94C407CE0107960E9496
:10179000C407CCCF68960FB6F894DEBF0FBECDBF9E
:1017A000DF91CF911F910F91FF90EF90BF90AF907D
:1017B0009F908F907F906F905F904F9008951F92B1
:1017C0000F920FB60F9211242F933F938F939F93F5
:1017D000AF93BF938091540290915502A09156020D
:1017E000B091570230914F0223E0230F2D3758F567
:1017F0000196A11DB11D20934F0280935402909336
:101800005502A0935602B0935702809150029091D6
:101810005102A0915202B09153020196A11DB11D37
:101820008093500290935102A0935202B0935302BE
:10183000BF91AF919F918F913F912F910F900FBECC
:101840000F901F90189526E8230F0296A11DB11D39
:10185000D2CF1F920F920FB60F9211242F933F9366
:101860004F935F936F937F938F939F93AF93BF93A8
:10187000EF93FF938AEC92E00E946502FF91EF9153
:10188000BF91AF919F918F917F916F915F914F9198
:101890003F912F910F900FBE0F901F9018951F92A0
:1018A0000F920FB60F9211242F938F939F93EF9364
:1018B000FF93E091DA02F091DB028081E091E00297
:1018C000F091E10282FD1BC090818091E3028F5F65
:1018D0008F732091E402821741F0E091E302F0E07F
:1018E000E653FD4F958F8093E302FF91EF919F9117
:1018F0008F912F910F900FBE0F901F9018958081A0
:10190000F4CF1F920F920FB60F9211242F933F9393
:101910004F935F936F937F938F939F93AF93BF93F7
:10192000EF93FF938091B900887F803609F44AC015
:10193000F0F5883209F4A7C018F5803109F49BC08E
:10194000B8F4882309F4F9C0883009F494C0FF91F1
:10195000EF91BF91AF919F918F917F916F915F9127
:101960004F913F912F910F900FBE0F901F901895A0
:10197000883109F488C0803251F780939E0214C0E8
:10198000803409F49DC040F48033B9F38833F9F60C
:1019900080939E0285ECB0C0803509F485C08835FF
:1019A00009F496C0883499F60E947E09D0CF883910
:1019B00009F48CC038F5883729F050F4883611F0D6
:1019C000803729F683E08093A0021092480257C026
:1019D000883809F47BC0803919F0803809F0B7CF16
:1019E00080914802803208F071C0E091480281E0A5
:1019F0008E0F809348028091BB00F0E0E85DFD4FC0
:101A000080833DC0803B39F0E0F4803A09F479C02E
:101A1000883A09F09CCF84E08093A00210922702BC
:101A200010922602E0914B02F0914C0209958091B0
:101A3000260281110FC081E08093260210920602D7
:101A400009C0803C09F4A6CF883C09F4A3CF883BA9
:101A500009F07DCFE091270281E08E0F809327026D
:101A6000F0E0EA5FFD4F80818093BB0090912702F8
:101A70008091260229C080917B028093BB0085EC77
:101A80008093BC0064CF90919D0280919C02981736
:101A900058F5E0919D0281E08E0F80939D02F0E069
:101AA000E458FD4F8081E9CFE0919D0281E08E0FE7
:101AB00080939D028091BB00F0E0E458FD4F80834D
:101AC00090919D0280919C029817C8F285E8D8CF2A
:101AD000E0919D0281E08E0F80939D028091BB007A
:101AE000F0E0E458FD4F808380919F0281115CCF2C
:101AF00081E080937A0284EA8093BC001092A00275
:101B000026CF85EC8093BC001092A0028091480201
:101B1000803230F4E0914802F0E0E85DFD4F108241
:101B20006091480270E0E0914902F0914A0288E237
:101B300092E00995109248020ACF10929E0234CF8B
:101B4000EAECF2E01382128288EE93E0A0E0B0E0CB
:101B500084839583A683B7832BE031E03183208390
:101B600025EC30E03587248724EC30E03787268762
:101B700020EC30E0318B208B21EC30E0338B228B5A
:101B800022EC30E0358B248B26EC30E0378B268B33
:101B9000118E128E138E148EE7E6F3E013821282FA
:101BA00084839583A683B7838DE191E091838083BD
:101BB000E3EAF3E0138212828FE291E09183808363
:101BC0008CE084838FEF85838BE0868385E0878339
:101BD00084E0808783E0818782E082871386148691
:101BE00015861686178681E00E94F80669E371E083
:101BF0008DE993E00E94210969E371E087E993E0B0
:101C00000E94210969E371E081E993E00E942109C2
:101C100069E371E08BE893E00E94210969E371E0D8
:101C200085E893E00E94210969E371E08FE793E082
:101C30000E94210969E371E089E793E00E9421098C
:101C400069E371E083E793E00C942109CF93DF937C
:101C5000CDB7DEB769970FB6F894DEBF0FBECDBF24
:101C6000789484B5826084BD84B5816084BD85B577
:101C7000826085BD85B5816085BD80916E00816083
:101C800080936E0010928100809181008260809329
:101C9000810080918100816080938100809180002B
:101CA0008160809380008091B10084608093B10056
:101CB0008091B00081608093B00080917A00846050
:101CC00080937A0080917A00826080937A0080917C
:101CD0007A00816080937A0080917A008068809396
:101CE0007A001092C100E091DA02F091DB0282E00A
:101CF0008083E091D602F091D7021082E091D80261
:101D0000F091D9028FEC80831092E202E091DE0222
:101D1000F091DF0286E08083E091DC02F091DD0249
:101D2000808180618083E091DC02F091DD0280811E
:101D300088608083E091DC02F091DD028081806820
:101D40008083E091DC02F091DD0280818F7D8083D1
:101D500082E390E0A0E0B0E08093CE029093CF02C7
:101D6000A093D002B093D10282E00E94F8066BEEFD
:101D700071E083EA93E00E94CC0761E08EE00E946C
:101D8000180161E08FE00E94180160E080E10E948C
:101D9000180160E081E10E94180180914D0290914C
:101DA0004E02009711F00E94D91186E090E00E9447
:101DB0003D117C0188E6F701808387E693E09283FA
:101DC0008183138280E290E095838483F0924E02B7
:101DD000E0924D0210925902109258021092A702FE
:101DE0001092C9020E94280384EA91E090934C0269
:101DF00080934B0285EA91E090934A0280934902D6
:101E000081E0F7018383C7010E947504811109C035
:101E100081E00E949E076AEF71E083EA93E00E94EE
:101E2000CC07198E80914D0290914E02FC012481C5
:101E30003581232B91F0208131E03093A60220934D
:101E4000C8021092A7021092C90221E041E050E0BE
:101E5000BE01675E7F4F0E94570441E050E0CE0113
:101E600001967C01BC0180914D0290914E020E942E
:101E70003705898190E0880F892F881F990B892B5E
:101E800009F49CC04BE050E061E770E0C7010E949C
:101E9000AA10CE010A960E94F402082FE981E154AB
:101EA000E331D8F40E2E000CFF0BE75AF04F0C94E0
:101EB00037115B106D0F6D0F6F106D0F6C0F6D0F85
:101EC0006D0F6D0F4F106D0F6D0F62106D106B1059
:101ED0006D0F6D0F6D0F691012E0CE0105960E9417
:101EE000F402D82E48E050E068E670E0C7010E9496
:101EF000AA10C7010E94F402C82ECE0104960E94C7
:101F0000F402B82ECE0107960E94F402382F86E024
:101F1000F70111928A95E9F72AE0832F622F0E9438
:101F20002B11982F880F890F880F830F8A838B2D91
:101F30000E942B11982F880F890F880F8B0D8B8390
:101F40008C2D0E942B11982F880F890F880F8C0DD4
:101F50008C838D2D0E942B11982F880F890F880F4D
:101F60008D0D8E83812F0E942B11982F990F890F31
:101F7000880F180F1F83802F0E942B11982F880F16
:101F8000890F880F800F888780914D0290914E02B3
:101F9000FC01248135812830310580F0208131E039
:101FA0003093A6022093C8021092A7021092C90291
:101FB00021E048E050E0B7010E94570481E080939F
:101FC00000010E94B6090E94970A69E371E089E75F
:101FD00093E00E940009109200011C8A1B8A1E8A4D
:101FE0001D8A188E1F8A4AE0B70183ED94E00E9493
:101FF000B310B701CE0143960E940009809191036E
:1020000090919203009709F46EC06B897C896115E9
:10201000710509F466C040919303509194032F8990
:10202000388D4217530708F45CC00E943C138F8917
:10203000988D9093960380939503188E1F8ACE01F6
:1020400043960E94C4076AE070E080E090E00E943E
:10205000B70A68EE73E080E090E00E94B70A64E699
:1020600070E080E090E00E94B70A209195033091E3
:1020700096038091A1039091A2032817390749F78D
:102080006DE973E081E993E00E944B08892B09F721
:10209000109200010E94B60910920001DACF8A81E5
:1020A00011E0813609F419CF8B8117E08E3609F0E3
:1020B00014CF16E012CF8B8118E0823709F00DCFD4
:1020C00014E00BCF8B8115E0823709F006CF13E0C7
:1020D00004CF19E002CF1AE000CF1BE0FECE1CE0D7
:1020E000FCCE0E94D9118B899C8990939203809396
:1020F00091038D899E8990939403809393038F8994
:10210000988D90939603809395031C8A1B8A1E8A50
:102110001D8A93CF83E793E00E94C40789E793E089
:102120000E94C4078FE793E00E94C40785E893E00C
:102130000E94C4078BE893E00E94C40781E993E002
:102140000E94C40787E993E00E94C4078DE993E0E9
:102150000C94C407FB01DC0102C005900D924150B4
:102160005040D8F70895BB274A3031F4992322F420
:10217000BDE2909581959F4F0C94BF10BB27FB014A
:102180005527AA27880F991FAA1FA41710F0A41B70
:1021900083955051B9F7A05DAA3308F0A95DA193CA
:1021A000009779F7B111B1931192CB010C94E11022
:1021B00091110C94F110803219F089508550C8F7B4
:1021C0000895DC01FC01672F71917723E1F73297C5
:1021D00004C07C916D9370836291AE17BF07C8F302
:1021E00008959927882708952F923F924F925F92E2
:1021F0006F927F928F929F92AF92BF92CF92DF9217
:10220000EF92FF920F931F93CF93DF93CDB7DEB77B
:10221000CA1BDB0B0FB6F894DEBF0FBECDBF09940F
:102220002A88398848885F846E847D848C849B8466
:10223000AA84B984C884DF80EE80FD800C811B8174
:10224000AA81B981CE0FD11D0FB6F894DEBF0FBEA3
:10225000CDBFED010895991B79E004C0991F961731
:1022600008F0961B881F7A95C9F780950895EE0FA0
:10227000FF1F0590F491E02D09940F931F93CF93C6
:10228000DF938230910510F482E090E0E091BD038D
:10229000F091BE0330E020E0B0E0A0E0309799F488
:1022A0002115310509F44AC0281B390B24303105AA
:1022B000D8F58A819B816115710589F1FB019383B2
:1022C0008283FE0111C04081518102811381481730
:1022D0005907E0F04817590799F4109761F01296E2
:1022E0000C93129713961C933296CF01DF91CF91E6
:1022F0001F910F9108950093BD031093BE03F4CF77
:102300002115310551F04217530738F0A901DB01BF
:102310009A01BD01DF01F801C1CFEF01F9CF909320
:10232000BE038093BD03CDCFFE01E20FF31F819367
:1023300091932250310939832883D7CF2091BB0351
:102340003091BC03232B41F420910301309104010F
:102350003093BC032093BB03209101013091020113
:102360002115310541F42DB73EB74091050150913B
:102370000601241B350BE091BB03F091BC03E2176F
:10238000F307A0F42E1B3F0B2817390778F0AC0198
:102390004E5F5F4F2417350748F04E0F5F1F509375
:1023A000BC034093BB03819391939FCFF0E0E0E0A7
:1023B0009CCFCF93DF930097E9F0FC013297138213
:1023C0001282A091BD03B091BE03ED0130E020E088
:1023D0001097A1F420813181820F931F2091BB03BC
:1023E0003091BC032817390709F061C0F093BC0392
:1023F000E093BB03DF91CF910895EA01CE17DF0789
:10240000E8F54A815B819E0141155105B1F7E9016B
:10241000FB83EA8349915991C40FD51FEC17FD073F
:1024200061F4808191810296840F951FE90199835F
:102430008883828193819B838A83F0E0E0E0129617
:102440008D919C9113970097B9F52D913C9111971F
:10245000CD010296820F931F2091BB033091BC03E4
:102460002817390739F6309751F51092BE031092AC
:10247000BD03B093BC03A093BB03BCCFD383C28383
:1024800040815181840F951FC817D90761F44E5FB1
:102490005F4F88819981480F591F518340838A81FA
:1024A0009B81938382832115310509F0B0CFF0938E
:1024B000BE03E093BD039ECFFD01DC01C0CF1382BC
:1024C0001282D7CFB0E0A0E0E8E6F2E10C94F6107B
:1024D0008C01009751F4CB010E943D118C01C80181
:1024E000CDB7DEB7E0E10C941211FC01E60FF71F47
:1024F0009C0122503109E217F30708F49DC0D9016D
:10250000CD91DC911197C617D70798F0C530D1054A
:1025100030F3CE0104978617970708F3C61BD70B35
:102520002297C193D1936D937C93CF010E94D911CF
:10253000D6CF5B01AC1ABD0A4C018C0E9D1EA0913A
:10254000BD03B091BE03512C412CF12CE12C10970E
:1025500031F58091BB039091BC038815990509F072
:102560005CC04616570608F058C080910101909152
:102570000201009741F48DB79EB74091050150913B
:102580000601841B950BE817F90708F055C0F09376
:10259000BC03E093BB03F90171836083A0CF8D91ED
:1025A0009C91119712966C90129713967C901397AA
:1025B000A815B90559F56C0142E0C40ED11CCA1426
:1025C000DB0420F1AC014A195B09DA011296159778
:1025D00080F06282738251834083D9016D937C9332
:1025E000E114F10471F0D7011396FC93EE93129766
:1025F00076CF22968C0F9D1FF90191838083F30182
:10260000EFCFF093BE03E093BD0369CF48165906A0
:1026100008F42C017D01D3019ACFCB010E943D111A
:102620007C01009749F0AE01B8010E941F13C80158
:102630000E94D911870153CF10E000E050CFFB0179
:10264000DC0102C001900D9241505040D8F708952E
:10265000FC018191861721F08823D9F799270895E5
:102660003197CF010895FB01DC018D910190801914
:102670000110D9F3990B0895FB01DC0101900D9233
:102680000020E1F70895AEE0B0E0E9E4F3E10C9456
:1026900002110D891E8986E08C831A8309838FEFCE
:1026A0009FE79E838D83AE01475E5F4F6F89788D74
:1026B000CE0101960E9466132F813885020F131FE9
:1026C000F80110822E96E4E00C941E11ABE0B0E00D
:1026D000ECE6F3E10C94F4107C013B018A01FC016F
:1026E00017821682838181FFC8C1CE0101965C01E9
:1026F000F7019381F30193FD859193FF81913F0150
:10270000882309F453C1853239F493FD859193FFF1
:1027100081913F01853229F4B70190E00E9456155E
:10272000E7CF912C212C312CFFE1F31538F08B32BF
:1027300011F190F4803209F1833229F137FC3CC069
:1027400020ED280F2A3050F536FE20C08AE0989EF2
:10275000200D1124922E06C08D3291F0803371F736
:10276000689430F8F30193FD859193FF81913F01C7
:102770008111DACF21C0689431F8689432F8F2CF31
:10278000689433F8EFCF689434F8ECCFEAE02E9EEB
:10279000200D1124222E689435F8E4CF8E3229F4CE
:1027A00036FC04C1689436F8DDCF8C3619F4689491
:1027B00037F8D8CF8836B1F2982F9F7D9554933053
:1027C000E0F08336A1F18337C1F1833509F063C0AE
:1027D0002801F2E04F0E511CF801C080D180692D14
:1027E00070E036FC02C06FEF7FEFC6010E9440151B
:1027F0004C01689437F882010AC00C5F1F4FFFE359
:10280000F98388248394912C6501E89437F833FE8A
:102810002DC0522C8114910471F5552009F468CF14
:10282000B70180E290E00E9456155A94F6CFF80165
:10283000808189830E5F1F4FE4CF2801F2E04F0EA5
:10284000511CF801C080D180692D70E036FC02C0B7
:102850006FEF7FEFC6010E944B154C018201D5CF6F
:10286000B70180E290E00E9456152A9428141904BA
:1028700009F0B0F7CECFF60137FC859137FE819194
:102880006F01B70190E00E94561551105A94F1E083
:102890008F1A9108BFCF843619F0893609F077C0B6
:1028A000F80137FE6BC060817181828193810C5F7A
:1028B0001F4FF32DFF763F2E97FF09C0909580950F
:1028C000709561957F4F8F4F9F4F689437F82AE03E
:1028D00030E0A5010E948615C82ECA188C2C432C06
:1028E00036FE0CC0E89440F8C91440F434FE05C02C
:1028F00032FC03C0F32DFE7E4F2E892C44FE95C082
:10290000FE01EC0DF11D8081803309F087C0242D7C
:10291000297E422E842D8870582E43FC95C040FE9F
:102920008FC09C2C821418F42C0C922C981844FE06
:1029300091C0B70180E390E00E94561542FE09C0A5
:1029400088E790E041FE02C088E590E0B7010E9470
:102950005615C91408F48AC0CA94D12C9FEFC91A1D
:10296000D90ACA0CDB1CF60182916F01B70190E015
:102970000E945615AC14BD04B1F74FCF6081718130
:10298000072E000C880B990B0E5F1F4F92CFD32C94
:10299000E894D4F82AE030E0853739F1232D297FF7
:1029A000D22E8F3601F148F48835A9F0F7018681DF
:1029B00097812B96E2E10C941011803749F088370B
:1029C000A9F7D4FE02C06894D2F820E130E00DC02F
:1029D0006894D4F8F6CF34FE03C0822F8660D82ED8
:1029E00020E132E002C028E030E0F801D7FE0FC05D
:1029F00060817181828193810C5F1F4FA5010E94CC
:102A00008615C82ECA183D2CE89437F867CF608128
:102A1000718190E080E00E5F1F4FF0CF42FC02C05A
:102A2000839478CF8394839475CF842D867809F42A
:102A300071CFF6CFB70180E290E00E9456158394E3
:102A40008214C0F3512C73CF522C5818821408F4FE
:102A50006ECFF8CF842D867809F47BCF8BE241FED0
:102A600080E247FC8DE2B70190E071CFB70180E3CF
:102A700090E00E9456159A946CCF8FEF9FEF99CFFC
:102A8000FC010590615070400110D8F78095909539
:102A90008E0F9F1F0895FC0161507040019001103E
:102AA000D8F7809590958E0F9F1F08950F931F93D1
:102AB000CF93DF93182F092FEB018B8181FD09C084
:102AC0001FEF0FEF812F902FDF91CF911F910F916B
:102AD000089582FF14C02E813F818C819D8128172B
:102AE00039073CF4E881F981CF0101969983888305
:102AF00010838E819F8101969F838E83E3CFE8852B
:102B0000F985812F0995892BA1F3DACFFA01AA273C
:102B1000283051F1203181F1E8946F936E7F6E5F20
:102B20007F4F8F4F9F4FAF4FB1E03ED0B4E03CD0CE
:102B3000670F781F891F9A1FA11D680F791F8A1FB1
:102B4000911DA11D6A0F711D811D911DA11D20D018
:102B500009F468943F912AE0269F11243019305DD2
:102B60003193DEF6CF010895462F4770405D4193C3
:102B7000B3E00FD0C9F7F6CF462F4F70405D4A3310
:102B800018F0495D31FD4052419302D0A9F7EACFD8
:102B9000B4E0A6959795879577956795BA95C9F707
:102BA00000976105710508959B01AC010A2E0694FA
:102BB0005795479537952795BA95C9F7620F731FB3
:102BC000841F951FA01D089510E0CDE6D0E004C03D
:102BD000FE010E9437112196CE36D107C9F7F8942D
:022BE000FFCF25
:102BE200010000BF038000000000008702A701D49B
:102BF20001D4024502E3013702000000000505D8B6
:102C0200043405AE04D104BE04AF0400000000ACDD
:102C120007A7013405A6010D0A00253032643A25C2
:102C22003032643A2530326400486F72613A2000D3
:102C32004345525241444F20202020202020202072
:102C4200004142494552544F20202020202020207C
:102C520020005B444941474E4F535449434F5D2046
:102C6200426F746F6E20414252495220646574650E
:102C7200637461646F005B444941474E4F5354494A
:102C8200434F5D20426F746F6E2043455252415252
:102C92002064657465637461646F005B494E5055CE
:102CA200545D20526563696269646F3A2000506125
:102CB20073733A20005B4552524F525D2053696E46
:102CC20020676C6F62616C65732E0050524F4C4FDF
:102CD200434B2053595354454D004552524F5220B5
:042CE2005254430005
:00000001FF
