:100000000C946E000C9496000C9496000C94960040
:100010000C9496000C9496000C9496000C94960008
:100020000C9496000C9496000C9496000C949600F8
:100030000C9496000C9496000C9496000C949600E8
:100040000C94EA0C0C9496000C9496000C94960078
:100050000C9496000C9496000C9496000C949600C8
:100060000C94340D0C94960032313A35313A3537D0
:100070000044656320203920323032350000000012
:1000800000240027002A0000000000250028002B83
:1000900000000000002300260029000404040404DA
:1000A0000404040202020202020303030303030125
:1000B00002040810204080010204081020010204FC
:1000C00008102000000008000201000003040700DF
:1000D0000000000000000000530E831111241FBE19
:1000E000CFEFD8E0DEBFCDBF23E0A8EEB1E001C086
:1000F0001D92A038B207E1F711E0A0E0B1E0EEE90F
:10010000FDE202C005900D92A83EB107D9F710E0BC
:10011000CDE6D0E004C02197FE010E942012CC362B
:10012000D107C9F70E940A0F0C94C2160C94000064
:1001300096E0899FD0011124AB50BD4F90967C93DF
:100140006E935F9791E091969C939197E0916203F3
:10015000F091630390916103992339F0309751F046
:10016000811108C0809111030994309719F05C96B1
:100170008C91FACF0895833081F028F4813099F082
:100180008230A9F008958730A9F08830C9F0843012
:10019000B1F4809180008F7D03C0809180008F77C3
:1001A00080938000089584B58F7784BD089584B5C9
:1001B0008F7DFBCF8091B0008F778093B000089542
:1001C0008091B0008F7DF9CFCF93DF93282F30E05F
:1001D000F901ED53FF4F8491F901E155FF4FD4919F
:1001E000F901E556FF4FC491CC23A1F081110E9483
:1001F000BB00EC2FF0E0EE0FFF1FEF56FF4FA59175
:10020000B491EC91ED2381E090E009F480E0DF917E
:10021000CF91089580E090E0FACF1F93CF93DF93C2
:10022000282F30E0F901ED53FF4F8491F901E1559A
:10023000FF4FD491F901E556FF4FC491CC23A9F0AB
:10024000162F81110E94BB00EC2FF0E0EE0FFF1F74
:10025000E957FF4FA591B4918FB7F894EC91111124
:1002600008C0D095DE23DC938FBFDF91CF911F9123
:100270000895DE2BF8CFCF93DF9390E0FC01E1559A
:10028000FF4F249185569F4FFC0184918823C9F02C
:1002900090E0880F991FFC01E358FF4FA591B4919E
:1002A000FC01E957FF4FC591D49161110DC09FB773
:1002B000F8948C91209582238C938881282328831D
:1002C0009FBFDF91CF910895623051F49FB7F894AA
:1002D0003C91822F809583238C93E8812E2BEFCF46
:1002E0008FB7F894EC912E2B2C938FBFEACF3FB7AA
:1002F000F8948091470290914802A0914902B091F0
:100300004A0226B5A89B05C02F3F19F00196A11DF2
:10031000B11D3FBFBA2FA92F982F8827BC01CD014F
:10032000620F711D811D911D42E0660F771F881FAE
:10033000991F4A95D1F708958F929F92AF92BF92DD
:10034000CF92DF92EF92FF924B015C010E94770106
:100350006B017C010E9477016C197D098E099F0950
:10036000683E734081059105A8F321E0821A910847
:10037000A108B10888EEC80E83E0D81EE11CF11C6C
:1003800081149104A104B10429F7FF90EF90DF904C
:10039000CF90BF90AF909F908F9008952FB7F89413
:1003A000609143027091440280914502909146020F
:1003B0002FBF08950F931F93CF93DF93C82FD62F8E
:1003C00086E0C89FF0011124EB50FD4F11A2878DEC
:1003D00090A181309105F1F058F082309105F1F152
:1003E000039709F440C0DF91CF911F910F910895B9
:1003F0006623C9F361E070E08C2F0E9498000E9490
:10040000CE0160934D0370934E0380934F039093FE
:100410005003E9CF0E94CE0100914D0310914E038D
:1004200020914F0330915003AB01BC01401B510B95
:10043000620B730B80915F0390916003B0E0A0E0CA
:1004400084179507A607B70748F462E070E08C2F81
:10045000DF91CF911F910F910C94980063E070E0B1
:10046000D111C1CFF4CF70E060E0F1CF08950895CD
:100470000895AF92BF92CF92DF92EF92FF920F93C7
:100480001F93CF93DF936C017B018B01040F151F2A
:10049000EB015E01AE18BF08C017D10759F0699192
:1004A000D601ED91FC910190F081E02DC6010995F6
:1004B000892B79F7C501DF91CF911F910F91FF90A3
:1004C000EF90DF90CF90BF90AF900895862F0C945F
:1004D000E400862F642F0C940D01862F642F0C945A
:1004E0003B01FC01908190539A3008F090E08181AB
:1004F00080532AE0929F800D1124089520911902C3
:10050000260F3327331F21323105ECF42091950259
:10051000FC0190E080E0243069F082E00895A09131
:1005200019022191AC0147505E4FA40FB52FB11DA8
:100530002C930196861798F380911902680F6093A7
:10054000190280E0089581E008951092950281E0FB
:100550008093940210926F0261E082E10E940D018B
:1005600061E083E10E940D01E9EBF0E080818E7F84
:10057000808380818D7F808388E48093B80085E4C8
:100580008093BC000895CF93DF9391E09093F8019E
:100590008823B9F0C091B800D091BA008091BC0016
:1005A0008A7B8093BC0060E082E10E940D0160E0E4
:1005B00083E10E940D010E94A502D093BA00C0936E
:1005C000B800DF91CF9108958F929F92AF92BF9222
:1005D000CF92DF92EF92FF920F931F93CF93DF930F
:1005E000D091BE02D13208F0D7C0182FC091BD0201
:1005F0000E9477016B017C018091950281116BC093
:1006000082E080939502109394028FEF809393027F
:1006100010929202D0939102ADE9B2E0E1E7F2E0EC
:1006200080E0D81391C01092700280917002CC0FBC
:10063000C82BC093700280916F02813009F088C08E
:1006400010926F020E9477016B017C018091700211
:100650008093BB008091970290919802A09199029B
:10066000B0919A02892B8A2B8B2BA1F00E947701E3
:1006700000919702109198022091990230919A026C
:100680006C197D098E099F09061717072807390776
:1006900008F442C08091BC0083FDD8CF85EC8093E4
:1006A000BC000E9477016B017C0180919502823031
:1006B00009F450C0809193028F3F09F46FC080917C
:1006C0009302803209F46CC080919302803309F464
:1006D00069C084E026C08091970290919802A09111
:1006E0009902B0919A02892B8A2B8B2B09F484CF23
:1006F0000E9477018090970290909802A0909902B2
:10070000B0909A026C197D098E099F09861697068A
:10071000A806B90608F070CF809196020E94C30225
:1007200085E010929C021092BE0210929B02DF9113
:10073000CF911F910F91FF90EF90DF90CF90BF90DE
:10074000AF909F908F9008959D9191938F5F69CF07
:1007500085EEA5CF8091970290919802A091990281
:10076000B0919A02892B8A2B8B2B09F49ECF0E9481
:10077000770100919702109198022091990230918F
:100780009A026C197D098E099F0906171707280719
:10079000390708F08ACFC0CF81E0C3CF80E0C1CF56
:1007A00082E0BFCF83E0BDCF1F93CF93DF93EA01F9
:1007B000122FDC0111968D919C91DC01ED91FC9141
:1007C0000280F381E02D0995C817D90729F4812FFC
:1007D0000E94E40291E0811190E0892FDF91CF9196
:1007E0001F910895CF93DF93EC018B818823A1F0B3
:1007F000888191E090939B028093BD0210929C02AD
:100800001092BE0281E00E94E40291E0811190E02A
:10081000892FDF91CF91089510924E0210924D02D0
:1008200010929C021092BE020E94A50286E392E002
:1008300090933F0280933E0287E392E090933D02C3
:1008400080933C0281E08B83CE010E94F203982FBB
:100850008111CECFDDCF0895E0914E0280914D02FF
:10086000E81730F4F0E0E15BFD4F808190E00895FF
:100870008FEF9FEF089590914E0280914D022FEFE0
:100880003FEF981748F4E92FF0E0E15BFD4F20813E
:1008900030E09F5F90934E02C901089580914D0210
:1008A00090914E02891B990B0895CF92DF92EF929F
:1008B000FF920F931F93CF93DF937C01CB018A01AB
:1008C00020919B02222389F0EB016B01C40ED51EFF
:1008D000CC15DD0569F06991D701ED91FC9101908E
:1008E000F081E02DC7010995F3CF642F0E947E02AD
:1008F000C801DF91CF911F910F91FF90EF90DF9092
:10090000CF900895CF93DF931F92CDB7DEB7698361
:1009100020919B022223F9F02091BE02203258F050
:1009200021E030E0FC013383228390E080E00F90EF
:10093000DF91CF91089580919C02E82FF0E0E3567B
:10094000FD4F998190838F5F80939C028093BE02BC
:1009500081E090E0ECCF61E0CE0101960E947E0242
:10096000F7CF90E080E008952F923F924F925F92F0
:100970006F927F928F929F92AF92BF92CF92DF92AF
:10098000EF92FF920F931F93CF93DF935C011B01B4
:100990006A01F12CE12CD50114968D919C91860170
:1009A0000E191F098017910708F48C01F501D081F9
:1009B0000E9477012B013C0180919502811172C048
:1009C000C02F013208F0C0E2F1E0F093950221E07F
:1009D000C601801B910BE816F90608F420E020936D
:1009E00094028FEF80939302109292028C0F809367
:1009F0009102A1E0A093700280917002DD0FD82BCC
:100A0000D093700280916F02813009F090C01092F3
:100A10006F020E9477012B013C018091700280934C
:100A2000BB008091970290919802A0919902B09199
:100A30009A02892B8A2B8B2BA1F00E94770120919F
:100A40009702309198024091990250919A0264194C
:100A5000750986099709261737074807590708F4C3
:100A600042C08091BC0083FDD8CFB5ECB093BC00F0
:100A70000E9477012B013C0180919502813009F49D
:100A80005AC0809192028C1710F4C0919202A1E793
:100A9000B2E0EFE4F2E080E08C1751F19D91919388
:100AA0008F5FFACF8091970290919802A09199025E
:100AB000B0919A02892B8A2B8B2B09F47DCF0E944F
:100AC00077012091970230919802409199025091BC
:100AD0009A02641975098609970926173707480786
:100AE000590708F069CF809196020E94C302C0E0C6
:100AF00010924E02C0934D02C017110609F057C064
:100B000041018E0C9F1CE401CE01881999098017C0
:100B1000910798F5D50111968D919C91DC01ED918D
:100B2000FC910284F385E02D09958993EDCFE5EEE4
:100B3000E093BC009DCF8091970290919802A09184
:100B40009902B0919A02892B8A2B8B2B09F494CFAE
:100B50000E9477012091970230919802409199026A
:100B600050919A0264197509860997092617370763
:100B70004807590708F080CFB6CFE00EF11EEC14FD
:100B8000FD0408F408CF81E0DF91CF911F910F9110
:100B9000FF90EF90DF90CF90BF90AF909F908F909D
:100BA0007F906F905F904F903F902F90089580E0DE
:100BB000EBCFEF92FF920F931F93CF93DF9300D071
:100BC00000D000D01F92CDB7DEB78C011982E09023
:100BD0004B02F0904C02D70114968D919C91159781
:100BE000892BE9F08C9191E090939B028093BD0258
:100BF00010929C021092BE0220E041E050E0BE0143
:100C00006F5F7F4FC7010E94D403882341F047E004
:100C100050E0BE016F5F7F4FC7010E94B404E981BD
:100C2000EF77FA81FB804D815E818F81282F30E044
:100C300094E0359527959A95E1F7922F990F990FA2
:100C4000291B220F280FD8012C93852F90E024E038
:100C5000959587952A95E1F7982F990F990F891BFC
:100C6000880F850F11968C931197642F70E034E0F4
:100C7000759567953A95E1F7862F880F880F681B61
:100C8000660F640F12966C9312974F2D50E064E03C
:100C9000559547956A95E1F7842F880F880F481B73
:100CA000440F4F0D13964C9313972F2F30E074E0A1
:100CB000359527957A95E1F7822F880F880F281BA5
:100CC000220F2F0F14962C9314978E2F90E0F4E0A0
:100CD00095958795FA95E1F7982F990F990F891BAC
:100CE000880F8E0F15968C93C80127960FB6F8942F
:100CF000DEBF0FBECDBFDF91CF911F910F91FF904F
:100D0000EF900895CF93DF93EC0160E08E810E9415
:100D10000D0161E08E810E940D0160E08E810E94D4
:100D20000D018BE891E00197F1F7DF91CF910895E4
:100D3000CF92DF92EF92FF920F931F93CF93DF93A7
:100D40006C017C0187E0E80EF11CD0E0C0E0062FCA
:100D500010E0B8010C2E02C0759567950A94E2F771
:100D60006170F70181917F010E940D012196C430CD
:100D7000D10579F7C601DF91CF911F910F91FF90B7
:100D8000EF90DF90CF900C948206CF92DF92EF929B
:100D9000FF920F931F93CF93DF93EC01F62E642FF6
:100DA0008C810E940D018D818F3F19F060E00E94BF
:100DB0000D010F2D10E08F8584FF25C06E0187E0A7
:100DC000C80ED11CF12CE12CB8010E2C02C0759577
:100DD00067950A94E2F76170F60181916F010E94B4
:100DE0000D01FFEFEF1AFF0A88E0E816F10461F742
:100DF000CE01DF91CF911F910F91FF90EF90DF9087
:100E0000CF900C948206B80184E0759567958A9519
:100E1000E1F7CE010E9498066F2DCE01DF91CF91B0
:100E20001F910F91FF90EF90DF90CF900C94980658
:100E300040E0682F84E693E00C94C506CF93DF93DF
:100E4000823029F490917303986090937303809398
:100E500077031092780380E48093790380E1809394
:100E60007A0380E580937B0361E0809168030E94B0
:100E70003B01809169038F3F19F061E00E943B01C3
:100E800061E080916A030E943B01C4E6D3E09E01C9
:100E9000245633408091730384FD0BC084E090E0BE
:100EA00021962817390744F461E08E810E943B01A6
:100EB000EECF88E090E0F4CF8BE39DE00197F1F76F
:100EC00060E0809168030E940D0160E080916A03F8
:100ED0000E940D01809169038F3F19F060E00E942C
:100EE0000D018091730384FD39C063E084E693E0D3
:100EF0000E949806CBE4D6E4CE010197F1F763E0B7
:100F000084E693E00E9498062197F1F763E084E677
:100F100093E00E94980683E592E00197F1F762E082
:100F200084E693E00E9498068091730380620E9499
:100F3000180784E0809374038CE00E94180781E016
:100F40000E9418078BE39FE10197F1F782E08093FD
:100F5000750386E0DF91CF910C94180780620E94A0
:100F600018078BE496E40197F1F780917303806290
:100F70000E94180783E592E00197F1F780917303CF
:100F800080620E941807D0CF90917703691710F004
:100F90006FEF690FE62FF0E0EC59FC4F9489890F51
:100FA00080680C94180741E00E94C50681E090E03B
:100FB0000895FC0101900020E9F73197AF01481B2B
:100FC000590BBC0184E693E00C94390261E080E0A7
:100FD0000E94C40780910101882341F083E491E0DD
:100FE0000E94D90781E080930001089584E591E093
:100FF000F7CFCF93DF93EC0188819981009711F0AF
:101000000E94C212198218821D821C821B821A82BF
:10101000DF91CF910895FC0180819181009711F0BB
:101020000C94C2120895FC0124813581FB01448196
:10103000558124173507E1F4FC0180819181FB0182
:10104000608171810097D1F061157105A1F4232BA6
:10105000C1F0FC01808190E008C0232B91F0FB01DE
:10106000808190E091958195910921E0892B09F08B
:1010700020E0822F08950E941114F7CF61157105A9
:1010800061F721E0F6CF0F931F93CF93DF93EC012D
:1010900088819981009759F02A813B81261737076B
:1010A00030F081E0DF91CF911F910F9108958B0176
:1010B0006F5F7F4F0E944B13009759F0998388838D
:1010C0001B830A832C813D81232B59F7FC0110825D
:1010D000E8CF80E0E7CFEF92FF920F931F93CF937B
:1010E000DF93EC017B018A01BA010E944308811160
:1010F0000BC0CE010E94F907CE01DF91CF911F9165
:101100000F91FF90EF9008951D830C83B7018881A4
:1011100099810E941A14F0CFFB0101900020E9F799
:101120003197AF01461B570B0C946B08FC011182E1
:1011300010821382128215821482FB01019000201A
:10114000E9F73197AF01461B570B0C946B08EF92F0
:10115000FF920F931F93CF93DF9300D000D000D066
:10116000CDB7DEB77C018B0161E080E00E94C4074F
:101170001A8219821C821B821E821D82F7016081E5
:1011800071816115710531F044815581CE0101965F
:101190000E946B08ED80FE80F0E1EF0EF11CB701BC
:1011A000CE0101960E9443088823E1F129813A810A
:1011B0008D819E8165E671E0820F931F0E941A1453
:1011C000FE82ED824D815E8169817A8184E693E0C1
:1011D0000E943902CE0101960E940B0881E08093A3
:1011E000F2010E94CE01012E000C220B330BDC0118
:1011F000CB01800F911FA21FB31F8093ED0190932D
:10120000EE01A093EF01B093F00126960FB6F8948B
:10121000DEBF0FBECDBFDF91CF911F910F91FF9029
:10122000EF900895CE0101960E94F907CBCF85ED8E
:101230008093BC008091970290919802A0919902AE
:10124000B0919A020796A11DB11D23E0B695A7950E
:10125000979587952A95D1F72091BC0024FD03C06E
:1012600010929502089540919702509198026091D2
:10127000990270919A02452B462B472B69F30097F0
:10128000A105B10541F02AE22A95F1F700C00197C6
:10129000A109B109E1CF809196020C94C302E3EF5A
:1012A000F1E085E0DF011D928A95E9F71092F101E6
:1012B00008958F929F92AF92BF92CF92DF92EF925A
:1012C000FF920F931F93CF93DF93CDB7DEB7659750
:1012D0000FB6F894DEBF0FBECDBF0E94CE014B010A
:1012E0005C018091F201882321F18091ED019091C0
:1012F000EE01A091EF01B091F00188169906AA06BF
:10130000BB0620F01092F2010E94E60765960FB628
:10131000F894DEBF0FBECDBFDF91CF911F910F912B
:10132000FF90EF90DF90CF90BF90AF909F908F9005
:1013300008958091E9019091EA01A091EB01B091AB
:10134000EC01A5019401281B390B4A0B5B0BDA0158
:10135000C9018D379105A105B10508F463C060E0AE
:1013600080E00E94C407CE010A960E94D9058F85AD
:101370001F928F938E851F928F938D851F928F93CF
:1013800086E791E09F938F938E010F5F1F4F1F930E
:101390000F930E942114B801CE0140960E94960836
:1013A00065E871E0C8010E949608C888D9880FB620
:1013B000F894DEBF0FBECDBFC114D10409F44EC0F6
:1013C000EC88FD88E114F104B1F08D819E81E80E76
:1013D000F91EB701C8010E944308882309F43EC0E2
:1013E00029813A818D819E81B601820F931F0E94CF
:1013F0001A14FE82ED824D815E8169817A8184E6D4
:1014000093E00E943902C8010E940B08CE01409669
:101410000E940B088092E9019092EA01A092EB01F0
:10142000B092EC01109101011123E1F061E08EE036
:101430000E940D0160E08FE00E940D018091E801A3
:10144000181709F463CF8091F10181115FCF0E94D9
:10145000E607809101018093E80158CFC8010E94FE
:10146000F907C9CF60E08EE00E940D0161E0E3CF93
:10147000CF93DF9300D000D000D0CDB7DEB760911E
:10148000DD027091DE0283EF91E00E94111468E9A1
:1014900071E0892B31F4109201010E9459096CE826
:1014A00071E0CE0101960E9496086AEF70E0CE01CD
:1014B00001960E94A708CE0101960E940B080E9487
:1014C0004F0926960FB6F894DEBF0FBECDBFDF9151
:1014D000CF9108954F925F926F927F928F929F92D9
:1014E000AF92BF92CF92DF92EF92FF920F931F9332
:1014F000CF93DF9300D000D000D0CDB7DEB781E02E
:10150000809361030E94CE01009151031091520318
:101510002091530330915403AB01BC01401B510B8C
:10152000620B730B80915D0390915E03B0E0A0E0CD
:1015300084179507A607B70708F074C110E08091DB
:101540005B03181760F4E0915703F0915803E10F23
:10155000F11D62E080810E943B011F5FF0CF912C62
:10156000412C512C3201439480915C03981608F071
:1015700061C0E92CF12CE0915903F0915A03EE0D72
:10158000FF1D61E080810E943B01E0915903F091D1
:101590005A03EE0DFF1D60E080810E940D01D30112
:1015A000C201092C04C0880F991FAA1FBB1F0A94EF
:1015B000D2F75C016C01C094D094812C80915B03C4
:1015C000881608F5082D10E0E0915703F0915803B4
:1015D000E00FF11F80810E94E4000C5F1F4F000F9D
:1015E000111FF801EB50FD4F892B41F4808191814F
:1015F0008A299B29918380838394E0CF8081918184
:101600008C219D21F7CFE0915903F0915A03EE0D03
:10161000FF1D61E080810E940D018091590390912E
:101620005A03E80EF91E60E0F70180810E943B0139
:1016300093949ACF25EFC22E22E0D22E86018FEF0F
:101640009FEFF801278D30A1232B21F4148E968F64
:10165000858F11A20A5F1F4FF3E001331F0789F73F
:10166000B12C96E0992E80915B03B81608F052C019
:10167000A12CEB2CF12CEE0CFF1CC70183509D4FCD
:101680007C0120915C03A21608F042C0F701608142
:1016900071810A2C02C0769567950A94E2F7B29E92
:1016A000900111242A0D311DE5EFF2E080E0458D17
:1016B000568D2417350709F422C18F5F36968A307C
:1016C000B1F760FF23C0E5EFF2E090E080E0448DE9
:1016D000411117C0E0915503F0915603E20FF31F3B
:1016E0004081989EF001999EF00D1124EB50FD4F22
:1016F000448F368F258F10A2178E61E00E94DA0189
:1017000005C0019636968A30910509F7A394B9CFA2
:10171000B394A9CFF12CF60181A18111F82EF6E046
:10172000CF0ED11C0C151D05B1F70E94CE016093A0
:101730005103709352038093530390935403FF20FB
:1017400009F470C080911603882309F46BC080915E
:10175000140390911503019709F064C000911103DF
:10176000011163C087E00E94E400019729F56EEA49
:1017700071E0CE0101960E94960868EC70E0CE01FF
:1017800001960E94A708CE0101960E940B08809145
:10179000E1029091E202059740F46091DD027091C0
:1017A000DE0283EF91E00E941A140E94380A87E05B
:1017B0000E94E4000197D9F380E10E94E4000197C0
:1017C00051F4109201010E9459096AE070E080E032
:1017D00090E00E949C0181E10E94E400019759F48D
:1017E00081E0809301010E9459096AE070E080E085
:1017F00090E00E949C0126960FB6F894DEBF0FBEC3
:10180000CDBFDF91CF911F910F91FF90EF90DF90AF
:10181000CF90BF90AF909F908F907F906F905F9090
:101820004F900895109261039DCF8091F20188231B
:1018300021F01092F2010E94E607033299F40E940F
:101840004F0964EA71E0CE0101960E94960864E6B1
:1018500070E0CE0101960E94A708CE0101960E9479
:101860000B0880CF0A32F1F48091F1018823A9F0AE
:1018700081508093F101E82FF0E0ED50FE4F10828F
:1018800061E00E94C40784E791E00E94D90761E00B
:101890008091F1010E94C40765CF0E944F090E9408
:1018A000E60760CF80910001882371F061E080E05D
:1018B0000E94C40785E691E00E94D90761E080E0BC
:1018C0000E94C407109200011091F101143008F039
:1018D00049CFE12FF0E0ED50FE4F008341E0602F53
:1018E00084E693E00E94C5061F5F1093F101143057
:1018F00009F038CF1092F7010E94380A33CF617097
:10190000FDCE8F929F92AF92BF92CF92DF92EF92D5
:10191000FF926B017C0183E0F694E794D794C7941F
:101920008A95D1F70E94CE014B015C010E94CE0145
:10193000681979098A099B096C157D058E059F0533
:1019400028F40E9459090E946A0AF0CFFF90EF9094
:10195000DF90CF90BF90AF909F908F900895EF92BF
:10196000FF920F931F93CF93DF93CDB7DEB72C97E2
:101970000FB6F894DEBF0FBECDBF7C01CE0101963D
:101980000E94D9058D811F928F938C811F928F9316
:101990008BE791E09F938F938E01095F1F4F1F93F9
:1019A0000F930E942114B801C7010E9496080FB638
:1019B000F894DEBF0FBECDBFC7012C960FB6F894CA
:1019C000DEBF0FBECDBFDF91CF911F910F91FF9072
:1019D000EF9008951F920F920FB60F9211242F933C
:1019E0003F938F939F93AF93BF93809143029091C6
:1019F0004402A0914502B09146023091420223E098
:101A0000230F2D3758F50196A11DB11D20934202D9
:101A10008093430290934402A0934502B093460200
:101A20008091470290914802A0914902B0914A02E8
:101A30000196A11DB11D8093470290934802A09387
:101A40004902B0934A02BF91AF919F918F913F910C
:101A50002F910F900FBE0F901F90189526E8230F1F
:101A60000296A11DB11DD2CF1F920F920FB60F92F9
:101A700011242F933F934F935F936F937F938F9393
:101A80009F93AF93BF93EF93FF938091B900887FAB
:101A9000803609F44AC0F0F5883209F4A7C018F579
:101AA000803109F49BC0B8F4882309F4F9C0883068
:101AB00009F494C0FF91EF91BF91AF919F918F91E5
:101AC0007F916F915F914F913F912F910F900FBE3A
:101AD0000F901F901895883109F488C0803251F713
:101AE0008093930214C0803409F49DC040F4803385
:101AF000B9F38833F9F68093930285ECB0C0803552
:101B000009F485C0883509F496C0883499F60E9496
:101B10001709D0CF883909F48CC038F5883729F0F7
:101B200050F4883611F0803729F683E080939502CF
:101B300010923B0257C0883809F47BC0803919F0F5
:101B4000803809F0B7CF80913B02803208F071C035
:101B5000E0913B0281E08E0F80933B028091BB00BD
:101B6000F0E0E55EFD4F80833DC0803B39F0E0F45E
:101B7000803A09F479C0883A09F09CCF84E08093D8
:101B8000950210921A0210921902E0913E02F09111
:101B90003F0209958091190281110FC081E0809365
:101BA00019021092F90109C0803C09F4A6CF883CC3
:101BB00009F4A3CF883B09F07DCFE0911A0281E0C0
:101BC0008E0F80931A02F0E0E750FE4F80818093E1
:101BD000BB0090911A028091190229C08091700275
:101BE0008093BB0085EC8093BC0064CF90919202FF
:101BF00080919102981758F5E091920281E08E0F42
:101C000080939202F0E0EF58FD4F8081E9CFE091A0
:101C1000920281E08E0F809392028091BB00F0E0EF
:101C2000EF58FD4F80839091920280919102981716
:101C3000C8F285E8D8CFE091920281E08E0F8093C0
:101C400092028091BB00F0E0EF58FD4F80838091BD
:101C5000940281115CCF81E080936F0284EA8093CB
:101C6000BC001092950226CF85EC8093BC001092A8
:101C7000950280913B02803230F4E0913B02F0E02B
:101C8000E55EFD4F108260913B0270E0E0913C0206
:101C9000F0913D028BE192E0099510923B020ACF50
:101CA0001092930234CF1092C2021092C10288EEB9
:101CB00093E0A0E0B0E08093C3029093C402A093AD
:101CC000C502B093C6028FE191E09093C002809369
:101CD000BF0210926703109266038BE391E090932A
:101CE00065038093640388E0809368038FEF80939B
:101CF000690389E080936A038AE080936B038BE039
:101D000080936C038CE080936D038DE080936E0371
:101D100010926F031092700310927103109272036D
:101D20001092730381E00E941E071092F702109236
:101D3000FB021092FA021092FC0281E391E0909370
:101D4000F6028093F502E1E1F3E01082148213823F
:101D50001582369683E0ED34F807B9F785E091E017
:101D6000909358038093570382E091E090935A0335
:101D70008093590384E080935B0383E080935C034A
:101D800089E091E090935603809355038AE090E0B8
:101D900090935E0380935D0384EF91E090936003E2
:101DA00080935F03109263031092620310925103B9
:101DB0001092520310925303109254031092610335
:101DC00065E771E08FEE92E00E94960865E771E0AA
:101DD00089EE92E00E94960865E771E083EE92E05A
:101DE0000E94960865E771E08DED92E00E949608EA
:101DF00065E771E087ED92E00E94960865E771E083
:101E000081ED92E00E94960865E771E08BEC92E02C
:101E10000C949608CF93DF93CDB7DEB769970FB6D2
:101E2000F894DEBF0FBECDBF789484B5826084BDC8
:101E300084B5816084BD85B5826085BD85B58160CE
:101E400085BD80916E00816080936E00109281004C
:101E50008091810082608093810080918100816007
:101E600080938100809180008160809380008091C8
:101E7000B10084608093B1008091B0008160809354
:101E8000B00080917A00846080937A0080917A001B
:101E9000826080937A0080917A00816080937A00DA
:101EA00080917A00806880937A001092C10082E06D
:101EB0000E941E078DEB91E00E94D90762E370E05B
:101EC00080E090E00E949C0181E00E9418078BE373
:101ED0009FE10197F1F761E08EE00E943B0161E034
:101EE0008FE00E943B0160E080E10E943B0160E0E6
:101EF00081E10E943B0160E087E00E943B0180910C
:101F00004B0290914C02009711F00E94C21286E0A1
:101F100090E00E9426128C0188E6F80180838FEB06
:101F200092E092838183138280E290E095838483A0
:101F300010934C0200934B0210924E0210924D02ED
:101F400010929C021092BE020E94A50286E392E0CB
:101F500090933F0280933E0287E392E090933D028C
:101F600080933C0281E0F8018383C8010E94F20360
:101F7000811107C061E00E94C4078BEC91E00E94D0
:101F8000D907198E80914B0290914C02FC0124815B
:101F90003581232B91F0208131E030939B022093F7
:101FA000BD0210929C021092BE0221E041E050E07E
:101FB000BE01675E7F4F0E94D40341E050E08E0176
:101FC0000F5F1F4FB80180914B0290914C020E940D
:101FD000B404898190E0880F892F881F990B892B81
:101FE00009F49DC04BE050E061E770E0C8010E9439
:101FF0009F11CE010A960E947102E82EE981E154F8
:10200000E331E0F40E2E000CFF0BE75FFF4E0C9463
:1020100020124C111E101E1067111E101C101E10D5
:102020001E101E103D111E101E105511641161115D
:102030001E101E101E105E11A2E0FA2ECE01059693
:102040000E947102D82E48E050E068E670E0C801B6
:102050000E949F11C8010E947102C82ECE010496F1
:102060000E947102B82ECE0107960E947102382F8D
:1020700086E0F80111928A95E9F72AE0832F622F12
:102080000E941412982F880F890F880F830F8A835C
:102090008B2D0E941412982F880F890F880F8B0D9B
:1020A0008B838C2D0E941412982F880F890F880F14
:1020B0008C0D8C838D2D0E941412982F880F890F00
:1020C000880F8D0D8E838F2D0E941412982F990FDB
:1020D000890F880FF80EFF828E2D0E941412982F00
:1020E000880F890F880F8E0D888780914B02909101
:1020F0004C02FC01248135812830310580F020819B
:1021000031E030939B022093BD0210929C0210920A
:10211000BE0221E048E050E0B8010E94D403FF2451
:10212000F394F09201010E944F090E9459090E9404
:102130006A0A65E771E083EE92E00E948C08F092F3
:1021400001011C8A1B8A1E8A1D8A188E1F8A4AE07A
:10215000B80182EF93E00E94A811B801CE01439626
:102160000E948C088091DD029091DE02009709F4B4
:10217000B3C06B897C896115710509F4ABC04091CE
:10218000DF025091E0022F89388D4217530708F47F
:10219000A1C00E941A148F89988D9093E2028093B7
:1021A000E102188E1F8ACE0143960E940B0865ED4E
:1021B00071E08FEE92E00E948C086BED71E087ED8C
:1021C00092E00E948C0861EE71E08BEC92E00E943C
:1021D0008C086AE070E080E090E00E94810CFF24AF
:1021E000F39468EE73E080E090E00E94810CC801F7
:1021F0000E94AF0C67ED72E0C8010E941308E82E40
:1022000081E0E11001C080E080934102C8010E949A
:102210000B08EE2021F0F09201010E945909C8013B
:102220000E94AF0C6BEC72E0C8010E941308E82E0C
:1022300081E0E11001C080E080934002C8010E946B
:102240000B08EE2021F0109201010E94590964E66A
:1022500070E080E090E00E94810C63EE72E08DED12
:1022600092E00E941308882309F4BBCF1092010169
:102270000E945909F0920101B4CF8A81FF24F3949E
:10228000813609F4DBCE8B81F7E0FF2E8E3609F024
:10229000D5CEE6E0FE2ED2CE8B8178E0F72E8237C7
:1022A00009F0CCCE64E0F62EC9CE8B8155E0F52E38
:1022B000823709F0C3CE43E0F42EC0CE39E0F32ECE
:1022C000BDCE2AE0F22EBACE9BE0F92EB7CE8CE03E
:1022D000F82EB4CE0E94C2128B899C899093DE02A4
:1022E0008093DD028D899E899093E0028093DF02C6
:1022F0008F89988D9093E2028093E1021C8A1B8A59
:102300001E8A1D8A4ECF8BEC92E00E940B0881ED55
:1023100092E00E940B0887ED92E00E940B088DED81
:1023200092E00E940B0883EE92E00E940B0889EE77
:1023300092E00E940B088FEE92E00C940B08FB01D8
:10234000DC0102C005900D9241505040D8F708952D
:10235000BB274A3031F4992322F4BDE29095819550
:102360009F4F0C94B411BB27FB015527AA27880F58
:10237000991FAA1FA41710F0A41B83955051B9F7F9
:10238000A05DAA3308F0A95DA193009779F7B11178
:10239000B1931192CB010C94CD11DC01FC01672F9C
:1023A00071917723E1F7329704C07C916D9370832C
:1023B0006291AE17BF07C8F308952F923F924F92D4
:1023C0005F926F927F928F929F92AF92BF92CF92C5
:1023D000DF92EF92FF920F931F93CF93DF93CDB7CE
:1023E000DEB7CA1BDB0B0FB6F894DEBF0FBECDBF46
:1023F00009942A88398848885F846E847D848C8417
:102400009B84AA84B984C884DF80EE80FD800C811F
:102410001B81AA81B981CE0FD11D0FB6F894DEBF02
:102420000FBECDBFED010895991B79E004C0991F3F
:10243000961708F0961B881F7A95C9F7809508951E
:10244000EE0FFF1F0590F491E02D09940F931F9359
:10245000CF93DF938230910510F482E090E0E09119
:102460007E03F0917F0330E020E0B0E0A0E0309701
:1024700099F42115310509F44AC0281B390B243081
:102480003105D8F58A819B816115710589F1FB01C0
:1024900093838283FE0111C04081518102811381A7
:1024A00048175907E0F04817590799F4109761F059
:1024B00012960C93129713961C933296CF01DF91CC
:1024C000CF911F910F91089500937E0310937F0386
:1024D000F4CF2115310551F04217530738F0A90107
:1024E000DB019A01BD01DF01F801C1CFEF01F9CF96
:1024F00090937F0380937E03CDCFFE01E20FF31F05
:10250000819391932250310939832883D7CF209129
:102510007C0330917D03232B41F4209117013091EE
:10252000180130937D0320937C0320911501309195
:1025300016012115310541F42DB73EB7409119011F
:1025400050911A01241B350BE0917C03F0917D031F
:10255000E217F307A0F42E1B3F0B2817390778F07A
:10256000AC014E5F5F4F2417350748F04E0F5F1FD9
:1025700050937D0340937C03819391939FCFF0E030
:10258000E0E09CCFCF93DF930097E9F0FC01329716
:1025900013821282A0917E03B0917F03ED0130E09F
:1025A00020E01097A1F420813181820F931F2091A8
:1025B0007C0330917D032817390709F061C0F0933F
:1025C0007D03E0937C03DF91CF910895EA01CE175C
:1025D000DF07E8F54A815B819E0141155105B1F79E
:1025E000E901FB83EA8349915991C40FD51FEC1788
:1025F000FD0761F4808191810296840F951FE901A6
:1026000099838883828193819B838A83F0E0E0E0D1
:1026100012968D919C9113970097B9F52D913C914D
:102620001197CD010296820F931F20917C03309168
:102630007D032817390739F6309751F510927F033B
:1026400010927E03B0937D03A0937C03BCCFD38311
:10265000C28340815181840F951FC817D90761F447
:102660004E5F5F4F88819981480F591F5183408386
:102670008A819B81938382832115310509F0B0CF34
:10268000F0937F03E0937E039ECFFD01DC01C0CF7A
:1026900013821282D7CFB0E0A0E0E1E5F3E10C9421
:1026A000DF118C01009751F4CB010E9426128C019E
:1026B000C801CDB7DEB7E0E10C94FB11FC01E60FD9
:1026C000F71F9C0122503109E217F30708F49DC05F
:1026D000D901CD91DC911197C617D70798F0C53075
:1026E000D10530F3CE0104978617970708F3C61B70
:1026F000D70B2297C193D1936D937C93CF010E9406
:10270000C212D6CF5B01AC1ABD0A4C018C0E9D1EC5
:10271000A0917E03B0917F03512C412CF12CE12C30
:10272000109731F580917C0390917D038815990570
:1027300009F05CC04616570608F058C08091150194
:1027400090911601009741F48DB79EB74091190101
:1027500050911A01841B950BE817F90708F055C032
:10276000F0937D03E0937C03F90171836083A0CF34
:102770008D919C91119712966C90129713967C9064
:102780001397A815B90559F56C0142E0C40ED11C88
:10279000CA14DB0420F1AC014A195B09DA01129674
:1027A000159780F06282738251834083D9016D93C3
:1027B0007C93E114F10471F0D7011396FC93EE932E
:1027C000129776CF22968C0F9D1FF90191838083FB
:1027D000F301EFCFF0937F03E0937E0369CF4816B8
:1027E000590608F42C017D01D3019ACFCB010E9438
:1027F00026127C01009749F0AE01B8010E9408142E
:10280000C8010E94C212870153CF10E000E050CFF0
:10281000FB01DC0102C001900D9241505040D8F7FD
:102820000895FB01DC018D91019080190110D9F30D
:10283000990B0895FB01DC0101900D920020E1F756
:102840000895AEE0B0E0E7E2F4E10C94EB110D89FD
:102850001E8986E08C831A8309838FEF9FE79E830E
:102860008D83AE01475E5F4F6F89788DCE010196F3
:102870000E9444142F813885020F131FF801108223
:102880002E96E4E00C940712ABE0B0E0EAE4F4E149
:102890000C94DD117C013B018A01FC011782168238
:1028A000838181FFC8C1CE0101965C01F70193814C
:1028B000F30193FD859193FF81913F01882309F4F2
:1028C00053C1853239F493FD859193FF81913F0186
:1028D000853229F4B70190E00E943416E7CF912C9D
:1028E000212C312CFFE1F31538F08B3211F190F4EB
:1028F000803209F1833229F137FC3CC020ED280FEA
:102900002A3050F536FE20C08AE0989E200D112412
:10291000922E06C08D3291F0803371F7689430F8B2
:10292000F30193FD859193FF81913F018111DACFEE
:1029300021C0689431F8689432F8F2CF689433F883
:10294000EFCF689434F8ECCFEAE02E9E200D1124EE
:10295000222E689435F8E4CF8E3229F436FC04C177
:10296000689436F8DDCF8C3619F4689437F8D8CFF0
:102970008836B1F2982F9F7D95549330E0F08336DE
:10298000A1F18337C1F1833509F063C02801F2E07A
:102990004F0E511CF801C080D180692D70E036FCCB
:1029A00002C06FEF7FEFC6010E941E164C016894B3
:1029B00037F882010AC00C5F1F4FFFE3F9838824B8
:1029C0008394912C6501E89437F833FE2DC0522C86
:1029D0008114910471F5552009F468CFB70180E2A4
:1029E00090E00E9434165A94F6CFF80180818983D2
:1029F0000E5F1F4FE4CF2801F2E04F0E511CF8018B
:102A0000C080D180692D70E036FC02C06FEF7FEF8F
:102A1000C6010E9429164C018201D5CFB70180E280
:102A200090E00E9434162A942814190409F0B0F793
:102A3000CECFF60137FC859137FE81916F01B7014A
:102A400090E00E94341651105A94F1E08F1A9108C8
:102A5000BFCF843619F0893609F077C0F80137FE08
:102A60006BC060817181828193810C5F1F4FF32D58
:102A7000FF763F2E97FF09C09095809570956195E0
:102A80007F4F8F4F9F4F689437F82AE030E0A501C1
:102A90000E946416C82ECA188C2C432C36FE0CC01B
:102AA000E89440F8C91440F434FE05C032FC03C079
:102AB000F32DFE7E4F2E892C44FE95C0FE01EC0DB9
:102AC000F11D8081803309F087C0242D297E422E9C
:102AD000842D8870582E43FC95C040FE8FC09C2CDE
:102AE000821418F42C0C922C981844FE91C0B70153
:102AF00080E390E00E94341642FE09C088E790E02F
:102B000041FE02C088E590E0B7010E943416C91466
:102B100008F48AC0CA94D12C9FEFC91AD90ACA0CEA
:102B2000DB1CF60182916F01B70190E00E94341620
:102B3000AC14BD04B1F74FCF60817181072E000C3A
:102B4000880B990B0E5F1F4F92CFD32CE894D4F8CB
:102B50002AE030E0853739F1232D297FD22E8F36B8
:102B600001F148F48835A9F0F701868197812B9609
:102B7000E2E10C94F911803749F08837A9F7D4FEC7
:102B800002C06894D2F820E130E00DC06894D4F817
:102B9000F6CF34FE03C0822F8660D82E20E132E0CB
:102BA00002C028E030E0F801D7FE0FC060817181DB
:102BB000828193810C5F1F4FA5010E946416C82E6D
:102BC000CA183D2CE89437F867CF6081718190E096
:102BD00080E00E5F1F4FF0CF42FC02C0839478CF9D
:102BE0008394839475CF842D867809F471CFF6CFC2
:102BF000B70180E290E00E94341683948214C0F3FF
:102C0000512C73CF522C5818821408F46ECFF8CF81
:102C1000842D867809F47BCF8BE241FE80E247FC6D
:102C20008DE2B70190E071CFB70180E390E00E94A0
:102C300034169A946CCF8FEF9FEF99CFFC010590DB
:102C4000615070400110D8F7809590958E0F9F1FAE
:102C50000895FC016150704001900110D8F78095F3
:102C600090958E0F9F1F08950F931F93CF93DF931F
:102C7000182F092FEB018B8181FD09C01FEF0FEF8A
:102C8000812F902FDF91CF911F910F91089582FF97
:102C900014C02E813F818C819D81281739073CF417
:102CA000E881F981CF0101969983888310838E8111
:102CB0009F8101969F838E83E3CFE885F985812FDD
:102CC0000995892BA1F3DACFFA01AA27283051F10F
:102CD000203181F1E8946F936E7F6E5F7F4F8F4F4D
:102CE0009F4FAF4FB1E03ED0B4E03CD0670F781FAC
:102CF000891F9A1FA11D680F791F8A1F911DA11D91
:102D00006A0F711D811D911DA11D20D009F46894C9
:102D10003F912AE0269F11243019305D3193DEF671
:102D2000CF010895462F4770405D4193B3E00FD027
:102D3000C9F7F6CF462F4F70405D4A3318F0495D12
:102D400031FD4052419302D0A9F7EACFB4E0A695F5
:102D50009795879577956795BA95C9F70097610517
:102D6000710508959B01AC010A2E0694579547956D
:102D700037952795BA95C9F7620F731F841F951F62
:102D8000A01D089510E0CDE6D0E004C0FE010E9431
:0E2D900020122196CE36D107C9F7F894FFCF56
:102D9E0001010405060001020331323334353637A2
:102DAE0038392A30230000800380000000000082A2
:102DBE00045504B1042B044E043B042C0400000003
:102DCE00006D026902660200000000D3073902B1ED
:102DDE000438024345525241444F202020202020E7
:102DEE00202020004142494552544F2020202020CF
:102DFE0020202020002020202020202020202020E5
:102E0E00202020202000253032643A253032643ACA
:102E1E002530326400486F72613A20004249454EB7
:102E2E0056454E49444F21004552524F5220434C75
:102E3E004156450043616E63656C61646F004C657D
:102E4E0079656E646F204D656D2E2E2E005349539D
:102E5E0054454D41204C4953544F004552524F5208
:102E6E00205254430030303A30300032323A303053
:082E7E000030373A303000004B
:00000001FF
