:100000000C946E000C9496000C9496000C94960040
:100010000C9496000C9496000C9496000C94960008
:100020000C9496000C9496000C9496000C949600F8
:100030000C9496000C9496000C9496000C949600E8
:100040000C943C060C9496000C94AC060C9486061A
:100050000C9496000C9496000C9496000C949600C8
:100060000C94DE060C94960030313A32383A33362E
:100070000044656320203920323032350000000012
:100080000023002600290000000000240027002A89
:100090000000000000250028002B000404040404D4
:1000A0000404040202020202020303030303030125
:1000B00002040810204080010204081020010204FC
:1000C00008102000000008000201000003040700DF
:1000D00000000000000000000A08080D11241FBEE7
:1000E000CFEFD8E0DEBFCDBF23E0A6EDB1E001C089
:1000F0001D92A237B207E1F711E0A0E0B1E0E4E918
:10010000FFE102C005900D92A63DB107D9F710E0BE
:10011000CDE6D0E004C02197FE010E94B10DCC369F
:10012000D107C9F70E946C080C94BD0F0C94000015
:10013000833081F028F4813099F08230A9F008955D
:100140008730A9F08830C9F08430B1F48091800004
:100150008F7D03C0809180008F7780938000089509
:1001600084B58F7784BD089584B58F7DFBCF809152
:10017000B0008F778093B00008958091B0008F7D9C
:10018000F9CF1F93CF93DF93282F30E0F901ED5380
:10019000FF4F8491F901E155FF4FD491F901E556E4
:1001A000FF4FC491CC23A9F0162F81110E94980013
:1001B000EC2FF0E0EE0FFF1FEF56FF4FA591B4912B
:1001C0008FB7F894EC91111108C0D095DE23DC9321
:1001D0008FBFDF91CF911F910895DE2BF8CFCF9382
:1001E000DF9390E0FC01E155FF4F249185569F4F2E
:1001F000FC0184918823D1F090E0880F991FFC01C5
:10020000E957FF4FA591B491FC01EF56FF4FC591FF
:10021000D49161110EC09FB7F8948C91E22FE095B4
:100220008E238C932881E223E8839FBFDF91CF91B7
:1002300008958FB7F894EC91E22BEC938FBFF6CF33
:100240003FB7F8948091430290914402A0914502F7
:10025000B091460226B5A89B05C02F3F19F0019624
:10026000A11DB11D3FBFBA2FA92F982F8827BC0110
:10027000CD01620F711D811D911D42E0660F771F38
:10028000881F991F4A95D1F708958F929F92AF9238
:10029000BF92CF92DF92EF92FF920E9420014B011A
:1002A0005C0188EEC82E83E0D82EE12CF12C0E9450
:1002B0002001681979098A099B09683E7340810504
:1002C0009105A8F321E0C21AD108E108F10888EEEF
:1002D000880E83E0981EA11CB11CC114D104E10456
:1002E000F10429F7FF90EF90DF90CF90BF90AF908F
:1002F0009F908F900895089508950895AF92BF92AA
:10030000CF92DF92EF92FF920F931F93CF93DF93E1
:100310006C017B018B01040F151FEB015E01AE1810
:10032000BF08C017D10759F06991D601ED91FC9132
:100330000190F081E02DC6010995892B79F7C5015F
:10034000DF91CF911F910F91FF90EF90DF90CF90B1
:10035000BF90AF900895FC01538D448D252F30E060
:10036000842F90E0821B930B541710F0CF960895C2
:1003700001970895FC01918D828D981761F0A28DEF
:10038000AE0FBF2FB11D5D968C91928D9F5F9F73B5
:10039000928F90E008958FEF9FEF08952FB7F89414
:1003A0008091470290914802A0914902B0914A027F
:1003B0002FBF8093A3029093A402A093A502B093B1
:1003C000A6028BE992E00E94BA0197FF26C02FB7E0
:1003D000F8948091470290914802A0914902B0910F
:1003E0004A022FBF4091A3025091A4026091A5023E
:1003F0007091A602841B950BA60BB70B40919F0230
:100400005091A0026091A1027091A20284179507F9
:10041000A607B707B0F28FEF9FEF0895FC01918D0B
:10042000828D981731F0828DE80FF11D858D90E057
:1004300008958FEF9FEF0895FC01918D228D892FF4
:1004400090E0805C9F4F821B91098F7399270895DC
:100450008BE992E00E941C0221E0892B09F420E044
:10046000822F089580E090E0892B29F00E942802D5
:1004700081110C9400000895FC01A48DA80FB92FE0
:10048000B11DA35ABF4F2C91848D90E001968F73BC
:100490009927848FA689B7892C93A089B1898C91DB
:1004A000837080648C93938D848D981306C002882A
:1004B000F389E02D80818F7D80830895EF92FF92F4
:1004C0000F931F93CF93DF93EC0181E0888F9B8D77
:1004D0008C8D98131AC0E889F989808185FF15C031
:1004E0009FB7F894EE89FF896083E889F989808154
:1004F0008370806480839FBF81E090E0DF91CF9123
:100500001F910F91FF90EF900895F62E0B8D10E044
:100510000F5F1F4F0F731127E02E8C8D8E110CC0B3
:100520000FB607FCFACFE889F989808185FFF5CFFE
:10053000CE010E943C02F1CFEB8DEC0FFD2FF11D9F
:10054000E35AFF4FF0829FB7F8940B8FEA89FB893B
:1005500080818062CFCFCF93DF93EC01888D882399
:10056000B9F0AA89BB89E889F9898C9185FD03C016
:10057000808186FD0DC00FB607FCF7CF8C9185FFFB
:10058000F2CF808185FFEDCFCE010E943C02E9CF02
:10059000DF91CF9108952091F701260F3327331F64
:1005A00021323105ECF420917102FC0190E080E0F1
:1005B000243069F082E00895A091F7012191AC0107
:1005C00049525E4FA40FB52FB11D2C93019686178B
:1005D00098F38091F701680F6093F70180E0089528
:1005E00081E008951092710281E080937002109270
:1005F0004B0261E082E10E94C10061E083E10E9460
:10060000C100E9EBF0E080818E7F808380818D7F67
:10061000808388E48093B80085E48093BC000895CB
:10062000CF93DF9391E09093D6018823B9F0C091E6
:10063000B800D091BA008091BC008A7B8093BC0046
:1006400060E082E10E94C10060E083E10E94C1009D
:100650000E94F202D093BA00C093B800DF91CF910C
:1006600008958F929F92AF92BF92CF92DF92EF92B6
:10067000FF920F931F93CF93DF93D0919A02D132C1
:1006800008F0D7C0182FC09199020E9420016B0179
:100690007C018091710281116BC082E080937102B4
:1006A000109370028FEF80936F0210926E02D093BE
:1006B0006D02A9E7B2E0EDE4F2E080E0D81391C06A
:1006C00010924C0280914C02CC0FC82BC0934C026C
:1006D00080914B02813009F088C010924B020E9439
:1006E00020016B017C0180914C028093BB008091C2
:1006F000730290917402A0917502B0917602892BD9
:100700008A2B8B2BA1F00E94200100917302109183
:10071000740220917502309176026C197D098E0960
:100720009F09061717072807390708F442C0809168
:10073000BC0083FDD8CF85EC8093BC000E942001D3
:100740006B017C0180917102823009F450C080916C
:100750006F028F3F09F46FC080916F02803209F4FD
:100760006CC080916F02803309F469C084E026C0B8
:100770008091730290917402A0917502B0917602FB
:10078000892B8A2B8B2B09F484CF0E942001809027
:10079000730290907402A0907502B09076026C196A
:1007A0007D098E099F0986169706A806B90608F0E6
:1007B00070CF809172020E94100385E0109278023F
:1007C00010929A0210927702DF91CF911F910F91B0
:1007D000FF90EF90DF90CF90BF90AF909F908F9061
:1007E00008959D9191938F5F69CF85EEA5CF8091FC
:1007F000730290917402A0917502B0917602892BD8
:100800008A2B8B2B09F49ECF0E942001009173024A
:100810001091740220917502309176026C197D0955
:100820008E099F09061717072807390708F08ACF8E
:10083000C0CF81E0C3CF80E0C1CF82E0BFCF83E0F3
:10084000BDCFCF93DF93EA01DC0111968D919C918E
:10085000DC01ED91FC910280F381E02D0995C81730
:10086000D90729F481E00E94310391E0811190E0E1
:10087000892FDF91CF910895CF93DF93EC018B8186
:100880008823A1F0888191E0909377028093990268
:100890001092780210929A0281E00E94310391E056
:1008A000811190E0892FDF91CF91089510921F025E
:1008B00010921E021092780210929A020E94F20286
:1008C0008CE791E090931D0280931C028DE791E0EC
:1008D00090931B0280931A0281E08B83CE010E94C9
:1008E0003C04982F8111CECFDDCF0895E0911F02F7
:1008F00080911E02E81730F4F0E0E05EFD4F808149
:1009000090E008958FEF9FEF089590911F028091DE
:100910001E022FEF3FEF981748F4E92FF0E0E05E5A
:10092000FD4F208130E09F5F90931F02C901089521
:1009300080911E0290911F02891B990B0895CF92FE
:10094000DF92EF92FF920F931F93CF93DF937C017F
:10095000CB018A0120917702222389F0EB016B0100
:10096000C40ED51ECC15DD0569F06991D701ED9156
:10097000FC910190F081E02DC7010995F3CF642F20
:100980000E94CB02C801DF91CF911F910F91FF9080
:10099000EF90DF90CF900895CF93DF931F92CDB764
:1009A000DEB76983209177022223F9F020919A0221
:1009B000203258F021E030E0FC013383228390E0C4
:1009C00080E00F90DF91CF91089580917802E82F19
:1009D000F0E0E758FD4F998190838F5F8093780214
:1009E00080939A0281E090E0ECCF61E0CE01019625
:1009F0000E94CB02F7CF90E080E0089542E050E003
:100A00006AE271E08BE992E00C947E01CF93DF9370
:100A1000FC0101900020E9F73197AF01481B590B09
:100A2000BC018BE992E00E947E01EC010E94FE0471
:100A30008C0F9D1FDF91CF91089560E08DE00E94A3
:100A4000C10061E08CE00E94C1008DE291E00C9455
:100A50000605CF93DF93EC0188819981009711F00F
:100A60000E94530E198218821D821C821B821A82D8
:100A7000DF91CF910895FC0180819181009711F061
:100A80000C94530E0895AF92BF92CF92DF92EF92E3
:100A9000FF920F931F93CF93DF93DC01CD90DC90F7
:100AA0001197C114D10439F01496CD91DC918C01C9
:100AB0007601209761F4DF91CF911F910F91FF9004
:100AC000EF90DF90CF90BF90AF90089575015701E0
:100AD000BFEFAB1ABB0AF7018081082E000C990BFF
:100AE0000E94520D892B91F72197CC0DDD1D888135
:100AF000082E000C990B0E94520D892B29F0CE155F
:100B0000DF0510F02197F3CFAE014F5F5F4F4E1915
:100B10005F09D80115965C934E931497CE14DF04A9
:100B200020F4B701C6010E94990FD801ED91FC9104
:100B3000119714968D919C91E80FF91F1082BBCFED
:100B40000F931F93CF93DF93EC01888199810097D6
:100B500059F02A813B812617370730F081E0DF9179
:100B6000CF911F910F9108958B016F5F7F4F0E946E
:100B7000DC0E009759F0998388831B830A832C81AC
:100B80003D81232B59F7FC011082E8CF80E0E7CFAD
:100B9000EF92FF920F931F93CF93DF93EC017B01B2
:100BA0008A01BA010E94A00581110BC0CE010E94EA
:100BB0002905CE01DF91CF911F910F91FF90EF900A
:100BC00008951D830C83B701888199810E94B60F17
:100BD000F0CFFB0101900020E9F73197AF01461BF0
:100BE000570B0C94C805FC011182108213821282EB
:100BF00015821482FB0101900020E9F73197AF01C3
:100C0000461B570B0C94C80585ED8093BC00809162
:100C1000730290917402A0917502B09176020796CA
:100C2000A11DB11D23E0B695A795979587952A95A7
:100C3000D1F72091BC0024FD03C0109271020895E9
:100C40004091730250917402609175027091760226
:100C5000452B462B472B69F30097A105B10541F0C1
:100C60002AE22A95F1F700C00197A109B109E1CF65
:100C7000809172020C9410031F920F920FB60F9284
:100C800011242F933F938F939F93AF93BF938091A2
:100C9000470290914802A0914902B0914A023091D6
:100CA000420223E0230F2D3758F50196A11DB11DF7
:100CB000209342028093470290934802A0934902F6
:100CC000B0934A028091430290914402A091450260
:100CD000B09146020196A11DB11D809343029093ED
:100CE0004402A0934502B0934602BF91AF919F91F9
:100CF0008F913F912F910F900FBE0F901F901895DD
:100D000026E8230F0296A11DB11DD2CF1F920F928C
:100D10000FB60F9211242F933F934F935F936F93CE
:100D20007F938F939F93AF93BF93EF93FF938BE941
:100D300092E00E943C02FF91EF91BF91AF919F9191
:100D40008F917F916F915F914F913F912F910F9074
:100D50000FBE0F901F9018951F920F920FB60F9213
:100D600011242F938F939F93EF93FF93E091AB0206
:100D7000F091AC028081E091B102F091B20282FD6B
:100D80001BC090818091B4028F5F8F732091B50258
:100D9000821741F0E091B402F0E0E556FD4F958FE7
:100DA0008093B402FF91EF919F918F912F910F90BB
:100DB0000FBE0F901F9018958081F4CF1F920F9255
:100DC0000FB60F9211242F933F934F935F936F931E
:100DD0007F938F939F93AF93BF93EF93FF938091F4
:100DE000B900887F803609F44AC0F0F5883209F4EA
:100DF000A7C018F5803109F49BC0B8F4882309F422
:100E0000F9C0883009F494C0FF91EF91BF91AF9180
:100E10009F918F917F916F915F914F913F912F9112
:100E20000F900FBE0F901F901895883109F488C05D
:100E3000803251F780936F0214C0803409F49DC052
:100E400040F48033B9F38833F9F680936F0285EC70
:100E5000B0C0803509F485C0883509F496C088345F
:100E600099F60E940406D0CF883909F48CC038F571
:100E7000883729F050F4883611F0803729F683E05E
:100E8000809371021092190257C0883809F47BC010
:100E9000803919F0803809F0B7CF8091190280327B
:100EA00008F071C0E091190281E08E0F8093190261
:100EB0008091BB00F0E0E750FE4F80833DC0803B57
:100EC00039F0E0F4803A09F479C0883A09F09CCF0F
:100ED00084E0809371021092F8011092F701E09182
:100EE0001C02F0911D0209958091F70181110FC03C
:100EF00081E08093F7011092D70109C0803C09F48A
:100F0000A6CF883C09F4A3CF883B09F07DCFE091C0
:100F1000F80181E08E0F8093F801F0E0E952FE4F76
:100F200080818093BB009091F8018091F70129C0E6
:100F300080914C028093BB0085EC8093BC0064CF11
:100F400090916E0280916D02981758F5E0916E02B3
:100F500081E08E0F80936E02F0E0E35BFD4F8081B5
:100F6000E9CFE0916E0281E08E0F80936E02809156
:100F7000BB00F0E0E35BFD4F808390916E028091B7
:100F80006D029817C8F285E8D8CFE0916E0281E033
:100F90008E0F80936E028091BB00F0E0E35BFD4F0B
:100FA00080838091700281115CCF81E080934B023D
:100FB00084EA8093BC001092710226CF85EC809366
:100FC000BC001092710280911902803230F4E091DD
:100FD0001902F0E0E750FE4F10826091190270E0B4
:100FE000E0911A02F0911B0289EF91E009951092AD
:100FF00019020ACF10926F0234CFFC0190819053F6
:101000009A3008F090E0818180532AE0929F800D11
:1010100011240895EBE9F2E01382128288EE93E046
:10102000A0E0B0E084839583A683B7832AE031E013
:101030003183208325EC30E03587248724EC30E0B1
:101040003787268720EC30E0318B208B21EC30E095
:10105000338B228B22EC30E0358B248B26EC30E076
:10106000378B268B118E128E138E148EE8E3F3E0ED
:101070001382128284839583A683B7838CE191E0E7
:10108000918380836CE271E088E693E00E94F3052F
:101090006CE271E082E693E00E94F3056CE271E09D
:1010A0008CE593E00E94F3056CE271E086E593E045
:1010B0000E94F3056CE271E080E593E00E94F30585
:1010C0006CE271E08AE493E00E94F3056CE271E067
:1010D00084E493E00C94F305CF93DF93CDB7DEB7B0
:1010E000A5970FB6F894DEBF0FBECDBF789484B538
:1010F000826084BD84B5816084BD85B5826085BD14
:1011000085B5816085BD80916E00816080936E00A1
:101110001092810080918100826080938100809193
:101120008100816080938100809180008160809344
:1011300080008091B10084608093B1008091B00004
:1011400081608093B00080917A00846080937A00FF
:1011500080917A00826080937A0080917A00816029
:1011600080937A0080917A00806880937A00109250
:10117000C100E091AB02F091AC0282E08083E0918B
:10118000A702F091A8021082E091A902F091AA02B0
:101190008FEC80831092B302E091AF02F091B00225
:1011A00086E08083E091AD02F091AE0280818061A3
:1011B0008083E091AD02F091AE02808188608083EF
:1011C000E091AD02F091AE02808180688083E09171
:1011D000AD02F091AE0280818F7D808361E08DE071
:1011E0000E94EF0061E08CE00E94EF0060E088E088
:1011F0000E94EF008091400290914102009711F00F
:101200000E94530E86E090E00E94B70D6C0188E6C4
:10121000D6018C9388E393E012969C938E9311975A
:1012200013961C92139780E290E015969C938E93F0
:101230001497D0924102C092400210921F02109265
:101240001E021092780210929A020E94F2028CE71B
:1012500091E090931D0280931C028DE791E09093A2
:101260001B0280931A0201E0F6010383C6010E946B
:101270003C04811105C08AE491E00E940605FFCF7D
:101280001DA28091400290914102DC0114962D91A3
:101290003C91232B89F0FC0120810093770220935D
:1012A00099021092780210929A0241E050E0BE0139
:1012B0006B5D7F4F0E942104C0904002D09041029C
:1012C000BB24B39465EE362E75ECA72EFF24F39461
:1012D000D60114968D919C91892B09F4F12C8F2CB9
:1012E000912CF60120800E9420012B013C0180916D
:1012F0007102811165C00F2DB0927102F0927002DF
:10130000FFEFF0936F0210926E028FEF8F0D8093BC
:101310006D02B0924C0280914C02220C282A20923D
:101320004C0280914B02813009F08DC010924B022B
:101330000E9420012B013C0180914C028093BB0054
:101340008091730290917402A0917502B09176021F
:10135000892B8A2B8B2BA1F00E94200120917302F4
:1013600030917402409175025091760264197509AA
:1013700086099709261737074807590708F441C017
:101380008091BC0083FDD8CFA092BC000E942001B8
:101390002B013C0180917102813009F457C080918A
:1013A0006E028F1510F400916E02EDE4F2E0A0E2FF
:1013B000B2E080E0801751F191919D938F5FFACF59
:1013C0008091730290917402A0917502B09176029F
:1013D000892B8A2B8B2B09F48ACF0E942001209124
:1013E0007302309174024091750250917602641933
:1013F000750986099709261737074807590708F01E
:1014000076CF809172020E94100300E010921F02BA
:1014100000931E02602E712C68147904E1F530E00F
:1014200020E026153705A0F5D60111968D919C91E7
:10143000DC01ED91FC910284F385E02D099521E01A
:1014400030E0E82EEECF3092BC00A0CF8091730246
:1014500090917402A0917502B0917602892B8A2B2B
:101460008B2B09F497CF0E942001209173023091B9
:1014700074024091750250917602641975098609CB
:101480009709261737074807590708F083CFB9CFC0
:10149000672809F41BCFF12CEE0CEF2CEE1CFF0893
:1014A000EF2809F4A6C04BE050E061E770E0FE01D0
:1014B00031967F01CF010E94240DCE010A960E9431
:1014C000FD07082FE981E154E33118F50E2E000CD9
:1014D000FF0BE359F54F0C94B10D3D0B890A890AB6
:1014E000510B890A530B890A890A890A800A890AD9
:1014F000890A440B4F0B4D0B890A890A890A4B0B49
:101500008A8111E0813629F08B8116E08E3609F050
:1015100017E0CE0105960E94FD07D82E48E050E066
:1015200068E670E0C7010E94240DC7010E94FD0714
:10153000C82ECE0104960E94FD07B82ECE01079654
:101540000E94FD07382F86E0D7011D928A95E9F7A2
:101550002AE0832F622F0E94A50D982F880F890FF4
:10156000880F830F8A838B2D0E94A50D982F880FDB
:10157000890F880F8B0D8B838C2D0E94A50D982FC2
:10158000880F890F880F8C0D8C838D2D0E94A50DDF
:10159000982F880F890F880F8D0D8E83812F0E94C1
:1015A000A50D982F990F890F880F180F1F83802F73
:1015B0000E94A50D982F880F890F880F800F8887AC
:1015C0008091400290914102FC01248135812830B4
:1015D000310578F0208131E0309377022093990231
:1015E0001092780210929A0248E050E0B7010E94EF
:1015F000210461E08DE00E94C10060E08CE00E9467
:10160000C10081E591E00E9406058BE691E00E9411
:1016100006059BEC492E90E0592E27EB622E20E028
:10162000722E33EAC32E30E0D32E40E0A42E40E0E9
:10163000B42EF2018491F3011491F6010491002378
:10164000A1F181110E949800E02FF0E0EE0FFF1F42
:10165000E358FF4FA591B4918C91182331F10E946A
:101660001D050E944501A114B10419F30E9428022E
:101670008823F9F20E940000DCCF8B8114E08237CE
:1016800009F447CF18E045CF8B8113E0823709F486
:1016900040CF15E03ECF19E03CCF1AE03ACF1BE037
:1016A00038CF1CE036CF12E034CF6CE271E08AE430
:1016B00093E00E94E9051C8A1B8A1E8A1D8A188EE7
:1016C0001F8A4AE0BE016F5F7F4F83ED94E00E9466
:1016D0002D0DBE016F5F7F4FCE0143960E94E9053D
:1016E0008091620390916303009709F452C06B8963
:1016F0007C896115710509F44AC0409164035091D9
:1017000065032F89388D4217530708F440C00E94A3
:10171000B60F8F89988D9093670380936603188E18
:101720001F8ACE0143960E943B050E9445018BE92A
:1017300092E00E941C02181619060CF0B7C06CE269
:1017400071E0CE014F960E94F3050E94CE0197FDF5
:1017500037C08A309105A1F189831A820BA11CA19F
:101760000F5F1F4FB801CE014F960E94A00588233E
:1017700061F32F8D38A18BA19CA1BE016F5F7F4FBC
:10178000820F931F0E94B60F1CA30BA3DECF0E94F3
:10179000530E8B899C8990936303809362038D8998
:1017A0009E8990936503809364038F89988D9093AD
:1017B0006703809366031C8A1B8A1E8A1D8AAFCF2B
:1017C0001A8E198E1C8E1B8E1E8E1D8E6F8D78A10B
:1017D0006115710531F04BA15CA1CE0149960E94C3
:1017E000C805CE0149960E9443058D8C9E8CE98CDC
:1017F000FA8C8114910471F06DE370E0C7010E94CE
:10180000A20F009739F08C010E191F090F3F100726
:1018100009F078C0E114F10409F46AC0A401B70129
:1018200088E693E00E94C80562E871E0CE01019667
:101830000E94F30500916C0310916D03E090680322
:10184000F0906903E114F10409F457C00115110582
:10185000B9F08D819E81080F191FB801CE01019644
:101860000E94A005882309F448C029813A818D810E
:101870009E81B701820F931F0E94B60F1E830D83B6
:101880004D815E8169817A818BE992E00E947E01BF
:101890000E94FE04CE0101960E943B05CE014996AE
:1018A0000E943B05CE014F960E943B0520916603A6
:1018B0003091670380916C0390916D03281739076D
:1018C00009F0D1CE80916203909163036091680327
:1018D00070916903009709F48AC06115710509F0D8
:1018E00083C0232B09F491C0FC01808190E08AC061
:1018F00088E693E00E94290597CFCE0101960E94C9
:101900002905BECF6CE271E0CE0143960E94F3053B
:101910008D8D9E8D0097D9F078018017910708F47E
:101920007C01E98DFA8DEE0DFF1D90801082698D8E
:101930007A8DCE0143966115710509F44FC00E945E
:10194000E905898D9A8DE80EF91ED7019C920F5FEB
:101950001F4F8D8C9E8C8016910628F0982D892D16
:101960004801092F182F6CE271E0CE0101960E9408
:10197000F305ED8CFE8C8E149F04D8F40E151F0514
:1019800008F47801E98DFA8DEE0DFF1D10811082AB
:10199000698D7A8D680D791DCE01019661157105ED
:1019A00001F10E94E905898D9A8DE80EF91EF70173
:1019B0001083CE0143960E944305CE0101960E94FA
:1019C000430585E991E00E940605CE0101960E943B
:1019D0003B05CE0143960E943B0560CF0E9429053E
:1019E000B0CF0E942905DFCF0E94AD0F0BC061155B
:1019F000710559F0232B49F0DB018C9190E0919512
:101A000081959109892B09F02ECE0E941D052BCEC0
:101A100084E493E00E943B058AE493E00E943B0546
:101A200080E593E00E943B0586E593E00E943B053C
:101A30008CE593E00E943B0582E693E00E943B0523
:101A400088E693E00C943B05FB01DC0102C00590A5
:101A50000D9241505040D8F70895BB274A3031F4D9
:101A6000992322F4BDE2909581959F4F0C94390DF6
:101A7000BB27FB015527AA27880F991FAA1FA41768
:101A800010F0A41B83955051B9F7A05DAA3308F05C
:101A9000A95DA193009779F7B111B1931192CB0190
:101AA0000C945B0D91110C946B0D803219F08950E0
:101AB0008550C8F70895DC01FC01672F71917723E9
:101AC000E1F7329704C07C916D9370836291AE17F9
:101AD000BF07C8F308959927882708952F923F924A
:101AE0004F925F926F927F928F929F92AF92BF922E
:101AF000CF92DF92EF92FF920F931F93CF93DF93DA
:101B0000CDB7DEB7CA1BDB0B0FB6F894DEBF0FBE36
:101B1000CDBF09942A88398848885F846E847D8483
:101B20008C849B84AA84B984C884DF80EE80FD8085
:101B30000C811B81AA81B981CE0FD11D0FB6F894FB
:101B4000DEBF0FBECDBFED010895991B79E004C043
:101B5000991F961708F0961B881F7A95C9F78095EC
:101B60000895EE0FFF1F0590F491E02D09940F9357
:101B70001F93CF93DF938230910510F482E090E0C1
:101B8000E0917003F091710330E020E0B0E0A0E05C
:101B9000309799F42115310509F44AC0281B390BF7
:101BA00024303105D8F58A819B816115710589F151
:101BB000FB0193838283FE0111C040815181028128
:101BC000138148175907E0F04817590799F41097FF
:101BD00061F012960C93129713961C933296CF01D4
:101BE000DF91CF911F910F9108950093700310938F
:101BF0007103F4CF2115310551F04217530738F026
:101C0000A901DB019A01BD01DF01F801C1CFEF019C
:101C1000F9CF9093710380937003CDCFFE01E20F53
:101C2000F31F819391932250310939832883D7CFB1
:101C300020916E0330916F03232B41F42091020118
:101C40003091030130936F0320936E0320910001C4
:101C5000309101012115310541F42DB73EB7409176
:101C6000040150910501241B350BE0916E03F091A6
:101C70006F03E217F307A0F42E1B3F0B2817390759
:101C800078F0AC014E5F5F4F2417350748F04E0FD8
:101C90005F1F50936F0340936E03819391939FCF87
:101CA000F0E0E0E09CCFCF93DF930097E9F0FC01F8
:101CB000329713821282A0917003B0917103ED01EB
:101CC00030E020E01097A1F420813181820F931F32
:101CD00020916E0330916F032817390709F061C016
:101CE000F0936F03E0936E03DF91CF910895EA01C3
:101CF000CE17DF07E8F54A815B819E01411551054A
:101D0000B1F7E901FB83EA8349915991C40FD51FCB
:101D1000EC17FD0761F4808191810296840F951F75
:101D2000E90199838883828193819B838A83F0E090
:101D3000E0E012968D919C9113970097B9F52D9143
:101D40003C911197CD010296820F931F20916E0353
:101D500030916F032817390739F6309751F51092F3
:101D6000710310927003B0936F03A0936E03BCCF06
:101D7000D383C28340815181840F951FC817D9072F
:101D800061F44E5F5F4F88819981480F591F5183DD
:101D900040838A819B81938382832115310509F0D9
:101DA000B0CFF0937103E09370039ECFFD01DC018F
:101DB000C0CF13821282D7CFB0E0A0E0E2EEFEE007
:101DC0000C94700D8C01009751F4CB010E94B70D5B
:101DD0008C01C801CDB7DEB7E0E10C948C0DFC019D
:101DE000E60FF71F9C0122503109E217F30708F4B0
:101DF0009DC0D901CD91DC911197C617D70798F0F6
:101E0000C530D10530F3CE0104978617970708F344
:101E1000C61BD70B2297C193D1936D937C93CF01AF
:101E20000E94530ED6CF5B01AC1ABD0A4C018C0E3A
:101E30009D1EA0917003B0917103512C412CF12C87
:101E4000E12C109731F580916E0390916F03881506
:101E5000990509F05CC04616570608F058C08091F5
:101E6000000190910101009741F48DB79EB7409118
:101E7000040150910501841B950BE817F90708F040
:101E800055C0F0936F03E0936E03F9017183608393
:101E9000A0CF8D919C91119712966C9012971396EA
:101EA0007C901397A815B90559F56C0142E0C40E52
:101EB000D11CCA14DB0420F1AC014A195B09DA0118
:101EC0001296159780F06282738251834083D90104
:101ED0006D937C93E114F10471F0D7011396FC9398
:101EE000EE93129776CF22968C0F9D1FF901918366
:101EF0008083F301EFCFF0937103E093700369CF18
:101F00004816590608F42C017D01D3019ACFCB0164
:101F10000E94B70D7C01009749F0AE01B8010E9404
:101F2000990FC8010E94530E870153CF10E000E0C3
:101F300050CFFB01DC0102C001900D924150504096
:101F4000D8F70895FC018191861721F08823D9F7ED
:101F5000992708953197CF010895FB01DC018D91F8
:101F6000019080190110D9F3990B0895FB01DC0150
:101F700001900D920020E1F7089510E0CDE6D0E049
:101F800004C0FE010E94B10D2196CE36D107C9F7DB
:041F9000F894FFCFF3
:101F9400000072038000000000005E027E01AB01BD
:101FA400AB021C02BA010E0200000000CC049F0424
:101FB400FB0475049804850476040D0A005B414310
:101FC40043494F4E5D2050756572746120444553FA
:101FD400424C4F515545414441004E6F20525443A9
:101FE400005B414343494F4E5D20507565727461F7
:101FF40020424C4F515545414441002D2D2D205038
:10200400524F4C4F434B2053595354454D202D2D83
:102014002D005B494E5055545D20526563696269D9
:10202400646F3A20005B4552524F525D204E6F2040
:10203400686179207661726961626C657320676C8E
:102044006F62616C6573206D6F6469666963616258
:102054006C657320656E20657374652070726F679C
:0620640072616D612E00A7
:00000001FF
